:10000000F8FF0220990100002DA9000031A800008E
:1000100031A8000031A8000031A8000031A800007C
:1000200031A8000031A8000031A800002DA900006F
:100030002DA9000031A8000039470000C14500008B
:100040002DA900002DA900002DA900002DA9000058
:100050002DA900002DA900002DA900002DA9000048
:100060002DA900002DA900002DA900002DA9000038
:100070002DA900002DA900002DA900002DA9000028
:100080002DA900002DA900002DA900002DA9000018
:100090002DA900002DA900002DA900002DA9000008
:1000A0002DA900002DA900002DA900002DA90000F8
:1000B0002DA900002DA900002DA90000397600000F
:1000C0002DA9000061A700002DA900003D490000F6
:1000D0002DA90000A14800002DA900002DA90000B5
:1000E0002DA900002DA900002DA900002DA90000B8
:1000F0002DA900002DA900002DA900002DA90000A8
:100100002DA900002DA900002DA900002DA9000097
:100110002DA90000D17900002DA900002DA9000013
:100120002DA900002DA900002DA900002DA9000077
:100130002DA900002DA900002DA900002DA9000067
:100140002DA900002DA90000054800002DA90000E0
:10015000714700002DA900002DA900002DA9000065
:100160002DA900002DA900002DA900002DA9000037
:100170002DA900002DA900002DA900002DA9000027
:100180002DA900002DA900002DA900002DA9000017
:100190002DA900002DA9000008B55D4B4CF220529E
:1001A0001A804DF628121A8000BF00BF102223F8D3
:1001B0000E2CA3F51F43DE3B4FF030621A60554A08
:1001C0009A60554ADA60554B4FF470021A60544AEF
:1001D000136813F4807304D152490B604FF4A85391
:1001E0001360514B1A78100703D51A7842F00802B1
:1001F0001A704E4B4E492A221A704E4A4E4B8B4271
:1002000004D252F8040F43F8040BF8E74B4B4C4967
:1002100000228B4202D243F8042BFAE749494A4AAA
:10022000002352F8230041F823000133662BF8D154
:10023000464B474A802103F8011B9342FBD1454BB3
:10024000404A1A60444B8A221A70A3F58053242234
:100250005A70A0221A709A799107FCD59A79D20621
:10026000FCD43E4A937903F00C03082B3B4BF9D1A5
:1002700003221A7146225A719A799406FCD5374A9C
:100280009179364B4806FBD5354A4FF082711160A3
:100290000921516020221A709A7902F00C020C2A6E
:1002A000FAD1304B304A1A60304B314A1A60002480
:1002B00007225C6043F8042C2E4AC3F80C2D62B66A
:1002C00005F0B0FA174B1A68D1070AD52A4A2B490C
:1002D0001C60146042F8041C10221A60284A294944
:1002E0001160294A127852060ED52549254A086818
:1002F000904209D12048214C00221A60026040F847
:10030000044C102018600A600AF0AAFC00F0AEF855
:100310000E200540823F04000100002B88ED00E024
:1003200010D0034014D0034002D0074000E0074043
:100330009C0EFF1FBC2B0100F806FF1F9C0EFF1F29
:1003400034A700200002FF1F0000000000E400E0CE
:1003500056E400E008ED00E0005006400040064092
:100360004480044004800440C010050014E000E014
:10037000BFD401000000202004D00340ED33CC5D49
:100380001CE00340A5C3945A00F00740FFFFFFFFA5
:10039000FFFFFFFFFFFFFFFFFFFFFFFFFFFFFFFF6D
:1003A000FFFFFFFFFFFFFFFFFFFFFFFFFFFFFFFF5D
:1003B000FFFFFFFFFFFFFFFFFFFFFFFFFFFFFFFF4D
:1003C000FFFFFFFFFFFFFFFFFFFFFFFFFFFFFFFF3D
:1003D000FFFFFFFFFFFFFFFFFFFFFFFFFFFFFFFF2D
:1003E000FFFFFFFFFFFFFFFFFFFFFFFFFFFFFFFF1D
:1003F000FFFFFFFFFFFFFFFFFFFFFFFFFFFFFFFF0D
:10040000FFFFFFFFFFFFFFFFFFFFFFFFDEF9FFFF23
:1004100010B5054C237833B9044B13B10448AFF33E
:1004200000800123237010BD9C0EFF1F0000000000
:10043000C02B0100084B10B51BB108490848AFF3A9
:1004400000800848036803B910BD074B002BFBD0A0
:10045000BDE81040184700BF00000000A00EFF1FBD
:10046000C02B01009C0EFF1F000000002DE98048FA
:100470000025C94C87B029462120257008F056F880
:10048000C64B93F80032DBB2012B01F0C383C44B9F
:10049000C44E02931F4601216160252226231320AA
:1004A00012213D6032707370F27133723075717564
:1004B0000021172008F03AF800211C2008F036F837
:1004C0000021092008F032F800210F2008F02EF852
:1004D0000021272008F02AF800210A2008F026F839
:1004E00000210B2008F022F800210C2008F01EF853
:1004F0000021232008F01AF80021032008F016F844
:100500000021042008F012F800211A2008F00EF84B
:1005100000211B2008F00AF80021162008F006F838
:100520000021022008F002F800210E2007F0FEFF53
:100530000021072007F0FAFF0021082007F0F6FF4E
:100540000021062007F0F2FF0021142007F0EEFF43
:100550000021152007F0EAFF0021052007F0E6FF43
:100560000121102007F0E2FF1120012107F0DEFF3A
:100570003078C0B23F2802D8012107F0D7FF707849
:10058000C0B23F2802D8012107F0D0FF01211F206F
:1005900007F0CCFF0121202007F0C8FF01211D201A
:1005A00007F0C4FF01211E2007F0C0FF0021182022
:1005B00007F0BCFF0021222007F0B8FF01210D2029
:1005C00007F0B4FF0121212007F0B0FF0121242012
:1005D00007F0ACFF0021084607F0A8FF01210846FC
:1005E00007F0A4FF307DC0B23F2802D8012107F0F8
:1005F0009DFF707DC0B23F2802D8002107F096FF12
:1006000009F0C0FB684B694820221A60029B1B68F6
:1006100013F0FF0F14BF664B664B4FF080721A60E9
:10062000654A664B4FF400754FF400310560116068
:100630001A68520141F1E9821B689B014CBF0123FA
:100640000223237272B6257AEDB2042D01F0F482F2
:100650005B49172006F094FA59491C2006F090FADD
:100660005749092006F08CFA55490F2006F088FA00
:100670005349272006F084FA51490A2006F080FAEF
:100680004F490B2006F07CFA4D490C2006F078FA11
:100690004B49232006F074FA4949032006F070FA0A
:1006A0004749042006F06CFA45491A2006F068FA1A
:1006B00043491B2006F064FA4149162006F060FA0F
:1006C00062B608F041FD002008F0AEF8237A042B52
:1006D00008D0B37D022B05D13A4809F001F93A4818
:1006E00009F0FEF8277A2C4DFFB2012F01F050825D
:1006F0002B7A022B01F06E822B7A032B334B01F005
:1007000063821A4601932B7A02F5ED630393237AF1
:10071000042B68D0F27D234B012A64D0597E019DC1
:100720009A7E2B4B05EB810105EB8202D1F8740B0D
:10073000D2F8CC5B42081344B3FBF0F007F0A0FE04
:10074000244B9A7805F0030302F0EC0213436F0781
:10075000204A05F00F0148BF43F0100304299370AD
:1007600003D1937943F0400393711A4B194A5B7993
:10077000E80603F0EF0348BF43F01003537192798A
:10078000144B02F0EF02A90648BF42F010029A7122
:10079000EA0528D520E000BFB80EFF1F6020FE4309
:1007A000B809FF1FD407FF1F88F00F4084F00F40E7
:1007B00004F10F4008F10F4044F00F4010F10F40DA
:1007C000E51C0000F4D2000000D3000038AE0000A9
:1007D000001C4E0E00A006405A781978D2B241F0A3
:1007E000200119705A704FF4FA6007F0D9FE012306
:1007F0002370237A042B01D009F008F8C34FDFF8E7
:100800002C93DFF82CA3B046237A042B00F0B2819E
:10081000002598F81730012B3BD0BD4B1A783B7858
:10082000D2B2DBB29A4238BF4032D31A003318BF7B
:100830000123002B3CD098F81730012B00F04781A2
:10084000B34B1A783B78DBB29A4200F04B8301330A
:100850003F2B86BF00221346DAB2234493F82C6064
:100860003A7006F07F06E36EB3F57A7F80F244813A
:100870009AF87030002B00F0F780019B1E4496F828
:10088000F03B002BC5D08AF8705098F81730012B38
:10089000C3D1A04B1A68A04B9B88002AC6D01188F0
:1008A00052888A1A1344003318BF0123002BC2D187
:1008B00094F86C34002B4FD198F81830974A012BDC
:1008C00007D0537D964A52F8333093F80032002B0C
:1008D00042D1944B1B68002B3EDD4FF0000B8F4D37
:1008E0005E4616E007F060FDD4F870340133B3F5CE
:1008F0007A7F4FF0FF30C4F87034A8BFCAF8706434
:100900000AF012F9874B1B68002B4FF0010B40F3E4
:100910002F85D4F87034234493F8740498F8173072
:10092000012B00F07F0000F04E8298F81730012B69
:1009300000F0598294F8743094F87520DBB2D2B28A
:1009400093422CBF3F3202F1FF32D31A002BC9DC95
:10095000BBF1000F40F00C85734B1B68002BC8BF28
:10096000002511DC1AE0DAF85C380133632B4FF014
:10097000FF30CAF85C38C8BFCAF85C580AF0E0F823
:10098000694B1B68002B09DDD4F85C3804EB83034A
:10099000D3F8600808F0A4FF0028E4D1237A012BE3
:1009A00000F007835D4E4AF6C77BE36E002B40F3F1
:1009B000CA80D9F800305B4500F3C580DAF8F03919
:1009C000534493F88450DAF8F0390133B3F57A7F61
:1009D000CAF8F039A4BF0023CAF8F039E36E013B2E
:1009E000E366E36E322BEDB20BDC9AF8733043B161
:1009F00098F82130022B00F0B581337E032B00F0F4
:100A0000D6810D2D04D000230A2D84F8F53902D0AB
:100A1000002384F8F439226952F83530013B0F2B5A
:100A2000C3D801A151F823F0B50C0000070C000059
:100A3000C10C00008D0C0000610C00002B0C0000AC
:100A4000AB0900005B0D0000030D00000F0D00005E
:100A5000FF0B0000F70B0000310C0000DB0C000066
:100A6000FF0B0000F70B000098F81B30DBB2012BE6
:100A700046D094F87130002B5CD00D2E8AF871505E
:100A80003FF4C7AEE26E40F2ED239A420CDD9AF8D5
:100A900073304BB998F82120204B022A00F056827F
:100AA0001A7E032A00F07A82D4F88030234483F837
:100AB0008460D4F880300133B3F57A7FC4F8803095
:100AC000A8BFCAF88050E36E0133E366A1E6114B7C
:100AD0001868002800F0F18143880288C1180133AA
:100AE00093420E7A80F089814380E36EB3F57A7F7A
:100AF00006F07F06FFF6BCAE022009F065FAD7E6E5
:100B00001B2EB6D18AF8703083E600BF7AA500208C
:100B100079A5002088A500208CA50020D407FF1F00
:100B2000A029010094A5002098A500209CA50020E4
:100B3000B80EFF1F9AF87220002AA3D00A2E8AF856
:100B400072309FD165E62378022B00F0B1822378C2
:100B5000032B00F06C822378042B0BD19AF8F63922
:100B6000002B40F01B87DAF8FC39CAF80C3001235F
:100B70008AF80030B14BB14A1B78002B7FF444AEA9
:100B8000AF49137009783B78AE4B1B78AE4B1B789E
:100B9000AE4B1B78AE4B1B78AE4B1B78AE4B1B7825
:100BA000AE4B1B78AE4B1B78AE4B1B78AE4B1B7815
:100BB000EFF30583002B7FF427AEEFF3108272B6BC
:100BC000AA4B18681D46002800F0E286A84BA84EE4
:100BD0001B78002B40F0DC864169296001253570C7
:100BE00001B18B6102B962B60025836845779847E9
:100BF0009F4B1D7008E6002384F86C34D3E6012374
:100C000084F86C34CFE6A37D019AE260002B40F0BB
:100C10004981E37D002B40F09980237E2BB99548D4
:100C200008F05EFE01238AF8183001236376BAE6E5
:100C300098F81F30012B00F0DC80F37F022B00F0CE
:100C40005B81F37F032B04D094F8F539002B40F03F
:100C5000D080894808F044FE002384F8F539A2E6E4
:100C6000A37D864AE260002B40F0E180E37D002B0B
:100C700040F0D680237E002BD7D0814808F030FE8C
:100C800000238AF81830012363768CE6A37D7D4A21
:100C9000E260002B40F0BD8098F81D50EDB2012DB0
:100CA000E8D1E37D002BE5D1774808F019FE8AF8FA
:100CB0001750DFE702EBC505686808F011FE72E621
:100CC000A37D724AE260002BE6D1A2F1180008F081
:100CD00007FE01238AF81630DEE798F81F30012B53
:100CE00000F0E780F37F022B00F0FE80F37F032B00
:100CF00000F0FE80012384F8F539002384F8F439EC
:100D000051E60222012388F81E2063764BE6019B00
:100D1000E3605F4B0025012084F8F65984F8F75909
:100D200084F8F8591D6084F8735084F86C5409F005
:100D300059F8A37D002B3FF46CAF564808F0D0FD66
:100D40008AF81650E37D002B3FF467AF4E4808F059
:100D5000C7FD00238AF817305FE7012388F81E30AB
:100D6000637620E69AF81500F37D012BC0B200F0FF
:100D7000C7809AF874309AF87520DBB2D2B29342E9
:100D80002CBF3F3202F1FF32D31A002B0ADD07F0ED
:100D90000BFB98F81730DBB2012B00F0BC8000236E
:100DA00084F8733098F81830032B7FF42AAE337D23
:100DB000394ADBB2012152F83320002382F8801037
:100DC00084F873301DE62B7F022B1DD02B7F032B65
:100DD0007FF4ABAD019B184498F8173090F8F00CF5
:100DE000012B7FF4A7AD06F097FC01283FF47CAD02
:100DF000AEE52A4808F074FD2EE706F099FD284B71
:100E000006F07F061D602EE5019B184490F8700CDB
:100E10008BE5204808F064FD00238AF816303BE794
:100E2000194808F05DFD00238AF8173022E71948B9
:100E300008F056FD00238AF8163017E7681BFF1FDD
:100E400079A5002008A5002009A50020191AFF1F78
:100E50001A1AFF1FA919FF1FAA19FF1F3919FF1F0F
:100E60003A19FF1FC818FF1FC918FF1F7CA50020D3
:100E700080A50020A0B9000004D200009CCA000098
:100E800028C3000034C30000B4BB0000C0BB000096
:100E900030A70020A8BB0000A0290100E408010041
:100EA00088A50020744808F01BFD00238AF816303E
:100EB000AFE6724808F014FD1FE7A37E93B172B647
:100EC000DAF8240040B16E4B02889B884168CAF86A
:100ED00024109B1A6A4A938062B66A4B18600028F5
:100EE0007FF4FAAD7F26BEE494F8F439002BE0D00D
:100EF000654808F0F5FC00E7012384F8F439ABE617
:100F000006F00AFC01287FF44DAF98F81730DBB2E9
:100F1000012B7FF444AFA27E002A3FF440AFDAF801
:100F200078208AF87630002A00F0F6850023518870
:100F30008AF87C3010461180049304F039FC049B3D
:100F4000CAF87830002384F8763028E79AF814003D
:100F5000DB7D012BC0B200F09E859AF874309AF8C0
:100F60007520DBB2D2B293422CBF3F3202F1FF3286
:100F7000D31A002B0CDD07F017FA98F817B05FFAB8
:100F80008BFBBBF1010F00F09385012384F87330D4
:100F900098F818203D4B032A7FF486AD1B7D3C4A10
:100FA000DBB252F83320012382F8003184F8733029
:100FB0007AE59AF81930002B3FF4F4AC354B1B68F6
:100FC000002B3FF7D7ADD9F80030002B3FF7D2AD5B
:100FD000314B1B68012B7FF4CDAD304B1B680C2BC4
:100FE0003FF6C8AD2E4B1B680C2B3FF6C3AD98F8EF
:100FF0001730012B00F082859AF874309AF875202A
:10100000DBB2D2B293422CBF3F3202F1FF32D31A8D
:10101000002B7FF7AFAD682007F0C6F998F817509E
:10102000EDB2012D00F08E8500236376BAE49AF8C4
:10103000F639002B00F0668200238AF8003008F0B1
:1010400083F8012007F0F0FB164A20231360029B6F
:101050001B6813F0FF0F08BF134A4FF0807314BFD3
:10106000D367136009F0B4FD01231048237007F023
:10107000EBFA08F0CBFB6EE5A8BB000010D2000035
:101080008CA5002088A50020E4080100D407FF1FDC
:10109000A029010098A50020581BFF1F5C1BFF1F03
:1010A000601BFF1F88F00F4008F10F4060D5000063
:1010B0009AF8F639002B40F096849AF81630002BF7
:1010C00040F0D884E37D002B40F0CF84237E002BBA
:1010D00040F0C684C04808F003FCBF4808F000FC9C
:1010E000BE4807F0B1FABC4808F0FAFBBA4808F06D
:1010F000F7FB09F05BFA732800F0F280642800F037
:101100003181652800F03181632840F05181B24877
:1011100008F0E6FBB24808F0E3FBB14808F0E0FB5A
:10112000B04808F0DDFBB04808F0DAFBAF4808F043
:10113000D7FBAF4808F0D4FBAE4808F0D1FBAE486F
:1011400008F0CEFBAD4808F0CBFBAD4808F0C8FB7B
:10115000AC4808F0C5FBAC4808F0C2FBAB4808F04F
:10116000BFFBAB4808F0BCFBAA4808F0B9FBAA4893
:1011700008F0B6FBA94808F0B3FBA94808F0B0FB9B
:10118000A84808F0ADFBA84808F0AAFBA74808F05B
:10119000A7FBA74808F0A4FBA64808F0A1FBA648B7
:1011A00008F09EFBA54808F09BFBA54808F098FBBB
:1011B000A44808F095FBA44808F092FB884808F082
:1011C0008FFBA24808F08CFBA14808F089FBA148DE
:1011D00008F086FBA04808F083FBA04808F080FBDD
:1011E0009F4808F07DFB9F4808F07AFB9E4808F076
:1011F00077FB9E4808F074FB9D4808F071FB784827
:1012000008F06EFB9B4808F06BFB9B4808F068FBFE
:101210009A4808F065FB9A4808F062FB994808F084
:101220005FFB994808F05CFB984808F059FB984828
:1012300008F056FB974808F053FB974808F050FB1E
:10124000674808F04DFB954808F04AFB944808F0C1
:1012500047FB944808F044FB934808F041FB93484F
:1012600008F03EFB924808F03BFB924808F038FB40
:10127000914808F035FB914808F032FB904808F09F
:101280002FFB904808F02CFB554808F029FB8E48AE
:1012900008F026FB524808F023FB8C4808F020FB9E
:1012A0008B4808F01DFB8B4808F01AFB8A4808F0B1
:1012B00017FB4B4808F014FB884808F011FB48481E
:1012C00008F00EFB864808F00BFB434808F008FBCB
:1012D000414808F005FB09F069F973287FF40EAF67
:1012E0003D4898F81650DFF818B27E4E08F0F8FA2C
:1012F00098F820107C4809F06DF888F820009BF8D9
:1013000000107A4809F066F88BF8000098F816107B
:10131000774809F05FF888F8160098F81E107548AD
:1013200009F058F888F81E0098F81D10724809F066
:1013300051F80346284888F81D3008F0D1FA6F4864
:10134000EDB204F06BF9002840F04982224808F021
:10135000C7FA98F816309D423FF4CBAE012008F052
:1013600041FDC6E605F01AF8C3E604F023FDC0E629
:1013700098F81750EDB2012D7FF4EEAAA37E002B52
:101380003FF4EAAADAF878608AF87650002E00F086
:10139000D083002573888AF87C503046338004F06F
:1013A00007FACAF87850002384F87630FFF7D4BAE9
:1013B000A37D002B40F06B83E37D002B40F0638323
:1013C000237E002B40F05B83D4F8FC39E3600123DB
:1013D0002370FFF7BCBB00BFE408010090D50000FC
:1013E0001CFC000094020100880201007C02010044
:1013F0007002010064020100580201004C02010069
:101400004002010034020100280201001C02010018
:101410001002010004020100F8010100EC010100CA
:10142000E0010100A8080100D4010100C801010089
:10143000BC010100B0010100B4080100A4010100D9
:10144000980101008C010100800101001CD2000004
:101450003C030100300301002403010018030100D4
:101460000C03010000030100CC080100F40201009C
:10147000D808010028D2000034D2000040D2000079
:101480004CD2000058D2000064D2000070D200009C
:101490007CD2000088D2000094D20000CC0301006E
:1014A0009C03010090030100780301006003010028
:1014B0008403010048030100C40201005403010039
:1014C0006C030100A0020100A0D20000ACD2000019
:1014D000B8D20000C4D20000D0D20000DCD200009C
:1014E000E8D20000D407FF1FBCD50000CCD5000017
:1014F000DCD50000F0D5000000D600000CD60000BE
:10150000B409FF1FC14808F0EBF9C04808F0E8F93A
:10151000BF4807F099F8BD4808F0E2F9BB4808F069
:10152000DFF909F043F8732800F04981642800F0DE
:101530004981652800F04981632840F04981B3481A
:1015400008F0CEF9B34808F0CBF9B24808F0C8F972
:10155000B14808F0C5F9B14808F0C2F9B04808F040
:10156000BFF9B04808F0BCF9AF4808F0B9F9AF4886
:1015700008F0B6F9AE4808F0B3F9AE4808F0B0F993
:10158000AD4808F0ADF9AD4808F0AAF9AC4808F04C
:10159000A7F9AC4808F0A4F9AB4808F0A1F9AB48AA
:1015A00008F09EF9AA4808F09BF9AA4808F098F9B3
:1015B000A94808F095F9A94808F092F9A84808F058
:1015C0008FF9A84808F08CF9A74808F089F9A748CE
:1015D00008F086F9A64808F083F9A64808F080F9D3
:1015E000A54808F07DF9A54808F07AF9894808F07F
:1015F00077F9A34808F074F9A24808F071F9A248F5
:1016000008F06EF9A14808F06BF9A14808F068F9F4
:10161000A04808F065F9A04808F062F99F4808F072
:101620005FF99F4808F05CF99E4808F059F99E4818
:1016300008F056F99D4808F053F99D4808F050F914
:101640009C4808F04DF99C4808F04AF99B4808F07E
:1016500047F99B4808F044F99A4808F041F99A483C
:1016600008F03EF9994808F03BF9994808F038F934
:10167000984808F035F9984808F032F9974808F08A
:101680002FF9974808F02CF9964808F029F95F4897
:1016900008F026F95F4808F023F95E4808F020F9C1
:1016A000914808F01DF9914808F01AF9904808F09F
:1016B00017F9904808F014F98F4808F011F98F488D
:1016C00008F00EF98E4808F00BF98E4808F008F97A
:1016D0008D4808F005F98D4808F002F94D4808F0EA
:1016E000FFF88B4808F0FCF88A4808F0F9F88A48B7
:1016F00008F0F6F8894808F0F3F8894808F0F0F89F
:10170000884808F0EDF8884808F0EAF8874808F0BB
:10171000E7F8874808F0E4F8864808F0E1F88648DA
:1017200008F0DEF8854808F0DBF8854808F0D8F8BE
:10173000844808F0D5F8844808F0D2F8834808F0C7
:10174000CFF8834808F0CCF8824808F0C9F88248FE
:1017500008F0C6F8814808F0C3F8814808F0C0F8DE
:101760002C4808F0BDF87F4808F0BAF87E4808F029
:10177000B7F87E4808F0B4F87D4808F0B1F87D4825
:1017800008F0AEF87C4808F0ABF87C4808F0A8F800
:101790007B4808F0A5F87B4808F0A2F87A4808F0E2
:1017A0009FF87A4808F09CF8184808F099F817480C
:1017B00008F096F808F0FAFE73287FF4B7AE01F04F
:1017C000F5F8AEE604F0EAFDABE604F0F3FAA8E6BD
:1017D000D4F8FC39E36001232370FFF7BCB996F815
:1017E0002010022004F04AFA9BF80010032004F0B5
:1017F00045FAB17D042004F041FAB17F0A2004F0DB
:101800003DFA717F0B2004F039FA9FE5E4080100EE
:101810001CD600001CFC000094020100880201009C
:101820007C02010070020100640201005802010004
:101830004C020100400201003402010028020100B4
:101840001C0201001002010004020100F801010065
:10185000EC010100E0010100A8080100D401010031
:10186000C8010100BC010100B0010100B408010081
:10187000A4010100980101008C0101008001010018
:101880002C010100200101001401010008010100E8
:10189000FC000100F0000100E4000100D80001009C
:1018A000CC000100C0000100B4000100A80001004C
:1018B0009C000100900001008400010078000100FC
:1018C0006C000100600001005400010048000100AC
:1018D0003C0001003000010024000100180001005C
:1018E0000C00010000000100C00801003C030100E1
:1018F0003003010024030100180301000C03010060
:1019000000030100CC080100F4020100D808010026
:10191000F0030100E4030100D8030100CC0301003F
:10192000C0030100B4030100A80301009C030100EF
:101930009003010084030100780301006C0301009F
:10194000600301005403010048030100E8020100A4
:10195000DC020100D0020100C4020100B802010053
:10196000AC020100A0020100740101006801010045
:101970005C01010050010100440101003801010037
:10198000F4FF0000E8FF0000DCFF0000D0FF0000D3
:10199000002A7EF439AF62B6FEF736BF00238AF81C
:1019A000003007F0D1FB012006F03EFFC14AC248DB
:1019B00020231360029B1B6813F0FF0F08BFBF4A70
:1019C0004FF0807314BFD36713600123237006F0B8
:1019D0003BFE07F01BFFBA4BB94A1B78002B7EF485
:1019E00013AFFFF7CDB800238AF8003007F0ACFB47
:1019F000012006F019FFAF4A20231360029B1B68E9
:101A000013F0FF0F08BFAD4A4FF0807314BFD367C8
:101A10001360A37D002B6DD1E37D002B60D1237E6D
:101A2000002B63D10125019988F8175025232375D0
:101A300026220023E160A34803996275216188F89A
:101A40001850A375E3752376637607F049FF9A482B
:101A50002576257006F0F8FD07F0D8FEFFF777B879
:101A6000994807F03DFFFFF735BB984807F038FF6E
:101A7000FFF72CBB964807F033FFFFF723BB9148D5
:101A800007F02EFFA0E4914807F02AFF98E4904861
:101A900007F026FF90E405F03FFE01287FF478AAC6
:101AA00098F817B05FFA8BFBBBF1010F7FF46DAABA
:101AB000A37E002B3FF469AADAF878308AF876B072
:101AC000002B00F091805A888AF87C5018461A80C2
:101AD00003F06EFECAF8785084F87650FFF755BAD6
:101AE0007A4807F0FDFE237E002B9BD0764807F056
:101AF000F7FE97E7764807F0F3FE8DE7682005F0DC
:101B00000BFE01283FF48AAA6D4B6D4A1B78002B0F
:101B10007EF47AAEFFF734B80493059205F0E8FE40
:101B2000049B38B3059A8AF87C2003F041FEFFF746
:101B300009BA05F0DDFE002860D08AF87C6003F069
:101B400037FE30E4A37E002B3FF46EAADAF878600B
:101B50008AF8765096B1002573888AF87C50304612
:101B6000338003F025FECAF87850002384F87630DD
:101B7000FFF75ABA8AF87C30FFF7E4B905F0B8FEEF
:101B8000002800F093808AF87C6003F011FEECE7F7
:101B9000504BF77518462521297500F5ED61039125
:101BA0000146019326220023E96000F6683003997C
:101BB0006A7529613776AB75EB752B766B7607F016
:101BC0008FFE2F76FEF7A3BD019303F5ED6303931C
:101BD000FEF79DBD3F4B01931D4608F0F9FF05F54B
:101BE000ED630393FEF793BD049305F081FE48B1C6
:101BF000049B8AF87C3003F0DBFD6DE78AF87C50AB
:101C0000FFF7D1BB8AF87CB066E71B680423237218
:101C1000FEF718BD304A314E656017461321029217
:101C20002525122226203B6031707270F1713272CC
:101C300035757075FEF73CBC2949172004F0A0FFEC
:101C400027491C2004F09CFF2549092004F098FF37
:101C500023490F2004F094FF2149272004F090FF2E
:101C60001F490A2004F08CFF1D490B2004F088FF57
:101C70001B490C2004F084FF1949232004F080FF45
:101C80001749032004F07CFF2846154904F078FF2B
:101C900013491A2004F074FF11491B2004F070FF4F
:101CA0000F49162004F06CFFFEF70ABD8AF87C503D
:101CB0005BE700BF88F00F4060D5000008F10F40DF
:101CC000681BFF1FA0B9000028C30000B4BB0000C0
:101CD000A8BB000038AE0000B809FF1FD407FF1FE3
:101CE00015AA0000AD4B1B78002B00F01B812DE9DD
:101CF000F04FAB4BAB4A1B6889B00793079B13604F
:101D00004FF44873013BFDD1A74BA849D3F800B06D
:101D1000D1F800A01A68D3F80090D1F80080D3F869
:101D200000C0D3F800E01F681E680868A04C01924C
:101D3000054608680290086809681A68039205F465
:101D4000805522680492019A0195029D00F480401A
:101D500005F4005502950590049D03980BF0040BC3
:101D60000AF4803A02F0080209F0010908F4003888
:101D70000CF0100C0EF0400E07F0800706F4807691
:101D800001F4004100F002003DB91B685D0702D577
:101D900009B0BDE8F08F0E232360BBF1000F40F0C7
:101DA0008480BAF1000F00F0838023680E2B00F0CE
:101DB00007817F4B1B68012B00F00281002A00F095
:101DC000B280B9F1000F00F04981B8F1000F00F0C6
:101DD0008481BCF1000F00F0D381BEF1000F00F050
:101DE0000382002F00F06082002E00F01E83019B12
:101DF000002B00F06F83029B002B00F0D583059B26
:101E0000002B00F0B982002940F0C282002800F0C7
:101E10006F842268664B0C2A03D01B680D2B40F0A0
:101E2000BA822268624B0C2AB2D10D251D6007F0E0
:101E3000A9FF284607F066FC5E4C5A4BD4F80421F3
:101E40001B689A4203D84121022006F09DFC554BA5
:101E5000D4F808211B689A4203D842210E2006F0CC
:101E600093FC504BD4F814211B689A4203D84521A7
:101E7000142006F089FC4B4BD4F81C111A684D480D
:101E8000914285D84C4A1268120640F154844B4A5C
:101E900092F8471000293FF47BAF002182F84710E9
:101EA0001B680F33C0F81C3172E7BAF1000F85D1FF
:101EB000002A38D023683E4A012B03D01368022B36
:101EC0007FF47FAF23683A4A012B7FF461AF02258C
:101ED000156007F057FF284607F014FC354C314BCE
:101EE000A2681B689A4240F27A822E4B62691B6894
:101EF0009A4240F270822B4BE2691B689A4240F290
:101F00006582284B226A1B689A4240F25B82254B0D
:101F1000626A1B689A423FF63BAF0921052006F032
:101F200033FC35E77047B9F1000F00F09780236864
:101F30001F4A022B03D01368032B7FF446AF23689C
:101F40001B4A022B7FF424AF0325156007F01AFF0C
:101F5000284607F0D7FB174C124BA26A1B689A421F
:101F600040F250820F4BE26A1B689A4240F246826E
:101F70000C4B226B1B689A4240F23B82094B626B0E
:101F80001B689A4240F23082064BA26B1B689A4251
:101F90003FF6FEAE0E2004F0C7FDF9E6B80EFF1FB7
:101FA000641BFF1FF0A5002090F00F4010F00F40C1
:101FB000581BFF1FF4A50020D0F00F40A0A5002063
:101FC0002368A74A0E2B7FF4E3AE0124146007F0C8
:101FD000D9FE204607F096FBA24BA34C1870A34BEA
:101FE00022681B689A4273D9A04B62681B689A42A8
:101FF00069D99F4B9F4918689F4A0860116821B1B1
:102000009A4909681068091A1960984909681160A5
:102010001B68974A092B40F296801368192B7FF6AC
:10202000B7AE964B1B78012B7FF4B2AE944B1B7866
:10203000012B7FF4ADAE9349934A0B68934801336B
:102040000B60936801339360036813F0FF0F40F057
:1020500092808F4B4FF080721A6099E6B8F1000FB2
:102060003BD023687E4A032B03D01368042B7FF4F4
:10207000B0AE23687A4A032B7FF48AAE042515603C
:1020800007F080FE284607F03DFB774C774BE26B6C
:102090001B689A4240F2C481744B226C1B689A42BE
:1020A00040F2B981714BA26C1B689A4240F2AF8139
:1020B0006E4BA26D1B689A423FF66AAE1621052050
:1020C00007F030FE64E601210E2006F013FB90E7D6
:1020D0000021022006F00EFB86E7BCF1000F4FD076
:1020E00023685F4A042B03D01368052B7FF475AE79
:1020F00023685B4A042B7FF44BAE0524146007F081
:1021000041FE204607F0FEFA564A574B5070574A98
:10211000D86D116888423FF63BAE5E495E4809685B
:1021200011F0010FC17D40F01B8200297FF430AE19
:102130000121C1751268594D594855329E24DA65FE
:102140002970046024E64D4B1B78012B7FF420AEF0
:102150004B4B1B78012B7FF41BAE4A494A4A0B6854
:102160004A4801330B60536801335360036813F02E
:10217000FF0F3FF46EAF4B4B4FF080721A6007E6D3
:10218000BEF1000F30D02368354A052B03D0136809
:10219000062B7FF426AE2368314A052B7FF4F8AD79
:1021A0000625156007F0EEFD284607F0ABFA2E4C29
:1021B0002E4B226E1B689A4240F23C822B4B626E81
:1021C0001B689A4240F23282284BA26E1B689A42E8
:1021D00040F23582254BE26E1B689A423FF6D8AD3D
:1021E0001B2004F0A1FCD3E5002F5DD023681C4A1E
:1021F000062B03D01368072B7FF4F6AD2368184A2B
:10220000062B7FF4C5AD0725156007F0BBFD2846FA
:1022100007F078FA144C154B226F1B689A4203D8CA
:102220001C210E2007F07EFD104B626F1B689A4246
:1022300002D81D2008F0A4FC0C4BA26F1B689A4228
:1022400003D81E21062007F06DFD084BE26F1B68C6
:102250009A423FF69DAD1F2004F066FC98E500BF52
:10226000581BFF1FB818FF1FF4A50020F0A5002081
:102270005C1BFF1F601BFF1FAC1DFF1FB80EFF1F65
:10228000B409FF1F201BFF1F401BFF1FBC0EFF1FB9
:1022900008F10F40D0F00F40A0A50020B018FF1F9C
:1022A00030A7002004F10F40002E00F0BE8022680D
:1022B000B54B072A03D01B68082B7FF498AD236821
:1022C000B14A072B7FF464AD0825156007F05AFD6D
:1022D000284607F017FAAD4CAD4BD4F880201B68A8
:1022E0009A4203D82021022007F01CFDA84BD4F805
:1022F00084201B689A4203D821210E2007F012FD8A
:10230000A34BD4F888201B689A4203D822210720C7
:1023100007F008FD9E4BD4F88C201B689A4202D827
:10232000232008F02DFC9A4BD4F890201B689A4289
:1023300003D82421062007F0F5FC954BD4F894200F
:102340001B689A4203D82521142007F0EBFC904B20
:10235000D4F898201B689A4202D8262004F0E4FBA7
:102360008B4BD4F89C201B689A423FF611AD272175
:10237000052007F0D7FC0BE500293FF447AD2268A4
:10238000814B0B2A00F060811B680C2B00F05C81F4
:10239000002800F0AD81BBF1000F40F0B481BAF12C
:1023A000000F00F0B0817B4C2378002B00F0AB8154
:1023B00007F0E8FC2278784B53F83230012283F89A
:1023C0008020E5E4082004F0AFFBA0E507211420FD
:1023D00007F0A8FC95E5052008F0D2FB8BE529461F
:1023E000284606F0D1F980E50D21142007F09AFC6B
:1023F000CAE50C21062007F095FCBFE50B2008F08C
:10240000BFFBB5E50A210E2007F08CFCAAE51220DF
:1024100008F0B6FB4CE610210E2007F083FC41E6E5
:102420000F21022006F0B0F936E6019B002B51D0B7
:102430002268554B082A03D01B68092B7FF4DBACBC
:102440002268514B082A7FF4A3AC09251D6007F0D0
:1024500099FC284607F056F94C4C4D4BD4F8A02077
:102460001B689A4240F26E82494BD4F8A4201B6844
:102470009A4240F26282464BD4F8A8201B689A42E6
:1024800040F25682424BD4F8AC201B689A4240F28C
:102490004B823F4BD4F8B0201B689A4240F26582D1
:1024A0003B4BD4F8B4201B689A4240F25982384B17
:1024B000D4F8B8201B689A4240F24982344BD4F8D1
:1024C000BC201B689A423FF663AC2F21052007F021
:1024D00029FC5DE4029B002B66D022682A4B092A66
:1024E00003D01B680A2B7FF48AAC2268264B092A8A
:1024F0007FF44EAC0A251D6007F044FC284607F027
:1025000001F9224C224BD4F8C0201B689A4240F2B9
:102510003F821F4BD4F8C4201B689A4240F233829A
:102520001B4BD4F8C8201B689A4240F22882184BF3
:10253000D4F8CC201B689A4240F21C82144BD4F889
:10254000D0201B689A4240F20682114BD4F8D42066
:102550001B689A423FF61CAC352004F0E5FA17E4FC
:1025600000293FF415AC0021C17512680B4D0C4CCD
:102570000C480F32DA65297023788B4214BF4F2341
:102580000B46036004E400BF581BFF1FF4A50020A6
:10259000F0A50020B818FF1FA0290100B018FF1FE8
:1025A000AE18FF1F30A70020059B002B3FF4E4AEC0
:1025B0002268BC4B0A2A03D01B680B2B7FF423AC88
:1025C0002268B84B0A2A7FF4E3AB0B251D6007F0A5
:1025D000D9FB284607F096F8B34CB44BD4F8D82072
:1025E0001B689A4203D836210E2007F09BFBAF4BA5
:1025F000D4F8DC201B689A4202D8372008F0C0FAD1
:10260000AA4BD4F8E0201B689A4203D83821062050
:1026100007F088FBA54BD4F8E4201B689A423FF6EC
:10262000B7AB392004F080FAFFF7B2BB192008F0ED
:10263000A7FAC9E518210E2007F074FBBEE51A21A0
:10264000062007F06FFBC5E52268964B0B2A7FF446
:102650009FAB0C251D6007F095FB284607F052F84C
:10266000914C924BD4F8E8201B689A4203D83A2147
:10267000022007F057FB8D4BD4F8EC201B689A42E0
:1026800003D83B21072007F04DFB884BD4F8F020FE
:102690001B689A4202D83C2008F072FA834BD4F8A7
:1026A000F4201B689A4203D83D21062007F03AFB2C
:1026B0007E4BD4F8F8201B689A4203D83E211420A0
:1026C00007F030FB794BD4F8FC201B689A4202D803
:1026D0003F2004F029FA754BD4F800211B689A4278
:1026E0003FF656AB4021052007F01CFBFFF750BB1F
:1026F000BBF1000F3FF453AE22686A4B0D2A38D06D
:102700001B680E2B35D0B8F1000F40F08B80BCF168
:10271000000F00F08780664C6378002B00F0828009
:1027200007F030FB6278634B53F83230012283F8B4
:102730008020FFF72DBB604A92F84710002940F037
:10274000D580012182F8471019685C4C9631C0F899
:102750001C111B6803F5FA73C4F81C31937D002B20
:1027600040F09780564B1868473006F0DDFDFFF7C4
:102770000FBB22684B4B0D2A7FF40AAB0E251D6060
:1027800007F000FB284606F0BDFF474C474BD4F846
:1027900020211B689A4203D84821022007F0C2FA80
:1027A000424BD4F824111B683F4D404A994228D926
:1027B0003E4BD4F828211B689A4203D84A210720AF
:1027C00007F0B0FA394BD4F82C211B689A4202D892
:1027D0004B2008F0D5F9354BD4F830211B689A42CC
:1027E00003D84C21142007F09DFA304BD4F8342143
:1027F0001B689A423FF6CCAA4D2004F095F9FFF7EA
:10280000C7BA304B1B689B0727D52B4B93F8491051
:102810000029CDD0002183F8491013680F33C5F883
:102820002431C5E707F0AEFA274B1B78012B7FF464
:10283000AFAA264B1B78012B7FF4AAAA2449254A6C
:102840000B68254801330B60D3680133D3600368FC
:1028500013F0FF0F3FF4FDAB8DE4174890F84930BB
:10286000002BA5D1012180F8491010681B4A553072
:10287000C5F82401107800284AD11948194B117065
:1028800001701A780E4B002A14BF9E224F221A6044
:102890008EE74FF0FF331448C4F81C3105F0ECFE0E
:1028A000FFF776BA581BFF1FF4A50020F0A5002003
:1028B000B818FF1FA0290100A0A50020701CFF1F51
:1028C00030A70020D0F00F40B80EFF1FB409FF1F43
:1028D000201BFF1F401BFF1FBC0EFF1FAF18FF1F59
:1028E000AE18FF1FB018FF1FA8D400002B4AD2F863
:1028F0001C01196888423FF64BAA1B6828496433BB
:10290000C2F81C310868473006F00EFDFFF740BAE8
:1029100024482549137003700A78214B002A14BFFC
:102920009E2200221A6043E72B2008F029F9B0E527
:102930002A21072007F0F6F9A4E529210E2007F047
:10294000F1F998E52821022007F0ECF98CE52E201A
:1029500004F0EAF8B2E53421142007F0E3F9F4E5D5
:102960002D21142007F0DEF9A1E52C21062007F027
:10297000D9F995E53321062007F0D4F9DEE53220B8
:1029800008F0FEF8D3E53121072007F0CBF9C7E5C1
:1029900030210E2007F0C6F9BBE500BF701CFF1FF9
:1029A00030A70020AE18FF1FB018FF1F2DE9F04F11
:1029B0009C4B9D481E789D4B1D789D4B1C789D4BD4
:1029C00019789D4B1A789D4B1B788FB0D2B2C9B243
:1029D000DBB2E4B2F6B2EDB206920494059107932D
:1029E0000396029506F07CFF954B9648197807F000
:1029F000F1FC934B1870944B9448197807F0EAFC5B
:102A0000914B1870874B9248197807F0E3FC854B7F
:102A10001870864B8F481B78DBB21C469B4606F02D
:102A20005FFF8C4806F05CFF8B4805F00DFE012C23
:102A30000CBF8A488A4805F007FE804B1B783F2B65
:102A40000CDDDFF84C92D9F800303F2B06DC8148D2
:102A500006F046FFD9F800303F2BF8DD814CDFF857
:102A600034A2DFF83492804E804D2368002B41D190
:102A700072B6DAF80030D9F80070326862B65001E8
:102A800002D5322B88BF0137C3F5EA33BF334FF489
:102A90007A72A5FB031302FB07F707EB93174FF0BE
:102AA0000A0872B6DAF80010D9F80020D6F800E06B
:102AB00062B6C1F5EA33BF33A5FB03031EF0806F96
:102AC000C7EB93134FF47A7002D0322988BF0132DA
:102AD00000FB0233B3F57A7F05D3B8F10108C4D007
:102AE00007F57A77DDE7624B1B78002BD9D107F029
:102AF0003DFFD6E75F4B5F4A1B685F495948CF5C93
:102B000013680133632B1360FFB2C8BF00234FF07B
:102B1000FF31C8BF136007F07FFA07F0DF03552BC2
:102B200001F06E83522B01F067830D2F9DD15B4620
:102B3000012B01F06583514805F086FD3B4B45486C
:102B400083F800B04E4B1B78DBB21D469B4606F067
:102B5000C7FE404806F0C4FE4A4805F075FD012D49
:102B60000CBF4948494805F06FFD344B1B783F2B9B
:102B70000CDDDFF81C91D9F800303F2B06DC35481E
:102B800006F0AEFED9F800303F2BF8DDDFF804A1E7
:102B9000DFF80491344E354D2368002B7ED172B698
:102BA000DAF80030D9F80070326862B6510102D507
:102BB000322B88BF0137C3F5EA33BF334FF47A7243
:102BC000A5FB031302FB07F707EB93174FF00A0867
:102BD00072B6DAF80010D9F80020D6F800E062B634
:102BE000C1F5EA33BF33A5FB03031EF0806FC7EBCB
:102BF00093134FF47A7002D0322988BF013200FB60
:102C00000233B3F57A7F05D3B8F10108C4D007F5D4
:102C10007A77DDE7164B1B78002BD9D107F0A6FE9B
:102C2000D6E700BFEA07FF1FE4080100EB07FF1F1C
:102C3000F007FF1FED07FF1FEE07FF1FF807FF1F3D
:102C4000F407FF1FBCD50000B409FF1FCCD500005E
:102C5000DCD500001CFC000010F4000018F400009B
:102C600028F400008C1AFF1F04ED00E08988888892
:102C7000681BFF1F901AFF1F941AFF1F40F40000EB
:102C8000650AFF1F48F4000050F4000060F40000E3
:102C9000FC07FF1F18E000E0641BFF1FA84BA84AB9
:102CA0001B68A849A848CF5C13680133632B1360E5
:102CB000FFB2C8BF00234FF0FF31C8BF136007F059
:102CC000ABF907F0DF03482B01F08F82462B01F0B0
:102CD00088820D2F7FF460AF5B46012B01F0858267
:102CE0009A4805F0B1FC9A4B83F800B0994B1B78D9
:102CF000012B00F03282984B98481B78DBB21D46BE
:102D00009B4606F0EDFD954806F0EAFD944805F077
:102D10009BFC944805F098FC934A944B52F825206C
:102D200008921146A3FB0202D2081546099202EB53
:102D30008202A1EB4202084630320BA90F46D2B202
:102D400001924FF020320B9200917A60BA6000211C
:102D50009DF804208DF836208DF83710002D01F0F5
:102D60005682A3FB0512D20802EB8201804AA5EB32
:102D700041010646A2FB0002303152098DF83510A0
:102D800001F0E383A3FB0201C90801EB810079494B
:102D9000A2EB40023046A1FB0001303289098DF8D8
:102DA000342001F0CE83A3FB0102D20802EB8200A3
:102DB000714AA1EB40013046A2FB00023031520BB8
:102DC0008DF8331001F0B983A3FB0210C00800EBAB
:102DD00080006A49A2EB40007209A1FB0221303059
:102DE000C9098DF8320001F0A483A3FB0102D208C7
:102DF00002EB8200624AA1EB40013046A2FB0002D6
:102E00003031920C8DF8311001F08F83A3FB020159
:102E1000C90801EB81005B49A2EB40023046A1FBEF
:102E200000013032890D8DF8302001F07A83A3FB48
:102E30000102D20802EB8200534AA1EB4001A2FB3F
:102E400006523031520E8DF82F1001F06683A3FB2D
:102E50000213DB0803EB83034C49A2EB4303720A22
:102E60003033A1FB02128DF82E30D30901F05183CB
:102E700030338DF82D3001203B46184405F0E4FB3B
:102E8000434805F0E1FB434B1B783F2B0CDDDFF89B
:102E90001491D9F800303F2B06DC304806F020FDB5
:102EA000D9F800303F2BF8DDDFF8FCA0DFF8FC900C
:102EB000394E3A4D2368002B7AD172B6DAF80030D9
:102EC000D9F80070326862B6500102D5322B88BF43
:102ED0000137C3F5EA33BF334FF47A72A5FB03130E
:102EE00002FB07F707EB93174FF00A0872B6DAF800
:102EF0000010D9F80020D6F800E062B6C1F5EA3338
:102F0000BF33A5FB03031EF0806FC7EB93134FF491
:102F10007A7002D0322988BF013200FB0233B3F548
:102F20007A7F05D3B8F10108C4D007F57A77DDE7D9
:102F30001B4B1B78002BD9D107F018FDD6E700BF3B
:102F4000901AFF1F941AFF1F8C1AFF1F78F40000BD
:102F5000650AFF1FEB07FF1FED07FF1F1CFC0000AA
:102F6000DCF40000E8F40000ACB90000CDCCCCCC1F
:102F70001F85EB51D34D62105917B7D1C55A7C0A42
:102F800083DE1B436BCA5F6B893BE655834B0400B2
:102F900000290100F807FF1F04ED00E089888888F8
:102FA000681BFF1FFC07FF1F18E000E0641BFF1FEA
:102FB0009D4B9D4A1B689D499D48CF5C136801331A
:102FC000632B1360FFB2C8BF00234FF0FF31C8BFAF
:102FD000136007F021F8312F01F06F82322F01F0DA
:102FE0005C82332F01F0F180342F00F01987352FE8
:102FF00001F04D82372F01F04482392F01F02082F9
:103000000D2F7FF457AF00984FF020330B934360A0
:10301000836009989DF804308DF8363000228DF8D1
:103020003720002801F02A82824B089D824A0146FF
:10303000A3FB0113DB0803EB83032946A0EB430347
:10304000A2FB0112303352098DF8353001F01382A2
:10305000784B7A49A3FB0260C00800EB8000A2EB2A
:1030600040022846A1FB0001303289098DF8342046
:1030700001F0FE81A3FB0102D20802EB8200704A3C
:10308000A1EB40012846A2FB00023031520B8DF823
:10309000331001F0EA81A3FB0210C00800EB8000AE
:1030A0006849A2EB40006A09A1FB02213030C9093E
:1030B0008DF8320001F0D681A3FB0102D20802EBA9
:1030C0008200614AA1EB40012846A2FB0002303198
:1030D000920C8DF8311001F0C281A3FB0201C908E6
:1030E00001EB81005949A2EB40022846A1FB0001F7
:1030F0003032890D8DF8302001F0AE81A3FB010242
:10310000D20802EB8200524AA1EB40012846A2FB02
:1031100000523031520E8DF82F1001F09A81A3FB2E
:103120000213DB0803EB83034A49A2EB4302430A81
:10313000A1FB03133032DB098DF82E2001F08681CC
:1031400030338DF82D300120009B184405F07CFAB7
:10315000414806F0C5FB00F068BE404B40481B7874
:10316000DBB21D469B4606F0BBFB3D4806F0B8FBB4
:103170003C4805F069FA012D01F05D81022D0CBF7C
:1031800039483A4805F060FA394B1B783F2B00F379
:103190003786DFF8ECA0DFF8EC90364E364D23682A
:1031A000002B71D172B6DAF80030D9F800703268AD
:1031B00062B6520102D5322B88BF0137C3F5EA331C
:1031C000BF334FF47A72A5FB031302FB07F707EB3B
:1031D00093174FF00A0872B6DAF80010D9F80020F9
:1031E000D6F800E062B6C1F5EA33BF33A5FB0303AE
:1031F0001EF0806FC7EB93134FF47A7002D0322920
:1032000088BF013200FB0233B3F57A7F05D3B8F1F2
:103210000108C4D007F57A77DDE7184B1B78002B3F
:10322000D9D107F0A3FBD6E7901AFF1F941AFF1F0E
:103230008C1AFF1FCDCCCCCC1F85EB51D34D621027
:103240005917B7D1C55A7C0A83DE1B436BCA5F6B23
:10325000893BE655834B0400E4080100F007FF1F9B
:103260001CFC000080F400009CF40000B0F400009E
:10327000F807FF1F04ED00E089888888681BFF1F9E
:1032800018E000E0641BFF1F504B504A1B68504978
:103290005048CF5C13680133632B1360FFB2C8BF83
:1032A00000234FF0FF31C8BF136006F0B5FE07F0F2
:1032B000DF034E2B01F0B8804F2B01F0AB80452B84
:1032C00001F0A4800D2F7FF46AAF5B46012B01F063
:1032D000AB805B46022B01F09D803F4805F0B4F9BE
:1032E0003E4B83F800B00BAB00933D4B3D481B7841
:1032F000DBB21D469B4606F0F3FA3A4806F0F0FAB8
:10330000394805F0A1F9012D0CBF3848384805F0BF
:103310009BF9384B1B783F2B0CDDDFF8E890D9F890
:1033200000303F2B06DC2F4806F0DAFAD9F80030DF
:103330003F2BF8DDDFF8D0A0DFF8D0902E4E2F4DD8
:103340002368002B64D172B6DAF80030D9F8007027
:10335000326862B6510102D5322B88BF0137C3F5FE
:10336000EA33BF334FF47A72A5FB031302FB07F76E
:1033700007EB93174FF00A0872B6DAF80010D9F885
:103380000020D6F800E062B6C1F5EA33BF33A5FBF2
:1033900003031EF0806FC7EB93134FF47A7002D0D3
:1033A000322988BF013200FB0233B3F57A7F05D39F
:1033B000B8F10108C4D007F57A77DDE7104B1B7828
:1033C000002BD9D107F0D2FAD6E700BF901AFF1F21
:1033D000941AFF1F8C1AFF1FD4F40000F007FF1F80
:1033E000F507FF1F1CFC0000A0F60000B0F600006F
:1033F000C4F60000F807FF1F04ED00E08988888804
:10340000681BFF1FFC07FF1F18E000E0641BFF1F85
:10341000814B814A1B6881498148CF5C1368013325
:10342000632B1360FFB2C8BF00234FF0FF31C8BF4A
:10343000136006F0F1FD07F0DF034E2B00F0D98496
:10344000582B00F0CA840D2F7FF47AAF5B46012B16
:1034500000F0CF84734805F0F7F8734B83F800B0A1
:10346000724B1B78022B00F05E84714B7148197807
:1034700006F0B0FF6E4B18706F4B1B78012B6C4B36
:103480001B7800F06882022B6C4B0CBF6C4A6D4AB3
:103490001A606D4B6D48197806F09CFF6A4B1870E6
:1034A0006B4B6C48197806F0BFFD694B18706A4B7E
:1034B0006A48197806F0B8FD674B1870684B694880
:1034C000197806F087FF664B1870674B67481B78C2
:1034D000DBB21D46019306F003FA644806F000FAD9
:1034E000634805F0B1F8634805F0AEF8624B009F01
:1034F00083FB050292081046099202EB8202A5EBBB
:1035000042023032D2B21646089200214FF02032E9
:103510000B927A60BA608DF836608DF837100246EB
:10352000002800F05E8483FB02239B0803EB8303E7
:10353000524AA0EB43032946303382FB01128DF837
:103540003530530900F0518430338DF83430082081
:103550003B46184405F078F8494805F075F8424BA9
:103560001B783F2B0CDDDFF82891D9F800303F2B7A
:1035700006DC3E4806F0B4F9D9F800303F2BF8DD00
:10358000DFF810A1DFF810913E4E3F4D2368002B6D
:1035900040F0848072B6DAF80030D9F800703268F2
:1035A00062B6520102D5322B88BF0137C3F5EA3328
:1035B000BF334FF47A72A5FB031302FB07F707EB47
:1035C00093174FF00A0872B6DAF80010D9F8002005
:1035D000D6F800E062B6C1F5EA33BF33A5FB0303BA
:1035E0001EF0806FC7EB93134FF47A7002D032292C
:1035F00088BF013200FB0233B3F57A7F05D3B8F1FF
:103600000108C3D007F57A77DDE7204B1B78002B44
:10361000D9D107F0ABF9D6E7901AFF1F941AFF1F14
:103620008C1AFF1FD8F60000F507FF1FEB07FF1FDE
:10363000630AFF1F74F70000650AFF1FB418FF1F1D
:1036400040E50000A8EC0000660AFF1F84F70000B8
:10365000640AFF1F90F70000F307FF1FA8F70000A0
:10366000EF07FF1FBCF70000F807FF1F1CFC00005E
:10367000D4F70000E0F70000676666661F85EB512F
:103680000029010004ED00E089888888681BFF1F7D
:10369000FC07FF1F18E000E0641BFF1FB14BB14A9D
:1036A0001B68B149B14811F803B013680133632BAB
:1036B00013605FFA8BFBC8BF00234FF0FF31C8BF18
:1036C000136006F0A9FCABF13803012B40F29E8198
:1036D000BBF1310F00F01F82BBF10D0F7FF456AF2D
:1036E00000984FF020330B934360836009989DF856
:1036F00020308DF8363000228DF83720002800F079
:1037000090869B4B9B4A014683FB01139B0803EB6E
:1037100083030199A0EB4303303382FB01128DF840
:103720003530530900F06F8630338DF8343008207F
:10373000009B0344184604F087FF8F488F4D904C40
:1037400006F0CEF89DF804202A7021788D4806F006
:1037500041FE03468848237006F0C2F88A4801F00B
:103760005DFF002852D0894B0220197802F086FABA
:10377000874B0320197802F081FA864B04201978D0
:1037800002F07CFA844B1420197802F077FA834B0C
:103790001520197802F072FA814B1620197802F080
:1037A0006DFA804B1720197802F068FA7E4B1820CA
:1037B000197802F063FA7D4B1920197802F05EFA4D
:1037C0007B4B1A20197802F059FA7A4B212019788C
:1037D00002F054FA784B1B20197802F04FFA774B1D
:1037E0001C20197802F04AFA754B1F20197802F054
:1037F00045FA744B2020197802F040FA29781D20F0
:1038000002F03CFA21781E2002F038FA5A4806F0FD
:1038100067F8614B029A1B789A427DD06A496B4ADD
:1038200000230B701370029B012B27D0684B1B6881
:103830005E0523D5DFF8C481DFF8C4A1DFF8C4B189
:10384000DFF8C49198F80030002B00F0918599F8CA
:103850000030002BFBD15F4B5F4A604C60484FF05B
:1038600000411960002340F20311D3702160016010
:103870001179D2798AF800308BF80030464B1B78EA
:10388000012B3ED0464B574A1978574B52F821002E
:10389000454A44081178554A2344B3FBF0F052F8E6
:1038A000214004F0EDFD4C4B9A7804F0030302F044
:1038B000EC0213436507484A04F00F0148BF43F088
:1038C00010030429937000F04D85434B424A5B7905
:1038D000E00603F0EF0348BF43F010035371927901
:1038E0003D4B02F0EF02A10648BF42F010029A7170
:1038F000E20506D55A781978D2B241F02001197044
:103900005A70244B039A1B789A421CD0012006F06F
:1039100069FA0FB0BDE8F08F224B049A1B789A42E7
:103920007FF47CAF1E4B059A1B789A427FF476AFEA
:103930001D4B069A1B789A427FF470AF154B039A81
:103940001B789A42E2D10D4B079A1B789A42DDD13F
:103950000FB0BDE8F08F022B254B0CBF254A264A3D
:103960001A6096E5901AFF1F941AFF1F8C1AFF1F0A
:10397000676666661F85EB51E4080100F807FF1FC4
:10398000680AFF1FECF700000CD60000F407FF1FC9
:10399000B409FF1FEA07FF1FEB07FF1F650AFF1FA0
:1039A000ED07FF1FF007FF1FEE07FF1FF507FF1FC3
:1039B000EC07FF1F630AFF1F660AFF1F640AFF1F51
:1039C000F307FF1FEF07FF1F2B0FFF1F2413FF1F1E
:1039D0003480044080E100E000A0064040A00440A4
:1039E00044A00440ACB90000001C4E0E04BA000014
:1039F000B418FF1F70D60000D8DD0000681BFF1F41
:103A000079A500207AA50020AC1BFF1FA64B0093D0
:103A100003EBCB03ABF1300B0BEB8B0B58684FEA8E
:103A20004B0B5FFA8BF3019308B105F059FFDFF8F8
:103A300098A2DFF898929D4E9D4D2368002B41D1AE
:103A400072B6DAF80030D9F80070326862B6500108
:103A500002D5322B88BF0137C3F5EA33BF334FF4A9
:103A60007A72A5FB031302FB07F707EB93174FF0DE
:103A70000A0872B6DAF80010D9F80020D6F800E08B
:103A800062B6C1F5EA33BF33A5FB03031EF0806FB6
:103A9000C7EB93134FF47A7002D0322988BF0132FA
:103AA00000FB0233B3F57A7F05D3B8F10108C4D027
:103AB00007F57A77DDE77F4B1B78002BD9D106F02D
:103AC00055FFD6E77C4B7C4A1B687C497C4811F843
:103AD00003B013680133632B13605FFA8BFBC8BF1D
:103AE00000234FF0FF31C8BF136006F095FAABF129
:103AF0003003DBB2092BA0D8009A02EBCB0B019A62
:103B0000DBF804001A44D3B2019300283FF415AE49
:103B100005F0E6FE11E66B48DFF8ACA1DFF8AC91EA
:103B2000624E634D05F0DCFE2368002B41D172B676
:103B3000DAF80030D9F80070326862B6510102D567
:103B4000322B88BF0137C3F5EA33BF334FF47A72A3
:103B5000A5FB031302FB07F707EB93174FF00A08C7
:103B600072B6DAF80010D9F80020D6F800E062B694
:103B7000C1F5EA33BF33A5FB03031EF0806FC7EB2B
:103B800093134FF47A7002D0322988BF013200FBC0
:103B90000233B3F57A7F05D3B8F10108C4D007F535
:103BA0007A77DDE7434B1B78002BD9D106F0DEFE98
:103BB000D6E7414B404A1B684049414811F803B0E1
:103BC00013680133632B13605FFA8BFBC8BF0023BC
:103BD0004FF0FF31C8BF136006F01EFAABF130039F
:103BE000DAB2062AA0D8304A009203EB830302EB34
:103BF000CB0B5B00DBB2DBF80400089303F1640538
:103C0000EDB208B105F06CFEA02D0CBF35233923B1
:103C1000DFF8B4A0DFF8B490244E254D019323685B
:103C2000002B55D172B6DAF80030D9F8007032683E
:103C300062B6520102D5322B88BF0137C3F5EA3391
:103C4000BF334FF47A72A5FB031302FB07F707EBB0
:103C500093174FF00A0872B6DAF80010D9F800206E
:103C6000D6F800E062B6C1F5EA33BF33A5FB030323
:103C70001EF0806FC7EB93134FF47A7002D0322995
:103C800088BF013200FB0233B3F57A7F05D3B8F168
:103C90000108C4D007F57A77DDE7064B1B78002BC7
:103CA000D9D106F063FED6E71CF8000004ED00E071
:103CB00089888888681BFF1F901AFF1F941AFF1FAE
:103CC0008C1AFF1F3C03010018E000E0641BFF1F7B
:103CD000AC4BAC4A1B68AC49AC4811F803B0136854
:103CE0000133632B13605FFA8BFBC8BF00234FF0D7
:103CF000FF31C8BF136006F08FF9BBF12F0F8ED9CB
:103D0000019B9B458BDC009A0BF07F0302EBC30306
:103D1000089A5868343293445FFA8BF30193002871
:103D20007FF4F6AE09E59A4E9A48357805F0D8FD4D
:103D3000984805F0D5FDEDB2974804F085FC012DBB
:103D400000F00C83022D0CBF9448954804F07CFCD5
:103D5000944B1B783F2B32DCDFF8289202E00A20DC
:103D600004F01EFC2368002BF9D0864B864A1B68A2
:103D7000D75C844B834A1B680133632BFFB213600B
:103D800002DD0023C9F800304FF0FF317F4806F014
:103D900043F907F0DF034E2B00F09682522B00F020
:103DA00080820D2FDED1012D00F08E82022D0CBFFE
:103DB0007D487E4804F048FC3570FFF756BBDFF8BD
:103DC0002092D9F800303F2BC6DC724805F088FD00
:103DD000D9F800303F2BF8DDBEE702239B46FFF702
:103DE00039BB0A203B46FFF7B4BB09203B46FFF72F
:103DF000B0BB6F4804F028FC01239B46FFF72DBBA6
:103E0000DFF8DC91D9F800303F2B3FF7C2A96148B9
:103E100005F066FDD9F800303F2BF8DDFFF7B9B9A2
:103E2000644804F011FC0C239B46634B594883F80B
:103E300000B0624B1B78DBB21D469B4605F050FD7F
:103E4000544805F04DFD5E4804F0FEFB012D00F0E6
:103E5000B881022D00F02182032D00F01A82042D7A
:103E600000F01382052D00F00C82062D00F0058273
:103E7000072D0CBF5348544804F0E6FB494B1B7810
:103E80003F2B0CDDDFF85891D9F800303F2B06DCD2
:103E9000404805F025FDD9F800303F2BF8DDDFF86C
:103EA00044A1DFF84491494E494D2368002B41D18C
:103EB00072B6DAF80030D9F80070326862B6510193
:103EC00002D5322B88BF0137C3F5EA33BF334FF435
:103ED0007A72A5FB031302FB07F707EB93174FF06A
:103EE0000A0872B6DAF80010D9F80020D6F800E017
:103EF00062B6C1F5EA33BF33A5FB03031EF0806F42
:103F0000C7EB93134FF47A7002D0322988BF013285
:103F100000FB0233B3F57A7F05D3B8F10108C4D0B2
:103F200007F57A77DDE72B4B1B78002BD9D106F00C
:103F30001DFDD6E7134B134A1B6813491348CF5C8A
:103F400013680133632B1360FFB2C8BF00234FF027
:103F5000FF31C8BF136006F05FF8372F00F0C38051
:103F6000382F43D00D2FA0D11B4B53F82B0004F05A
:103F70006BFB1A4805F0B4FC104B83F800B0FFF758
:103F8000B4B900BF901AFF1F941AFF1F8C1AFF1FAD
:103F9000EC07FF1F1CFC0000E4F6000010F7000017
:103FA0002CF70000F807FF1F5CF7000068F700001F
:103FB000C4F4000030F50000ED07FF1FEE07FF1FFF
:103FC00050F5000044F600006CF6000004ED00E03F
:103FD00089888888681BFF1F4CD60000E408010010
:103FE000FC07FF1F18E000E0641BFF1FBD48DFF85F
:103FF00064A3DFF86493BC4EBC4D05F071FC2368EC
:10400000002B41D172B6DAF80030D9F8007032686E
:1040100062B6500102D5322B88BF0137C3F5EA33AF
:10402000BF334FF47A72A5FB031302FB07F707EBCC
:1040300093174FF00A0872B6DAF80010D9F800208A
:10404000D6F800E062B6C1F5EA33BF33A5FB03033F
:104050001EF0806FC7EB93134FF47A7002D03229B1
:1040600088BF013200FB0233B3F57A7F05D3B8F184
:104070000108C4D007F57A77DDE79D4B1B78002B4C
:10408000D9D106F073FCD6E79A4B9A491B689A4A35
:104090009A48D35C0A680132632ADFB20B46C8BF74
:1040A00000230A60C8BF0B604FF0FF3105F0B4FF7A
:1040B00007F0DF034E2B00F0BE804F2B00F0AB80EB
:1040C000452B9CD18E4805F00BFC02E0322800F015
:1040D000C88001F0FBFD3128F8D18A4804F0B4FA19
:1040E00005239B4648E78848DFF868A2DFF8689216
:1040F0007D4E7E4D05F0F4FB2368002B41D172B656
:10410000DAF80030D9F80070326862B6520102D590
:10411000322B88BF0137C3F5EA33BF334FF47A72CD
:10412000A5FB031302FB07F707EB93174FF00A08F1
:1041300072B6DAF80010D9F80020D6F800E062B6BE
:10414000C1F5EA33BF33A5FB03031EF0806FC7EB55
:1041500093134FF47A7002D0322988BF013200FBEA
:104160000233B3F57A7F05D3B8F10108C4D007F55F
:104170007A77DDE75E4B1B78002BD9D106F0F6FB92
:10418000D6E75C4B5B491B685B4A5C48D35C0A68BA
:104190000132632ADFB20B46C8BF00230A60C8BFE2
:1041A0000B604FF0FF3105F037FF07F0DF034F2BB7
:1041B00011D0452BA0D1554804F046FA02239B4666
:1041C000DAE6534804F040FA58E6524804F03CFA64
:1041D0000F239B4629E6504804F036FA01239B46FC
:1041E000CAE602239B46FEF77BBD4C4804F02CFA3E
:1041F00001239B46FEF777BD02239B46FEF79BBC3F
:10420000474804F021FA01239B46FEF797BC0A2099
:104210003B46FEF732BE434805F062FB01E0322820
:1042200019D001F053FD3128F9D1364804F00CFAC9
:1042300004239B46A0E63C4805F052FB01E03228EF
:1042400015D001F043FD3128F9D12E4804F0FCF9D6
:1042500003239B4690E6354804F0F6F907239B4676
:104260008AE6324804F0F0F908239B4684E62F489A
:1042700004F0EAF906239B467EE62D4804F0E4F9B3
:10428000FCE52C4804F0E0F9F8E52B4804F0DCF9F3
:10429000F4E52A4804F0D8F9F0E5294804F0D4F907
:1042A000ECE5284804F0D0F901E0522813D001F0E1
:1042B0000DFD00F0DF005328F7D12348022504F05C
:1042C000C3F93570FFF7D1B82048012504F0BCF9D7
:1042D0003570FFF7CAB81E48032504F0B5F93570EC
:1042E000FFF7C3B8F402010004ED00E08988888874
:1042F000681BFF1F901AFF1F941AFF1F8C1AFF1FC5
:10430000FC0001009CF60000CC08010098F60000BB
:1043100054F5000028F5000094F6000070F4000049
:1043200038F40000840001009000010044F4000013
:104330001CF60000F4F50000CCF50000A4F5000028
:104340007CF5000048F700004CF70000C4F40000C2
:1043500054F7000018E000E0641BFF1F7D4804F0E4
:1043600073F9F5E4937943F040039371FFF7ADBA25
:10437000794F7A4E7A4D7B4C7B4899F80020DFF8D4
:104380003CE202F0FF01002A36D09AF800309BF898
:104390000030764B1B78764B1B78764B1B78764B30
:1043A0001B783B7833782B78237803789EF800309D
:1043B000EFF305820123002ADFD188F80020EFF314
:1043C000108272B66D4E306810B16D4C25782DB1EB
:1043D000002A7FF437AA62B6FFF734BA4169237026
:1043E000316001B18D6102B962B6002545778368FD
:1043F00098472570FFF726BA002B3FF42CAA88F8BF
:104400000010FFF728BA0920FFF792B903239B4653
:10441000FEF763BF5B4804F017F902239B46FEF7E3
:104420005FBF0A20FFF784B9574804F00DF9012354
:104430009B46FEF755BF554804F006F9FEF7A4BEAB
:10444000534804F001F90D239B46EEE40220FEF7E9
:104450007BBE0320FEF778BE0420FEF775BE052064
:10446000FEF772BE0620FEF76FBE0720FEF76CBE99
:104470000820FEF769BE0920FEF766BE0A20FEF797
:1044800063BE444804F0E0F811239B46CDE4424863
:1044900004F0DAF810239B46C7E4404805F020FA00
:1044A00001E034281DD001F011FC3328F9D13C483B
:1044B00004F0CAF813239B46B7E43A4805F010FA13
:1044C00005E032281FD0382817D039280FD001F046
:1044D000FDFB3128F5D1344804F0B6F812239B4691
:1044E000A3E4324804F0B0F80B239B469DE4304827
:1044F00004F0AAF80E239B4697E42E4804F0A4F893
:104500000A239B4691E42C4804F09EF809239B461D
:104510008BE402203B46FEF7B0BC03203B46FEF78F
:10452000ACBC04203B46FEF7A8BC05203B46FEF78A
:10453000A4BC06203B46FEF7A0BC07203B46FEF786
:104540009CBC08203B46FEF798BC09203B46FEF782
:1045500094BC00BFF4F60000A919FF1FAA19FF1FA1
:104560003919FF1F3A19FF1FC818FF1F08A500209F
:1045700009A50020191AFF1F1A1AFF1F7CA5002089
:1045800080A50020CCF40000C4F4000088F40000F2
:1045900048F5000040F5000038F500003003010048
:1045A00018F500003C030100F8F4000020F50000BD
:1045B00010F5000008F5000000F50000C918FF1F05
:1045C0005B4A2DE9F0415B4D13682C6801331360A1
:1045D000002C31D02368002B2CD198462E46022780
:1045E00003E0346844B3236823BBA3680BB1C3F86A
:1045F0000C8020692B60036884F814801B682246B5
:10460000002198476368002BEBD0306823600028B6
:1046100000F0838001688B4245D2CB1AA060C4F8B9
:104620000C8034600360C46020462775044623680C
:10463000002BDAD0013B2360EFF3108372B6002227
:1046400068686A6003B962B600286BD04FF0000852
:104650002E68C4464FF0020E0EE0CB1A8660C0F8FA
:104660000CC001463360F0604FF0010880F814E0A0
:104670000E463846002F37D08768002E39D00368A1
:1046800031688B42E9D3344603E011688B4214460B
:104690001BD3A2685B1A0360002AF6D18260C46053
:1046A0003146A060E2E7864603E011688B429646F9
:1046B00025D3DEF808205B1A2360002AF5D1A2601A
:1046C000C4F80CE0CEF80840AFE7D268C26084605E
:1046D000E060C268CB1A314690600E46236080F8D5
:1046E00014E03846002FC7D1B8F1000F1CD1BDE847
:1046F000F0818660C66001464FF00108B6E7D268D7
:10470000E260C4F808E0CEF80C40E268CB1A94608E
:10471000CEF800302775044665E7A060E06034609D
:10472000204682E7BDE8F0812960BDE8F08100BF46
:10473000641BFF1FBC18FF1F38B5EFF3108272B661
:104740000A4CA06878B100254369A36003B19D615C
:1047500002B962B6457783689847EFF3108272B664
:10476000A0680028F0D102B962B638BDBC18FF1F9E
:1047700010B4224B1A7992060ED5214AD979137BAF
:10478000507B01333F2BC8BF00238342C9B203D003
:10479000D018DBB2017413731849CB78DBB21C0656
:1047A0000ED4590609D5154B1A79520605D5144968
:1047B00000202C2281F87C00DA705DF8044B7047F1
:1047C0000A791006EDD50E4A92F8504092F8510041
:1047D000C0B284420ED0411C272986BF002001466A
:1047E000C8B21144054C91F85410C9B2E17182F875
:1047F0005100D6E76C22CA70D3E700BF00B00E406C
:10480000BC18FF1F10B4244B1A79920612D5234A04
:10481000D97992F87D3092F87E0001333F2BC8BFE2
:1048200000238342C9B205D0D018DBB280F88010D3
:1048300082F87D301849CB78DBB21C060ED45906BD
:1048400009D5154B1A79520605D5144900202C229A
:1048500081F8EC00DA705DF8044B70470A791006B5
:10486000EDD50E4A92F8C04092F8C100C0B2844221
:104870000ED0411C272986BF00200146C8B2114432
:10488000054C91F8C410C9B2E17182F8C100D6E7B5
:104890006C22CA70D3E700BF00A00E40BC18FF1FF7
:1048A00010B4244B1A79920612D5234AD97992F87A
:1048B000ED3092F8EE0001333F2BC8BF0023834256
:1048C000C9B205D0D018DBB280F8F01082F8ED3014
:1048D0001849CB78DBB21C060ED4590609D5154B06
:1048E0001A79520605D5144900202C2281F85C0162
:1048F000DA705DF8044B70470A791006EDD50E4A60
:1049000092F8304192F83101C0B284420ED0411C7D
:10491000272986BF00200146C8B21144054C91F8F2
:104920003411C9B2E17182F83101D6E76C22CA7044
:10493000D3E700BF00D00640BC18FF1F10B4244BC3
:104940001A79920612D5234AD97992F85D3192F8F4
:104950005E0101333F2BC8BF00238342C9B205D09B
:10496000D018DBB280F8601182F85D311849CB783D
:10497000DBB21C060ED4590609D5154B1A7952061E
:1049800005D5144900202C2281F8CC01DA705DF89D
:10499000044B70470A791006EDD50E4A92F8A041F3
:1049A00092F8A101C0B284420ED0411C272986BFD3
:1049B00000200146C8B21144054C91F8A411C9B2B7
:1049C000E17182F8A101D6E76C22CA70D3E700BF7B
:1049D00000C00640BC18FF1F2DE9F04FB94BB94C81
:1049E0001A7801212170B84900238B60B74B1B68EE
:1049F00087B0D2B213F0FF0F0546019200F0448158
:104A0000B34B4FF080721A600A24284604F068FF06
:104A1000013CFAD1AF4FB04EDFF80093DFF800A3AE
:104A20003A6833689A423ED072B6AC4DAC4B1B68C4
:104A30002C68D9F8002062B6520102D5322B88BF0B
:104A40000134C3F5EA33BF334FF47A72AAFB031380
:104A500002FB04F4DFF88882DFF8C8B204EB931499
:104A60004FF47A70A64672B6D8F800102A68D9F8C2
:104A7000004062B6C1F5EA33BF33AAFB03C3640149
:104A8000CEEB931302D5322988BF013200FB0233EB
:104A9000B3F57A7FC4D29BF80030002BE3D1744683
:104AA00005F064FFDCE78F4B1B68012BBCD18E4BFC
:104AB0001B680C2BB8D88D4B1B680C2BB4D84FF44B
:104AC000FA6003F06DFD804B894D9C6884EAE472C6
:104AD000A2EBE47285FB0230D317C3EBA00000EB1E
:104AE00080010027A2EB41014FF020363031B8425F
:104AF000059603968DF8161004968DF8177040F3FE
:104B0000DE8085FB0016C117C1EBA60101EB810613
:104B10007849A0EB460081FB02613030D3EB611194
:104B20008DF8150000F0C98085FB0106C817C0EBA1
:104B3000A60000EB80067048A1EB460180FB0260F6
:104B40003031D3EBA0108DF8141000F0B48085FB49
:104B50000016C117C1EBA60101EB81066749A0EB66
:104B6000460081FB02613030D3EB21318DF8130018
:104B700000F09F8085FB0106C817C0EBA60000EB84
:104B800080065F48A1EB460180FB02603031D3EB29
:104B900060308DF8121000F08A8085FB0015C11777
:104BA000C1EBA505574905EB8505A0EB450081FB49
:104BB00002513030D3EBA1418DF8110075D04C4833
:104BC000514D80FB0167CE17C6EBA70606EB8606A4
:104BD000A1EB460185FB02653031D3EBA5558DF87D
:104BE000101060D080FB0516E917C1EBA60101EBA0
:104BF00081064649A5EB460581FB02613035D3EBC2
:104C000061618DF80F504CD080FB0156CD17C5EB7C
:104C1000A6053F4E05EB8505A1EB450186FB02523B
:104C20003031D3EB22738DF80E1038D080FB032087
:104C3000DA17C2EBA00202EB8202A3EB420330338D
:104C40008DF80D300023002C23DB05A803F0FCFCBD
:104C5000304804F045FE4FF4FA6003F0A1FC194A15
:104C60009DF804101170184A00239360174B1B68BD
:104C700013F0FF0F14BF164B274B4FF080722046E6
:104C80001A6007B0BDE8F08F234B4FF080721A60B6
:104C9000BAE606AA13442D2203F80C2CD5E701230B
:104CA000D1E70223CFE70323CDE70423CBE7052396
:104CB000C9E70623C7E70723C5E70823C3E7092396
:104CC000C1E700BFB409FF1F401BFF1FB809FF1F4A
:104CD00004F10F40501BFF1F541BFF1F641BFF1FDD
:104CE00018E000E0581BFF1F5C1BFF1F601BFF1F2D
:104CF000676666661F85EB51D34D6210AD8BDB682E
:104D000089B5F81483DE1B436BCA5F6B893BE6559C
:104D1000A12FB844E408010008F10F4004ED00E0C1
:104D200089888888681BFF1F2DE9F047804607C9DE
:104D300086B08DE80700AE4804F0D2FD019B002B41
:104D4000C0F20A816846FFF747FE09286C4640F327
:104D5000F080002425460126A64F08F1FF3818F8F8
:104D6000012F02F07F0307EBC3033AB15B681846DB
:104D7000002BF4D004F0B4FD0028F0D1DFF8A082BD
:104D80009C4F18F8012B02F07F0307EBC3033AB1E5
:104D90005B681846002BF4D004F0A2FD0028F0D187
:104DA000954FE31787FB0421C3EBA10101EB8102BF
:104DB000A4EB42024FF0203E30320020CDF814E048
:104DC000CDF80CE08DF81620CDF810E08DF8170026
:104DD000002900F0038187FB012ECA17C2EBAE0247
:104DE00002EB820E854AA1EB4E0182FB04E23031D8
:104DF000D3EB62128DF8151000F0ED8087FB021ED8
:104E0000D117C1EBAE0101EB810E7D49A2EB4E0241
:104E100081FB04E13032D3EBA1118DF8142000F0B6
:104E2000D78087FB012ECA17C2EBAE0202EB820EBF
:104E3000744AA1EB4E0182FB04E23031D3EB223203
:104E40008DF8131000F0C18087FB021ED117C1EB53
:104E5000AE0101EB810E6C49A2EB4E0281FB04E135
:104E60003032D3EB61318DF8122000F0AB8087FB3C
:104E7000012ECA17C2EBAE0202EB820E634AA1EB0F
:104E80004E0182FB04E23031D3EBA2428DF81110C7
:104E900000F0958087FB021ED117C1EBAE0101EB3C
:104EA000810E5B49A2EB4E0281FB04E13032D3EB71
:104EB000A1518DF810207FD087FB012ECA17C2EBBD
:104EC000AE0202EB820E534AA1EB4E0182FB04E2DA
:104ED0003031D3EB62628DF80F106AD087FB021776
:104EE000D117C1EBA7074C4907EB8707A2EB470295
:104EF00081FB04143032D3EB24738DF80E2055D08F
:104F000030338DF80D300123002D29DB013003AB48
:104F1000184403F099FB16B1404803F095FB344860
:104F200004F0DEFC4FF4FA6003F03AFB06B0BDE893
:104F3000F08700284FF0000519DD019B03F51C5395
:104F40001033204601350193FFF746FD78B1142D4B
:104F5000F3D12C460126FFE6002426462546FBE633
:104F600006AA02442D21981E02F80C1CCEE7A5F1DA
:104F7000140A42F20F7900E03D46019E002E05F131
:104F8000FF37A6F51C532DDD4E45CCBF103B00234B
:104F900020460193FFF720FD18BB5745ECD187EA67
:104FA000E774A4EBE7743D460126D5E60120022311
:104FB000AAE702200323A7E703200423A4E7042091
:104FC0000523A1E7052006239EE7062007239BE78C
:104FD0000720082398E70820092395E709200A23DA
:104FE00092E7019685EAE574A4EBE5740026B3E642
:104FF000E40801001CF80000676666661F85EB5137
:10500000D34D6210AD8BDB6889B5F81483DE1B438A
:105010006BCA5F6B893BE655A12FB8442804010099
:1050200034F400002DE9F047804607C986B08DE8CA
:105030000700AE4804F054FC019B002BC0F20A812B
:10504000684602F067F909286C4640F3F0800024B6
:1050500025460126A64F08F1FF3818F8012F02F067
:105060007F0307EBC3033AB15B681846002BF4D00B
:1050700004F036FC0028F0D1DFF8A0829C4F18F82D
:10508000012B02F07F0307EBC3033AB15B681846BC
:10509000002BF4D004F024FC0028F0D1954FE31746
:1050A00087FB0421C3EBA10101EB8102A4EB4202C7
:1050B0004FF0203E30320020CDF814E0CDF80CE067
:1050C0008DF81620CDF810E08DF81700002900F0BB
:1050D000038187FB012ECA17C2EBAE0202EB820EE0
:1050E000854AA1EB4E0182FB04E23031D3EB621220
:1050F0008DF8151000F0ED8087FB021ED117C1EB73
:10510000AE0101EB810E7D49A2EB4E0281FB04E171
:105110003032D3EBA1118DF8142000F0D78087FB3B
:10512000012ECA17C2EBAE0202EB820E744AA1EB4B
:105130004E0182FB04E23031D3EB22328DF81310A2
:1051400000F0C18087FB021ED117C1EBAE0101EB5D
:10515000810E6C49A2EB4E0281FB04E13032D3EBAD
:1051600061318DF8122000F0AB8087FB012ECA1749
:10517000C2EBAE0202EB820E634AA1EB4E0182FB50
:1051800004E23031D3EBA2428DF8111000F095808B
:1051900087FB021ED117C1EBAE0101EB810E5B490B
:1051A000A2EB4E0281FB04E13032D3EBA1518DF82A
:1051B00010207FD087FB012ECA17C2EBAE0202EB94
:1051C000820E534AA1EB4E0182FB04E23031D3EB55
:1051D00062628DF80F106AD087FB0217D117C1EBFE
:1051E000A7074C4907EB8707A2EB470281FB041492
:1051F0003032D3EB24738DF80E2055D030338DF838
:105200000D300123002D29DB013003AB184403F0DE
:105210001BFA16B1404803F017FA344804F060FB5B
:105220004FF4FA6003F0BCF906B0BDE8F08700283F
:105230004FF0000519DD019B03F51C531033204688
:105240000135019302F066F878B1142DF3D12C46A4
:105250000126FFE6002426462546FBE606AA024470
:105260002D21981E02F80C1CCEE7A5F1140A42F27B
:105270000F7900E03D46019E002E05F1FF37A6F5AF
:105280001C532DDD4E45CCBF103B0023204601931F
:1052900002F040F818BB5745ECD187EAE774A4EB5D
:1052A000E7743D460126D5E601200223AAE7022045
:1052B0000323A7E703200423A4E704200523A1E791
:1052C000052006239EE7062007239BE707200823E7
:1052D00098E70820092395E709200A2392E7019619
:1052E00085EAE574A4EBE5740026B3E6E408010062
:1052F0001CF80000676666661F85EB51D34D62108F
:10530000AD8BDB6889B5F81483DE1B436BCA5F6B1A
:10531000893BE655A12FB8442804010034F400006D
:105320002DE9F047804607C986B08DE80700AE48F2
:1053300004F0D6FA019B002BC0F20A81684601F006
:1053400057FE09286C4640F3F080002425460126CC
:10535000A64F08F1FF3818F8012F02F07F0307EB82
:10536000C3033AB15B681846002BF4D004F0B8FAD6
:105370000028F0D1DFF8A0829C4F18F8012B02F032
:105380007F0307EBC3033AB15B681846002BF4D0E8
:1053900004F0A6FA0028F0D1954FE31787FB04210B
:1053A000C3EBA10101EB8102A4EB42024FF0203ECE
:1053B00030320020CDF814E0CDF80CE08DF8162046
:1053C000CDF810E08DF81700002900F0038187FB6D
:1053D000012ECA17C2EBAE0202EB820E854AA1EB88
:1053E0004E0182FB04E23031D3EB62128DF81510CE
:1053F00000F0ED8087FB021ED117C1EBAE0101EB7F
:10540000810E7D49A2EB4E0281FB04E13032D3EBE9
:10541000A1118DF8142000F0D78087FB012ECA1748
:10542000C2EBAE0202EB820E744AA1EB4E0182FB8C
:1054300004E23031D3EB22328DF8131000F0C1803A
:1054400087FB021ED117C1EBAE0101EB810E6C4947
:10545000A2EB4E0281FB04E13032D3EB61318DF8D7
:10546000122000F0AB8087FB012ECA17C2EBAE0200
:1054700002EB820E634AA1EB4E0182FB04E2303163
:10548000D3EBA2428DF8111000F0958087FB021E2D
:10549000D117C1EBAE0101EB810E5B49A2EB4E02CD
:1054A00081FB04E13032D3EBA1518DF810207FD085
:1054B00087FB012ECA17C2EBAE0202EB820E534AE3
:1054C000A1EB4E0182FB04E23031D3EB62628DF836
:1054D0000F106AD087FB0217D117C1EBA7074C4901
:1054E00007EB8707A2EB470281FB04143032D3EBB2
:1054F00024738DF80E2055D030338DF80D300123F4
:10550000002D29DB013003AB184403F09DF816B1E0
:10551000404803F099F8344804F0E2F94FF4FA6097
:1055200003F03EF806B0BDE8F08700284FF0000514
:1055300019DD019B03F51C531033204601350193FF
:1055400001F056FD78B1142DF3D12C460126FFE66B
:10555000002426462546FBE606AA02442D21981E75
:1055600002F80C1CCEE7A5F1140A42F20F7900E014
:105570003D46019E002E05F1FF37A6F51C532DDD9B
:105580004E45CCBF103B00232046019301F030FD77
:1055900018BB5745ECD187EAE774A4EBE7743D46A6
:1055A0000126D5E601200223AAE702200323A7E76C
:1055B00003200423A4E704200523A1E705200623F4
:1055C0009EE7062007239BE70720082398E708208B
:1055D000092395E709200A2392E7019685EAE574F5
:1055E000A4EBE5740026B3E6E40801001CF8000013
:1055F000676666661F85EB51D34D6210AD8BDB6825
:1056000089B5F81483DE1B436BCA5F6B893BE65593
:10561000A12FB8442804010034F400002DE9F84F0C
:1056200004465648A0F5806504F05AF905F58060F7
:1056300004F056F9013C14F8012F02F07F0305EB4A
:10564000C3033AB15B681846002BF4D004F048F964
:105650000028F0D14A4C4B4802F0F6FF2378302B5B
:1056600008DD6368302B05DC444804F039F96368D1
:10567000302BF9DD444EDFF83091DFF83081434DB7
:105680003746D6F8D031002B41D172B6D9F8003068
:10569000D8F800402A6862B6520102D5322B88BF82
:1056A00001343B49C3F5EA33BF334FF47A72A1FBAF
:1056B000030302FB04F48B4604EB93144FF00A0A35
:1056C00072B6D9F80010D8F80020286862B6C1F583
:1056D000EA33BF33ABFB03E34001C4EB93134FF456
:1056E0007A7E02D5322988BF01320EFB0233B3F530
:1056F0007A7F05D3BAF1010AC3D004F57A74DFE7E3
:10570000244B1B78002BDBD105F030F9D8E7D7F814
:10571000D43121483B444FF0FF3193F8D841D7F8BA
:10572000D4310133632BC7F8D431E4B2C4BF0023B2
:10573000C7F8D43104F070FC04F0DF03592B17D004
:105740004E2B01D00D2C9CD1144C154D14F8012B6F
:1057500002F07F0305EBC3033AB15B681846002BE8
:10576000F4D004F0BDF80028F0D10020BDE8F88F97
:105770000C4802F069FF0120BDE8F88F1CFC000016
:10578000F807FF1F50040100BC18FF1F04ED00E0E4
:1057900089888888681BFF1F8C1AFF1F5C04010022
:1057A0001CF800006004010018E000E0641BFF1F0B
:1057B00072B6184A92F83F32032B1DD8DFE803F087
:1057C00016130219144B052182F83F12018813F0B9
:1057D000080F14BFC8228822083042EA01425860EC
:1057E0001A6062B6704702210C4BEDE703210A4BA9
:1057F000EAE70421094BE7E7D2F84C32054933B117
:10580000D1F85C325860C2F85C0262B67047C1F8E9
:105810004C02F8E7BC18FF1F9000FF1F9800FF1F05
:10582000704700BFB74BB848B849DFF838C34FF0EE
:1058300000622DE9F0411A604FF080521A604FF07B
:1058400000521A604FF080421A604FF000421A6016
:10585000AF4EDFF814E3AF4DAF4CB04FDFF80C8321
:105860000022026028234EF6FF70CCF80000CEF82C
:10587000003033600EF5012E0B602B60236005F5C0
:1058800000253B6004F50024B3628B6206F5012617
:1058900001F5012105F6E87504F6E87410361031BB
:1058A0000EF1100E07F501272B602360CEF80030B3
:1058B00033600B603B609A4FB3618B6109213960A3
:1058C000A6F5002607F58057203E0837326038607D
:1058D000B360FB6046F8041C07F5FD2706F5FE26BD
:1058E000043607F2FC773A603060BB60F36047F83B
:1058F000041C083707F6FC770CF56F3CC6F8FC2F44
:105900000CF2F93C3860AEF5FC2E2B602360A4F558
:10591000FC246023C6F8F81FAEF1140E88F800309E
:10592000083C07F5005706F54056E1238CF8003097
:1059300039211323043605F50055CEF800107948B7
:10594000236014353960784933608423026084B061
:105950002A601920A3610B6002F022FE72B6734A1E
:10596000734B74491160702280211A701A461970A5
:1059700013781B06FCD5704B1B6862B66F4A704EDD
:1059800093429CBF0A225343A6FB0312D20802EBA8
:105990008201A3EB410330338DF804301346002A13
:1059A00000F0038101A804460021A6FB0352D2089F
:1059B00002EB8205A3EB4503303304F8013F0131CC
:1059C0001346002AF1D104AC0C4401AA0A4404F89D
:1059D0000B3C1478057800F8014B0133CC1AA34234
:1059E00002F80159F5DB9DF80430002B00F0E0804F
:1059F000544A9DF805105380002900F0DF809DF87F
:105A000006309180002B00F0DB809DF80710D380DA
:105A1000002900F0D7809DF808301181002B00F09C
:105A2000D3809DF809105381002900F0CF809DF8A4
:105A30000A309181002B00F0CB809DF80B10D381B0
:105A4000002900F0C7809DF80C301182002B00F077
:105A5000C5809DF80D105382002900F0BD80918211
:105A60001621394B394C117000221A605A609A6025
:105A7000DA601A615A619A61DA611A625A629A624C
:105A8000DA621A635A639A63DA631A645A649A642C
:105A9000DA641A655A659A65DA651A665A669A660C
:105AA000DA661A675A679A67DA6721682848C3F87E
:105AB000802041F4802121600168DFF8B4C0C3F880
:105AC000842041F040710160224F234EDFF8A4E0B2
:105AD000224DDFF8A480C3F3072104F527348CF8A6
