:10000000F8FF022099010000754A0000798600007F
:1000100079860000798600007986000079860000E4
:10002000798600007986000079860000754A000014
:10003000754A00007986000041860000C9840000EE
:10004000754A0000754A0000754A0000754A0000B4
:10005000754A0000754A0000754A0000754A0000A4
:10006000754A0000754A0000754A0000754A000094
:10007000754A0000754A0000754A0000754A000084
:10008000754A0000754A0000754A0000754A000074
:10009000754A0000754A0000754A0000754A000064
:1000A000754A0000754A0000754A0000754A000054
:1000B000754A0000754A0000754A0000317700005B
:1000C000754A00009D490000754A00000149000082
:1000D000754A000065480000754A0000754A000036
:1000E000754A0000754A0000754A0000754A000014
:1000F000754A0000754A0000754A0000754A000004
:10010000754A0000754A0000754A0000754A0000F3
:10011000754A000009780000754A0000754A000021
:10012000754A0000754A0000754A0000754A0000D3
:10013000754A0000754A0000754A0000754A0000C3
:10014000754A0000754A0000C9470000754A000062
:1001500035470000754A0000754A0000754A0000E6
:10016000754A0000754A0000754A0000754A000093
:10017000754A0000754A0000754A0000754A000083
:10018000754A0000754A0000754A0000754A000073
:10019000754A0000754A000008B55D4B4CF22052CC
:1001A0001A804DF628121A8000BF00BF102223F8D3
:1001B0000E2CA3F51F43DE3B4FF030621A60554A08
:1001C0009A60554ADA60554B4FF470021A60544AEF
:1001D000136813F4807304D152490B604FF4A85391
:1001E0001360514B1A78100703D51A7842F00802B1
:1001F0001A704E4B4E492A221A704E4A4E4B8B4271
:1002000004D252F8040F43F8040BF8E74B4B4C4967
:1002100000228B4202D243F8042BFAE749494A4AAA
:10022000002352F8230041F823000133662BF8D154
:10023000464B474A802103F8011B9342FBD1454BB3
:10024000404A1A60444B8A221A70A3F58053242234
:100250005A70A0221A709A799107FCD59A79D20621
:10026000FCD43E4A937903F00C03082B3B4BF9D1A5
:1002700003221A7146225A719A799406FCD5374A9C
:100280009179364B4806FBD5354A4FF082711160A3
:100290000921516020221A709A7902F00C020C2A6E
:1002A000FAD1304B304A1A60304B314A1A60002480
:1002B00007225C6043F8042C2E4AC3F80C2D62B66A
:1002C00008F0B8FC174B1A68D1070AD52A4A2B49FF
:1002D0001C60146042F8041C10221A60284A294944
:1002E0001160294A127852060ED52549254A086818
:1002F000904209D12048214C00221A60026040F847
:10030000044C102018600A6008F0C0FE00F0AEF83F
:100310000E200540823F04000100002B88ED00E024
:1003200010D0034014D0034002D0074000E0074043
:100330009C0EFF1F140C0100F806FF1F9C0EFF1FF0
:1003400024A700200002FF1F0000000000E400E0DE
:1003500056E400E008ED00E0005006400040064092
:100360004480044004800440C010050014E000E014
:10037000BFD401000000202004D003404B8A505D10
:100380001CE00340A5C3945A00F00740FFFFFFFFA5
:10039000FFFFFFFFFFFFFFFFFFFFFFFFFFFFFFFF6D
:1003A000FFFFFFFFFFFFFFFFFFFFFFFFFFFFFFFF5D
:1003B000FFFFFFFFFFFFFFFFFFFFFFFFFFFFFFFF4D
:1003C000FFFFFFFFFFFFFFFFFFFFFFFFFFFFFFFF3D
:1003D000FFFFFFFFFFFFFFFFFFFFFFFFFFFFFFFF2D
:1003E000FFFFFFFFFFFFFFFFFFFFFFFFFFFFFFFF1D
:1003F000FFFFFFFFFFFFFFFFFFFFFFFFFFFFFFFF0D
:10040000FFFFFFFFFFFFFFFFFFFFFFFFDEF9FFFF23
:1004100010B5054C237833B9044B13B10448AFF33E
:1004200000800123237010BD9C0EFF1F0000000000
:10043000180C0100084B10B51BB108490848AFF370
:1004400000800848036803B910BD074B002BFBD0A0
:10045000BDE81040184700BF00000000A00EFF1FBD
:10046000180C01009C0EFF1F000000002DE98048C1
:100470000026CA4CCA4D267085B03146212007F0AF
:1004800095FFC84B93F80032DBB2012B01F0ED84ED
:100490002522262301271320122167602E602A714E
:1004A0006B71EA722B73287669760021172007F0AA
:1004B0007DFF00211C2007F079FF0021092007F0B3
:1004C00075FF00210F2007F071FF0021272007F0A2
:1004D0006DFF00210A2007F069FF00210B2007F0C3
:1004E00065FF00210C2007F061FF0021232007F0A9
:1004F0005DFF0021032007F059FF0021042007F0D1
:1005000055FF00211A2007F051FF00211B2007F0A2
:100510004DFF0021162007F049FF0021022007F0BF
:1005200045FF00210E2007F041FF0021072007F0C2
:100530003DFF0021082007F039FF0021062007F0C9
:1005400035FF0021142007F031FF0021152007F0AE
:100550002DFF0021052007F029FF0121102007F0C1
:1005600025FF1120012107F021FF2879C0B23F2883
:1005700002D8012107F01AFF6879C0B23F2802D8DB
:10058000012107F013FF01211F2007F00FFF0121B8
:10059000202007F00BFF01211D2007F007FF01219C
:1005A0001E2007F003FF0021182007F0FFFE0021A6
:1005B000222007F0FBFE01210D2007F0F7FE0121AC
:1005C000212007F0F3FE0121242007F0EFFE002197
:1005D000084607F0EBFE0121084607F0E7FE287EFB
:1005E000C0B23F2802D8012107F0E0FE687EC0B209
:1005F0003F2802D8002107F0D9FE06F085FF6A4B9C
:10060000694820221A602B6813F0FF0F14BF674B54
:10061000674B4FF080721A60664A674B4FF4007662
:100620004FF40031066011601A68500141F11884DE
:100630001B689E014CBF01230223237272B6267AE7
:10064000F6B2042E01F0D2835C49172004F042FA7E
:100650005A491C2004F03EFA5849092004F03AFA9D
:1006600056490F2004F036FA5449272004F032FA94
:1006700052490A2004F02EFA50490B2004F02AFABD
:100680004E490C2004F026FA4C49232004F022FAAB
:100690004A49032004F01EFA4849042004F01AFADB
:1006A00046491A2004F016FA44491B2004F012FAB5
:1006B0004249162004F00EFA62B6002005F0E0FB75
:1006C00006F04CFF237A042B08D0AB7E022B05D119
:1006D0003B4806F0ADFC3B4806F0AAFC277A2F4EBB
:1006E000FFB2012F01F06683337A022B01F0D18330
:1006F000337A032B344B01F0C6831A460093337AC6
:1007000002F5EA630293237A042B63D0EA7E244B3A
:10071000012A5FD0597F009E9A7F2C4B06EB810106
:1007200006EB8202D1F85C0BD2F8B46B420813449A
:10073000B3FBF0F007F0EAFD254B9A7806F00303CF
:1007400002F0EC0213437107214A06F00F0148BF83
:1007500043F010030429937003D1937943F04003CD
:1007600093711B4B5B79F20603F0EF03184A48BF05
:1007700043F0100353719279154B02F0EF02B70664
:1007800048BF42F01002F6059A7123D55A781978BD
:10079000D2B241F0200119705A701BE0B80EFF1F51
:1007A000D407FF1F6020FE4388F00F4004F10F4084
:1007B00008F10F4044F00F4010F10F40C51E00003B
:1007C000C0B60000CCB6000064920000001C4E0EC3
:1007D00000A006404FF4FA6007F022FE01232370C8
:1007E000237A042B01D006F0BBFBB74FDFF8108350
:1007F000B64E237A042B00F0CA81DFF808B34FF01D
:10080000000AEB7E012B3DD0B14B1A78B14B1B781F
:10081000D2B2DBB29A4238BF4032D31A003318BF8B
:100820000123002B3DD0EB7E012B00F06F81A84B04
:100830001A78A84B1B78DBB29A4200F0728301331E
:100840003F2B84BF00221346A34998BFDAB211F8A8
:100850000390A04B09F07F091A70E369B3F57A7F22
:1008600080F26A8198F82030002B00F0FD80009B18
:10087000994499F8D83B002BC3D088F820A0EB7E90
:10088000012BC1D1954B1A68954B9B88002AC5D086
:10089000118852888A1A1344003318BF0123002B91
:1008A000C1D194F81034002B4DD12B7F8D4A012BF0
:1008B00007D0537E8C4A52F8333093F80032002B25
:1008C00041D18A4B1B68002B3DDD4FF0000BDFF858
:1008D0001492DA4616E007F0ADFCD4F81434013374
:1008E000B3F57A7F4FF0FF30C4F81434A8BFC8F8CE
:1008F00014A408F049F97D4B1B68002B4FF0010B45
:1009000040F3A885D4F81434234493F81804EB7EFC
:10091000012B00F07F0000F0A682EB7E012B00F09F
:10092000B382734B734A1B781278DBB2D2B2934214
:100930002CBF3F3202F1FF32D31A002BCBDCBBF1CC
:10094000000F40F087856C4B1B68002BC8BF4FF031
:10095000000911DC1AE0D8F800380133632B4FF09E
:10096000FF30C8F80038C8BFC8F8009808F018F978
:10097000614B1B68002B09DDD4F8003804EB8303BE
:10098000D3F8040806F054FB0028E4D1237A012BA5
:1009900000F02B83DFF84C91DFF86CA1E369002BAA
:1009A00040F3DE80554B1A684AF6C7739A4200F34B
:1009B000D780D8F89C39434493F828B0D8F89C39AC
:1009C0000133B3F57A7FC8F89C39A4BF0023C8F877
:1009D0009C39E369013BE361E369322B5FFA8BFBEE
:1009E0000CDC98F823304BB195F82630022B00F040
:1009F000098299F81C30032B00F02882BBF10D0FFF
:100A000005D00023BBF10A0F84F8A13902D00023DE
:100A100084F8A039226952F83B30013B0F2BBDD836
:100A200001A151F823F000BFE70C0000310C0000D9
:100A3000F50C0000BB0C00008F0C0000550C0000F2
:100A40009D090000950D00003B0D0000470D0000C2
:100A5000290C0000210C00005B0C00000F0D0000B1
:100A6000290C0000210C0000EB7FDBB2012B67D0CA
:100A700094F82130002B69D0B9F10D0F88F821A02E
:100A80003FF4BFAEE26940F2ED239A420CDD98F8E4
:100A900023304BB995F82620124B022A00F07682BB
:100AA0001A7F032A00F09682636A234483F8289011
:100AB000636A0133B3F57A7F6362A8BFC8F824A0E4
:100AC000E3690133E3619CE6A41AFF1F04ED00E033
:100AD00064A5002065A5002004A400207CA50020BA
:100AE00080A50020D407FF1FF809010088A5002079
:100AF00044A4002045A400208CA5002090A500203F
:100B0000B80EFF1FA8A4002070A50020A44B1868F1
:100B1000002800F0F08143880288C1180133934215
:100B200091F8089080F0BA814380E369B3F57A7F49
:100B300009F07F09FFF696AE022004F033FDB0E61F
:100B4000B9F11B0F94D188F820305AE698F822208A
:100B5000002A97D0B9F10A0F88F8223092D150E6D6
:100B60002378022B00F020832378032B00F09A8255
:100B70002378042B0BD198F8A239002B40F09087F2
:100B8000D8F8A839C8F80C30012388F80030854B14
:100B9000844A1B78002B7FF42CAE13708249834B60
:100BA00009781B78824B1B78824B1B78824B1B7811
:100BB000824B1B78824B1B78824B1B78824B1B78B5
:100BC000824B1B78824B1B78824B1B78EFF305839B
:100BD000002B7FF40EAEEFF3108272B67E4B1868D6
:100BE0009E46002800F079867C4BDFF8F0C11B7828
:100BF000002B40F072864169CEF800104FF0010ED4
:100C00008CF800E001B18B6102B962B64FF00009C7
:100C1000836880F81D909847704B83F80090E8E552
:100C2000002384F81034B9E6012384F81034B5E6C3
:100C3000A37D009AE260002B40F05281E37D002BFF
:100C400040F0A180237E2BB9654806F0F1F901231D
:100C500088F8183001236376A0E695F82330012B3D
:100C600000F0188199F82330022B00F0658199F883
:100C70002330032B04D094F8A139002B40F00A81D3
:100C8000584806F0D5F9002384F8A13986E6A37DFB
:100C9000554AE260002B40F01C81E37D002B40F0C0
:100CA0001181237E002BD5D0504806F0C1F90023D6
:100CB00088F818300123637670E6A37D4C4AE26021
:100CC000002B40F0F88095F821B05FFA8BFBBBF168
:100CD000010FE6D1E37D002BE3D1464806F0A8F9E9
:100CE00088F817B0DDE702EBCB0BDBF8040006F069
:100CF0009FF953E6A37D404AE260002BE3D1A2F1C5
:100D0000180006F095F9012388F81630DBE795F80E
:100D10002330012B00F0EB8099F82330022B00F0F8
:100D2000038199F82330032B00F00281012384F81A
:100D3000A139002384F8A03930E60222012385F886
:100D4000222063762AE6009BE3602C4B4FF0000BD9
:100D500084F8A2B984F8A3B984F8A4B9C3F800B0A0
:100D600084F823B084F810B404F0B4FBA37D002B06
:100D70003FF464AF224806F05BF988F816B0E37DD3
:100D8000002B3FF45FAF1B4806F052F9002388F8B0
:100D9000173057E7012385F822306376FEE500BF60
:100DA0007CA50020A81AFF1F64A5002065A50020CF
:100DB0002D1AFF1F2E1AFF1FBD19FF1FBE19FF1F7F
:100DC0004D19FF1F4E19FF1FDD18FF1FDE18FF1FF3
:100DD0006C18FF1F6D18FF1F68A500206CA5002070
:100DE000B49D0000D0B5000080AE000024A7000034
:100DF00030A70000C89F0000D49F000020A700205B
:100E0000BC9F000098F8150099F81B30012BC0B268
:100E100000F09680924B934A1B781278DBB2D2B2E4
:100E200093422CBF3F3202F1FF32D31A002B09DD6F
:100E300007F000FAEB7EDBB2012B00F08B80002381
:100E400084F823302B7F032B7FF4D8AD99F818302A
:100E5000854ADBB2012152F83320002382F880104A
:100E600084F82330CAE599F82030022B1ED099F877
:100E70002030032B7FF451AD009B1844EB7E90F89B
:100E8000D80C012B7FF44DAD07F0C8FC01283FF4CE
:100E900024AD54E5754806F0CBF8F4E607F0C8FD3C
:100EA000734B09F07F09C3F800A0D6E4009B1844F7
:100EB00090F8580C31E56F4806F0BAF8002388F82E
:100EC000163000E76C4806F0B3F8002388F81730B6
:100ED000E7E6684806F0ACF8002388F81630DCE650
:100EE000644806F0A5F8002388F81630A6E66348A3
:100EF00006F09EF81DE7624B1B7893B172B6614B0A
:100F0000986840B1604B02889B884168CBF8081014
:100F10009B1A5D4A938062B6554B186000287FF497
:100F2000FAAD4FF07F0998E494F8A039002BDED099
:100F30004E4806F07DF8FCE6012384F8A039A2E6CD
:100F400007F06CFC01287FF47DAFEB7EDBB2012B58
:100F50007FF475AF4A4A1278002A3FF470AF4B4ACB
:100F60004B4912680B70002A00F0AA864948518844
:100F70000023037011801046019303F0F7FE019BDC
:100F8000CAF80030424A0023137058E798F814005A
:100F9000DB7E012BC0B200F05286314B314A1B7808
:100FA0001278DBB2D2B293422CBF3F3202F1FF3251
:100FB000D31A002B09DD07F03DF9EB7EDBB2012BE4
:100FC00000F04786012384F823302A7F324B032A1E
:100FD0007FF46AAD1B7E244ADBB252F83320012332
:100FE00082F8003184F823305EE598F81930002B40
:100FF0003FF4D0AC294B1B68002B3FF7C8AD284B02
:101000001B68002B3FF7C3ADD8F894390C2B3FF683
:10101000BEADD8F898390C2B3FF6B9ADEB7E012B5D
:1010200000F040860E4B0F4A1B781278DBB2D2B22A
:1010300093422CBF3F3202F1FF32D31A002B7FF7CD
:10104000A6AD682007F0F6F895F81B905FFA89F9CD
:10105000B9F1010F00F04F86002363769AE400BFD8
:1010600044A4002045A40020F809010024E8000061
:101070007CA50020BC9F0000C89F0000DCB50000DC
:1010800074A50020A8A4002080A5002070A5002041
:101090006DA5002076A50020D407FF1F8CA5002099
:1010A00090A5002098F8A239002B00F0AF82002311
:1010B000012088F8003004F0E3FE06F04FFA324BCE
:1010C000DFF8E0B020221A602B6813F0FF0F14BF86
:1010D0002E4B2F4B4FF080721A6007F08FFF0123C9
:1010E0002C48237005F010FC2B4803952B4B1B68F4
:1010F000002B3FDD72B6DBF800303968326862B62B
:10110000550102D5322B88BF0131C3F5EA33BF3315
:101110004FF47A72A0FB035302FB01F909EB931918
:101120004FF00A0A72B6DBF800103A68356862B60A
:10113000C1F5EA33BF33A0FB03E36D01C9EB9313A1
:101140004FF47A7E02D5322988BF01320EFB02337A
:10115000B3F57A7F05D3BAF1010AC7D009F57A79D8
:10116000E0E70F4B1B78002BDCD1019007F002FB6E
:101170000198D7E7D4F894390C2BBBD8D8F8983914
:101180000C2BB7D8039DF3E488F00F4004F10F4017
:1011900008F10F4014B900008988888890A50020C4
:1011A000A81AFF1F18E000E098F8A239002B40F0C1
:1011B000E98498F81630002B40F02285E37D002B5F
:1011C00040F02585237E002B40F02885C14805F09E
:1011D0002FFFC04805F02CFFBF4805F095FBBD4828
:1011E00005F026FFBB4805F023FF04F071FD7328CE
:1011F00000F0EF80652800F02A81632840F05681D6
:10120000B44805F015FFB54805F012FFB34805F0E6
:101210000FFFB34805F00CFFB24805F009FFB248D4
:1012200005F006FFB14805F003FFB14805F000FFE7
:10123000B04805F0FDFEB04805F0FAFEAF4805F0F5
:10124000F7FEAF4805F0F4FEAE4805F0F1FEAE48FB
:1012500005F0EEFEAD4805F0EBFEAD4805F0E8FE0A
:10126000AC4805F0E5FEAC4805F0E2FEAB4805F001
:10127000DFFEAB4805F0DCFEAA4805F0D9FEAA481F
:1012800005F0D6FEA94805F0D3FEA94805F0D0FE2A
:10129000A84805F0CDFEA84805F0CAFEA74805F00D
:1012A000C7FEA74805F0C4FEA64805F0C1FE8B485E
:1012B00005F0BEFEA44805F0BBFEA44805F0B8FE4C
:1012C000A34805F0B5FEA34805F0B2FEA24805F01C
:1012D000AFFEA24805F0ACFEA14805F0A9FEA1486A
:1012E00005F0A6FEA04805F0A3FEA04805F0A0FE6C
:1012F0007A4805F09DFE9E4805F09AFE9D4805F04F
:1013000097FE9D4805F094FE9C4805F091FE9C4890
:1013100005F08EFE9B4805F08BFE9B4805F088FE8D
:101320009A4805F085FE9A4805F082FE994805F036
:101330007FFE6A4805F07CFE974805F079FE9748E5
:1013400005F076FE964805F073FE964805F070FEAF
:10135000954805F06DFE954805F06AFE944805F045
:1013600067FE944805F064FE934805F061FE9348DB
:1013700005F05EFE924805F05BFE584805F058FE09
:10138000904805F055FE554805F052FE8E4805F090
:101390004FFE8E4805F04CFE8D4805F049FE8D4805
:1013A00005F046FE4D4805F043FE8B4805F040FE33
:1013B0004A4805F03DFE894805F03AFE454805F0EB
:1013C00037FE444805F034FE04F082FC73287FF4B5
:1013D00011AF404895F81A90DFF82CA205F028FECE
:1013E00095F824107E4804F077FB85F8240095F8E2
:1013F00025107C4804F070FB85F82500A97E7A480A
:1014000004F06AFBA87695F82210784804F064FB93
:1014100085F8220095F82110754804F05DFB03461D
:101420002C4885F8213005F003FE72485FFA89F9EF
:1014300003F0B6FB002840F05682264805F0F8FD80
:10144000AB7E99453FF4D1AE04F044F8CDE603F00D
:1014500053FDCAE695F81B905FFA89F9B9F1010FBF
:101460007FF471AA644B1B78002B3FF46CAA634B8A
:10147000DFF888B1D3F800A0614B83F80090BAF18F
:10148000000F00F02C845F4ABAF802304FF00009D8
:1014900082F800905046AAF8003003F067FCCBF8C1
:1014A0000090574A00231370FFF74DBAA37D002B1D
:1014B00040F0C183E37D002B40F0B983237E002BF5
:1014C00040F0B183D4F8A839E36001232370FFF71B
:1014D0004BBB00BF24E8000044B900007CDB0000E7
:1014E00098E600008CE6000080E6000074E600004C
:1014F00068E600005CE6000050E6000044E60000FC
:1015000038E600002CE6000020E6000014E60000AB
:1015100008E60000FCE50000F0E50000E4E500005E
:10152000D8E50000CCE50000C0E50000B4E500000F
:10153000A8E500009CE5000090E5000084E50000BF
:1015400078E500006CE50000E8B5000058E7000011
:101550004CE7000040E7000034E7000028E7000007
:101560001CE7000010E7000004E70000F8E60000B8
:10157000F4B5000000B600000CB6000018B600007C
:1015800024B6000030B600003CB6000048B60000AB
:1015900054B6000060B60000F4E70000C4E70000A5
:1015A000B8E70000A0E7000088E70000ACE7000013
:1015B00070E70000C8E600007CE7000094E7000048
:1015C000A4E600006CB6000078B6000084B6000007
:1015D00090B600009CB60000A8B60000B4B60000AB
:1015E00078B9000088B9000098B90000ACB90000D3
:1015F000BCB90000C8B9000074A5002070A5002087
:101600006DA5002076A50020D407FF1FC34805F074
:101610000FFDC24805F00CFDC14805F075F9BF4843
:1016200005F006FDBD4805F003FD04F051FB7328ED
:1016300000F04681652800F04681632840F046812D
:10164000B64805F0F5FCB74805F0F2FCB54805F0E2
:10165000EFFCB54805F0ECFCB44805F0E9FCB448F3
:1016600005F0E6FCB34805F0E3FCB34805F0E0FC08
:10167000B24805F0DDFCB24805F0DAFCB14805F0EF
:10168000D7FCB14805F0D4FCB04805F0D1FCB04817
:1016900005F0CEFCAF4805F0CBFCAF4805F0C8FC28
:1016A000AE4805F0C5FCAE4805F0C2FCAD4805F0FB
:1016B000BFFCAD4805F0BCFCAC4805F0B9FCAC483B
:1016C00005F0B6FCAB4805F0B3FCAB4805F0B0FC48
:1016D000AA4805F0ADFCAA4805F0AAFCA94805F007
:1016E000A7FCA94805F0A4FCA84805F0A1FC8D487A
:1016F00005F09EFCA64805F09BFCA64805F098FC6A
:10170000A54805F095FCA54805F092FCA44805F015
:101710008FFCA44805F08CFCA34805F089FCA34885
:1017200005F086FCA24805F083FCA24805F080FC89
:10173000A14805F07DFCA14805F07AFCA04805F021
:1017400077FCA04805F074FC9F4805F071FC9F48A9
:1017500005F06EFC9E4805F06BFC9E4805F068FCA9
:101760009D4805F065FC9D4805F062FC9C4805F02D
:101770005FFC9C4805F05CFC9B4805F059FC9B48CD
:1017800005F056FC9A4805F053FC9A4805F050FCC9
:10179000624805F04DFC634805F04AFC614805F0DD
:1017A00047FC954805F044FC944805F041FC9448FA
:1017B00005F03EFC934805F03BFC934805F038FCEF
:1017C000924805F035FC924805F032FC914805F04E
:1017D0002FFC914805F02CFC904805F029FC51485D
:1017E00005F026FC8E4805F023FC8E4805F020FC11
:1017F0008D4805F01DFC8D4805F01AFC8C4805F05D
:1018000017FC8C4805F014FC8B4805F011FC8B4844
:1018100005F00EFC8A4805F00BFC8A4805F008FC30
:10182000894805F005FC894805F002FC884805F068
:10183000FFFB884805F0FCFB874805F0F9FB87486B
:1018400005F0F6FB864805F0F3FB864805F0F0FB53
:10185000854805F0EDFB854805F0EAFB844805F076
:10186000E7FB304805F0E4FB824805F0E1FB8248E5
:1018700005F0DEFB814805F0DBFB814805F0D8FB75
:10188000804805F0D5FB804805F0D2FB7F4805F085
:10189000CFFB7F4805F0CCFB7E4805F0C9FB7E48B6
:1018A00005F0C6FB7D4805F0C3FB1C4805F0C0FBF6
:1018B0001A4805F0BDFB04F00BFA73287FF4BAAEAA
:1018C00001F020FAB1E603F017FBAEE6D4F8A83930
:1018D000E36001232370FFF74BB9002A7EF489AF40
:1018E00062B6FEF786BF9AF82410022003F0DCFAF5
:1018F0009AF82510032003F0D7FA9AF81A1004205A
:1019000003F0D2FA9AF822100A2003F0CDFA9AF8DE
:1019100021100B2003F0C8FA8FE500BF24E8000077
:10192000D8B900007CDB000098E600008CE60000DF
:1019300080E6000074E6000068E600005CE6000057
:1019400050E6000044E6000038E600002CE6000007
:1019500020E6000014E6000008E60000FCE50000B8
:10196000F0E50000E4E50000D8E50000CCE500006B
:10197000C0E50000B4E50000A8E500009CE500001B
:1019800090E5000084E5000078E500006CE50000CB
:1019900018E500000CE5000000E50000F4E400009C
:1019A000E8E40000DCE40000D0E40000C4E400004F
:1019B000B8E40000ACE40000A0E4000094E40000FF
:1019C00088E400007CE4000070E4000064E40000AF
:1019D00058E400004CE4000040E4000034E400005F
:1019E00028E400001CE4000010E4000004E400000F
:1019F000F8E30000ECE3000064E7000058E70000B3
:101A00004CE7000040E7000034E7000028E7000052
:101A10001CE7000010E7000004E70000F8E6000003
:101A200018E800000CE8000000E80000F4E70000FF
:101A3000E8E70000DCE70000D0E70000C4E70000B2
:101A4000B8E70000ACE70000A0E7000094E7000062
:101A500088E700007CE7000070E70000ECE600008B
:101A6000E0E60000D4E60000C8E60000BCE60000A6
:101A7000B0E60000A4E6000060E5000054E50000C8
:101A800048E500003CE5000030E5000024E50000EA
:101A9000E0E30000D4E30000C8E30000BCE3000082
:101AA0000023012088F8003004F0EAF905F056FD23
:101AB000B04BB148DFF8F8B220221A602B6813F05F
:101AC000FF0F14BFAD4BAE4B4FF080721A60012375
:101AD000237004F019FFAB480395AB4B1B68002B38
:101AE0003FDD72B6DBF800303968326862B6520109
:101AF00002D5322B88BF0131C3F5EA33BF334FF42F
:101B00007A72A0FB035302FB01F909EB93194FF022
:101B10000A0A72B6DBF800103A68356862B6C1F599
:101B2000EA33BF33A0FB03E36D01C9EB93134FF41A
:101B30007A7E02D5322988BF01320EFB0233B3F51B
:101B40007A7F05D3BAF1010AC7D009F57A79E0E7BF
:101B50008E4B1B78002BDCD1019006F00BFE019818
:101B6000D7E7D4F894390C2BBBD8D8F898390C2B7C
:101B7000B7D8864B039D1B78844A002B7EF439AE80
:101B8000FFF70BB80023012088F8003004F078F943
:101B900005F0E4FC774B20221A602B6813F0FF0F4E
:101BA00014BF764B764B4FF080721A60A37D002BEA
:101BB00074D1E37D002B6DD1237E002B66D14FF0D5
:101BC0000109009985F81B902523237526220023FF
:101BD000E1606F4802996275216185F81C90A375D8
:101BE000E3752376637605F023FA634884F818904A
:101BF00084F8009004F088FE05F0B2F9FEF7B4BF57
:101C0000644805F015FAE37D002B3FF4DBAA624837
:101C100005F00EFA237E002B3FF4D8AA5F4805F0AA
:101C200007FAFFF7D3BA5A4805F002FA4AE45A48CD
:101C300005F0FEF942E4574805F0FAF93AE406F0F7
:101C4000EDFD01287FF4C1A9EB7EDBB2012B7FF40F
:101C5000B9A9534A1278002A3FF4B4A9514A52490B
:101C600012680B704F490191002A67D04F49538881
:101C700081F800A01046138003F078F80199C1F8AC
:101C800000A0494B83F800A0FFF79CB9434805F03A
:101C9000CFF994E7404805F0CBF98DE73D4805F0D2
:101CA000C7F986E7682006F0B9FD01283FF4CCA902
:101CB000364B364A1B78002B7EF49BADFEF76DBF8A
:101CC0000193039206F094FE019B002800F0EB8044
:101CD000364B039A1A7003F049F8FFF753B906F030
:101CE00087FE324B002800F0E28083F800A003F06A
:101CF0003DF8FFF7D6BB2A4B1B78002B3FF4ACA96D
:101D0000284BDFF8A0B0D3F800A0274B83F8009051
:101D1000BAF1000F1ED0254ABAF802304FF0000980
:101D200082F800905046AAF8003003F01FF8CBF874
:101D300000901D4A00231370FFF78EB901930392A0
:101D400006F056FE019B70B1184B039A1A7003F00F
:101D50000DF896E706F04CFE144B38B183F800A05E
:101D600003F004F8E5E7114A13708AE783F800905E
:101D7000DFE700BF88F00F4014B9000004F10F4006
:101D800008F10F408988888890A50020A81AFF1FB5
:101D9000B49D0000BC9F0000C89F000024A7000065
:101DA00074A5002070A500206DA5002076A5002058
:101DB00018E000E0404BEF7618462521317500F51C
:101DC000EA6102910146009326220023F16000F5AA
:101DD00035600299727531612F77B375F37533767B
:101DE000737605F025F93776FEF78DBC3349172059
:101DF00002F070FE31491C2002F06CFE2F490920D0
:101E000002F068FE2D490F2002F064FE2B492720C6
:101E100002F060FE29490A2002F05CFE27490B20EF
:101E200002F058FE25490C2002F054FE23492320DD
:101E300002F050FE2149032002F04CFE30461F49BB
:101E400002F048FE1D491A2002F044FE1B491B20E7
:101E500002F040FE1949162002F03CFEFEF72CBCB1
:101E60001B6804232372FEF7E9BB6660132112226C
:101E7000252626202B6029716A71E9722A732E7635
:101E80006876FEF712BB009303F5EA630293FEF750
:101E90003ABC094B00931E4607F0B0F806F5EA631A
:101EA0000293FEF730BC064A1370FFF76BB883F855
:101EB0000090FFF7F6BA00BF64920000BD8A0000F0
:101EC00076A50020C94B1B78002B00F003812DE97B
:101ED000F04FC74BC74A1B6889B00793079B136035
:101EE0005023013BFDD1C44B1B685B0700F1F3801D
:101EF000DFF80883D8F800800123062718F4803F14
:101F0000019302934FF00E0B4FF00D034FF00C02B4
:101F10004FF00B014FF00A004FF009044FF0080595
:101F20004FF0070600974FF0050E4FF0040C4FF0EE
:101F3000030A4FF0020900F0F3809B4613460A465D
:101F40000021C846DDF808900291014620462C4643
:101F50003546009ECDF800E0E646D446DFF898A26C
:101F6000DAF800A01AF0080F00F0E5809B4613464F
:101F70000A46014620462C463546009ECDF800E034
:101F8000E646DFF874C2DCF800C01CF0010FC24660
:101F9000C8464FF0000900F0D9809B4613460A4618
:101FA00000210391014620462C463546009ECDF87F
:101FB00000E0DFF848E2DEF800E01EF4003FD4461F
:101FC000C24600F0CE808C4F3F68FF069B46E64637
:101FD0001346D4460A464FF00008014620462C46D8
:101FE0003546009E40F1C6809B4613460A460021B6
:101FF0000091014620462C4635467F4E36687606CF
:102000007746E64640F1BE809B4613460A460146A7
:1020100020462C46784D2D682D063E464FF0000A8E
:10202000774640F1B7809B4613460A46002104914B
:1020300001462046704C2468E40535463E4640F192
:10204000B1809B4613460A4601466C480068C004AE
:102050002C4635464FF0000640F1AC809B461346B7
:102060000A4600210591654909688F0420462C46DF
:1020700040F1A8809B461346604A12685504014609
:102080004FF00007204640F1A5809B465B4B1B6844
:102090001C040A4601464FF0000040F1A38015469B
:1020A0004FF0000E0A465449554C0B68D4F800C056
:1020B00003F00203002B16BF154601230023BCF1D9
:1020C000000F40F0A1800A68510740F19B8009B0E1
:1020D000BDE8F08F7047DFF82481D8F80080002336
:1020E000052718F4803F019302934FF00D0B4FF03A
:1020F0000C034FF00B024FF00A014FF009004FF0B4
:1021000008044FF007054FF0060600974FF0040E45
:102110004FF0030C4FF0020A4FF001097FF40DAFAE
:10212000D046DFF8D4A0DAF800A001271AF0080F93
:1021300002977FF41BAFE246DFF8BCC0DCF800C0BA
:102140001CF0010F4FF001097FF427AFF446DFF8D0
:10215000ACE0DEF800E001271EF4003F03977FF4B7
:1021600032AF254FDDF800E03F68FF064FF0010871
:102170003FF53AAF3746012600961F4E3668760681
:102180003FF542AF2E461C4D2D682D064FF0010A3B
:102190003FF549AF254601240494174C2468E40513
:1021A0003FF54FAF044615480068C0044FF00106E4
:1021B0003FF554AF084601210591104909688F0485
:1021C0003FF558AF11460D4A126855044FF001070C
:1021D0003FF55BAF1A46094B1B681C044FF001002A
:1021E0003FF55DAF5D464FF0010E5CE7B80EFF1F97
:1021F000A41AFF1FE4A5002090F00F4010F00F403C
:102200006418FF1F0E222260019A32B122687C49B5
:102210000E2A49D00A68012A46D0029A42B12268A1
:102220007749012A00F08D800A68022A00F089802F
:10223000B9F1000F08D022687149022A00F0B1807C
:102240000A68032A00F0AD80039A002A00F0F080AB
:1022500022686B49032A03D00A68042A40F0E88008
:102260002368674A032B7FF432AF0425156005F01D
:102270004BF9284604F024FE624C634BE26B1B686A
:102280009A4240F22B83604B626C1B689A4240F288
:1022900021835D4B626D1B689A423FF618AF152192
:1022A000052005F001F912E72368554D0E2B7FF448
:1022B0000EAF01242C6005F027F9204604F000FE43
:1022C000504C514B287122681B689A4240F2AF82F1
:1022D0004D4B62681B689A4203D801210E2004F01E
:1022E00069FB4A4B4A4918684A4A0860116821B19B
:1022F000454909681068091A19604349096811605D
:102300001B68632B7FF6E3AE434B1B78012B7FF4F6
:10231000DEAE424B1B78012B7FF4D9AE4049414AD7
:102320000B68414801330B60536801335360036805
:1023300013F0FF0F40F04C823C4B4FF080721A605C
:10234000C5E623682E4A012B7FF4C1AE0225156035
:1023500005F0DAF8284604F0B3FD2A4C2A4BA268AF
:102360001B689A4240F27582274B62691B689A4249
:1023700040F26B82244BE2691B689A4240F2608211
:10238000214B226A1B689A4240F256821E4B626AB7
:102390001B689A423FF69BAE0921052004F054FBCE
:1023A00095E62368164A022B7FF491AE032515604B
:1023B00005F0AAF8284604F083FD124C124BA26ADD
:1023C0001B689A4240F27C820F4BE26A1B689A4279
:1023D00040F272820C4B226B1B689A4240F275826B
:1023E000094B626B1B689A4240F26182064BA26BFA
:1023F0001B689A423FF66BAE0E2002F03FFB66E68A
:102400006418FF1FE8A50020E4A500204C18FF1F5A
:102410005018FF1F00A40020B80EFF1FF907FF1F70
:102420003C1BFF1F5C1BFF1FBC0EFF1F08F10F4072
:10243000B8F1000F08D02268B249042A00F0CD811B
:102440000A68052A00F0C981009A42B12268AD49A4
:10245000052A00F096800A68062A00F09280BAF1F8
:10246000000F08D02268A749062A00F0F7810A6801
:10247000072A00F0F381049A42B12168A14A072992
:1024800000F0A8801268082A00F0A48046B12168F4
:102490009C4A082900F027821268092A00F023824A
:1024A000059A42B12168974A092900F0EF80126825
:1024B0000A2A00F0EB8047B12168924A0A2900F00D
:1024C0002B8112680B2A00F0278140B121688D4AC8
:1024D0000B2900F09F8212680C2A00F09B82BEF14B
:1024E000000F00F04E812168864A0C2903D0126843
:1024F0000D2A40F046812268824B0C2A7FF4E7AD1A
:102500000D251D6005F000F8284604F0D9FC7E4C2E
:102510007E4BD4F800211B689A4203D84021022048
:1025200004F092FA794BD4F804211B689A4203D83C
:1025300041210E2004F088FA744BD4F810211B6856
:102540009A4203D84421142004F07EFA6F4BD4F849
:1025500018111A686C4891423FF6B9AD6C4A12687E
:10256000120640F154836B4A92F8461000293FF45A
:10257000AEAD002182F846101B680F33C0F8183149
:10258000A5E523685F4A052B7FF4A1AD06251560FC
:1025900004F0BAFF284604F093FC5B4C5B4BE26D01
:1025A0001B689A4240F20782584B226E1B689A427F
:1025B00040F2FD81554B626E1B689A4240F2F281F7
:1025C000524BA26E1B689A423FF681AD1A2002F070
:1025D00055FA7CE522684B4B072A7FF478AD082535
:1025E0001D6004F091FF284604F06AFC464C474BFE
:1025F000E26F1B689A4203D81F21022004F054FFA7
:10260000424BD4F880201B689A4203D820210E2028
:1026100004F04AFF3D4BD4F884201B689A4203D84B
:102620002121072004F040FF384BD4F888201B6894
:102630009A4202D8222006F0D3FA344BD4F88C20E8
:102640001B689A4203D82321062004F02DFF2F4B4C
:10265000D4F890201B689A4203D82421142004F057
:1026600023FF2A4BD4F894201B689A4202D82520D5
:1026700002F004FA254BD4F898201B689A423FF6E2
:1026800026AD2621052004F00FFF20E522681D4B12
:10269000092A7FF41CAD0A251D6004F035FF284689
:1026A00004F00EFC184C194BD4F8BC201B689A425D
:1026B00040F28882154BD4F8C0201B689A4240F241
:1026C0007C82124BD4F8C4201B689A4240F27F826D
:1026D0000E4BD4F8C8201B689A4240F269820B4B1B
:1026E000D4F8CC201B689A4240F2E881074BD4F81A
:1026F000D0201B689A423FF6EAAC342002F0BEF9C3
:10270000E5E400BF6418FF1FE8A50020E4A5002051
:10271000D0F00F4094A500202268B04B0A2A7FF425
:10272000D6AC0B251D6004F0EFFE284604F0C8FB74
:10273000AB4CAC4BD4F8D4201B689A4203D835215B
:102740000E2004F0B1FEA74BD4F8D8201B689A42A3
:1027500002D8362006F044FAA24BD4F8DC201B68DD
:102760009A4203D83721062004F09EFE9D4BD4F8F0
:10277000E0201B689A423FF6AAAC382002F07EF9AE
:10278000A5E443B12268954B0D2A00F0B8811B687F
:102790000E2B00F0B48104F0B7FE012D00F0938100
:1027A000914B1B78012B7FF492AC904B1B78012B43
:1027B0007FF48DAC8E498F4A0B688F4801330B60D4
:1027C000936801339360036813F0FF0F3FF4B4ADD7
:1027D0008A4B4FF080721A6079E423687F4C042B97
:1027E0007FF475AC0525256004F08EFE284604F0C4
:1027F00067FB7B4B7B4A6071986D116888423FF69E
:1028000066AC7F497F48096811F0010F817D40F077
:10281000B58000297FF45BAC0121817512687A4D87
:102820007A4855329C249A65297004604FE400214F
:10283000022004F0BFF84BE5082002F01FF9A5E5DF
:102840000721142004F030FE9AE5052006F0C8F9AF
:1028500090E52946284604F0F7F885E523685F4AA5
:10286000062B7FF434AC0725156004F04DFE284696
:1028700004F026FB5A4C5B4BE26E1B689A4240F216
:10288000A880584B226F1B689A4240F29E80554B9D
:10289000626F1B689A4240F29380524BA26F1B6892
:1028A0009A423FF614AC1E2002F0E8F80FE40D2126
:1028B000142004F0F9FD99E50B2006F091F989E563
:1028C0000A210E2004F0F0FD7EE50C21062004F024
:1028D000EBFD85E5112006F083F9DAE40F210220F3
:1028E00004F0B2F8CFE422683C4B082A7FF4EFAB47
:1028F00009251D6004F008FE284604F0E1FA384C72
:10290000384BD4F89C201B689A4240F2C281354B68
:10291000D4F8A0201B689A4240F2B681314BD4F81B
:10292000A4201B689A4240F290812E4BD4F8A82034
:102930001B689A4240F285812A4BD4F8AC201B6870
:102940009A4240F28C81274BD4F8B0201B689A42FF
:1029500040F28081234BD4F8B4201B689A4240F2A5
:102960008381204BD4F8B8201B689A423FF6AFAB66
:102970002E21052004F098FDFFF7A9BB00293FF4A4
:10298000A6AB0021817512681F4D214C1F480F32E4
:102990009A65297023788B420CBF0B464E23036047
:1029A000FFF795BB1921062004F07EFD08E61820EC
:1029B00006F016F9FEE517210E2004F075FDF3E58B
:1029C0001D21062004F070FD67E71C2006F008F9C1
:1029D0005DE71B210E2004F067FD52E76418FF1F1E
:1029E000E8A50020E4A50020B80EFF1FF907FF1F8F
:1029F0003C1BFF1F5C1BFF1FBC0EFF1F04F10F40A1
:102A0000D0F00F4094A500205C18FF1F20A70020E5
:102A10005A18FF1F2268AF4B0B2A7FF458AB0C25C6
:102A20001D6004F071FD284604F04AFAAA4CAB4B35
:102A3000D4F8E4201B689A4203D83921022004F01C
:102A400033FDA64BD4F8E8201B689A4203D83A21FC
:102A5000072004F029FDA14BD4F8EC201B689A4212
:102A600002D83B2006F0BCF89C4BD4F8F0201B6841
:102A70009A4203D83C21062004F016FD974BD4F867
:102A8000F4201B689A4203D83D21142004F00CFD69
:102A9000924BD4F8F8201B689A4202D83E2001F0ED
:102AA000EDFF8E4BD4F8FC201B689A423FF60FAB2B
:102AB0003F21052004F0F8FCFFF709BB3321142067
:102AC00004F0F2FC12E6019B43B12279814B2AB15A
:102AD0001A79834B53F8323083F88050B8F1000FE5
:102AE0003FF45EAE62797B4B002A3FF459AE5A79CF
:102AF0007B4B53F83230012283F8802050E6226865
:102B0000744B0D2A7FF4E3AA0E251D6004F0FCFC33
:102B1000284604F0D5F9704C704BD4F81C211B6882
:102B20009A4203D84721022004F0BEFC6B4BD4F834
:102B300020211B68684D69489A4228D9674BD4F810
:102B400024211B689A4203D84921072004F0ACFCD9
:102B5000624BD4F828211B689A4202D84A2006F01A
:102B60003FF85E4BD4F82C211B689A4203D84B21C6
:102B7000142004F099FC594BD4F830211B689A4278
:102B80003FF6A5AA4C2001F079FFFFF7A0BA554BFC
:102B90001B689B071FD5544B93F84820002ACDD0C3
:102BA000002283F8482003680F33C5F82031C5E7B9
:102BB0003221062004F078FC91E53021072004F052
:102BC00073FC7EE52F210E2004F06EFC72E53120AF
:102BD00006F006F87CE5444A92F84830002BADD167
:102BE000012182F848100068404A5530C5F820019C
:102BF000107800283CD13E483E4B117001701A7885
:102C00003D4B002A0CBF4E229C221A6096E7364AA2
:102C100092F8461000294AD1012182F8461019681D
:102C2000364C9631C0F818111B68C833C4F81831F7
:102C3000537D9BBB304B1868463003F053FFFFF7C2
:102C400046BA2A2005F0CCFF76E62921072004F0B9
:102C50002BFC6AE62C21142004F026FC7AE62B21BA
:102C6000062004F021FC6EE62D2001F007FF78E637
:102C70001F482049137003700A781F4B002A0CBFAD
:102C800000229C221A6059E728210E2004F00CFC37
:102C900044E62721022004F007FC38E64FF0FF331A
:102CA0001748C4F8183103F047FEFFF710BA134A6B
:102CB000D2F81801196888423FF609AA1B680E4924
:102CC0006433C2F818310868463003F00BFFFFF791
:102CD000FEB900BF6418FF1FE8A50020E4A500208E
:102CE000F8090100D0F00F4094A500205B18FF1FE9
:102CF0005A18FF1F5C18FF1F20A70020141CFF1F7D
:102D00006CB800002DE9F04F994B9A481E789A4B09
:102D10001D789A4B1C789A4B19789A4B1A789A4BD3
:102D20001B7891B0D2B2C9B2DBB2E4B2F6B2EDB266
:102D300006920494059107930396029504F078F99E
:102D4000924B9348197802F0C7FE904B1870914B44
:102D50009148197802F0C0FE8E4B1870844B8F4852
:102D6000197802F0B9FE824B1870834B8C481B789F
:102D7000DBB21C469B4604F05BF9894804F058F925
:102D8000884803F0C1FD012C0CBF8748874803F039
:102D9000BBFD7D4B1B783F2B09DD854C23683F2B0A
:102DA00005DC7F4804F044F923683F2BF9DD814EB0
:102DB000DFF82CA2DFF82C927F4D804C3368002B7B
:102DC00041D172B6DAF80030D9F800702A6862B6DC
:102DD000510102D5322B88BF0137C3F5EA33BF3327
:102DE0004FF47A72A4FB031302FB07F707EB931768
:102DF0004FF00A0872B6DAF80010D9F80020D5F8BA
:102E000000E062B6C1F5EA33BF33A4FB03031EF052
:102E1000806FC7EB93134FF47A7002D0322988BFCA
:102E2000013200FB0233B3F57A7F05D3B8F1010814
:102E3000C4D007F57A77DDE7614B1B78002BD9D139
:102E400005F098FCD6E75F4B5E4A1B685E4959481F
:102E5000CF5C13680133632B1360FFB2C8BF00233C
:102E60004FF0FF31C8BF136002F0BEFB07F0DF0375
:102E7000552B01F03582522B01F02E820D2F9DD162
:102E80005B46012B01F02C82504803F03DFD3A4B8C
:102E9000434883F800B04E4B1B78DBB21C469B4680
:102EA00004F0C6F83E4804F0C3F84A4803F02CFD8D
:102EB000012C0CBF4848494803F026FD324B1B78D3
:102EC0003F2B09DD3A4C23683F2B05DC344804F0E6
:102ED000AFF823683F2BF9DDDFF804A1DFF8049198
:102EE000354D364C3368002B7ED172B6DAF800309F
:102EF000D9F800702A6862B6520102D5322B88BF19
:102F00000137C3F5EA33BF334FF47A72A4FB0313DE
:102F100002FB07F707EB93174FF00A0872B6DAF8CF
:102F20000010D9F80020D5F800E062B6C1F5EA3308
:102F3000BF33A4FB03031EF0806FC7EB93134FF462
:102F40007A7002D0322988BF013200FB0233B3F518
:102F50007A7F05D3B8F10108C4D007F57A77DDE7A9
:102F6000174B1B78002BD9D105F004FCD6E700BF26
:102F7000EE07FF1F24E80000EF07FF1FF407FF1F05
:102F8000F107FF1FF207FF1FB009FF1FF807FF1F20
:102F900078B90000F907FF1F88B9000098B9000050
:102FA0007CDB000070D7000078D7000088D70000D5
:102FB000B409FF1FA01AFF1F04ED00E0898888886C
:102FC000A81AFF1FAC1AFF1FB01AFF1FA0D70000DE
:102FD000C109FF1FA8D70000B0D70000C0D700006C
:102FE00018E000E0A41AFF1FB64BB64A1B68B649AA
:102FF000B648CF5C13680133632B1360FFB2C8BFC0
:1030000000234FF0FF31C8BF136002F0EDFA07F064
:10301000DF03482B01F05981462B01F052810D2F1F
:103020007FF460AF5B46012B01F04F81A84803F0AD
:103030006BFCA84B83F800B0A74B1B78012B00F06A
:10304000DA80A64BA6481B78A64CDBB21D469B46F1
:1030500003F0EEFFA24803F0EBFFA34803F054FC9B
:10306000A24803F051FC10AB1946A14B53F8253090
:1030700000931A46002301F8043D132008911346DB
:1030800000E01046A4FB0352D20802EB8205A3EB3A
:103090004503303301F8013D1346421E002BF0D1A9
:1030A0000AAB1844019303F02FFC924803F02CFC68
:1030B000914B1B783F2B09DD904C23683F2B05DC9F
:1030C000874803F0B5FF23683F2BF9DDDFF850A2F6
:1030D000DFF850928A4D8B4C3368002B41D172B689
:1030E000DAF80030D9F800702A6862B6510102D5CA
:1030F000322B88BF0137C3F5EA33BF334FF47A72FE
:10310000A4FB031302FB07F707EB93174FF00A0822
:1031100072B6DAF80010D9F80020D5F800E062B6EF
:10312000C1F5EA33BF33A4FB03031EF0806FC7EB86
:1031300093134FF47A7002D0322988BF013200FB1A
:103140000233B3F57A7F05D3B8F10108C4D007F58F
:103150007A77DDE76C4B1B78002BD9D105F00AFBA1
:10316000D6E7584B574A1B6857495848CF5C1368F5
:103170000133632B1360FFB2C8BF00234FF0FF3150
:10318000C8BF136002F030FA312F01F0B080322F47
:1031900001F05982332F00F0B986342F01F04382B9
:1031A000352F01F03A82372F01F03182392F01F0AB
:1031B00018820D2F90D100238DF83C300899494C8E
:1031C000009B132000E01046A4FB0352D20802EB40
:1031D0008205A3EB4503303301F8013D1346421E3F
:1031E000002BF0D1019B184403F08EFB474803F0FD
:1031F0001FFF00F090BE464B39481B78DBB21C46DF
:103200009B4603F015FF364803F012FF414803F0D8
:103210007BFB012C01F0E081022C0CBF3E483F48B3
:1032200003F072FB344B1B783F2B00F36286DFF810
:10323000F0A0DFF8F090324D324C3368002B73D1A0
:1032400072B6DAF80030D9F800702A6862B6500118
:1032500002D5322B88BF0137C3F5EA33BF334FF4B1
:103260007A72A4FB031302FB07F707EB93174FF0E7
:103270000A0872B6DAF80010D9F80020D5F800E094
:1032800062B6C1F5EA33BF33A4FB03031EF0806FBF
:10329000C7EB93134FF47A7002D0322988BF013202
:1032A00000FB0233B3F57A7F05D3B8F10108C4D02F
:1032B00007F57A77DDE7144B1B78002BD9D105F0A1
:1032C00059FAD6E7AC1AFF1FB01AFF1FA01AFF1F4A
:1032D000D8D70000C109FF1FEF07FF1FF107FF1F2D
:1032E0007CDB0000CDCCCCCC3CD8000048D8000022
:1032F000C09D0000B0E90000B009FF1FB409FF1F26
:1033000004ED00E089888888A81AFF1F24E80000DF
:10331000F407FF1FE0D70000FCD7000010D8000022
:1033200018E000E0A41AFF1F4E4B4E4A1B684E499E
:103330004E48CF5C13680133632B1360FFB2C8BFE4
:1033400000234FF0FF31C8BF136002F04DF907F0C2
:10335000DF034E2B01F039814F2B01F02C81452BDF
:1033600001F025810D2F7FF468AF5B46012B01F042
:103370002C815B46022B01F01E813D4803F0C4FA0C
:103380003C4B83F800B00AAB01933B4B3B481B78A6
:10339000DBB21C469B4603F04BFE384803F048FE68
:1033A000374803F0B1FA012C0CBF3648364803F019
:1033B000ABFA364B1B783F2B09DD354C23683F2B8E
:1033C00005DC2E4803F034FE23683F2BF9DDDFF8DF
:1033D000D0A0DFF8D0902F4D2F4C3368002B63D155
:1033E00072B6DAF80030D9F800702A6862B6500177
:1033F00002D5322B88BF0137C3F5EA33BF334FF410
:103400007A72A4FB031302FB07F707EB93174FF045
:103410000A0872B6DAF80010D9F80020D5F800E0F2
:1034200062B6C1F5EA33BF33A4FB03031EF0806F1D
:10343000C7EB93134FF47A7002D0322988BF013260
:1034400000FB0233B3F57A7F05D3B8F10108C4D08D
:1034500007F57A77DDE7114B1B78002BD9D105F002
:1034600089F9D6E7AC1AFF1FB01AFF1FA01AFF1F79
:1034700034D80000F407FF1FFA07FF1F7CDB0000B1
:1034800000DA000010DA000024DA0000B009FF1FA3
:10349000B409FF1F04ED00E089888888A81AFF1F7F
:1034A00018E000E0A41AFF1F7D4B7D4A1B687D4990
:1034B0007D48CF5C13680133632B1360FFB2C8BF34
:1034C00000234FF0FF31C8BF136002F08DF807F002
:1034D000DF034E2B00F00685582B00F0FF840D2FE4
:1034E0007FF47BAF5B46012B00F0FC846F4803F058
:1034F0000BFA6F4B83F800B06E4B1B78022B00F079
:103500004A846D4B6D48197802F0E6FA6A4B1870E0
:103510006B4B1B78012B684B1B7800F03484022B1B
:10352000684B0CBF684A694A1A60694B6948197848
:1035300002F0D2FA664B1870674B6848197802F0AF
:10354000CFF8654B1870664B6648197802F0C8F8DA
:10355000634B1870644B6548197802F0BDFA624BF2
:103560001870634B63481B78DBB21C46009303F072
:103570005FFD604803F05CFD5F4803F0C5F95F48FC
:1035800003F0C2F95E4B83FB0412920811460992C4
:1035900002EB8202A4EB42023032D2B21046089211
:1035A00000228DF833208DF832000A46002900F001
:1035B000928483FB02239B0803EB8303514AA1EB14
:1035C00043032146303382FB01128DF83130530919
:1035D00000F07E8430338DF830300820019B184491
:1035E00003F092F9484803F08FF9414B1B783F2BC9
:1035F00009DD464C23683F2B05DC3E4803F018FDEF
:1036000023683F2BF9DDDFF814A1DFF81491404D5A
:10361000404C3368002B40F0858072B6DAF80030F9
:10362000D9F800702A6862B6520102D5322B88BFE1
:103630000137C3F5EA33BF334FF47A72A4FB0313A7
:1036400002FB07F707EB93174FF00A0872B6DAF898
:103650000010D9F80020D5F800E062B6C1F5EA33D1
:10366000BF33A4FB03031EF0806FC7EB93134FF42B
:103670007A7002D0322988BF013200FB0233B3F5E1
:103680007A7F05D3B8F10108C3D007F57A77DDE773
:10369000214B1B78002BD9D105F06CF8D6E700BF81
:1036A000AC1AFF1FB01AFF1FA01AFF1F38DA000064
:1036B000FA07FF1FEF07FF1FBF09FF1FD4DA000043
:1036C000C109FF1F6018FF1FD0C8000020D00000F4
:1036D000C209FF1FE4DA0000C009FF1FF0DA000092
:1036E000F707FF1F08DB0000F307FF1F1CDB0000CC
:1036F000B009FF1F7CDB000034DB000040DB000072
:10370000676666661F85EB51B0E90000B409FF1FCC
:1037100004ED00E089888888A81AFF1F18E000E0FF
:10372000A41AFF1FAA4BAA4A1B68AA49AA4811F863
:1037300003B013680133632B13605FFA8BFBC8BFC0
:1037400000234FF0FF31C8BF136001F04DFFABF114
:103750003803012B40F28082BBF1310F00F08681EB
:10376000BBF10D0F7FF455AF09989DF820208DF81F
:10377000322000238DF83330002800F02387974B48
:10378000974A014683FB01139B0803EB83030099CF
:10379000A0EB4303303382FB01128DF83130530923
:1037A00000F0028730338DF830300820019B03444D
:1037B000184603F0A9F88B488B4D8C4C03F038FC6D
:1037C0009DF800202A702178894802F085F9034687
:1037D0008448237003F02CFC864801F0E1F90028AE
:1037E00052D0854B0220197801F05EFB834B0320F9
:1037F000197801F059FB824B0420197801F054FB31
:10380000804B1420197801F04FFB7F4B152019785D
:1038100001F04AFB7D4B1620197801F045FB7C4BEB
:103820001720197801F040FB7A4B1820197801F025
:103830003BFB794B1920197801F036FB774B1A20A6
:10384000197801F031FB764B2120197801F02CFB1F
:10385000744B1B20197801F027FB734B1C2019783F
:1038600001F022FB714B1F20197801F01DFB704BFA
:103870002020197801F018FB29781D2001F014FB95
:1038800021781E2001F010FB564803F0D1FB5D4B60
:10389000029A1B789A427CD06649674A00230B70D3
:1038A0001370029B012B27D0644B1B685E0523D548
:1038B000DFF8A881DFF8A8A1DFF8A8B1DFF8A891A8
:1038C00098F80030002B00F0248699F80030002B87
:1038D000FBD15B4B5B4A5C4C5C484FF0004119608C
:1038E000002340F20311D370216001601179D27975
:1038F0008AF800308BF80030424B1B78012B3ED009
:10390000424B534A1978534B52F82100414A44081C
:103910001178514A2344B3FBF0F052F8214004F0EF
:10392000F5FC484B9A7804F0030302F0EC021343D1
:103930006507444A04F00F0148BF43F0100304290F
:10394000937000F0E0853F4B3E4A5B79E00603F060
:10395000EF0348BF43F0100353719279394B02F0E3
:10396000EF02A10648BF42F010029A71E20506D5A7
:103970005A781978D2B241F0200119705A70204B50
:10398000039A1B789A421BD001F0A4FD11B0BDE848
:10399000F08F1F4B049A1B789A427FF47DAF1B4B2C
:1039A000059A1B789A427FF477AF1A4B069A1B78D8
:1039B0009A427FF471AF124B039A1B789A42E3D17B
:1039C000094B079A1B789A42DED111B0BDE8F08FFF
:1039D000AC1AFF1FB01AFF1FA01AFF1F67666666AA
:1039E0001F85EB5124E80000B009FF1FBC09FF1F31
:1039F0004CDB0000C8B90000F807FF1FF907FF1FE4
:103A0000EE07FF1FEF07FF1FC109FF1FF107FF1F91
:103A1000F407FF1FF207FF1FFA07FF1FF007FF1F42
:103A2000BF09FF1FC209FF1FC009FF1FF707FF1FC4
:103A3000F307FF1FDB0EFF1FC812FF1F3480044077
:103A400080E100E000A0064040A0044044A0044003
:103A5000C09D0000001C4E0E189E0000A81AFF1FFB
:103A600064A5002065A5002088A40020A848DFF8F0
:103A7000C0A2DFF8C092A74DA74C03F0D9FA336873
:103A8000002B41D172B6DAF80030D9F800702A68FC
:103A900062B6510102D5322B88BF0137C3F5EA3334
:103AA000BF334FF47A72A4FB031302FB07F707EB53
:103AB00093174FF00A0872B6DAF80010D9F8002010
:103AC000D5F800E062B6C1F5EA33BF33A4FB0303C7
:103AD0001EF0806FC7EB93134FF47A7002D0322937
:103AE00088BF013200FB0233B3F57A7F05D3B8F10A
:103AF0000108C4D007F57A77DDE7884B1B78002BE7
:103B0000D9D104F037FED6E7854B854A1B68854935
:103B1000854811F803B013680133632B13605FFA13
:103B20008BFBC8BF00234FF0FF31C8BF136001F00B
:103B30005BFDABF13003DAB2062AA0D87B4A0092D3
:103B400003EB830302EBCB0B5B00DBB2DBF804007F
:103B5000089303F16404E4B208B103F069FAA02CFD
:103B60000CBF35233923DFF8C8A1DFF8C891694DB0
:103B7000694C01933368002B41D172B6DAF80030FA
:103B8000D9F800702A6862B6520102D5322B88BF7C
:103B90000137C3F5EA33BF334FF47A72A4FB031342
:103BA00002FB07F707EB93174FF00A0872B6DAF833
:103BB0000010D9F80020D5F800E062B6C1F5EA336C
:103BC000BF33A4FB03031EF0806FC7EB93134FF4C6
:103BD0007A7002D0322988BF013200FB0233B3F57C
:103BE0007A7F05D3B8F10108C4D007F57A77DDE70D
:103BF0004A4B1B78002BD9D104F0BCFDD6E7484BCB
:103C0000474A1B684749484811F803B01368013315
:103C1000632B13605FFA8BFBC8BF00234FF0FF31AB
:103C2000C8BF136001F0E0FCBBF12F0FA2D9019BCC
:103C30009B459FDC009A0BF07F0302EBC303089ABD
:103C40005868343293445FFA8BF3009300283FF4B2
:103C5000B2AD03F0EDF9AEE5344B009303EBCB03CB
:103C6000ABF1300B0BEB8B0B58684FEA4B0B5FFA49
:103C70008BF3019308B103F0DBF9DFF8B4A0DFF8B0
:103C8000B490244D244C3368002B55D172B6DAF829
:103C90000030D9F800702A6862B6500102D5322B84
:103CA00088BF0137C3F5EA33BF334FF47A72A4FB00
:103CB000031302FB07F707EB93174FF00A0872B6DE
:103CC000DAF80010D9F80020D5F800E062B6C1F5A6
:103CD000EA33BF33A4FB03031EF0806FC7EB9313DB
:103CE0004FF47A7002D0322988BF013200FB0233D0
:103CF000B3F57A7F05D3B8F10108C4D007F57A7718
:103D0000DDE7064B1B78002BD9D104F033FDD6E755
:103D100058E7000004ED00E089888888A81AFF1F92
:103D2000AC1AFF1FB01AFF1FA01AFF1F88DB00008C
:103D300018E000E0A41AFF1FB84BB84A1B68B84946
:103D4000B84811F803B013680133632B13605FFAAE
:103D50008BFBC8BF00234FF0FF31C8BF136001F0D9
:103D600043FCABF13003DBB2092B8CD8009A02EB99
:103D7000CB0B019ADBF804001A44D3B2009300285D
:103D80007FF467AF17E5022BA74B0CBFA74AA84AE1
:103D90001A60FFF7CABBA74BA7481B78DBB21C46CB
:103DA0009B4603F045F9A44803F042F9A34802F00A
:103DB000ABFD012C00F0A383022C0CBFA048A1484E
:103DC00002F0A2FDA04B1B783F2B76DCDFF8B0A2FF
:103DD000DFF8B0929D4D9E4C3368002B41D172B6F6
:103DE000DAF80030D9F800702A6862B6510102D5BD
:103DF000322B88BF0137C3F5EA33BF334FF47A72F1
:103E0000A4FB031302FB07F707EB93174FF00A0815
:103E100072B6DAF80010D9F80020D5F800E062B6E2
:103E2000C1F5EA33BF33A4FB03031EF0806FC7EB79
:103E300093134FF47A7002D0322988BF013200FB0D
:103E40000233B3F57A7F05D3B8F10108C4D007F582
:103E50007A77DDE77F4B1B78002BD9D104F08AFC01
:103E6000D6E76E4B6D4A1B686D496E48CF5C136890
:103E70000133632B1360FFB2C8BF00234FF0FF3143
:103E8000C8BF136001F0B0FB07F0DF034E2B00F05A
:103E90002A83522B00F015830D2F9DD15B46012BF9
:103EA00000F02183022B0CBF6B486C4802F02CFD04
:103EB000604B83F800B0FFF724BB694C23683F2BAD
:103EC00084DC5D4803F0B4F823683F2BF9DD7DE71F
:103ED0000920FFF783BB0A20FFF780BB02239B4624
:103EE000FFF704BB5F4802F00FFD01239B46FFF77D
:103EF00000BB5B4C23683F2B3FF799A94E4803F06A
:103F000097F823683F2BF9DDFFF791B9564802F087
:103F1000FBFC0F239B46554B474883F800B0544B9E
:103F20001B78DBB21C469B4603F082F8424803F044
:103F30007FF8504802F0E8FC012C00F0B881022C18
:103F400000F0BB82032C00F0B482042C00F0AD82A0
:103F5000052C00F0A682062C00F09F82072C0CBFD7
:103F60004548464802F0D0FC374B1B783F2B09DD13
:103F70003B4C23683F2B05DC2F4803F059F823689E
:103F80003F2BF9DDDFF8F8A0DFF8F8902F4D304C2B
:103F90003368002B78D172B6DAF80030D9F80070A7
:103FA0002A6862B6500102D5322B88BF0137C3F5AB
:103FB000EA33BF334FF47A72A4FB031302FB07F713
:103FC00007EB93174FF00A0872B6DAF80010D9F829
:103FD0000020D5F800E062B6C1F5EA33BF33A4FB98
:103FE00003031EF0806FC7EB93134FF47A7002D077
:103FF000322988BF013200FB0233B3F57A7F05D343
:10400000B8F10108C4D007F57A77DDE7114B1B78CA
:10401000002BD9D104F0AEFBD6E700BFAC1AFF1FCE
:10402000B01AFF1FA01AFF1F6018FF1F30BA000050
:1040300080C10000F007FF1F7CDB000044DA0000B5
:1040400070DA00008CDA0000B009FF1F04ED00E018
:1040500089888888A81AFF1FBCDA0000C8DA000027
:10406000B409FF1F24D8000080D80000F107FF1F0B
:10407000F207FF1FB0D80000A4D90000CCD900007F
:1040800018E000E0A41AFF1FBC4BBC4A1B68BC49E7
:10409000BC48CF5C13680133632B1360FFB2C8BF09
:1040A00000234FF0FF31C8BF136001F09DFA372F96
:1040B00000F08F80382F0FD00D2F7FF469AFB24BF7
:1040C00053F82B0002F020FCB04802F0B1FFB04BD7
:1040D00083F800B0FFF759B9AE48DFF8ECA2DFF87B
:1040E000EC92AD4DAD4C02F0A3FF3368002B41D1F3
:1040F00072B6DAF80030D9F800702A6862B6520158
:1041000002D5322B88BF0137C3F5EA33BF334FF4F2
:104110007A72A4FB031302FB07F707EB93174FF028
:104120000A0872B6DAF80010D9F80020D5F800E0D5
:1041300062B6C1F5EA33BF33A4FB03031EF0806F00
:10414000C7EB93134FF47A7002D0322988BF013243
:1041500000FB0233B3F57A7F05D3B8F10108C4D070
:1041600007F57A77DDE78E4B1B78002BD9D104F069
:1041700001FBD6E7814B81491B68814A8148D35CAA
:104180000A680132632ADFB20B46C8BF00230A6007
:10419000C8BF0B604FF0FF3101F026FA07F0DF03D4
:1041A0004E2B00F05E814F2B00F04B81452B9CD1B4
:1041B0007C4802F03DFF02E0322800F0308101F03F
:1041C0001BFA3128F8D1784802F09EFB05239B4664
:1041D0007DE77648DFF8F0A1DFF8F0916E4D6F4C87
:1041E00002F026FF3368002B41D172B6DAF80030B6
:1041F000D9F800702A6862B6510102D5322B88BF07
:104200000137C3F5EA33BF334FF47A72A4FB0313CB
:1042100002FB07F707EB93174FF00A0872B6DAF8BC
:104220000010D9F80020D5F800E062B6C1F5EA33F5
:10423000BF33A4FB03031EF0806FC7EB93134FF44F
:104240007A7002D0322988BF013200FB0233B3F505
:104250007A7F05D3B8F10108C4D007F57A77DDE796
:104260004F4B1B78002BD9D104F084FAD6E7434B8F
:1042700042491B68424A4348D35C0A680132632AB8
:10428000DFB20B46C8BF00230A60C8BF0B604FF007
:10429000FF3101F0A9F907F0DF034F2B0BD0452BBD
:1042A000A0D1434802F030FB02239B460FE7414870
:1042B00002F02AFB58E6404802F026FB01239B4609
:1042C00005E702239B46FEF7B1BE3C4802F01CFB0B
:1042D00001239B46FEF7ADBE02239B46FEF7D4BDED
:1042E000374802F011FB01239B46FEF7D0BD35484D
:1042F000DFF8D4A0DFF8D490274D284C02F098FEC8
:104300003368002B6BD172B6DAF80030D9F8007040
:104310002A6862B6520102D5322B88BF0137C3F535
:10432000EA33BF334FF47A72A4FB031302FB07F79F
:1043300007EB93174FF00A0872B6DAF80010D9F8B5
:104340000020D5F800E062B6C1F5EA33BF33A4FB24
:1043500003031EF0806FC7EB93134FF47A7002D003
:10436000322988BF013200FB0233B3F57A7F2FD3A5
:10437000B8F10108C4D007F57A77DDE7AC1AFF1F62
:10438000B01AFF1FA01AFF1F0CBA000024E800009B
:10439000F207FF1F04E7000004ED00E08988888829
:1043A000A81AFF1FE8E40000FCD9000010E7000095
:1043B000F8D90000B4D80000F4D90000D0D700002C
:1043C00098D7000058E7000018E000E0A41AFF1F8B
:1043D000AB4B1B78002BAFD104F0CCF9ACE7A94B69
:1043E000A84A1B68A849A948CF5C13680133632B0E
:1043F0001360FFB2C8BF00234FF0FF31C8BF136086
:1044000001F0F2F8312F16D0382F0ED0392F7FF46B
:1044100077AF9F4802F078FA0E239B467BE59D48D4
:1044200002F072FA08239B4651E69B4802F06CFAB0
:104430000A239B466FE5994802F066FA12239B46D1
:1044400069E5974802F0F4FD01E0322819D001F047
:10445000D3F83128F9D1934802F056FA04239B4649
:1044600035E6914802F0E4FD01E032280FD001F07A
:10447000C3F83128F9D18B4802F046FA03239B4652
:1044800025E6844802F040FA07239B461FE6814850
:1044900002F03AFA06239B4619E6844802F034FA01
:1044A00062E5834802F030FA5EE5824802F02CFAB9
:1044B0005AE5814802F028FA56E5804802F024FACD
:1044C00052E57F4802F020FA01E0522811D001F0B5
:1044D00093F800F0DF005328F7D17A4802F014FA7D
:1044E00002239B46E4E4784802F00EFA01239B463F
:1044F000DEE4764802F008FA03239B46D8E47448C9
:1045000002F002FA5EE4937943F040039371FFF7FF
:104510001ABA704F704E714D714C724899F8002064
:10452000DFF80CE202F0FF01002A36D09AF80030E2
:104530009BF800306C4B1B786C4B1B786C4B1B78DA
:104540006C4B1B783B7833782B78237803789EF874
:104550000030EFF305820123002ADFD188F8002024
:10456000EFF3108272B6644E306810B1634C257858
:104570002DB1002A7FF4A4A962B6FFF7A1B9416961
:104580002370316001B18D6102B962B600254577B3
:10459000836898472570FFF793B9002B3FF499A9DA
:1045A00088F80010FFF795B90920FFF7FFB803233B
:1045B0009B46FEF7E2BE524802F0A6F902239B4654
:1045C000FEF7DEBE0A20FFF7F1B83F4802F09CF983
:1045D00001239B46FEF7D4BE4A4802F095F9FEF748
:1045E00021BE494802F024FD01E0362809D001F03F
:1045F00003F83228F9D1454802F086F915239B4685
:1046000089E4434802F080F90D239B4683E4414846
:1046100002F07AF911239B467DE43F4802F074F9D9
:1046200010239B4677E43D4802F002FD01E0382864
:1046300019D000F0E1FF3628F9D1394802F064F9C9
:1046400014239B4667E4374802F0F2FC01E034286B
:104650000FD000F0D1FF3328F9D1334802F054F9DC
:1046600013239B4657E40C4802F04EF90C239B465B
:1046700051E42E4802F048F90B239B464BE400BF5F
:10468000A81AFF1FAC1AFF1FB01AFF1FA01AFF1FA6
:1046900068D80000A4D7000060D8000058D80000F7
:1046A00070E40000FCD900007CE400007CD900002C
:1046B00054D900002CD9000004D90000DCD8000037
:1046C000A8DA0000ACDA000024D80000B4DA000058
:1046D00054DA00004D19FF1F4E19FF1FDD18FF1F90
:1046E000DE18FF1F6C18FF1F2D1AFF1F2E1AFF1F49
:1046F000BD19FF1FBE19FF1F68A500206CA5002073
:104700002CD80000E8D70000F8E60000A0D8000090
:10471000A8D8000098D8000090D8000034E7000026
:1047200088D800004CE7000070D8000078D800005E
:104730006D18FF1F10B4224B1A7992060ED5214A2C
:10474000D9791378507801333F2BC8BF00238342B7
:10475000C9B203D0D018DBB2017113701849CB78FD
:10476000DBB21C060ED4590609D5154B1A79520630
:1047700005D5144900202C2281F87000DA705DF80C
:10478000044B70470A791006EDD50E4A92F8444062
:1047900092F84500C0B284420ED0411C272986BF42
:1047A00000200146C8B21144054C91F84810C9B226
:1047B000E17182F84500D6E76C22CA70D3E700BFEA
:1047C00000B00E406C18FF1F10B4244B1A799206EB
:1047D00012D5234AD97992F8713092F872000133D8
:1047E0003F2BC8BF00238342C9B205D0D018DBB22B
:1047F00080F8741082F871301849CB78DBB21C064F
:104800000ED4590609D5154B1A79520605D5144907
:1048100000202C2281F8E000DA705DF8044B70472C
:104820000A791006EDD50E4A92F8B44092F8B50018
:10483000C0B284420ED0411C272986BF0020014609
:10484000C8B21144054C91F8B810C9B2E17182F8B0
:10485000B500D6E76C22CA70D3E700BF00A00E40B7
:104860006C18FF1F10B4244B1A79920612D5234AF4
:10487000D97992F8E13092F8E20001333F2BC8BFBA
:1048800000238342C9B205D0D018DBB280F8E4100F
:1048900082F8E1301849CB78DBB21C060ED45906F9
:1048A00009D5154B1A79520605D5144900202C223A
:1048B00081F85001DA705DF8044B70470A791006F0
:1048C000EDD50E4A92F8244192F82501C0B28442F7
:1048D0000ED0411C272986BF00200146C8B21144D2
:1048E000054C91F82811C9B2E17182F82501D6E78B
:1048F0006C22CA70D3E700BF00D006406C18FF1FBF
:1049000010B4244B1A79920612D5234AD97992F819
:10491000513192F8520101333F2BC8BF002383422B
:10492000C9B205D0D018DBB280F8541182F85131E9
:104930001849CB78DBB21C060ED4590609D5154BA5
:104940001A79520605D5144900202C2281F8C0019D
:10495000DA705DF8044B70470A791006EDD50E4AFF
:1049600092F8944192F89501C0B284420ED0411C55
:10497000272986BF00200146C8B21144054C91F892
:104980009811C9B2E17182F89501D6E76C22CA701C
:10499000D3E700BF00C006406C18FF1FF0B4334BD4
:1049A0001A7912F0300F22D072B6997D01F0FF0211
:1049B00000292FD062B62E4D95F8C10195F8C2712D
:1049C0001C46C0B2FFB2431C402BE17928BF002334
:1049D000BB4202F1FF32C9B203D0EE18184686F886
:1049E000C41112F0FF02EED1C0B285F8C1011F4917
:1049F000CA78D2B2150612D4510609D51B4B1A79C2
:104A0000520605D51A4900203C2281F83002DA709E
:104A1000F0BC70474022D9795A7462B6E7E70B7947
:104A20001C06E9D5124D95F8044295F80532E4B21A
:104A3000DBB29C4202D10EE0A3420CD00133282B02
:104A400028BF0023E8180E7990F80802C0B2C87198
:104A5000087D0728F0D9DBB2044985F805320B79C7
:104A6000180644BF7C23CB70C6E700BF00B00640E9
:104A70006C18FF1F08B503F0FFFD00BF104B1B684B
:104A80005B060BD50F4B1A5C62B100221A540E4B19
:104A90000E4A1B680F3342F820307047094B1A5CEE
:104AA0000AB17047704701221A54074B07491B6827
:104AB000074A553341F820301368184402F012B801
:104AC000D0F00F4094A50020E4A50020E8A5002028
:104AD00020A70020F8B5264B03EBC0030D465C6809
:104AE000216811F4E06101D13F2838D9214B224AD5
:104AF0002249C3F82C2104F14042C3F83011A2F539
:104B000092211F4F1F4E2048C3F834717C29C3F8EF
:104B10003861C3F83C0120D9A2F594237C2B0DD930
:104B2000A2F596237C2B1FD9A2F598237C2B19D9AB
:104B3000A2F59A227C2A19D8144800E0144872B6CB
:104B40002368C4F3840123F4702343F08572236047
:104B500040F82150226062B6F8BD0E48EFE703F03E
:104B600025FCC3E70C48EAE70C48E8E7F8BD00BFBE
:104B7000F80901000002FF1FA907FF1F7D07FF1FA3
:104B80005107FF1F2507FF1FF906FF1FFC07FF1F27
:104B9000D808FF1F3809FF1F6808FF1FA808FF1F5C
:104BA0002DE9F84F0446664800F10C0502F040FA82
:104BB000A5F10C0002F03CFA013C14F8012F02F0C0
:104BC0007F0305EBC3033AB15B681846002BF4D0B2
:104BD00002F02EFA0028F0D15A4C5B4D14F8012B4C
:104BE00002F07F0305EBC3033AB15B681846002B64
:104BF000F4D002F01DFA0028F0D1544C94F8B431EE
:104C0000302B0ADDD4F8B831302B06DC4C4802F0EA
:104C10000FFAD4F8B831302BF8DD4D4CDFF848816D
:104C20004C4F4D4DA346D4F83432494A002B3FD166
:104C300072B6D8F80030DBF838123A6862B6520122
:104C400002D5322B88BF0131C3F5EA33BF334FF4AD
:104C50007A72A5FB030302FB01F909EB93194FF0EC
:104C60000A0A72B6D8F80010D4F838223E6862B644
:104C7000C1F5EA33BF33A5FB03037601C9EB9313F8
:104C80004FF47A7002D5322988BF013200FB02331B
:104C9000B3F57A7F05D3BAF1010AC4D009F57A7960
:104CA000DFE794F83C32002BDBD103F063FDD8E75B
:104CB000D2F84032294813444FF0FF3193F8449220
:104CC000D2F840320133632BC2F840325FFA89F9DF
:104CD000C4BF0023C2F8403200F086FC09F0DF03B5
:104CE000592B18D04E2B02D0B9F10D0F9BD11C4C73
:104CF000154D14F8012B02F07F0305EBC3033AB105
:104D00005B681846002BF4D002F092F90028F0D12D
:104D10000020BDE8F88F134C0B4D14F8012B02F066
:104D20007F0305EBC3033AB15B681846002BF4D050
:104D300002F07EF90028F0D10120BDE8F88F00BF15
:104D40007CDB000060E8000088DB0000FC07FF1F40
:104D50006C18FF1F04ED00E089888888A01AFF1FE7
:104D600074E800006CE8000018E000E072B6184A31
:104D700092F8AB32032B1DD8DFE803F016130219AB
:104D8000144B052182F8AB12018813F0080F14BFF1
:104D9000C8228822083042EA014258601A6062B68E
:104DA000704702210C4BEDE703210A4BEAE704218F
:104DB000094BE7E7D2F8B832054933B1D1F8C83228
:104DC0005860C2F8C80262B67047C1F8B802F8E786
:104DD0006C18FF1F9000FF1F9800FF1FFEE700BF29
:104DE000FEE700BF0B4908B5D1F8BC3148B16A46AF
:104DF0001844A2F50052904205D2C1F8BC011846F1
:104E000008BD184608BD04F03BF90C2303604FF0C1
:104E1000FF3008BDFC07FF1FF0B51B4B1B4E596848
:104E200018689A68DB6885B06C460FC433789907B8
:104E30001DD5174A174C1378174913F0700318BF84
:104E40001370164A164B8027177000261220052271
:104E500026706D4608701A7072B6043C45F0010564
:104E60002046A84762B6237813F0700309D10D4B92
:104E7000064901E0013B02D00A78D207FAD505B015
:104E8000F0BD237005B0F0BD78E8000001000240DD
:104E900000000240040002400B00024007000240F4
:104EA0000A000240410D0300B0F5805F17D238B50B
:104EB0000F4B1B78DA070D46044611D504F1A050BC
:104EC0000378AB420AD00B4A137813F0700318BF73
:104ED0001370074A05701378DB07FCD538BD70479F
:104EE000FFF79AFF04F1A0500378AB42EBD1F5E74E
:104EF00001000240000002402DE9F04FE34D2B6815
:104F000085B01BB96B68002B00F05882E04802F0B6
:104F10008FF82B68002B40F3A582DFF8A883DD4FC4
:104F200000244FEA840905EB09039A68002A40F33C
:104F3000F8809868DFF878E380EAE072A2EBE0722C
:104F40008EFB0236D317C3EBA60101EB81060DF1F0
:104F5000040A4FF0000BA2EB46064FF0203C30361F
:104F60005945CDF804C0CAF804C0CAF808C08DF885
:104F70000E608DF80FB040F36D828EFB016CCE1782
:104F8000C6EBAC0606EB8606A1EB460688FB02C123
:104F90003036D3EB61118DF80D6000F05D828EFB31
:104FA000016CCE17C6EBAC0606EB8606A1EB4601FC
:104FB00001F1300687FB02C1D3EBA1118DF80C6023
:104FC00000F040828EFB016CCE17C6EBAC0606EB00
:104FD0008606A1EB4601B04E86FB02C63031D3EB0C
:104FE00026368DF80B1000F02F828EFB061CF11771
:104FF000C1EBAC0101EB810CA849A6EB4C0681FB8F
:1050000002C13036D3EB61318DF80A6000F01E82A8
:105010008EFB016CCE17C6EBAC0606EB8606A1EB49
:10502000460101F130069E498DF8096081FB02C1FD
:10503000D3EBA14100F00C828EFB016CCE17C6EBC6
:10504000AC0606EB8606A1EB4601964E86FB02C631
:105050003031D3EBA6568DF8081000F0EF818EFBAF
:10506000061CF117C1EBAC0101EB810C8E49A6EBDC
:105070004C0681FB02C13036D3EB61618DF80760CD
:1050800000F0DE818EFB016ECE17C6EBAE0E874EB2
:105090000EEB8E0EA1EB4E0186FB02623031D3EB9C
:1050A00022738DF8061000F0C781814AD91782FB60
:1050B0000362C1EBA20202EB8202A3EB4203303394
:1050C0008DF805305B460028C0F27281794E1AF8DF
:1050D000012B02F07F0306EBC3033AB15B6818466D
:1050E000002BF4D001F0A4FF0028F0D17248714EDB
:1050F00001F09EFF714B53F8093003F1FF3919F8A5
:10510000012F02F07F0306EBC3033AB15B68184638
:10511000002BF4D001F08CFF0028F0D15C4801F0A6
:1051200087FF0134072C7FF4FCAE594801F080FF63
:105130006348FFF735FD002840F07081544801F0C6
:1051400077FF6B68002B40F38981DFF87881514F3E
:1051500000244FEA840905EB09035A6A002A40F348
:105160001681586ADFF848E180EAE072A2EBE0724B
:105170008EFB0236D317C3EBA60101EB81060DF1BE
:10518000040A4FF0000BA2EB46064FF0203C3036ED
:105190005945CDF804C0CAF804C0CAF808C08DF853
:1051A0000E608DF80FB040F361818EFB016CCE175D
:1051B000C6EBAC0606EB8606A1EB460688FB02C1F1
:1051C0003036D3EB61118DF80D6000F051818EFB0C
:1051D000016CCE17C6EBAC0606EB8606A1EB4601CA
:1051E00001F1300687FB02C1D3EBA1118DF80C60F1
:1051F00000F040818EFB016CCE17C6EBAC0606EBCF
:105200008606A1EB4601244E86FB02C63031D3EB65
:1052100026368DF80B1000F02F818EFB061CF1173F
:10522000C1EBAC0101EB810C1C49A6EB4C0681FBE8
:1052300002C13036D3EB61318DF80A6000F01E8177
:105240008EFB016CCE17C6EBAC0606EB8606A1EB17
:10525000460101F1300612498DF8096081FB02C157
:10526000D3EBA14100F00C818EFB016CCE17C6EB95
:10527000AC0606EB8606A1EB46010A4E86FB02C68B
:105280003031D3EBA6568DF808101DE0381BFF1FF8
:1052900024E80000D34D6210AD8BDB6889B5F814AB
:1052A00083DE1B436BCA5F6B893BE655A12FB84475
:1052B0006766666688DB00007CDB000088E800002B
:1052C000E4E800001F85EB5100F0DC808EFB061C3B
:1052D000F117C1EBAC0101EB810C6D49A6EB4C065B
:1052E00081FB02C13036D3EB61618DF8076000F0BD
:1052F000CB808EFB016ECE17C6EBAE0E654E0EEB6D
:105300008E0EA1EB4E0186FB02623031D3EB22738D
:105310008DF8061000F0BA805F4AD91782FB03624D
:10532000C1EBA20202EB8202A3EB420330338DF801
:1053300005305B46002855DB584E1AF8012B02F069
:105340007F0306EBC3033AB15B681846002BF4D029
:1053500001F06EFE0028F0D15148504E01F068FE79
:10536000504B53F8093003F1FF3919F8012F02F0BF
:105370007F0306EBC3033AB15B681846002BF4D0F9
:1053800001F056FE0028F0D1474801F051FE0134EB
:10539000032C7FF4DEAE444801F04AFE4348FFF799
:1053A000FFFB28BB404805B0BDE8F04F01F040BE10
:1053B00004AA13442D2203F80C2C87E63C4C374DED
:1053C00014F8012B02F07F0305EBC3033AB15B68CD
:1053D0001846002BF4D001F02BFE0028F0D105B0C8
:1053E000BDE8F08F04AA13442D2203F80C2CA3E788
:1053F000304A31492C4800236B606B6253609360E4
:105400000B6813F0FF0F14BF2C4B2D4B4FF0807225
:105410001A6005B0BDE8F04F01F00ABE294A2A49DA
:10542000002320202B60AB6053609360D360136136
:1054300053619361086081E6012344E6032342E659
:10544000022340E607233EE606233CE605233AE630
:10545000042338E6092336E6082334E61B4801F026
:1054600053FA9FE71A4801F04FFA67E6092361E70C
:1054700008235FE707235DE706235BE7052359E77A
:10548000042357E7032355E7022353E7012351E79A
:10549000893BE655A12FB8446766666688DB000045
:1054A0007CDB0000A4E8000024E8000004E9000020
:1054B000C8E800005C1BFF1FD407FF1F04F10F406A
:1054C00008F10F40401BFF1F88F00F4014E9000057
:1054D000F4E8000070B5274801F0AAFD264801F065
:1054E000A7FD264801F0A4FD5024254801F0A0FDA9
:1054F000013CFAD1234B244D1B78022B32D06B7820
:10550000012BC8BF012406DD204801F091FD6B7816
:105510000134A342F8DC1E4801F08AFD6C78AB78B8
:10552000E4B29C4216DA1B4E05E0184801F080FDFB
:10553000AB78A3420EDD3319013493F83030012BE0
:10554000F3D1154801F074FD104801F071FDAB78FE
:10555000A342F0DC114801F06BFD0748BDE8704044
:1055600001F066BD2B78012BC9D10D4801F060FD1B
:10557000C5E700BFB0E8000024E80000B4B80000B0
:105580003CE80000C00EFF1FBC09FF1F7CDB0000D1
:10559000D8B80000381BFF1FA8B80000C0B8000032
:1055A000BCE800000C4B1B78012B00D070470B4B64
:1055B0001B78012BFAD1431E052BF7D8084B09495C
:1055C0001A6803EB800001321A60836820220133DD
:1055D00083600A60704700BFB80EFF1FF807FF1F07
:1055E000381BFF1F84F00F4050E8003F0B4440E899
:1055F0000032002AF8D170472DE9F84FDFF8D0B01B
:10560000DFF8D0A0DFF8D090DFF8D0802C4FDBF8A7
:105610000030002B3FD172B6DAF80030D9F80040E4
:10562000D8F8002062B6520102D5322B88BF01346F
:10563000C3F5EA33BF334FF47A72A7FB031302FBBF
:1056400004F404EB93140A2572B6DAF80010D9F8C2
:105650000020D8F8006062B6C1F5EA33BF33A7FB7B
:1056600003037601C4EB93134FF47A7002D5322909
:1056700088BF013200FB0233B3F57A7F04D3013DCA
:10568000C5D004F57A74DFE70E4B1B78002BDBD115
:1056900003F070F8D8E70C4A0C4913680C48CC5C4E
:1056A00013680133632B1360E4B2C8BF00234FF0CB
:1056B000FF31C8BF1360FFF797FF2046BDE8F88FA2
:1056C00089888888A81AFF1FAC1AFF1FB01AFF1F0D
:1056D000A01AFF1F18E000E0A41AFF1F04ED00E06D
:1056E0002DE9F84F0446BD48BD4D8B4601F0A0FCA6
:1056F000BA4801F09DFC013C14F8012F02F07F0331
:1057000005EBC3033AB15B681846002BF4D001F0F7
:105710008FFC0028F0D15B46012B00F0BC815B467A
:10572000022B00F0B4815B46032B00F0AC81AD4C42
:10573000AB4D14F8012B02F07F0305EBC3033AB124
:105740005B681846002BF4D001F072FC0028F0D101
:10575000A54B1B783F2B09DDA44C23683F2B05DCB0
:105760009E4801F065FC23683F2BF9DDA04EDFF871
:10577000ACA2DFF8AC929F4D9F4C3368002B41D117
:1057800072B6DAF80030D9F800702A6862B65001B3
:1057900002D5322B88BF0137C3F5EA33BF334FF44C
:1057A0007A72A4FB031302FB07F707EB93174FF082
:1057B0000A0872B6DAF80010D9F80020D5F800E02F
:1057C00062B6C1F5EA33BF33A4FB03031EF0806F5A
:1057D000C7EB93134FF47A7002D0322988BF01329D
:1057E00000FB0233B3F57A7F05D3B8F10108C4D0CA
:1057F00007F57A77DDE7814B1B78002BD9D102F0D2
:10580000B9FFD6E77E4B7E4A1B687E497848CF5C5D
:1058100013680133632B1360FFB2C8BF00234FF03E
:10582000FF31C8BF1360FFF7DFFE07F0DF03432B34
:1058300016D04C2B00F08B800D2F9ED15B46012B98
:1058400000F02D815B46022B00F02D815B46032B7F
:105850000CBF6D486D4801F057F85846BDE8F88F09
:105860006B48DFF8B891DFF8B881624D624C01F007
:105870004BF83368002B41D172B6D9F80030D8F814
:1058800000702A6862B6510102D5322B88BF0137F9
:10589000C3F5EA33BF334FF47A72A4FB031302FB60
:1058A00007F707EB93174FF00A0A72B6D9F8001002
:1058B000D8F80020D5F800E062B6C1F5EA33BF336E
:1058C000A4FB03031EF0806FC7EB93134FF47A70B1
:1058D00002D0322988BF013200FB0233B3F57A7F50
:1058E00005D3BAF1010AC4D007F57A77DDE7434B57
:1058F0001B78002BD9D102F03DFFD6E7404B404A40
:105900001B6840493A48CF5C13680133632B13602E
:10591000FFB2C8BF00234FF0FF31C8BF1360FFF7CD
:1059200063FE07F0DF034C2B09D00D2FA1D13948BE
:1059300000F0EAFF01239B465846BDE8F88F324845
:1059400000F0E2FF02239B465846BDE8F88F32483C
:10595000DFF8C890DFF8C880264D274C00F0D4FF50
:105960003368002B65D172B6D9F80030D8F80070D2
:105970002A6862B6520102D5322B88BF0137C3F5BF
:10598000EA33BF334FF47A72A4FB031302FB07F729
:1059900007EB93174FF00A0A72B6D9F80010D8F83F
:1059A0000020D5F800E062B6C1F5EA33BF33A4FBAE
:1059B00003031EF0806FC7EB93134FF47A7002D08D
:1059C000322988BF013200FB0233B3F57A7F29D335
:1059D000BAF1010AC4D007F57A77DDE77CDB000075
:1059E00088DB000054E90000B009FF1FB409FF1F65
:1059F000A01AFF1F04ED00E089888888A81AFF1FFD
:105A0000AC1AFF1FB01AFF1F88E900009CE90000D4
:105A100084E9000040EA00008CE9000018E000E0A2
:105A2000A41AFF1F224B1B78002BB5D102F0A2FE57
:105A3000B2E7204B1F4A1B681F492048CF5C136800
:105A40000133632B1360FFB2C8BF00234FF0FF3157
:105A5000C8BF1360FFF7C8FD07F0DF03432B0AD070
:105A60000D2F7FF47DAF164800F04EFF03239B46B9
:105A70005846BDE8F88F134800F046FF04239B46C4
:105A80005846BDE8F88F104800F03EFF60E60F482A
:105A900000F03AFF5CE60E4800F036FF58E6094891
:105AA00000F032FF48E70B4800F02EFF44E700BF4C
:105AB000A81AFF1FAC1AFF1FB01AFF1FA01AFF1F62
:105AC00040EA000090E900006CE900003CE90000B9
:105AD00024E9000094E900002DE9F84F04466C48E1
