:10000000F8FF022099010000594D00008D4C0000BE
:100010008D4C00008D4C00008D4C00008D4C00007C
:100020008D4C00008D4C00008D4C0000594D00009F
:10003000594D00008D4C00004D4C0000C14A00009D
:10004000594D0000594D0000594D0000594D000018
:10005000594D0000594D0000594D0000594D000008
:10006000594D0000594D0000594D0000594D0000F8
:10007000594D0000594D0000594D0000594D0000E8
:10008000594D0000594D0000594D0000594D0000D8
:10009000594D0000594D0000594D0000594D0000C8
:1000A000594D0000594D0000594D0000594D0000B8
:1000B000594D0000594D0000594D0000B983000012
:1000C000594D0000E9490000594D00004D4900001C
:1000D000594D0000B1480000594D0000594D000035
:1000E000594D0000594D0000594D0000594D000078
:1000F000594D0000594D0000594D0000594D000068
:10010000594D0000594D0000594D0000594D000057
:10011000594D00005D870000594D0000594D000009
:10012000594D0000594D0000594D0000594D000037
:10013000594D0000594D0000594D0000594D000027
:10014000594D0000594D000015480000594D000060
:1001500081470000594D0000594D0000594D0000E5
:10016000594D0000594D0000594D0000594D0000F7
:10017000594D0000594D0000594D0000594D0000E7
:10018000594D0000594D0000594D0000594D0000D7
:10019000594D0000594D000008B55D4B4CF22052FE
:1001A0001A804DF628121A8000BF00BF102223F8D3
:1001B0000E2CA3F51F43DE3B4FF030621A60554A08
:1001C0009A60554ADA60554B4FF470021A60544AEF
:1001D000136813F4807304D152490B604FF4A85391
:1001E0001360514B1A78100703D51A7842F00802B1
:1001F0001A704E4B4E492A221A704E4A4E4B8B4271
:1002000004D252F8040F43F8040BF8E74B4B4C4967
:1002100000228B4202D243F8042BFAE749494A4AAA
:10022000002352F8230041F823000133662BF8D154
:10023000464B474A802103F8011B9342FBD1454BB3
:10024000404A1A60444B8A221A70A3F58053242234
:100250005A70A0221A709A799107FCD59A79D20621
:10026000FCD43E4A937903F00C03082B3B4BF9D1A5
:1002700003221A7146225A719A799406FCD5374A9C
:100280009179364B4806FBD5354A4FF082711160A3
:100290000921516020221A709A7902F00C020C2A6E
:1002A000FAD1304B304A1A60304B314A1A60002480
:1002B00007225C6043F8042C2E4AC3F80C2D62B66A
:1002C0000AF064F8174B1A68D1070AD52A4A2B4955
:1002D0001C60146042F8041C10221A60284A294944
:1002E0001160294A127852060ED52549254A086818
:1002F000904209D12048214C00221A60026040F847
:10030000044C102018600A600AF06CFA00F0AEF895
:100310000E200540823F04000100002B88ED00E024
:1003200010D0034014D0034002D0074000E0074043
:100330009C0EFF1FB4250100F806FF1F9C0EFF1F37
:1003400028A700200002FF1F0000000000E400E0DA
:1003500056E400E008ED00E0005006400040064092
:100360004480044004800440C010050014E000E014
:10037000BFD401000000202004D00340FD9F695D30
:100380001CE00340A5C3945A00F00740FFFFFFFFA5
:10039000FFFFFFFFFFFFFFFFFFFFFFFFFFFFFFFF6D
:1003A000FFFFFFFFFFFFFFFFFFFFFFFFFFFFFFFF5D
:1003B000FFFFFFFFFFFFFFFFFFFFFFFFFFFFFFFF4D
:1003C000FFFFFFFFFFFFFFFFFFFFFFFFFFFFFFFF3D
:1003D000FFFFFFFFFFFFFFFFFFFFFFFFFFFFFFFF2D
:1003E000FFFFFFFFFFFFFFFFFFFFFFFFFFFFFFFF1D
:1003F000FFFFFFFFFFFFFFFFFFFFFFFFFFFFFFFF0D
:10040000FFFFFFFFFFFFFFFFFFFFFFFFDEF9FFFF23
:1004100010B5054C237833B9044B13B10448AFF33E
:1004200000800123237010BD9C0EFF1F0000000000
:10043000B8250100084B10B51BB108490848AFF3B7
:1004400000800848036803B910BD074B002BFBD0A0
:10045000BDE81040184700BF00000000A00EFF1FBD
:10046000B82501009C0EFF1F000000002DE9804808
:100470000025C94C87B029462120257008F01EFFB1
:10048000C64B93F80032DBB2012B01F0D783C44B8B
:10049000C44E02931F4601216160252226231320AA
:1004A00012213D6032707370F27133723075717564
:1004B0000021172008F002FF00211C2008F0FEFE9A
:1004C0000021092008F0FAFE00210F2008F0F6FEB6
:1004D0000021272008F0F2FE00210A2008F0EEFE9D
:1004E00000210B2008F0EAFE00210C2008F0E6FEB7
:1004F0000021232008F0E2FE0021032008F0DEFEA8
:100500000021042008F0DAFE00211A2008F0D6FEAF
:1005100000211B2008F0D2FE0021162008F0CEFE9C
:100520000021022008F0CAFE00210E2008F0C6FEBD
:100530000021072008F0C2FE0021082008F0BEFEBE
:100540000021062008F0BAFE0021142008F0B6FEB3
:100550000021152008F0B2FE0021052008F0AEFEB3
:100560000121102008F0AAFE1120012108F0A6FEAA
:100570003078C0B23F2802D8012108F09FFE707881
:10058000C0B23F2802D8012108F098FE01211F20A7
:1005900008F094FE0121202008F090FE01211D208A
:1005A00008F08CFE01211E2008F088FE0021182092
:1005B00008F084FE0021222008F080FE01210D2099
:1005C00008F07CFE0121212008F078FE0121242082
:1005D00008F074FE0021084608F070FE012108466C
:1005E00008F06CFE307DC0B23F2802D8012108F02F
:1005F00065FE707DC0B23F2802D8002108F05EFE83
:1006000009F088FD684B684820221A60029B1B682D
:1006100013F0FF0F14BF654B654B4FF080721A60EB
:10062000644A654B4FF400754FF40031056011606A
:100630001A68520141F1FD821B689B014CBF0123E6
:100640000223237272B6257AEDB2042D01F02683BF
:100650005A49172007F0A2F958491C2007F09EF9C3
:100660005649092007F09AF954490F2007F096F9E6
:100670005249272007F092F950490A2007F08EF9D5
:100680004E490B2007F08AF94C490C2007F086F9F7
:100690004A49232007F082F94849032007F07EF9F0
:1006A0004649042007F07AF944491A2007F076F900
:1006B00042491B2007F072F94049162007F06EF9F5
:1006C00062B609F009FC002008F076FF237A042BBB
:1006D00008D0B37D022B05D1394805F011F939480E
:1006E00005F00EF9277A2C4DFFB2012F01F05E8242
:1006F0002B7A022B01F07C822B7A032B324B01F0F8
:1007000071821A4600932B7A02F5EA630393237AE7
:10071000042B66D0F27D234B012A62D0597E009DC6
:100720009A7E2A4B05EB810105EB8202D1F85C0B26
:10073000D2F8B45B42081344B3FBF0F008F06EFD4E
:10074000234B9A7805F0030302F0EC0213436F0782
:100750001F4A05F00F0148BF43F0100304299370AE
:1007600003D1937943F040039371194B184A5B7995
:10077000E80603F0EF0348BF43F01003537192798A
:10078000134B02F0EF02A90648BF42F010029A7123
:10079000EA0526D51EE000BFB80EFF1F6020FE430D
:1007A0001008FF1FD407FF1F88F00F4004F10F400F
:1007B00008F10F4044F00F4010F10F40211D0000E0
:1007C00018CE000024CE0000BCA90000001C4E0E74
:1007D00000A006405A781978D2B241F02001197071
:1007E0005A7009F0C1FC01232370237A042B01D035
:1007F00005F01EF8DFF83093DFF83083DFF830A320
:10080000BE4DB3465F46237A042B00F0B681BC4947
:100810004FF0000BFB7D012B3CD099F8002098F89D
:100820000030D2B2DBB29A4238BF4032D31A003322
:1008300018BF0123002B3CD0FB7D012B00F045812C
:1008400099F8002098F80030DBB29A4200F0498312
:1008500001333F2B84BF00221346AA48C65C98BFD1
:10086000DAB288F8002006F07F06E369B3F57A7FF4
:1008700080F2408195F82030002B00F0F780009B3B
:100880001E4496F8D83B002BC4D085F820B0FB7DE1
:10089000012BC2D19C4B1A689C4B9B88002AC6D066
:1008A00010885288821A1344003318BF0123002B8A
:1008B000C2D194F81034002B4CD13B7E944A012BCA
:1008C00007D0537D934A52F8333093F80032002B0F
:1008D00040D1914B1B68002B3CDD4FF0000B8C4E40
:1008E00017E008F02FFCD4F814340133B3F57A7F05
:1008F000C4F814344FF0FF30A4BF0023C5F81434FB
:1009000009F084FC844B1B68002B4FF0010B40F373
:100910002585D4F81434234493F81804FB7D012B67
:1009200000F07F0000F04E82FB7D012B00F0598229
:100930007A4B7B4A1B781278DBB2D2B293422CBF3F
:100940003F3202F1FF32D31A002BCADCBBF1000F99
:1009500040F00485734B1B68002BC8BF002611DCD8
:100960001AE0D5F800380133632B4FF0FF30C5F89B
:100970000038C8BFC5F8006809F058FC694B1B680F
:10098000002B09DDD4F8003804EB8303D3F8040806
:1009900004F0B6FF0028E4D1237A012B00F0058390
:1009A0005B4EE369002B40F3D380DAF800204AF66F
:1009B000C7739A4200F3CC80D5F894392B4493F84E
:1009C00028B0D5F894390133B3F57A7FC5F8943956
:1009D000A4BF0023C5F89439E369013BE361E369EF
:1009E000322B5FFA8BFB0BDC95F8233043B197F881
:1009F0002130022B00F0B881337E032B00F0D6812A
:100A0000BBF10D0F05D00023BBF10A0F84F8993913
:100A100002D0002384F89839226952F83B30013B18
:100A20000F2BBED801A151F823F000BFBD0C000070
:100A3000110C0000CB0C0000910C0000670C0000B2
:100A4000330C0000A3090000610D0000090D000037
:100A5000130D0000090C0000010C0000390C00000F
:100A6000E30C0000090C0000010C0000FB7EDBB26F
:100A7000012B5FD094F82130002B60D00D2E85F82B
:100A800021B03FF4C7AEE26940F2ED239A420CDD9B
:100A900095F823304BB997F821201D4B022A00F01E
:100AA00054821A7E032A00F07582636A234483F815
:100AB0002860636A0133B3F57A7F6362A8BFC5F823
:100AC00024B0E3690133E361A4E60F4B1868002802
:100AD00000F0F28143880288C61801339342367AC7
:100AE00080F089814380E369B3F57A7F06F07F0661
:100AF000FFF6C0AE022004F029FCDAE6B80EFF1FB4
:100B000094A30020E8A20020441BFF1F481BFF1FE6
:100B1000D407FF1F982301008CA5002028A30020E4
:100B200029A3002090A50020C81AFF1FC91AFF1F83
:100B300094A500201B2E9DD185F820306AE695F8FB
:100B40002220002A9FD00A2E85F822309BD161E610
:100B50002378022B00F0AC822378032B00F05B8219
:100B60002378042B09D195F89A39002B40F01C8783
:100B7000D5F8A039EB6001232B70AF4BAE4A1B7840
:100B8000002B7FF440AE99F80010137098F80030F5
:100B9000AA4B1B78AA4B1B78AA4B1B78AA4B1B7835
:100BA000AA4B1B78AA4B1B78AA4B1B78AA4B1B7825
:100BB000AA4B1B78AA4B1B78EFF30583002B7FF41D
:100BC00022AEBB46EFF3108272B6A64B18681E46E3
:100BD000002800F0E386A44BA34F1B78002B40F0C5
:100BE000DD864169316001263E7001B18B6102B939
:100BF00062B600268368467798479B4B1E7001E6D5
:100C0000002384F81034CCE6012384F81034C8E6BD
:100C1000A37D009AE260002B40F04481E37D002B2D
:100C200040F09880237E23B9904804F069FE0123A8
:100C30002B7601236376B4E6FB7F012B00F0D7808F
:100C4000F37F022B00F05781F37F032B04D094F83D
:100C50009939002B40F0CB80854804F051FE0023E9
:100C600084F899399DE6A37D824AE260002B40F02A
:100C7000DD80E37D002B40F0D380237E002BD8D095
:100C80007D4804F03DFE00232B760123637688E641
:100C9000A37D7A4AE260002B40F0BC8097F81DB03B
:100CA0005FFA8BFBBBF1010FE7D1E37D002BE4D1B1
:100CB000734804F025FE85F817B0DEE702EBCB0B96
:100CC000DBF8040004F01CFE6BE6A37D6D4AE260D5
:100CD000002BE3D1A2F1180004F012FE0123AB7542
:100CE000DCE7FB7F012B00F0E380F37F022B00F0B9
:100CF000FA80F37F032B00F0FA80012384F89939FE
:100D0000002384F898394CE602220123BA776376EF
:100D100047E6009BE3605C4B4FF0000B012084F83A
:100D20009AB984F89BB984F89CB9C3F800B084F8E8
:100D300023B084F810B405F011F9A37D002B3FF423
:100D40006DAF524804F0DCFD85F816B0E37D002B52
:100D50003FF468AF4A4804F0D3FD0023EB7561E728
:100D60000123BB7763761CE6687DF37D012BC0B25F
:100D700000F0C580464B474A1B781278DBB2D2B2EE
:100D800093422CBF3F3202F1FF32D31A002B09DD10
:100D900008F0D8F9FB7DDBB2012B00F0BA8000230C
:100DA00084F823303B7E032B7FF42AAE337D3A4A0E
:100DB000DBB2012152F83320002382F8801084F83E
:100DC00023301DE6337F022B1FD0337F032B7FF4AC
:100DD000ABAD009B1844FB7D90F8D80C012B7FF441
:100DE000A7AD07F055FB01283FF47DADAEE52B48DC
:100DF00004F086FD33E7019107F062FC284B01996E
:100E0000C3F800B006F07F062FE5009B184490F869
:100E1000580C89E51D4804F073FD0023AB753DE7D0
:100E2000174804F06DFD0023EB7526E7174804F022
:100E300067FD0023AB751CE788A50020251AFF1F5E
:100E4000261AFF1FB519FF1FB619FF1F4519FF1FEF
:100E50004619FF1FD518FF1FD618FF1F6418FF1F64
:100E60006518FF1FCC1AFF1FD01AFF1F0CB500001A
:100E700028CD0000D8C500007CBE000088BE000060
:100E800020B700002CB7000024A7002014B70000F2
:100E900028A3002029A3002098230100C0160100E8
:100EA000441BFF1F6E4804F02BFD0023AB75B5E615
:100EB0006C4804F025FD23E76B4B1B788BB172B6B1
:100EC0006A4B986838B16A4B02889B8846688E6086
:100ED0009B1A674A938062B6664B186000287FF4BD
:100EE000F9AD7F26C1E494F89839002BE0D0624830
:100EF00004F006FD04E7012384F89839AFE607F013
:100F0000C7FA01287FF44EAFFB7DDBB2012B7FF4E3
:100F100046AF554A1278002A3FF441AF574A584924
:100F200012680B70002A00F0FE8556485188002395
:100F3000037011801046019304F08EF84F4A019B14
:100F400013604F4A0023137029E7287DDB7D012BB6
:100F5000C0B200F0A2854C4B4C4A1B781278DBB231
:100F6000D2B293422CBF3F3202F1FF32D21A002A92
:100F70000BDD019108F0E6F8FB7D0199DBB2012B56
:100F800000F09785012384F823303A7E404B032AF2
:100F90007FF48BAD1B7D3F4ADBB252F83320012337
:100FA00082F8003184F823307FE56B7E002B3FF41C
:100FB000F7AC394B1B68002B3FF7DFADDAF8003098
:100FC000002B3FF7DAAD354B1B680C2B3FF6D5AD48
:100FD000334B1B680C2B3FF6D0ADFB7D012B00F093
:100FE0009485294B294A1B781278DBB2D2B29342FE
:100FF0002CBF3F3202F1FF32D31A002B7FF7BDAD79
:10100000682008F09FF8FE7DF6B2012E00F0A3855F
:1010100000236376C4E495F89A39002B00F07282BD
:1010200000232B7008F058FF012008F0C5FA1D4A74
:1010300020231360029B1B6813F0FF0F08BF1A4A9E
:101040004FF0807314BFD367136009F083FB012353
:101050001648237008F0C0F904F0EAFB80E500BFF1
:1010600014B7000034CD000074A3002094A3002026
:10107000481BFF1F441BFF1FC016010070A3002068
:101080006DA3002076A3002028A3002029A3002020
:10109000D407FF1F9823010090A50020E0A20020A4
:1010A000E4A2002088F00F4008F10F406CD000004F
:1010B00095F89A39002B40F09B84AB7D002B40F0D3
:1010C000DB84E37D002B40F0D284237E002B40F0B4
:1010D000C984BD4804F014FCBB4804F011FCBB48B3
:1010E00008F07AF9B84804F00BFCB74804F008FCA3
:1010F00004F05AFE732800F0F280642800F0288182
:10110000652800F02881632840F04A81AE4804F049
:10111000F7FBAF4804F0F4FBAD4804F0F1FBAD4839
:1011200004F0EEFBAC4804F0EBFBAC4804F0E8FB49
:10113000AB4804F0E5FBAB4804F0E2FBAA4804F03E
:10114000DFFBAA4804F0DCFBA94804F0D9FBA9485E
:1011500004F0D6FBA84804F0D3FBA84804F0D0FB69
:10116000A74804F0CDFBA74804F0CAFBA64804F04A
:10117000C7FBA64804F0C4FBA54804F0C1FBA54882
:1011800004F0BEFBA44804F0BBFBA44804F0B8FB89
:10119000A34804F0B5FBA34804F0B2FBA24804F056
:1011A000AFFBA24804F0ACFBA14804F0A9FBA148A6
:1011B00004F0A6FBA04804F0A3FB854804F0A0FBC4
:1011C0009E4804F09DFB9E4804F09AFB9D4804F065
:1011D00097FB9D4804F094FB9C4804F091FB9C48CD
:1011E00004F08EFB9B4804F08BFB9B4804F088FBCB
:1011F0009A4804F085FB9A4804F082FB744804F096
:101200007FFB984804F07CFB974804F079FB9748F3
:1012100004F076FB964804F073FB964804F070FBEC
:10122000954804F06DFB954804F06AFB944804F07F
:1012300067FB944804F064FB934804F061FB644846
:1012400004F05EFB914804F05BFB914804F058FB0E
:10125000904804F055FB904804F052FB8F4804F08E
:101260004FFB8F4804F04CFB8E4804F049FB8E483E
:1012700004F046FB8D4804F043FB8D4804F040FB2E
:101280008C4804F03DFB524804F03AFB8A4804F0D5
:1012900037FB4F4804F034FB884804F031FB8848A2
:1012A00004F02EFB874804F02BFB874804F028FB52
:1012B000474804F025FB854804F022FB444804F02D
:1012C0001FFB834804F01CFB3F4804F019FB3E4819
:1012D00004F016FB04F068FD73287FF40EAF3A4863
:1012E000BE7DDFF81CB204F00BFB97F820107948A4
:1012F00005F0DAFE784B87F820001978774805F07A
:10130000D3FE754B1870B97D754805F0CDFEB875E4
:10131000B97F744805F0C8FEB877797F724805F048
:10132000C3FE034628487B7704F0EAFA6F48F6B21A
:1013300003F028FF002840F05282234804F0E0FA2E
:10134000BB7D9E423FF4D4AE012004F007FECFE601
:1013500005F0D6FACCE604F0DFFFC9E6FE7DF6B272
:10136000012E7FF4F7AA624B1B78002B3FF4F2AA00
:10137000604B614A1B681670DFF878B1002B00F0F3
:10138000DF835E495A8800260E7018461A8003F0E3
:1013900063FECBF80060584A00231370FFF7DABAF7
:1013A000A37D002B40F07583E37D002B40F06D831F
:1013B000237E002B40F06583D4F8A039E36001233D
:1013C0002370FFF7C9BB00BFC01601009CD000000E
:1013D000F82201006C21010060210100542101006C
:1013E000482101003C21010030210100242101009D
:1013F000182101000C21010000210100F42001004E
:10140000E8200100DC200100D0200100C420010000
:10141000B8200100AC200100A020010094200100B0
:10142000882001007C200100702001006420010060
:10143000582001004C2001004020010040CD000058
:101440002C220100202201001422010008220100A8
:10145000FC210100F0210100E4210100D82101005C
:10146000CC2101004CCD000058CD000064CD00001F
:1014700070CD00007CCD000088CD000094CD000030
:10148000A0CD0000ACCD0000B8CD0000C822010006
:10149000982201008C220100742201005C220100CC
:1014A00080220100442201009C2101005022010001
:1014B0006822010078210100C4CD0000D0CD0000D9
:1014C000DCCD0000E8CD0000F4CD000000CE00002F
:1014D0000CCE0000C8D000000C08FF1FD8D00000C0
:1014E000E8D00000FCD000000CD1000018D10000B2
:1014F00074A3002070A300206DA3002076A3002019
:10150000D407FF1FC34804F0FBF9C24804F0F8F900
:10151000C14807F061FFBF4804F0F2F9BD4804F08C
:10152000EFF904F041FC732800F04981642800F0D1
:101530004981652800F04981632840F04981B54818
:1015400004F0DEF9B54804F0DBF9B44804F0D8F94A
:10155000B34804F0D5F9B34804F0D2F9B24804F026
:10156000CFF9B24804F0CCF9B14804F0C9F9B14858
:1015700004F0C6F9B04804F0C3F9B04804F0C0F96B
:10158000AF4804F0BDF9AF4804F0BAF9AE4804F032
:10159000B7F9AE4804F0B4F9AD4804F0B1F9AD487C
:1015A00004F0AEF9AC4804F0ABF9AC4804F0A8F98B
:1015B000AB4804F0A5F9AB4804F0A2F9AA4804F03E
:1015C0009FF9AA4804F09CF9A94804F099F9A948A0
:1015D00004F096F9A84804F093F9A84804F090F9AB
:1015E000A74804F08DF9A74804F08AF98B4804F065
:1015F00087F9A54804F084F9A44804F081F9A448C7
:1016000004F07EF9A34804F07BF9A34804F078F9CC
:10161000A24804F075F9A24804F072F9A14804F058
:101620006FF9A14804F06CF9A04804F069F9A048EA
:1016300004F066F99F4804F063F99F4804F060F9EC
:101640009E4804F05DF99E4804F05AF99D4804F064
:1016500057F99D4804F054F99C4804F051F99C480E
:1016600004F04EF99B4804F04BF99B4804F048F90C
:101670009A4804F045F99A4804F042F9994804F070
:101680003FF9994804F03CF9984804F039F9614869
:1016900004F036F9614804F033F9604804F030F999
:1016A000934804F02DF9934804F02AF9924804F085
:1016B00027F9924804F024F9914804F021F991485F
:1016C00004F01EF9904804F01BF9904804F018F952
:1016D0008F4804F015F98F4804F012F94F4804F0D0
:1016E0000FF98D4804F00CF98C4804F009F98C4886
:1016F00004F006F98B4804F003F98B4804F000F974
:101700008A4804F0FDF88A4804F0FAF8894804F0A1
:10171000F7F8894804F0F4F8884804F0F1F88848AC
:1017200004F0EEF8874804F0EBF8874804F0E8F896
:10173000864804F0E5F8864804F0E2F8854804F0AD
:10174000DFF8854804F0DCF8844804F0D9F88448D0
:1017500004F0D6F8834804F0D3F8834804F0D0F8B6
:101760002E4804F0CDF8814804F0CAF8804804F00F
:10177000C7F8804804F0C4F87F4804F0C1F87F48F7
:1017800004F0BEF87E4804F0BBF87E4804F0B8F8D8
:101790007D4804F0B5F87D4804F0B2F87C4804F0C8
:1017A000AFF87C4804F0ACF81A4804F0A9F81948DE
:1017B00004F0A6F804F0F8FA73287FF4B7AE01F04D
:1017C000CFF9AEE605F09CF8ABE604F0A5FDA8E67F
:1017D000D4F8A039E36001232370FFF7C1B99BF867
:1017E0002010022004F0FCFC6B4B0320197804F05D
:1017F000F7FC9BF81610042004F0F2FC9BF81E1076
:101800000A2004F0EDFC9BF81D100B2004F0E8FC0E
:1018100093E500BFC016010028D10000F8220100A6
:101820006C210100602101005421010048210100C8
:101830003C21010030210100242101001821010078
:101840000C21010000210100F4200100E82001002A
:10185000DC200100D0200100C4200100B8200100DC
:10186000AC200100A020010094200100882001008C
:101870007C2001007020010064200100582001003C
:101880004C20010040200100EC1F0100E01F01007E
:10189000D41F0100C81F0100BC1F0100B01F0100C0
:1018A000A41F0100981F01008C1F0100801F010070
:1018B000741F0100681F01005C1F0100501F010020
:1018C000441F0100381F01002C1F0100201F0100D0
:1018D000141F0100081F0100FC1E0100F01E010082
:1018E000E41E0100D81E0100CC1E0100C01E010034
:1018F000382201002C2201002022010014220100C4
:1019000008220100FC210100F0210100E421010076
:10191000D8210100CC210100EC220100E0220100CD
:10192000D4220100C8220100BC220100B022010023
:10193000A4220100982201008C22010080220100D3
:1019400074220100682201005C2201005022010083
:1019500044220100C0210100B4210100A82101009E
:101960009C210100902101008421010078210100C7
:1019700034200100282001001C200100102001005B
:1019800004200100F81F0100B41E0100A81E010080
:101990009C1E0100901E01000C08FF1F002A7EF40F
:1019A00031AF62B6FEF72EBF00232B7008F094FA19
:1019B000012007F001FEAA4AAA4820231360029BD7
:1019C0001B6813F0FF0F08BFA74A4FF0807314BFC6
:1019D000D36713600123237007F0FEFC03F028FF98
:1019E000A24BA24A1B78002B7EF40DAFFFF7CBB8B9
:1019F00000232B7008F070FA012007F0DDFD984AF3
:101A000020231360029B1B6813F0FF0F08BF964A48
:101A10004FF0807314BFD3671360A37D002B70D188
:101A2000E37D002B63D1237E002B66D10126009934
:101A3000FE752523237526220023E1608C48039937
:101A4000627521613E76A375E3752376637603F0B4
:101A500057FF84482676267007F0BEFC03F0E8FEA8
:101A6000FFF77AB8834803F04BFFFFF732BB824899
:101A700003F046FFFFF729BB804803F041FFFFF763
:101A800020BB7B4803F03CFF96E47B4803F038FF23
:101A90008EE47A4803F034FF86E4019106F0F8FC06
:101AA000012801997FF471AAFB7DDBB2012B7FF441
:101AB00069AA734A1278002A3FF464AA714A7248EC
:101AC00012680370002A00F09D8001916F495388CD
:101AD00081F800B01046138003F0BEFA694B0199FB
:101AE000C3F800B0684B83F800B0FFF74BBA624808
:101AF00003F006FF237E002B98D05E4803F000FF22
:101B000094E75E4803F0FCFE8AE7682006F0C0FC1C
:101B100001283FF478AA554B544A1B78002B7EF4D9
:101B200072AEFFF730B80193049206F0A9FD019B55
:101B300060B3564B049A1A7003F08EFAFFF701BA9D
:101B4000019306F09DFD00286CD0504A019B137054
:101B500003F082FA1FE44A4B1B78002B3FF458AA8B
:101B6000484B494A1B681670DFF818B193B14749D2
:101B70005A8800260E7018461A8003F06DFACBF8CA
:101B80000060414A00231370FFF742BA3F4A1370C6
:101B9000FFF7D7B9019306F073FD002800F0B88075
:101BA0003A4A019B137003F057FAEAE7384BF7758E
:101BB00018462521297500F5EA6103910146009335
:101BC00026220023E96000F5356003996A752961D2
:101BD0003776AB75EB752B766B7603F091FE2F762F
:101BE000FEF795BD009303F5EA630393FEF78FBDFF
:101BF000274B00931D4608F0ADFD05F5EA630393FE
:101C0000FEF785BD05910193049206F039FD019B15
:101C1000059958B11D4B049A01911A7003F01CFAF2
:101C200001995FE7194B1E70FFF7B5BB174A137098
:101C300058E71B6804232372FEF704BD154A164EAD
:101C400065601746132102922525122226203B604B
:101C500031707270F171327235757075FEF728BC93
:101C600088F00F406CD0000008F10F4088A50020DC
:101C70000CB500007CBE000020B7000014B70000C7
:101C800074A3002070A300206DA3002076A3002081
:101C9000BCA900001008FF1FD407FF1F1E49172012
:101CA00005F07CFE1C491C2005F078FE1A4909202D
:101CB00005F074FE18490F2005F070FE1649272024
:101CC00005F06CFE14490A2005F068FE12490B204D
:101CD00005F064FE10490C2005F060FE0E4923203B
:101CE00005F05CFE0C49032005F058FE28460A4921
:101CF00005F054FE08491A2005F050FE06491B2045
:101D000005F04CFE0449162005F048FEFEF7D8BC4D
:101D1000024B1E7035E700BFBDA2000076A3002075
:101D2000C94B1B78002B00F003812DE9F04FC74B06
:101D3000C74A1B6889B00793079B13605023013B78
:101D4000FDD1C44B1B685B0700F1F380DFF808830B
:101D5000D8F800800123062718F4803F01930293EE
:101D60004FF00E0B4FF00D034FF00C024FF00B0134
:101D70004FF00A004FF009044FF008054FF0070636
:101D800000974FF0050E4FF0040C4FF0030A4FF090
:101D9000020900F0F3809B4613460A460021C8461C
:101DA000DDF808900291014620462C463546009EFB
:101DB000CDF800E0E646D446DFF898A2DAF800A0B5
:101DC0001AF0080F00F0E5809B4613460A460146CC
:101DD00020462C463546009ECDF800E0E646DFF86A
:101DE00074C2DCF800C01CF0010FC246C8464FF0B8
:101DF000000900F0D9809B4613460A460021039152
:101E0000014620462C463546009ECDF800E0DFF81E
:101E100048E2DEF800E01EF4003FD446C24600F07F
:101E2000CE808C4F3F68FF069B46E6461346D4465D
:101E30000A464FF00008014620462C463546009ED3
:101E400040F1C6809B4613460A4600210091014698
:101E500020462C4635467F4E366876067746E6465F
:101E600040F1BE809B4613460A46014620462C465A
:101E7000784D2D682D063E464FF0000A774640F11A
:101E8000B7809B4613460A4600210491014620462E
:101E9000704C2468E40535463E4640F1B1809B46CF
:101EA00013460A4601466C480068C0042C46354675
:101EB0004FF0000640F1AC809B4613460A460021D5
:101EC0000591654909688F0420462C4640F1A88099
:101ED0009B461346604A1268550401464FF00007BE
:101EE000204640F1A5809B465B4B1B681C040A46BC
:101EF00001464FF0000040F1A38015464FF0000E60
:101F00000A465449554C0B68D4F800C003F002034C
:101F1000002B16BF154601230023BCF1000F40F033
:101F2000A1800A68510740F19B8009B0BDE8F08F9D
:101F30007047DFF82481D8F800800023052718F4C3
:101F4000803F019302934FF00D0B4FF00C034FF0C5
:101F50000B024FF00A014FF009004FF008044FF058
:101F600007054FF0060600974FF0040E4FF0030CE4
:101F70004FF0020A4FF001097FF40DAFD046DFF8B1
:101F8000D4A0DAF800A001271AF0080F02977FF416
:101F90001BAFE246DFF8BCC0DCF800C01CF0010F4C
:101FA0004FF001097FF427AFF446DFF8ACE0DEF82C
:101FB00000E001271EF4003F03977FF432AF254F66
:101FC000DDF800E03F68FF064FF001083FF53AAF4B
:101FD0003746012600961F4E366876063FF542AF1B
:101FE0002E461C4D2D682D064FF0010A3FF549AFD6
:101FF000254601240494174C2468E4053FF54FAFAF
:10200000044615480068C0044FF001063FF554AF80
:10201000084601210591104909688F043FF558AF22
:1020200011460D4A126855044FF001073FF55BAFAA
:102030001A46094B1B681C044FF001003FF55DAFC9
:102040005D464FF0010E5CE7B80EFF1F84A500202F
:10205000E8A5002090F00F4010F00F405C18FF1F23
:102060000E222260019A32B122687C490E2A49D0A0
:102070000A68012A46D0029A42B122687749012AA9
:1020800000F08D800A68022A00F08980B9F1000F03
:1020900008D022687149022A00F0B1800A68032A38
:1020A00000F0AD80039A002A00F0F08022686B49AE
:1020B000032A03D00A68042A40F0E8802368674AAC
:1020C000032B7FF432AF0425156008F023F828466F
:1020D00003F05AFB624C634BE26B1B689A4240F27E
:1020E0002B83604B626C1B689A4240F221835D4BEC
:1020F000626D1B689A423FF618AF1521052007F064
:10210000D9FF12E72368554D0E2B7FF40EAF012443
:102110002C6007F0FFFF204603F036FB504C514B7C
:10212000287122681B689A4240F2AF824D4B626868
:102130001B689A4203D801210E2007F0A3F94A4BED
:102140004A4918684A4A0860116821B14549096836
:102150001068091A19604349096811601B68632BEC
:102160007FF6E3AE434B1B78012B7FF4DEAE424B90
:102170001B78012B7FF4D9AE4049414A0B68414896
:1021800001330B60536801335360036813F0FF0F92
:1021900040F04C823C4B4FF080721A60C5E62368D9
:1021A0002E4A012B7FF4C1AE0225156007F0B2FF65
:1021B000284603F0E9FA2A4C2A4BA2681B689A4287
:1021C00040F27582274B62691B689A4240F26B822B
:1021D000244BE2691B689A4240F26082214B226ADA
:1021E0001B689A4240F256821E4B626A1B689A42F2
:1021F0003FF69BAE0921052007F08EF995E623688E
:10220000164A022B7FF491AE0325156007F082FF7A
:10221000284603F0B9FA124C124BA26A1B689A4284
:1022200040F27C820F4BE26A1B689A4240F2728253
:102230000C4B226B1B689A4240F27582094B626B11
:102240001B689A4240F26182064BA26B1B689A425D
:102250003FF66BAE0E2005F075FB66E65C18FF1FBF
:10226000ECA50020E8A50020E0A20020E4A20020C8
:1022700080A50020B80EFF1F0C08FF1FACA2002095
:10228000CCA20020BC0EFF1F08F10F40B8F1000FD8
:1022900008D02268B249042A00F0CD810A68052AD4
:1022A00000F0C981009A42B12268AD49052A00F0C8
:1022B00096800A68062A00F09280BAF1000F08D0D2
:1022C0002268A749062A00F0F7810A68072A00F069
:1022D000F381049A42B12168A14A072900F0A8803D
:1022E0001268082A00F0A48046B121689C4A082997
:1022F00000F027821268092A00F02382059A42B171
:102300002168974A092900F0EF8012680A2A00F034
:10231000EB8047B12168924A0A2900F02B811268AC
:102320000B2A00F0278140B121688D4A0B2900F06B
:102330009F8212680C2A00F09B82BEF1000F00F011
:102340004E812168864A0C2903D012680D2A40F07C
:1023500046812268824B0C2A7FF4E7AD0D251D6073
:1023600007F0D8FE284603F00FFA7E4C7E4BD4F8D7
:1023700000211B689A4203D84021022007F0CCF8C4
:10238000794BD4F804211B689A4203D841210E20CE
:1023900007F0C2F8744BD4F810211B689A4203D896
:1023A0004421142007F0B8F86F4BD4F818111A68BC
:1023B0006C4891423FF6B9AD6C4A1268120640F182
:1023C00054836B4A92F8461000293FF4AEAD0021C9
:1023D00082F846101B680F33C0F81831A5E5236852
:1023E0005F4A052B7FF4A1AD0625156007F092FE2C
:1023F000284603F0C9F95B4C5B4BE26D1B689A42BF
:1024000040F20782584B226E1B689A4240F2FD81CF
:10241000554B626E1B689A4240F2F281524BA26E9B
:102420001B689A423FF681AD1A2005F08BFA7CE5D5
:1024300022684B4B072A7FF478AD08251D6007F012
:1024400069FE284603F0A0F9464C474BE26F1B6833
:102450009A4203D81F21022007F02CFE424BD4F8E9
:1024600080201B689A4203D820210E2007F022FE0C
:102470003D4BD4F884201B689A4203D821210720C1
:1024800007F018FE384BD4F888201B689A4202D80F
:10249000222007F0EBFE344BD4F88C201B689A42C4
:1024A00003D82321062007F005FE2F4BD4F89020F7
:1024B0001B689A4203D82421142007F0FBFD2A4B05
:1024C000D4F894201B689A4202D8252005F03AFAE5
:1024D000254BD4F898201B689A423FF626AD26215A
:1024E000052007F0E7FD20E522681D4B092A7FF44F
:1024F0001CAD0A251D6007F00DFE284603F044F9C7
:10250000184C194BD4F8BC201B689A4240F28882C0
:10251000154BD4F8C0201B689A4240F27C82124BC3
:10252000D4F8C4201B689A4240F27F820E4BD4F844
:10253000C8201B689A4240F269820B4BD4F8CC2029
:102540001B689A4240F2E881074BD4F8D0201B6800
:102550009A423FF6EAAC342005F0F4F9E5E400BF16
:102560005C18FF1FECA50020E8A50020D0F00F406C
:1025700098A500202268B04B0A2A7FF4D6AC0B2520
:102580001D6007F0C7FD284603F0FEF8AB4CAC4BCE
:10259000D4F8D4201B689A4203D835210E2007F0C6
:1025A00089FDA74BD4F8D8201B689A4202D8362060
:1025B00007F05CFEA24BD4F8DC201B689A4203D8DB
:1025C0003721062007F076FD9D4BD4F8E0201B68EC
:1025D0009A423FF6AAAC382005F0B4F9A5E443B11D
:1025E0002268954B0D2A00F0B8811B680E2B00F075
:1025F000B48107F08FFD012D00F09381914B1B7882
:10260000012B7FF492AC904B1B78012B7FF48DACA7
:102610008E498F4A0B688F4801330B6093680133F2
:102620009360036813F0FF0F3FF4B4AD8A4B4FF093
:1026300080721A6079E423687F4C042B7FF475ACB8
:102640000525256007F066FD284603F09DF87B4BC5
:102650007B4A6071986D116888423FF666AC7F498D
:102660007F48096811F0010F817D40F0B580002995
:102670007FF45BAC0121817512687A4D7A4855323E
:102680009C249A65297004604FE40021022006F022
:10269000F9FE4BE5082005F055F9A5E507211420C2
:1026A00007F008FD9AE5052007F0E0FD90E52946D2
:1026B000284606F031FF85E523685F4A062B7FF444
:1026C00034AC0725156007F025FD284603F05CF8BB
:1026D0005A4C5B4BE26E1B689A4240F2A880584B02
:1026E000226F1B689A4240F29E80554B626F1B68B6
:1026F0009A4240F29380524BA26F1B689A423FF677
:1027000014AC1E2005F01EF90FE40D21142007F073
:10271000D1FC99E50B2007F0A9FD89E50A210E20DF
:1027200007F0C8FC7EE50C21062007F0C3FC85E518
:10273000112007F09BFDDAE40F21022006F0ECFEE9
:10274000CFE422683C4B082A7FF4EFAB09251D60DB
:1027500007F0E0FC284603F017F8384C384BD4F863
:102760009C201B689A4240F2C381354BD4F8A020CC
:102770001B689A4240F2B781314BD4F8A4201B6801
:102780009A4240F291812E4BD4F8A8201B689A42BD
:1027900040F286812A4BD4F8AC201B689A4240F262
:1027A0008D81274BD4F8B0201B689A4240F281817A
:1027B000234BD4F8B4201B689A4240F28481204B0A
:1027C000D4F8B8201B689A423FF6AFAB2E21052003
:1027D00007F070FCFFF7A9BB00293FF4A6AB00216E
:1027E000817512681F4D214C1F480F329A65297060
:1027F00023788B420CBF0B464E230360FFF795BB3B
:102800001921062007F056FC08E6182007F02EFDD7
:10281000FEE517210E2007F04DFCF3E51D210620F3
:1028200007F048FC67E71C2007F020FD5DE71B214F
:102830000E2007F03FFC52E75C18FF1FECA50020BC
:10284000E8A50020B80EFF1F0C08FF1FACA2002057
:10285000CCA20020BC0EFF1F04F10F40D0F00F40AF
:1028600098A500205418FF1F24A700205218FF1F0E
:102870002268AF4B0B2A7FF458AB0C251D6007F084
:1028800049FC284602F080FFAA4CAB4BD4F8E42068
:102890001B689A4203D83921022007F00BFCA64B93
:1028A000D4F8E8201B689A4203D83A21072007F0A1
:1028B00001FCA14BD4F8EC201B689A4202D83B20C3
:1028C00007F0D4FC9C4BD4F8F0201B689A4203D844
:1028D0003C21062007F0EEFB974BD4F8F4201B6850
:1028E0009A4203D83D21142007F0E4FB924BD4F820
:1028F000F8201B689A4202D83E2005F023F88E4B40
:10290000D4F8FC201B689A423FF60FAB3F2105200C
:1029100007F0D0FBFFF709BB3321142007F0CAFBF7
:1029200012E6019B43B12279814B2AB11A79834B7C
:1029300053F8323083F88050B8F1000F3FF45EAEA8
:1029400062797B4B002A3FF459AE5A797B4B53F89E
:102950003230012283F8802050E62268744B0D2A21
:102960007FF4E3AA0E251D6007F0D4FB284602F091
:102970000BFF704C704BD4F81C211B689A4203D893
:102980004721022007F096FB6B4BD4F820211B68EF
:10299000684D69489A4228D9674BD4F824211B68AE
:1029A0009A4203D84921072007F084FB624BD4F8F0
:1029B00028211B689A4202D84A2007F057FC5E4B38
:1029C000D4F82C211B689A4203D84B21142007F01D
:1029D00071FB594BD4F830211B689A423FF6A5AAE7
:1029E0004C2004F0AFFFFFF7A0BA554B1B689B07C4
:1029F0001FD5544B93F84820002ACDD0002283F8ED
:102A0000482003680F33C5F82031C5E7322106207E
:102A100007F050FB91E53021072007F04BFB7EE5E6
:102A20002F210E2007F046FB72E5312007F01EFC37
:102A30007CE5444A92F84830002BADD1012182F860
:102A400048100068404A5530C5F820011078002829
:102A50003DD13E483E4B117001701A783D4B002A23
:102A60000CBF4E229C221A6096E7364A92F8461016
:102A700000294BD1012182F846101968364C963155
:102A8000C0F818111B6803F5FA73C4F81831537DA8
:102A90009BBB304B1868463002F088FCFFF745BA04
:102AA0002A2007F0E3FB75E62921072007F002FB47
:102AB00069E62C21142007F0FDFA79E62B21062087
:102AC00007F0F8FA6DE62D2004F03CFF77E61F488A
:102AD0001F49137003700A781E4B002A0CBF002296
:102AE0009C221A6058E728210E2007F0E3FA43E6FB
:102AF0002721022007F0DEFA37E64FF0FF331748B0
:102B0000C4F8183106F080FCFFF70FBA124AD2F869
:102B10001801196888423FF608AA1B680D496433FA
:102B2000C2F818310868463002F040FCFFF7FDB9E2
:102B30005C18FF1FECA50020E8A5002098230100E9
:102B4000D0F00F4098A500205318FF1F5218FF1F08
:102B50005418FF1F24A7002048A40020C4CF000061
:102B60002DE9F04F9C4B9D481E789D4B1D789D4B49
:102B70001C789D4B19789D4B1A789D4B1B788FB014
:102B8000D2B2C9B2DBB2E4B2F6B2EDB206920494AC
:102B9000059107930396029502F0B2FE954B964875
:102BA000197804F081FA934B1870944B9448197873
:102BB00004F07AFA914B1870874B9248197804F018
:102BC00073FA854B1870864B8F481B78DBB21C4616
:102BD0009B4602F095FE8C4802F092FE8B4806F070
:102BE000FBFB012C0CBF8A488A4806F0F5FB804BA2
:102BF0001B783F2B0CDDDFF84C92D9F800303F2BCF
:102C000006DC814802F07CFED9F800303F2BF8DD6D
:102C1000814CDFF834A2DFF83492804E804D236877
:102C2000002B41D172B6DAF80030D9F80070326862
:102C300062B6500102D5322B88BF0137C3F5EA33A3
:102C4000BF334FF47A72A5FB031302FB07F707EBC0
:102C500093174FF00A0872B6DAF80010D9F800207E
:102C6000D6F800E062B6C1F5EA33BF33A5FB030333
:102C70001EF0806FC7EB93134FF47A7002D03229A5
:102C800088BF013200FB0233B3F57A7F05D3B8F178
:102C90000108C4D007F57A77DDE7624B1B78002B7B
:102CA000D9D102F02DFAD6E75F4B5F4A1B685F4926
:102CB0005948CF5C13680133632B1360FFB2C8BF60
:102CC00000234FF0FF31C8BF136002F067FB07F02D
:102CD000DF03552B01F04A83522B01F043830D2F64
:102CE0009DD15B46012B01F04183514806F074FBF6
:102CF0003B4B454883F800B04E4B1B78DBB21D467A
:102D00009B4602F0FDFD404802F0FAFD4A4806F0FD
:102D100063FB012D0CBF4948494806F05DFB344B6D
:102D20001B783F2B0CDDDFF81C91D9F800303F2BCE
:102D300006DC354802F0E4FDD9F800303F2BF8DD21
:102D4000DFF804A1DFF80491344E354D2368002BE1
:102D50007ED172B6DAF80030D9F80070326862B607
:102D6000510102D5322B88BF0137C3F5EA33BF3397
:102D70004FF47A72A5FB031302FB07F707EB9317D7
:102D80004FF00A0872B6DAF80010D9F80020D6F829
:102D900000E062B6C1F5EA33BF33A5FB03031EF0C2
:102DA000806FC7EB93134FF47A7002D0322988BF3B
:102DB000013200FB0233B3F57A7F05D3B8F1010885
:102DC000C4D007F57A77DDE7164B1B78002BD9D1F5
:102DD00002F096F9D6E700BFEA07FF1FC016010010
:102DE000EB07FF1FF007FF1FED07FF1FEE07FF1F99
:102DF000FC07FF1FF407FF1FC8D000000C08FF1FCF
:102E0000D8D00000E8D00000F8220100BCEE00009D
:102E1000C4EE0000D4EE0000D41AFF1F04ED00E061
:102E20008988888888A50020D81AFF1FDC1AFF1F10
:102E3000ECEE00000508FF1FF4EE0000FCEE0000C1
:102E40000CEF00000008FF1F18E000E084A5002040
:102E5000A84BA84A1B68A849A848CF5C136801334F
:102E6000632B1360FFB2C8BF00234FF0FF31C8BF10
:102E7000136002F093FA07F0DF03482B01F06B8236
:102E8000462B01F064820D2F7FF460AF5B46012B6F
:102E900001F061829A4806F09FFA9A4B83F800B0DD
:102EA000994B1B78012B00F03282984B98481B7885
:102EB000DBB21D469B4602F023FD954802F020FD43
:102EC000944806F089FA944806F086FA934A944B9F
:102ED00052F8252008921146A3FB0202D20815469B
:102EE000099202EB8202A1EB4202084630320BA9A2
:102EF0000F46D2B201924FF020320B9200917A60CD
:102F0000BA6000219DF804208DF836208DF8371026
:102F1000002D01F03282A3FB0512D20802EB8201E0
:102F2000804AA5EB41010646A2FB0002303152095E
:102F30008DF8351001F0E583A3FB0201C90801EB10
:102F400081007949A2EB40023046A1FB00013032FA
:102F500089098DF8342001F0D083A3FB0102D20847
:102F600002EB8200714AA1EB40013046A2FB000255
:102F70003031520B8DF8331001F0BB83A3FB0210EC
:102F8000C00800EB80006A49A2EB40007209A1FB77
:102F900002213030C9098DF8320001F0A683A3FB6D
:102FA0000102D20802EB8200624AA1EB40013046E6
:102FB000A2FB00023031920C8DF8311001F09183A8
:102FC000A3FB0201C90801EB81005B49A2EB4002AF
:102FD0003046A1FB00013032890D8DF8302001F020
:102FE0007C83A3FB0102D20802EB8200534AA1EBCF
:102FF0004001A2FB06523031520E8DF82F1001F025
:103000006883A3FB0213DB0803EB83034C49A2EBA9
:103010004303720A3033A1FB02128DF82E30D3091C
:1030200001F0538330338DF82D3001203B46184496
:1030300006F0D2F9434806F0CFF9434B1B783F2BFB
:103040000CDDDFF81491D9F800303F2B06DC304856
:1030500002F056FCD9F800303F2BF8DDDFF8FCA079
:10306000DFF8FC90394E3A4D2368002B7AD172B6C6
:10307000DAF80030D9F80070326862B6500102D533
:10308000322B88BF0137C3F5EA33BF334FF47A726E
:10309000A5FB031302FB07F707EB93174FF00A0892
:1030A00072B6DAF80010D9F80020D6F800E062B65F
:1030B000C1F5EA33BF33A5FB03031EF0806FC7EBF6
:1030C00093134FF47A7002D0322988BF013200FB8B
:1030D0000233B3F57A7F05D3B8F10108C4D007F500
:1030E0007A77DDE71B4B1B78002BD9D102F008F86B
:1030F000D6E700BFD81AFF1FDC1AFF1FD41AFF1F24
:1031000024EF00000508FF1FEB07FF1FED07FF1F5F
:10311000F822010088EF000094EF000018B50000CD
:10312000CDCCCCCC1F85EB51D34D62105917B7D104
:10313000C55A7C0A83DE1B436BCA5F6B893BE6552D
:10314000834B0400B4150100FC07FF1F04ED00E0F1
:103150008988888888A500200008FF1F18E000E003
:1031600084A500209D4B9D4A1B689D499D48CF5CCE
:1031700013680133632B1360FFB2C8BF00234FF005
:10318000FF31C8BF136002F009F9312F01F07382DB
:10319000322F01F06082332F00F0FD86342F01F0D2
:1031A0004A82352F01F04182372F01F01782392FE3
:1031B00001F004820D2F7FF457AF00984FF02033B9
:1031C0000B934360836009989DF804308DF8363086
:1031D00000228DF83720002801F02482824B089DC0
:1031E000824A0146A3FB0113DB0803EB8303294654
:1031F000A0EB4303A2FB0112303352098DF83530A6
:1032000001F00D82784B7A49A3FB0260C00800EB05
:103210008000A2EB40022846A1FB00013032890960
:103220008DF8342001F0F881A3FB0102D20802EBF3
:103230008200704AA1EB40012846A2FB0002303117
:10324000520B8DF8331001F0E481A3FB0210C0088B
:1032500000EB80006849A2EB40006A09A1FB022153
:103260003030C9098DF8320001F0D081A3FB010292
:10327000D20802EB8200614AA1EB40012846A2FB82
:1032800000023031920C8DF8311001F0BC81A3FBAB
:103290000201C90801EB81005949A2EB400228460E
:1032A000A1FB00013032890D8DF8302001F0A8819A
:1032B000A3FB0102D20802EB8200524AA1EB4001BB
:1032C0002846A2FB00523031520E8DF82F1001F02B
:1032D0009481A3FB0213DB0803EB83034A49A2EBAF
:1032E0004302430AA1FB03133032DB098DF82E2081
:1032F00001F07A8130338DF82D300120009B184485
:1033000006F06AF8414802F0FBFA00F049BE404B73
:1033100040481B78DBB21D469B4602F0F1FA3D485F
:1033200002F0EEFA3C4806F057F8012D01F0418119
:10333000022D0CBF39483A4806F04EF8394B1B783D
:103340003F2B00F31886DFF8ECA0DFF8EC90364E48
:10335000364D2368002B71D172B6DAF80030D9F8F7
:103360000070326862B6520102D5322B88BF013735
:10337000C3F5EA33BF334FF47A72A5FB031302FBA4
:1033800007F707EB93174FF00A0872B6DAF8001048
:10339000D9F80020D6F800E062B6C1F5EA33BF33B1
:1033A000A5FB03031EF0806FC7EB93134FF47A70F5
:1033B00002D0322988BF013200FB0233B3F57A7F95
:1033C00005D3B8F10108C4D007F57A77DDE7184BCB
:1033D0001B78002BD9D101F093FED6E7D81AFF1F36
:1033E000DC1AFF1FD41AFF1FCDCCCCCC1F85EB51AC
:1033F000D34D62105917B7D1C55A7C0A83DE1B43DF
:103400006BCA5F6B893BE655834B0400C016010015
:10341000F007FF1FF82201002CEF000048EF00002A
:103420005CEF0000FC07FF1F04ED00E0898888883E
:1034300088A5002018E000E084A50020504B504AE9
:103440001B6850495048CF5C13680133632B1360ED
:10345000FFB2C8BF00234FF0FF31C8BF136001F0B7
:103460009DFF07F0DF034E2B01F09C804F2B01F0F6
:103470009280452B01F08B800D2F7FF46AAF5B4665
:10348000012B01F08F805B46022B01F084803F48C6
:1034900005F0A2FF3E4B83F800B00BAB00933D4B11
:1034A0003D481B78DBB21D469B4602F029FA3A489C
:1034B00002F026FA394805F08FFF012D0CBF38487D
:1034C000384805F089FF384B1B783F2B0CDDDFF8BF
:1034D000E890D9F800303F2B06DC2F4802F010FAB4
:1034E000D9F800303F2BF8DDDFF8D0A0DFF8D0901E
:1034F0002E4E2F4D2368002B64D172B6DAF80030BF
:10350000D9F80070326862B6510102D5322B88BFFB
:103510000137C3F5EA33BF334FF47A72A5FB0313C7
:1035200002FB07F707EB93174FF00A0872B6DAF8B9
:103530000010D9F80020D6F800E062B6C1F5EA33F1
:10354000BF33A5FB03031EF0806FC7EB93134FF44B
:103550007A7002D0322988BF013200FB0233B3F502
:103560007A7F05D3B8F10108C4D007F57A77DDE793
:10357000104B1B78002BD9D101F0C2FDD6E700BF5C
:10358000D81AFF1FDC1AFF1FD41AFF1F80EF00009C
:10359000F007FF1FF507FF1FF82201004CF10000A4
:1035A0005CF1000070F10000FC07FF1F04ED00E07B
:1035B0008988888888A500200008FF1F18E000E09F
:1035C00084A50020814B814A1B6881498148CF5CDA
:1035D00013680133632B1360FFB2C8BF00234FF0A1
:1035E000FF31C8BF136001F0D9FE07F0DF034E2B97
:1035F00000F0BA84582B00F0B3840D2F7FF47AAF1B
:103600005B46012B00F0B084734805F0E5FE734B78
:1036100083F800B0724B1B78022B00F05A84714B78
:103620007148197803F040FD6E4B18706F4B1B7892
:10363000012B6C4B1B7800F04484022B6C4B0CBFAD
:103640006C4A6D4A1A606D4B6D48197803F02CFD79
:103650006A4B18706B4B6C48197803F03DFB694B53
:1036600018706A4B6A48197803F036FB674B18707C
:10367000684B6948197803F017FD664B1870674B63
:1036800067481B78DBB21D46019302F039F96448A4
:1036900002F036F9634805F09FFE634805F09CFE92
:1036A000624B009F83FB050292081046099202EBD1
:1036B0008202A5EB42023032D2B2164608920021B5
:1036C0004FF020320B927A60BA608DF836608DF838
:1036D00037100246002800F03F8483FB02239B083A
:1036E00003EB8303524AA0EB43032946303382FBAA
:1036F00001128DF83530530900F02A8430338DF8EB
:10370000343008203B46184405F066FE494805F071
:1037100063FE424B1B783F2B0CDDDFF82891D9F874
:1037200000303F2B06DC3E4802F0EAF8D9F80030C2
:103730003F2BF8DDDFF810A1DFF810913E4E3F4D32
:103740002368002B40F0848072B6DAF80030D9F894
:103750000070326862B6520102D5322B88BF013741
:10376000C3F5EA33BF334FF47A72A5FB031302FBB0
:1037700007F707EB93174FF00A0872B6DAF8001054
:10378000D9F80020D6F800E062B6C1F5EA33BF33BD
:10379000A5FB03031EF0806FC7EB93134FF47A7001
:1037A00002D0322988BF013200FB0233B3F57A7FA1
:1037B00005D3B8F10108C3D007F57A77DDE7204BD0
:1037C0001B78002BD9D101F09BFCD6E7D81AFF1F3C
:1037D000DC1AFF1FD41AFF1F84F10000F507FF1F3A
:1037E000EB07FF1F6F0AFF1F20F200000508FF1FF5
:1037F0005818FF1F1CE000006CE700000808FF1FBE
:1038000030F200000408FF1F3CF20000F307FF1F26
:1038100054F20000EF07FF1F68F20000FC07FF1FD3
:10382000F822010080F200008CF2000067666666F4
:103830001F85EB51B415010004ED00E089888888EC
:1038400088A500200008FF1F18E000E084A50020E4
:10385000AE4BAE4A1B68AE49AE4811F803B01368D0
:103860000133632B13605FFA8BFBC8BF00234FF05B
:10387000FF31C8BF136001F091FDABF13803012B9C
:1038800040F28882BBF1310F00F08E81BBF10D0F49
:103890007FF456AF00984FF020330B934360836062
:1038A00009989DF820308DF8363000228DF83720A9
:1038B000002800F06986984B984A014683FB011363
:1038C0009B0803EB83030199A0EB4303303382FB96
:1038D00001128DF83530530900F0538630338DF8DE
:1038E00034300820009B0344184605F075FD8C48D1
:1038F0008C4D8D4C02F004F89DF804202A7021783C
:103900008A4803F0D1FB03468548237001F0F8FF95
:10391000874801F037FC002852D0864B02201978E6
:1039200002F05EFC844B0320197802F059FC834BB3
:103930000420197802F054FC814B1420197802F00D
:103940004FFC804B1520197802F04AFC7E4B162064
:10395000197802F045FC7D4B1720197802F040FCE5
:103960007B4B1820197802F03BFC7A4B1920197810
:1039700002F036FC784B1A20197802F031FC774BB4
:103980002120197802F02CFC754B1B20197802F0CD
:1039900027FC744B1C20197802F022FC724B1F206C
:1039A000197802F01DFC714B2020197802F018FCE8
:1039B00029781D2002F014FC21781E2002F010FC52
:1039C000574801F09DFF5E4B029A1B789A427DD0CA
:1039D0006749684A00230B701370029B012B27D0A4
:1039E000654B1B685E0523D5DFF8AC81DFF8ACA121
:1039F000DFF8ACB1DFF8AC9198F80030002B00F0A4
:103A0000758599F80030002BFBD15C4B5C4A5D4C0E
:103A10005D484FF000411960002340F20311D3705C
:103A2000216001601179D2798AF800308BF800307A
:103A3000434B1B78012B3ED0434B544A1978544BCF
:103A400052F82100424A44081178524A2344B3FBF9
:103A5000F0F052F8214005F0E1FB494B9A7804F070
:103A6000030302F0EC0213436507454A04F00F011B
:103A700048BF43F010030429937000F03185404B98
:103A80003F4A5B79E00603F0EF0348BF43F01003C1
:103A9000537192793A4B02F0EF02A10648BF42F00F
:103AA00010029A71E20506D55A781978D2B241F01F
:103AB000200119705A70214B039A1B789A421CD02E
:103AC000012002F04BFA0FB0BDE8F08F1F4B049AB3
:103AD0001B789A427FF47CAF1B4B059A1B789A4265
:103AE0007FF476AF1A4B069A1B789A427FF470AF38
:103AF000124B039A1B789A42E2D10A4B079A1B7821
:103B00009A42DDD10FB0BDE8F08F00BFD81AFF1F79
:103B1000DC1AFF1FD41AFF1F676666661F85EB510C
:103B2000C0160100FC07FF1F0908FF1F98F20000E4
:103B300018D10000F407FF1F0C08FF1FEA07FF1F42
:103B4000EB07FF1F0508FF1FED07FF1FF007FF1F13
:103B5000EE07FF1FF507FF1FEC07FF1F6F0AFF1F90
:103B60000808FF1F0408FF1FF307FF1FEF07FF1FD1
:103B7000DB0EFF1FC812FF1F3480044080E100E00D
:103B800000A0064040A0044044A0044018B5000036
:103B9000001C4E0E70B5000088A50020C81AFF1F3B
:103BA000C91AFF1F6CA30020A848DFF8C0A2DFF8E5
:103BB000C092A74EA74D01F0A3FE2368002B41D170
:103BC00072B6DAF80030D9F80070326862B6510186
:103BD00002D5322B88BF0137C3F5EA33BF334FF428
:103BE0007A72A5FB031302FB07F707EB93174FF05D
:103BF0000A0872B6DAF80010D9F80020D6F800E00A
:103C000062B6C1F5EA33BF33A5FB03031EF0806F34
:103C1000C7EB93134FF47A7002D0322988BF013278
:103C200000FB0233B3F57A7F05D3B8F10108C4D0A5
:103C300007F57A77DDE7884B1B78002BD9D101F0A7
:103C40005FFAD6E7854B854A1B688549854811F898
:103C500003B013680133632B13605FFA8BFBC8BF9B
:103C600000234FF0FF31C8BF136001F097FBABF1A9
:103C70003003DAB2062AA0D87B4A009203EB830312
:103C800002EBCB0B5B00DBB2DBF80400089303F123
:103C90006405EDB208B101F033FEA02D0CBF352351
:103CA0003923DFF8C8A1DFF8C891694E694D019347
:103CB0002368002B41D172B6DAF80030D9F80070D1
:103CC000326862B6520102D5322B88BF0137C3F584
:103CD000EA33BF334FF47A72A5FB031302FB07F7F5
:103CE00007EB93174FF00A0872B6DAF80010D9F80C
:103CF0000020D6F800E062B6C1F5EA33BF33A5FB79
:103D000003031EF0806FC7EB93134FF47A7002D059
:103D1000322988BF013200FB0233B3F57A7F05D325
:103D2000B8F10108C4D007F57A77DDE74A4B1B7874
:103D3000002BD9D101F0E4F9D6E7484B474A1B687C
:103D40004749484811F803B013680133632B1360E7
:103D50005FFA8BFBC8BF00234FF0FF31C8BF136071
:103D600001F01CFBBBF12F0FA2D9019B9B459FDCEF
:103D7000009A0BF07F0302EBC303089A58683432B1
:103D800093445FFA8BF3019300283FF4B0AD01F048
:103D9000B7FDACE5344B009303EBCB03ABF1300B39
:103DA0000BEB8B0B58684FEA4B0B5FFA8BF30193CD
:103DB00008B101F0A5FDDFF8B4A0DFF8B490244EFF
:103DC000244D2368002B55D172B6DAF80030D9F8AB
:103DD0000070326862B6500102D5322B88BF0137BD
:103DE000C3F5EA33BF334FF47A72A5FB031302FB2A
:103DF00007F707EB93174FF00A0872B6DAF80010CE
:103E0000D9F80020D6F800E062B6C1F5EA33BF3336
:103E1000A5FB03031EF0806FC7EB93134FF47A707A
:103E200002D0322988BF013200FB0233B3F57A7F1A
:103E300005D3B8F10108C4D007F57A77DDE7064B62
:103E40001B78002BD9D101F05BF9D6E72C220100B9
:103E500004ED00E08988888888A50020D81AFF1F13
:103E6000DC1AFF1FD41AFF1FCC16010018E000E077
:103E700084A50020A04BA04A1B68A049A04811F8C7
:103E800003B013680133632B13605FFA8BFBC8BF69
:103E900000234FF0FF31C8BF136001F07FFAABF190
:103EA0003003DBB2092B8CD8009A02EBCB0B019AC2
:103EB000DBF804001A44D3B2019300287FF467AF03
:103EC00015E5022B8F4B0CBF8F4A904A1A60FFF703
:103ED000BABB8F4E8F48357801F012FD8D4801F046
:103EE0000FFDEDB28C4805F077FA012D00F0AE829F
:103EF000022D0CBF89488A4805F06EFA894B1B7861
:103F00003F2B18DDDFF85092D9F800303F2B12DC40
:103F1000804801F0F5FCD9F800303F2BF8DD02F0C5
:103F200087F900F0DF034E2B0BD0522B00F07B8281
:103F30000D2800F06C8202F07BF900F0DF034E2BBD
:103F4000F3D17948012505F047FA3570FFF767BBD3
:103F500009203B46FFF7D7BB0A203B46FFF7D3BB00
:103F600002239B46FFF750BB6F4805F035FA01234B
:103F70009B46FFF74CBBDFF8E091D9F800303F2BB0
:103F80003FF7E1A9634801F0BBFCD9F800303F2BB3
:103F9000F8DDFFF7D8B9654805F01EFA0F239B46F8
:103FA000634B5C4883F800B0624B1B78DBB21D4664
:103FB0009B4601F0A5FC574801F0A2FC5E4805F0C5
:103FC0000BFA012D00F0B981022D00F01C82032DA7
:103FD00000F01582042D00F00E82052D00F00782FE
:103FE000062D00F0F481072D0CBF5448544805F00D
:103FF000F3F94C4B1B783F2B0CDDDFF85C91D9F8C3
:1040000000303F2B06DC434801F07AFCD9F8003041
:104010003F2BF8DDDFF844A1DFF84491494E4A4DCB
:104020002368002B41D172B6DAF80030D9F800705D
:10403000326862B6510102D5322B88BF0137C3F511
:10404000EA33BF334FF47A72A5FB031302FB07F781
:1040500007EB93174FF00A0872B6DAF80010D9F898
:104060000020D6F800E062B6C1F5EA33BF33A5FB05
:1040700003031EF0806FC7EB93134FF47A7002D0E6
:10408000322988BF013200FB0233B3F57A7F05D3B2
:10409000B8F10108C4D007F57A77DDE72B4B1B7820
:1040A000002BD9D101F02CF8D6E7134B124A1B682C
:1040B00012491348CF5C13680133632B1360FFB2BE
:1040C000C8BF00234FF0FF31C8BF136001F066F98D
:1040D000372F00F0C480382F44D00D2FA0D11C4BB7
:1040E00053F82B0005F078F91A4801F009FC114B40
:1040F00083F800B0FFF7D3B9D81AFF1FDC1AFF1FEF
:10410000D41AFF1F5818FF1F7CD10000CCD8000024
:10411000EC07FF1FF822010090F10000BCF1000045
:10412000D8F10000FC07FF1F70EF0000CCEF00008B
:10413000ED07FF1FEE07FF1FFCEF0000F0F000008F
:1041400018F1000004ED00E08988888888A5002027
:1041500058D10000C01601000008FF1F18E000E061
:1041600084A50020BF48DFF870A3DFF87093BE4E2F
:10417000BE4D01F0C5FB2368002B41D172B6DAF8C1
:104180000030D9F80070326862B6500102D5322B87
:1041900088BF0137C3F5EA33BF334FF47A72A5FB0A
:1041A000031302FB07F707EB93174FF00A0872B6E9
:1041B000DAF80010D9F80020D6F800E062B6C1F5B0
:1041C000EA33BF33A5FB03031EF0806FC7EB9313E5
:1041D0004FF47A7002D0322988BF013200FB0233DB
:1041E000B3F57A7F05D3B8F10108C4D007F57A7723
:1041F000DDE79F4B1B78002BD9D100F081FFD6E77C
:104200009C4B9C491B689C4A9C48D35C0A680132C1
:10421000632ADFB20B46C8BF00230A60C8BF0B6029
:104220004FF0FF3101F0BAF807F0DF034E2B00F03A
:10423000BE804F2B00F0A580452B9CD1904801F00B
:104240005FFB02E0322800F0AC8001F0F1FF312882
:10425000F8D18C4805F0C0F805239B4647E78A480B
:10426000DFF874A2DFF874927F4E804D01F048FBB6
:104270002368002B41D172B6DAF80030D9F800700B
:10428000326862B6520102D5322B88BF0137C3F5BE
:10429000EA33BF334FF47A72A5FB031302FB07F72F
:1042A00007EB93174FF00A0872B6DAF80010D9F846
:1042B0000020D6F800E062B6C1F5EA33BF33A5FBB3
:1042C00003031EF0806FC7EB93134FF47A7002D094
:1042D000322988BF013200FB0233B3F57A7F05D360
:1042E000B8F10108C4D007F57A77DDE7604B1B7899
:1042F000002BD9D100F004FFD6E75E4B5D491B6867
:104300005D4A5E48D35C0A680132632ADFB20B461D
:10431000C8BF00230A60C8BF0B604FF0FF3101F037
:104320003DF807F0DF034F2B0BD0452BA0D15748AA
:1043300005F052F802239B46D9E6554805F04CF8A3
:1043400057E6544805F048F801239B46CFE6022380
:104350009B46FEF79FBD504805F03EF801239B4663
:10436000FEF79BBD02239B46FEF7BFBC4B4805F002
:1043700033F801239B46FEF7BBBC0A203B46FEF701
:1043800056BE474801F0BCFA01E0322829D001F0BE
:104390004FFF3128F9D13B4805F01EF804239B4616
:1043A000A5E6404805F018F808239B469FE63E48DE
:1043B00001F0A6FA01E032280DD001F039FF3128D2
:1043C000F9D1304805F008F803239B468FE63748BB
:1043D00005F002F80DE6334804F0FEFF06239B4685
:1043E00085E6304804F0F8FF07239B467FE6304817
:1043F00004F0F2FFFDE52F4804F0EEFFF9E52E484A
:1044000004F0EAFFF5E52D4804F0E6FFF1E5012DA3
:104410003FF497AD022D0CBF29482A4804F0DCFF79
:104420003570FFF7FCB8284804F0D6FF01E05228A9
:1044300010D001F0FDFE00F0DF005328F7D1234833
:10444000022504F0C9FF3570FFF7E9B8204804F0F1
:10445000C3FF53E51F48032504F0BEFF3570FFF787
:10446000DEB800BFD821010004ED00E0898888880B
:1044700088A50020D81AFF1FDC1AFF1FD41AFF1FBF
:10448000BC1F010048F10000E421010044F10000DC
:1044900000F0000040F100001CEF0000E4EE00001E
:1044A000441F0100F0EE0000501F0100C8F00000A2
:1044B000A0F0000078F0000050F0000028F00000AC
:1044C00008F2000014F20000F4F10000F8F100001E
:1044D000A0F1000000F2000018E000E084A5002038
:1044E000937943F040039371FFF7C9BA874F884E21
:1044F000884D894C894899F80020DFF880E202F065
:10450000FF01002A36D09AF800309BF80030844B27
:104510001B78844B1B78844B1B78844B1B783B782F
:1045200033782B78237803789EF80030EFF30582F8
:104530000123002ADFD188F80020EFF3108272B641
:104540007B4E306810B17B4C25782DB1002A7FF46A
:1045500053AA62B6FFF750BA41692370316001B1C6
:104560008D6102B962B6002545778368984725704A
:10457000FFF742BA002B3FF448AA88F80010FFF773
:1045800044BA0920FFF7AEB90A20FFF7ABB90323FD
:104590009B46FEF77CBF684804F01EFF02239B4643
:1045A000FEF778BF654804F017FF01239B46FEF72E
:1045B00071BF634804F010FFFEF7C0BE614801F010
:1045C0009FF901E0362812D001F032FE3228F9D1ED
:1045D0005D4804F001FF15239B46E1E45B4804F0CD
:1045E000FBFE11239B46DBE40220FEF787BE584802
:1045F00004F0F2FE0D239B46D2E40320FEF77EBEBC
:104600000420FEF77BBE0520FEF778BE0620FEF7ED
:1046100075BE0720FEF772BE0820FEF76FBE0920A8
:10462000FEF76CBE0A20FEF769BE4A4804F0D4FECD
:1046300010239B46B4E4484801F062F901E03828B1
:1046400031D001F0F5FD3628F9D1444804F0C4FE1C
:1046500014239B46A4E4424801F052F901E03428B7
:104660001BD001F0E5FD3328F9D13E4804F0B4FE3B
:1046700013239B4694E43C4801F042F903E03828B8
:104680001DD0392815D001F0D3FD3128F7D1374896
:1046900004F0A2FE12239B4682E4354804F09CFEFF
:1046A0000B239B467CE4334804F096FE0C239B4688
:1046B00076E4314804F090FE0E239B4670E42D48CA
:1046C00004F08AFE0A239B466AE402203B46FEF77A
:1046D000AEBC03203B46FEF7AABC04203B46FEF7D7
:1046E000A6BC05203B46FEF7A2BC06203B46FEF7D3
:1046F0009EBC07203B46FEF79ABC08203B46FEF7CF
:1047000096BC09203B46FEF792BC00BF4519FF1F2F
:104710004619FF1FD518FF1FD618FF1F6418FF1F6B
:10472000251AFF1F261AFF1FB519FF1FB619FF1FF5
:10473000CC1AFF1FD01AFF1F78EF000070EF0000A7
:1047400034EF0000CC210100ECEF0000E4EF0000AA
:10475000F4EF0000DCEF000008220100D4EF0000BD
:1047600020220100BCEF00002C220100A4EF000079
:10477000C4EF0000ACEF0000B4EF00006518FF1FAD
:1047800010B4224B1A7992060ED5214AD9791378A2
:10479000507801333F2BC8BF00238342C9B203D0F6
:1047A000D018DBB2017113701849CB78DBB21C064C
:1047B0000ED4590609D5154B1A79520605D5144958
:1047C00000202C2281F87000DA705DF8044B7047ED
:1047D0000A791006EDD50E4A92F8444092F8450049
:1047E000C0B284420ED0411C272986BF002001465A
:1047F000C8B21144054C91F84810C9B2E17182F871
:104800004500D6E76C22CA70D3E700BF00B00E4067
:104810006418FF1F10B4244B1A79920612D5234A4C
:10482000D97992F8713092F8720001333F2BC8BFEA
:1048300000238342C9B205D0D018DBB280F87410CF
:1048400082F871301849CB78DBB21C060ED45906B9
:1048500009D5154B1A79520605D5144900202C228A
:1048600081F8E000DA705DF8044B70470A791006B1
:10487000EDD50E4A92F8B44092F8B500C0B2844229
:104880000ED0411C272986BF00200146C8B2114422
:10489000054C91F8B810C9B2E17182F8B500D6E7BD
:1048A0006C22CA70D3E700BF00A00E406418FF1F3F
:1048B00010B4244B1A79920612D5234AD97992F86A
:1048C000E13092F8E20001333F2BC8BF002383425E
:1048D000C9B205D0D018DBB280F8E41082F8E1301C
:1048E0001849CB78DBB21C060ED4590609D5154BF6
:1048F0001A79520605D5144900202C2281F850015E
:10490000DA705DF8044B70470A791006EDD50E4A4F
:1049100092F8244192F82501C0B284420ED0411C85
:10492000272986BF00200146C8B21144054C91F8E2
:104930002811C9B2E17182F82501D6E76C22CA704C
:10494000D3E700BF00D006406418FF1F10B4244B0B
:104950001A79920612D5234AD97992F8513192F8F0
:10496000520101333F2BC8BF00238342C9B205D097
:10497000D018DBB280F8541182F851311849CB7845
:10498000DBB21C060ED4590609D5154B1A7952060E
:1049900005D5144900202C2281F8C001DA705DF899
:1049A000044B70470A791006EDD50E4A92F89441EF
:1049B00092F89501C0B284420ED0411C272986BFCF
:1049C00000200146C8B21144054C91F89811C9B2B3
:1049D000E17182F89501D6E76C22CA70D3E700BF77
:1049E00000C006406418FF1FF0B4334B1A7912F070
:1049F000300F22D072B6997D01F0FF0200292FD02E
:104A000062B62E4D95F8C10195F8C2711C46C0B230
:104A1000FFB2431C402BE17928BF0023BB4202F1C7
:104A2000FF32C9B203D0EE18184686F8C41112F04E
:104A3000FF02EED1C0B285F8C1011F49CA78D2B2D7
:104A4000150612D4510609D51B4B1A79520605D505
:104A50001A4900203C2281F83002DA70F0BC70471D
:104A60004022D9795A7462B6E7E70B791C06E9D57A
:104A7000124D95F8044295F80532E4B2DBB29C423F
:104A800002D10EE0A3420CD00133282B28BF002313
:104A9000E8180E7990F80802C0B2C871087D07289E
:104AA000F0D9DBB2044985F805320B79180644BF0A
:104AB0007C23CB70C6E700BF00B006406418FF1F20
:104AC000604A2DE9F041604D1368D5F83442013356
:104AD0001360002C35D02368002B30D198462E4629
:104AE000022704E0D6F834425CB323683BBBA368DA
:104AF0000BB1C3F80C802069C5F83432036884F820
:104B000014801B682246002198476368002BE9D077
:104B1000D6F834022360002800F0878001688B42B9
:104B200049D2CB1AA060C4F80C80C6F834420360A6
:104B3000C4602046277504462368002BD7D0013B6C
:104B40002360EFF3108372B60022D5F83802C5F85F
:104B5000382203B962B600286DD04FF00008D5F8AE
:104B60003462C4464FF0020E0EE0CB1A8660C0F8E5
:104B70000CC001463360F0604FF0010880F814E08B
:104B80000E463846002F37D08768002E39D003688C
:104B900031688B42E9D3344603E011688B421446F6
:104BA0001BD3A2685B1A0360002AF6D18260C4603E
:104BB0003146A060E2E7864603E011688B429646E4
:104BC00025D3DEF808205B1A2360002AF5D1A26005
:104BD000C4F80CE0CEF80840ACE7D268C26084604C
:104BE000E060C268CB1A314690600E46236080F8C0
:104BF00014E03846002FC7D1B8F1000F1DD1BDE831
:104C0000F0818660C66001464FF00108B6E7D268C1
:104C1000E260C4F808E0CEF80C40E268CB1A946079
:104C2000CEF80030277504465FE7A060E060C6F864
:104C3000344220467EE7BDE8F081C5F83412BDE875
:104C4000F08100BF84A500206418FF1F38B5EFF382
:104C5000108272B60C4CD4F83C0288B1002543692E
:104C6000C4F83C3203B19D6102B962B645778368EE
:104C70009847EFF3108272B6D4F83C020028EED1C8
:104C800002B962B638BD00BF6418FF1F08B52F4EC9
:104C90002F4C304D08E0236858050DD423681905C2
:104CA0000FD42368DA0411D423685B03F3D503F02F
:104CB00055FD23685805F1D503F07EFB23681905DF
:104CC000EFD5FFF791FE2368DA04EDD52B799B062B
:104CD00012D5EA7996F8513196F852011B49013301
:104CE0003F2BC8BF00239842D2B205D0C818DBB210
:104CF00080F8542181F85131EB78DBB218060AD4E0
:104D00005A06D1D52B795B06CED500222C2386F806
:104D1000C021EB70C8E72A791106F1D596F89411F5
:104D200096F89521D2B291420DD00132272A86BF42
:104D300000210A46D1B2324492F89821D2B2EA71E7
:104D400086F89511DCE76C22EA70D9E76418FF1F3A
:104D50003480044000C0064008B5FFF797FF00BF4D
:104D60002DE9F047804607C986B08DE80700AD48B9
:104D700000F0C6FD019B002BC0F20881684602F0DE
:104D800073FE09286C4640F3EE8000242546012678
:104D9000A54F08F1FF3818F8012F02F07F0307EB49
:104DA000C3033AB15B681846002BF4D000F0A8FDAD
:104DB0000028F0D1DFF89C829B4F18F8012B02F0FD
:104DC0007F0307EBC3033AB15B681846002BF4D0AE
:104DD00000F096FD0028F0D1944FE31787FB0421E3
:104DE000C3EBA10101EB8102A4EB42024FF0203E94
:104DF00030320020CDF814E0CDF80CE08DF816200C
:104E0000CDF810E08DF81700002900F0018187FB34
:104E1000012ECA17C2EBAE0202EB820E844AA1EB4E
:104E20004E0182FB04E23031D3EB62128DF8151093
:104E300000F0EB8087FB021ED117C1EBAE0101EB46
:104E4000810E7C49A2EB4E0281FB04E13032D3EBB0
:104E5000A1118DF8142000F0D58087FB012ECA1710
:104E6000C2EBAE0202EB820E734AA1EB4E0182FB53
:104E700004E23031D3EB22328DF8131000F0BF8002
:104E800087FB021ED117C1EBAE0101EB810E6B490E
:104E9000A2EB4E0281FB04E13032D3EB61318DF89D
:104EA000122000F0A98087FB012ECA17C2EBAE02C8
:104EB00002EB820E624AA1EB4E0182FB04E230312A
:104EC000D3EBA2428DF8111000F0938087FB021EF5
:104ED000D117C1EBAE0101EB810E5A49A2EB4E0294
:104EE00081FB04E13032D3EBA1518DF810207DD04D
:104EF00087FB012ECA17C2EBAE0202EB820E524AAA
:104F0000A1EB4E0182FB04E23031D3EB62628DF8FB
:104F10000F1068D087FB0217D117C1EBA7074B49C9
:104F200007EB8707A2EB470281FB04143032D3EB77
:104F300024738DF80E2053D030338DF80D300123BB
:104F4000002D27DB013003AB184404F045FA16B1FD
:104F50003F4804F041FA334800F0D2FC05F004F970
:104F600006B0BDE8F08700284FF0000519DD019B71
:104F700003F51C53103320460135019302F074FDF4
:104F800078B1142DF3D12C46012601E700242646E2
:104F90002546FDE606AA02442D21981E02F80C1CA7
:104FA000D0E7A5F1140A42F20F7900E03D46019ED8
:104FB000002E05F1FF37A6F51C532DDD4E45CCBF65
:104FC000103B00232046019302F04EFD18BB5745CD
:104FD000ECD187EAE774A4EBE7743D460126D7E6F7
:104FE00001200223ACE702200323A9E703200423C6
:104FF000A6E704200523A3E705200623A0E7062053
:1050000007239DE7072008239AE70820092397E74D
:1050100009200A2394E7019685EAE574A4EBE57478
:105020000026B5E6C0160100CC160100676666666C
:105030001F85EB51D34D6210AD8BDB6889B5F81439
:1050400083DE1B436BCA5F6B893BE655A12FB844D7
:10505000C8F20000E0EE000072B6184A92F843323F
:10506000032B1DD8DFE803F016130219144B05219A
:1050700082F84312018813F0080F14BFC822882257
:10508000083042EA014258601A6062B67047022155
:105090000C4BEDE703210A4BEAE70421094BE7E754
:1050A000D2F85032054933B1D1F860325860C2F8B5
:1050B000600262B67047C1F85002F8E76418FF1F3B
:1050C0009000FF1F9800FF1FFEE700BFFEE700BF34
:1050D0000A4908B50B6840B16A461844A2F5005267
:1050E000904204D20860184608BD184608BD05F075
:1050F00073FB0C2303604FF0FF3008BDF807FF1F60
:1051000038B51E4C1E4B94F8642294F8652294F82E
:10511000C12194F8C22194F8512194F8522194F8B5
:10512000E12094F8E22094F8712094F8722022781B
:10513000627800221A70EFF3058303B138BDEFF3F4
:10514000108272B6D4F8680298B194F86C3283B9C0
:105150004169C4F86812012584F86C5201B18B6171
:1051600002B962B6002545778368984784F86C5287
:1051700038BD002AE2D162B638BD00BF6418FF1FF7
:1051800088A500202DE9F84F04466348634D00F0E0
:10519000B7FB614800F0B4FB013C14F8012F02F0AA
:1051A0007F0305EBC3033AB15B681846002BF4D0CC
:1051B00000F0A6FB0028F0D1594C584D14F8012BF3
:1051C00002F07F0305EBC3033AB15B681846002B7E
:1051D000F4D000F095FB0028F0D1524C2379302B0D
:1051E00008DDA368302B05DC4B4800F089FBA36881
:1051F000302BF9DD4C4EDFF84C91DFF84C814B4DF4
:105200003746D6F87032002B41D172B6D9F800304B
:10521000D8F800402A6862B6520102D5322B88BF06
:1052200001344349C3F5EA33BF334FF47A72A1FB2B
:10523000030302FB04F48B4604EB93144FF00A0AB9
:1052400072B6D9F80010D8F80020286862B6C1F507
:10525000EA33BF33ABFB03E34001C4EB93134FF4DA
:105260007A7E02D5322988BF01320EFB0233B3F5B4
:105270007A7F05D3BAF1010AC3D004F57A74DFE767
:105280002C4B1B78002BDBD1FFF73AFFD8E7D7F880
:10529000743229483B444FF0FF3193F87842D7F8F5
:1052A00074320133632BC7F87432E4B2C4BF0023F5
:1052B000C7F8743200F072F804F0DF03592B17D0EE
:1052C0004E2B01D00D2C9CD11C4C144D14F8012BED
:1052D00002F07F0305EBC3033AB15B681846002B6D
:1052E000F4D000F00DFB0028F0D10020BDE8F88FCD
:1052F000134C0A4D14F8012B02F07F0305EBC30396
:105300003AB15B681846002BF4D000F0F9FA002897
:10531000F0D10120BDE8F88FF8220100CC16010081
:10532000F0F20000F807FF1F6418FF1F04ED00E013
:105330008988888888A50020D41AFF1F04F30000FC
:10534000FCF2000018E000E084A500200E4B1B7862
:10535000012B00D070470D4B1B78012BFAD1431E57
:10536000052BF7D80A490B4A0B68013310B40B60C0
:1053700052F82030084C2021013342F820302160BF
:105380005DF8044B704700BFB80EFF1FF407FF1F06
:10539000A8A20020B0A2002084F00F4050E8003FF7
:1053A0000B4440E80032002AF8D17047F8B5934D1D
:1053B0002B6813F83040E4B2C700E10706463B44CF
:1053C00017D58F4A1268B2F57A7F80F291808D4AA4
:1053D0008D4811685B78DBB2435413680133B3F531
:1053E0007A7F13604FF00100A4BF0023136004F024
:1053F0000DFFA20776D4630717D5844B1B68632B78
:105400007ADC2B687F4A824851683B445B78DBB288
:10541000435453687D480133632B53604FF00101BF
:10542000C4BF00235360FFF7B9FF2A6812F8363073
:1054300003F0F803083B402B53D8DFE813F041009A
:1054400052005200520052005200520052007E00A0
:1054500052005200520052005200520052006900A5
:105460005200520052005200520052005200D2002C
:1054700052005200520052005200520052000D01E0
:1054800052005200520052005200520052001E01BF
:1054900052005200520052005200520052008A0044
:1054A000520052005200520052005200520061005D
:1054B0005200520052005200520052005200260187
:1054C000544C554A23782A60002B40F00E81534CEF
:1054D0002378002B40F00381514C2378002B00F0FF
:1054E000E680F8BD2B683B44586803F08DFF82E7E7
:1054F0000320FFF72BFF7CE70120FFF727FF94E74E
:105500004848494902600322484B0A702B60F8BDA5
:10551000404C474A23782A60ABB1464B1C78E4B232
:10552000012C00F0BA803E4C2378002BD9D04248A1
:1055300003F06AFF00232370F8BD364C3F4A2378FE
:105540002A60002BE9D13E4803F05EFF012323705F
:10555000E3E73C4C2378012B00F0D7802378022B23
:1055600000F0DD802378032B254B00F0A6801A681D
:1055700040F2E6339A4200F3C480224D224E2B685B
:105580000A22F2542B680133B3F57A7F2B604FF077
:105590000100A4BF00232B6004F038FE2B681949DA
:1055A0000D22F2542B680133B3F57A7F2B6001DBB7
:1055B00000230B60012004F029FE6378214D012BAC
:1055C0008FD1214803F020FF2B78DBB2012B04BFE1
:1055D0001E4A13702378032B83D11D4B01221A70AE
:1055E000F8BD0C4C1B4A23782A60002B95D0144838
:1055F00003F00AFF002323708FE700BFC40EFF1FD4
:105600008CA50020501BFF1FD012FF1FD41AFF1FB4
:10561000DC1AFF1FCE0EFF1FBCA90000CF0EFF1F1C
:10562000D00EFF1F5818FF1FB80EFF1FA801010062
:1056300008F30000F107FF1F7CBE00002CB700003C
:1056400014B700000408FF1FC0160100DA0EFF1F88
:10565000D90EFF1F88BE00003E4C3F4A23782A60C7
:10566000002B48D13D4C2378002B3FF45CAF3C48E5
:1056700003F0CAFE0023237055E73A483A49026016
:1056800002223A4B0A702B60F8BD36483649026058
:105690000422374B0A702B60F8BD304D2B78002B5D
:1056A0007FF441AF2E4803F0AFFE2C703BE731484A
:1056B00003F0AAFE01232370F8BD1B68B3F57A7FBF
:1056C0001FDA2D4A2D4913680A20C8541368013384
:1056D000B3F57A7F1360A4BF002313606AE7204804
:1056E00003F092FE00232370F6E6254803F08CFEBB
:1056F00000232370EBE6224803F086FE002323708C
:10570000B0E70320FFF722FE57E71E4B1B68B3F5F7
:105710007A7FF6DA184A194913680D20D5E7194B34
:105720001A6840F2E6339A42EBDC134D134E2B68B5
:105730000D22F2542B680133B3F57A7F2B604FF0C2
:105740000100A4BF00232B6004F060FD2B680A4910
:105750000A2226E7CE0EFF1FD8C50000CF0EFF1F7E
:1057600020B700005818FF1FB80EFF1F58FA00009E
:10577000F80801000CB50000501BFF1FD012FF1FDE
:1057800014B700008CA500202DE9F047DFF89CA09D
:10579000224DDAF800302B4481461C7AE4B2FF2C0B
:1057A00016D11F4ED0460027DAF800300133B3423D
:1057B000CAF80030C8BFC8F80070DAF800302B44CF
:1057C0004FF0FF301C7AE4B204F040FDFF2CEBD028
:1057D000B9EB141F02D00020BDE8F08704F00F04DD
:1057E000104B1B5D03F0FF042BB10F4B53F834300B
:1057F000012283F88020DAF80030094A0B4901338E
:105800009342CAF800304FF0FF30C4BF00230B6052
:1058100004F01CFD2046BDE8F08700BF501BFF1FB1
:105820009F860100D807FF1F98230100D8A20020FF
:105830002DE9F84F2A4E2B4FDFF8B4B0DFF8B4A0B3
:10584000DFF8B490DFF8B4803368002B3FDD72B628
:10585000DBF80030DAF80040D9F8002062B65201D7
:1058600002D5322B88BF0134C3F5EA33BF334FF47E
:105870007A72A8FB031302FB04F404EB93140A25C9
:1058800072B6DBF80000DAF80020D9F8001062B632
:10589000C0F5EA33BF33A8FB03E34901C4EB93131C
:1058A0004FF47A7C02D5322888BF01320CFB0233D8
:1058B000B3F57A7F04D3013DC6D004F57A74DFE7EF
:1058C000094B1B78002BDBD1FFF71AFCD8E73B68AC
:1058D0000C2BBCD8054B1B680C2BB8D8BDE8F88F37
:1058E00094A50020E0A2002088A50020E4A20020CA
:1058F00018E000E084A5002004ED00E08988888895
:105900002DE9F04FB44FB54EB54AB649B64CDFF865
:1059100024E3DFF824C3DFF82483DFF82493DFF8DF
:1059200024A3DFF824B30546B8783368984283B0DF
:105930001EDAAB6893421BD08B4219D0A34217D01A
:10594000734515D0634513D0434511D04B450FD057
:1059500053450DD05B450BD0A448834208D03B791A
:10596000012B00F00581B8783368A14D9842E0DB47
:10597000A04B1A78012A00F0D1801B78022B00F08E
:10598000C380AB68DFF8C4C21A789B49DCF80030EA
:105990000193DCF800300968002A00F0DB819748A9
:1059A000814201F1010400F39080DFF8A49209EB39
:1059B000020090F87C0C002800F08F80C1F5C338FD
:1059C000DFF83CE2DFF88CA208F19F08002009E034
:1059D000414504F1010478D09BF87CBC0846BBF13A
:1059E000000F7AD001335345C8BF00230EEB030BE1
:1059F000411C8BF80820AA68525C09EB020B002AB4
:105A0000E6D102306A68002AC0F2BD80DFF8488221
:105A1000D8F864100A44C8F86420D8F8641042F634
:105A2000D7429142D8BF21462ADDDFF8D0E1744544
:105A300004F1010100F3A380DFF8C4E1DFF814A250
:105A4000DFF818B214464FF0E00905E0013159457E
:105A500000F1010000F0938001335345C8BF0023DB
:105A60000EEB030282F80890D8F86420A2F53352B6
:105A7000183AC8F86420D8F86420A242E6DC013065
:105A80005E4A91427BDC01325D4C01339342C8BFD8
:105A90000023E21800211172CCF8003004F0D6FB8C
:105AA000019B2344FF221A722B68013B0A2B5BD80F
:105AB000DFE813F01A0110014A000B010801FF0092
:105AC000F6005A00D8002501E7004E4B1B78012B49
:105AD0006BD0002003B0BDE8F08F4A4B1B78012B40
