:10000000F8FF022099010000E9B10000EDB0000006
:10001000EDB00000EDB00000EDB00000EDB000006C
:10002000EDB00000EDB00000EDB00000E9B100005F
:10003000E9B10000EDB00000A95C0000315B0000F8
:10004000E9B10000E9B10000E9B10000E9B1000048
:10005000E9B10000E9B10000E9B10000E9B1000038
:10006000E9B10000E9B10000E9B10000E9B1000028
:10007000E9B10000E9B10000E9B10000E9B1000018
:10008000E9B10000E9B10000E9B10000E9B1000008
:10009000E9B10000E9B10000E9B10000E9B10000F8
:1000A000E9B10000E9B10000E9B10000E9B10000E8
:1000B000E9B10000E9B10000E9B10000E15C000035
:1000C000E9B10000B5BA0000E9B1000019BA0000BA
:1000D000E9B100007DB90000E9B10000E9B100001C
:1000E000E9B10000E9B10000E9B10000E9B10000A8
:1000F000E9B10000E9B10000E9B10000E9B1000098
:100100001D5B0000095B0000F55A0000E15A000089
:10011000E9B10000255F0000E9B10000E9B100008D
:10012000E9B10000E9B10000E9B10000E9B1000067
:10013000E9B10000E9B10000E9B10000E9B1000057
:10014000E9B10000E9B10000E1B80000E9B1000048
:100150004DB80000E9B10000E9B10000E9B10000CC
:10016000E9B10000E9B10000E9B10000E9B1000027
:10017000E9B10000E9B10000E9B10000E9B1000017
:10018000E9B10000E9B10000E9B10000E9B1000007
:10019000E9B10000E9B1000008B55D4B4CF2205216
:1001A0001A804DF628121A8000BF00BF102223F8D3
:1001B0000E2CA3F51F43DE3B4FF030621A60554A08
:1001C0009A60554ADA60554B4FF470021A60544AEF
:1001D000136813F4807304D152490B604FF4A85391
:1001E0001360514B1A78100703D51A7842F00802B1
:1001F0001A704E4B4E492A221A704E4A4E4B8B4271
:1002000004D252F8040F43F8040BF8E74B4B4C4967
:1002100000228B4202D243F8042BFAE749494A4AAA
:10022000002352F8230041F823000133662BF8D154
:10023000464B474A802103F8011B9342FBD1454BB3
:10024000404A1A60444B8A221A70A3F58053242234
:100250005A70A0221A709A799107FCD59A79D20621
:10026000FCD43E4A937903F00C03082B3B4BF9D1A5
:1002700003221A7146225A719A799406FCD5374A9C
:100280009179364B4806FBD5354A4FF082711160A3
:100290000921516020221A709A7902F00C020C2A6E
:1002A000FAD1304B304A1A60304B314A1A60002480
:1002B00007225C6043F8042C2E4AC3F80C2D62B66A
:1002C0000AF096FF174B1A68D1070AD52A4A2B491C
:1002D0001C60146042F8041C10221A60284A294944
:1002E0001160294A127852060ED52549254A086818
:1002F000904209D12048214C00221A60026040F847
:10030000044C102018600A600CF0F6FA04F024FD8A
:100310000E200540823F04000100002B88ED00E024
:1003200010D0034014D0034002D0074000E0074043
:10033000B40EFF1F80530100F806FF1FB80EFF1F09
:1003400000A900200002FF1F0000000000E400E000
:1003500056E400E008ED00E0005006400040064092
:100360004480044004800440C010050014E000E014
:10037000BFD401000000202004D00340CA7E765E76
:100380001CE00340A5C3945A00F00740FFFFFFFFA5
:10039000FFFFFFFFFFFFFFFFFFFFFFFFFFFFFFFF6D
:1003A000FFFFFFFFFFFFFFFFFFFFFFFFFFFFFFFF5D
:1003B000FFFFFFFFFFFFFFFFFFFFFFFFFFFFFFFF4D
:1003C000FFFFFFFFFFFFFFFFFFFFFFFFFFFFFFFF3D
:1003D000FFFFFFFFFFFFFFFFFFFFFFFFFFFFFFFF2D
:1003E000FFFFFFFFFFFFFFFFFFFFFFFFFFFFFFFF1D
:1003F000FFFFFFFFFFFFFFFFFFFFFFFFFFFFFFFF0D
:10040000FFFFFFFFFFFFFFFFFFFFFFFFDEF9FFFF23
:1004100010B5054C237833B9044B13B10448AFF33E
:1004200000800123237010BDB80EFF1F00000000E4
:1004300084530100084B10B51BB108490848AFF3BD
:1004400000800848036803B910BD074B002BFBD0A0
:10045000BDE81040184700BF00000000BC0EFF1FA1
:1004600084530100B40EFF1F000000002DE9F04F7F
:10047000994F9A4DDFF868B2DFF88882DFF880A2E2
:1004800089B03E462B78012B44D0D8F80030012BA0
:1004900000F0EC80D7F8D830003318BF0123002BD0
:1004A00047D02B78012B00F0CF81D8F80030012BFA
:1004B00000F0E780D7F8D830002B41F33B81D6F825
:1004C000E03096F8282006EB43010133B1F8E44010
:1004D0003F2BC8BF00231440C6F8E03072B6D7F8EF
:1004E000D830013BC7F8D83062B604F07F04DBF89F
:1004F00000207B4BB2F57A7F80F2DE801A79002AE9
:100500007CD0784A125D002ABCD000221A712B7868
:10051000012BBAD1744A754B12689B88002ABBD054
:10052000118852888A1A1344003318BF0123002B04
:10053000B7D19BF8F423002A40F0C6806C4A1278A9
:10054000012A09D06B496C4A097852F8312092F897
:100550000022002A40F0B880684C2268002A40F34C
:10056000B380674E4FF0000929E02B78012B3FD074
:10057000644B1B68012B00F0DE825748036CC3F10B
:100580004003002B40F3B38209F076FE012840F0CF
:10059000AE82DBF8F833524A0133B3F57A7FCBF8F9
:1005A000F83302DB0023C2F8F8334FF0FF300BF0D2
:1005B0007FFF2368002B4FF0010940F39C82DBF89A
:1005C000F8335B4493F8FC132B78012B01F07F0187
:1005D000CBD14D4B5A78022A00F016835B78032B5F
:1005E000C3D1404B19442B7891F80011012BBFD196
:1005F00008A800F8031D0BF043FBC7E742490A783F
:10060000D2B2012A00F012819BF80530344A002B47
:1006100000F0118100230D2C53713FF433AFDBF850
:1006200000202F4840F2ED239A420ADDC37943B9F6
:100630008B79022B00F0AE832D4B1B78032B00F03F
:10064000C883DBF80830264A5B441C73DBF80830AB
:100650000133B3F57A7FCBF80830A4BF0023936051
:10066000DBF800300133CBF800300BE7274B284A8A
:100670001B781278D9B2D3B2994238BF4031CB1A25
:100680000AE7224B224A19781378DBB2994201F02B
:10069000518001333F2B84BF00210B461D4898BF7A
:1006A000D9B2C45C1170DBF800200D4BB2F57A7F33
:1006B00004F07F04FFF622AF022007F051FE9BF802
:1006C000F423002A3FF43AAF134E3268002A3FDD8C
:1006D000034C002732E000BF081EFF1FF707FF1F73
:1006E000D40EFF1FE4D40000D4A80020D8A8002016
:1006F000F807FF1FF507FF1F64510100F0A8002055
:1007000000A00640B819FF1FD807FF1FBCA8002093
:10071000BDA80020741BFF1FF4A80020D4F8E43704
:100720000133632B4FF0FF30C4F8E437C8BFC4F87F
:10073000E4770BF0CDFE3368002B09DDDBF8E437FE
:100740000BEB8303D3F8E80709F0DCF90028E5D1C7
:10075000B74A1278012A00F04883B64FB64EDBF84C
:100760000020B64B002A40F38B80B54A11684AF648
:10077000C772914200F38480D3F878291A44147B1D
:10078000D3F878290132B2F57A7FC3F87829A4BF6B
:100790000022C3F87829DBF80030A84A013BCBF8E7
:1007A0000030DBF80030322BE4B20BDCD3794BB1F4
:1007B000A44B9B79022B00F06D81A34B1B78032B7C
:1007C00000F084810D2C04D000230A2C8BF87D3995
:1007D00002D000238BF87C399C4B1A6852F83430D5
:1007E000013B0F2BBBD801A151F823F0DF0800001B
:1007F000AD080000510900001F090000EB080000CF
:10080000D70800005F070000D1090000C3090000FD
:10081000DD090000A50800006F0800006B0900005A
:100820009B090000A50800006F0800001B2C7FF446
:10083000EBAE1A7126E6907900283FF4F0AE0A2C50
:1008400093717FF4ECAE1DE6DFF84492D9F8000016
:10085000002800F0598743880288C1180133934269
:100860000C7A80F08C83438004F07F043FE6002301
:100870008BF8F433DBF80020704B002A3FF775AF9C
:10088000734C2278022A00F0078322787049032AE9
:1008900000F0D88222786E49042A00F0308209B034
:1008A000BDE8F08F01238BF8F43358E7694C6A4AAE
:1008B00023786A491160002B40F0BB81684C237893
:1008C000002B40F0AF80674C237823B9664809F0CD
:1008D00019F901232370654B01221A703FE702EBDF
:1008E000C404606809F00EF939E75A4C5A4A237873
:1008F0005F491160002B40F08C81594C2378002B0C
:1009000040F09181574C2378002BE4D0594809F0EE
:10091000F9F800232370554B01221A701FE74D4C44
:100920004D4A237854481060002B40F08881454B95
:100930009C78E4B2012CE5D1DFF8248198F80030EE
:10094000002BDFD14D4809F0DDF888F80040D9E7E9
:10095000404C414A23784A481060002BE7D11838B0
:1009600009F0D0F801232370E1E7364B1A79012A08
:100970000CD01A79022A00F0D5811B79032B00F0E4
:10098000B2809BF87D39002B00F0AD803D4809F026
:10099000B9F800238BF87D39E1E62A4B1A79012A50
:1009A00000F0A9811A79022A00F0A2811B79032B99
:1009B00000F0B48101238BF87D3900238BF87C395A
:1009C000CDE62049294B02200122C8701A70C6E6E4
:1009D0001C49264A0123CB701370C0E62A4B1E4ADD
:1009E000DFF870801D491160002401208BF87E49DA
:1009F0008BF87F498BF880491C608BF807408BF897
:100A0000F44307F0BBFB98F80030002B3FF456AFDF
:100A10001E4809F077F888F80040114C2378002B25
:100A20003FF451AF154809F06DF8002323704AE7F1
:100A3000A419FF1F3480044000A00640D40EFF1FFD
:100A4000FCA80020D807FF1FF807FF1FAC19FF1FE5
:100A50009C19FF1FB219FF1FA819FF1F7810010072
:100A6000B319FF1FB419FF1FE01B0100B519FF1FC9
:100A700058E50000E4DD0000F0DD000070D6000065
:100A80007CD60000AC1F01004C1BFF1F64D6000089
:100A9000D4A80020A54B19782B78012BC9B200F0FF
:100AA0004C86A34B1B68012B00F0D080A148036C3F
:100AB000C3F14003002B04DD09F0DEFB012800F048
:100AC00050839D4B1B78032B7FF47CAE9B4B9C4A41
:100AD0001B78DBB2012152F83320002382F880100A
:100AE0008BF807306EE6974809F00CF851E7B9F13A
:100AF000000F3FF4E9AD2C78E4B2012C7FF4E4ADB3
:100B0000914A1278002A3FF4DFADDFF880828F4EE1
:100B1000D8F800703470002F01F0F4808C497A8886
:100B200000240C7038463A800BF030F8C8F80040CA
:100B300000223270C8E5DFF858A2864F9AF80030DC
:100B40003A78DBB2D2B293422CBF3F3202F1FF328D
:100B5000D31A002BCBDD804B1B685A057FF519ADEE
:100B60009AF80080DFF8109208F10108B8F13F0F01
:100B70008ABF00225FFA88F290463B78434526D12F
:100B8000EFF31383002B2CD1EFF310834BBBEFF368
:100B90000580002835D00F2801D9704B1B5CEFF37E
:100BA000118010B1834228BF0346402B19D9B3F5F9
:100BB000807FE2D16A4B1B78002BDED1019100923D
:100BC0000BF01CF83B780199009A4345D8D0654852
:100BD00009F80810BC23012101708AF80020F37085
:100BE000D7E433791B06C8D53B7801333F2B86BF4A
:100BF00000200346D8B219F80330DBB2F371387025
:100C0000BBE74FF48073CAE7574B194491F8801043
:100C1000ABE4564808F076FF00232370544C237849
:100C2000002B3FF46FAE534808F06CFF0023237095
:100C300068E64E4808F066FF002323703EE6A0F207
:100C40008C7008F05FFF0023237070E6DFF840A18E
:100C5000DFF800819AF8003098F80020DBB2D2B2B9
:100C600093422CBF3F3202F1FF32D31A002B7FF7A1
:100C700028AF3B685A0540F174829AF8009009F158
:100C80000109B9F13F0F00F26E865FFA89F3009314
:100C9000394A98F800304B4540F05682EFF3138301
:100CA000002B40F03982EFF31083002B40F03482A8
:100CB000EFF30580002800F061820F2801D9274B4F
:100CC0001B5CEFF3118010B1834228BF0346402B19
:100CD00040F22282B3F5807FDBD1214B1B78002BC1
:100CE000D7D1029201910AF089FF029A0199D0E7C7
:100CF0009BF87C3993B9214808F004FF5DE69BF826
:100D00007E391F4A002B40F007861E4BD2F88429FB
:100D10001A6001230B7009B0BDE8F08F1A4808F083
:100D2000F1FE4AE601238BF87C3932E6B119FF1F48
:100D3000B819FF1F081EFF1FF807FF1FF407FF1F4A
:100D400064510100C0EC0000CCA80020C5A8002020
:100D5000CEA80020B51BFF1F34800440F0E300E064
:100D6000ECA80020F81BFF1FE4D4000064D60000AC
:100D7000B319FF1F70D60000B81BFF1FCCEC00009A
:100D8000D40EFF1FA819FF1FAC1F0100C8A8002028
:100D9000B41BFF1FBE4B93F800902B78012B5FFA1A
:100DA00089F900F0C486D8F80030012B00F02086C5
:100DB0003B6CC3F14003002B06DD4946B54809F002
:100DC0005BFA012800F09B86B34B1B78032B7FF462
:100DD00038ACB24BB24A1B78DBB252F83320012355
:100DE00082F800318BF807302BE4AE4C2278002AD1
:100DF0003FF4B3AC3268002A3FF751ADAA4A1268FB
:100E0000002A3FF74CAD2A78012A00F01F87A74A35
:100E10001268012A00F0C0869E48026CC2F14002AE
:100E2000002A7FF73CAD682109F026FA01287FF4FB
:100E300036AD95F80080B8F1010F00F0468700222A
:100E400022708AE49BF87E29002A40F0A18098480D
:100E500008F058FE964808F055FE964809F098F8B4
:100E6000934808F04FFE924808F04CFE07F0E4F873
:100E700073280ED0652800F06982632800F0F082A4
:100E8000642840F0298506F07BFA07F0D5F873282E
:100E9000F0D101F0DDFDE9E79BF87E29002A40F062
:100EA0009F80854B00931A78002A40F06685DFF812
:100EB0005CA29AF80020002A40F05A85DFF8509290
:100EC00099F80020002A40F0698579487B4E08F0A7
:100ED00019FE774808F016FE794809F059F8744869
:100EE00008F010FE724808F00DFE07F0A5F8732810
:100EF0000ED0652800F03F81632800F0428164280D
:100F000040F0EB8306F03CFA07F096F87328F0D136
:100F10006C4D67483778DFF8FC8108F0F3FD69799C
:100F2000694806F0F5FF687198F80010674806F008
:100F3000EFFF88F800003178654806F0E9FF30706F
:100F4000E978644806F0E4FFE870A978624806F0A2
:100F5000DFFF03465648AB7008F0D4FD5F48FFB290
:100F600008F07AFC002840F0BF84514808F0CAFD20
:100F700033789F42B9D0012007F000F9B5E704F0BB
:100F800061FF002304F07F04C9F80030FFF7AFBA17
:100F900000220A7009F0B6FF012009F0E3FA504977
:100FA000504A414D20200860126812F0FF0F14BF14
:100FB0004D4A4E4A4FF0807111600AF0D9FF01226C
:100FC0004B48227008F0E4FF2A68002A04DD0BF089
:100FD00027FA2B68002BFADC322005F037FD59E4A4
:100FE0000022227009F08EFF012009F0BBFA3C4973
:100FF0003C4A314B20200860126812F0FF0F14BFEA
:10100000394A3A4A4FF0807111601A780093002AE9
:1010100040F08385DFF8F4A09AF80020002A40F021
:101020008185DFF8EC9099F80020002A40F0708567
:10103000012617482E702F49174A1A4B2E4F252587
:10104000057026200870009916702C482C4D0560FC
:1010500000220A702B492C48134D8AF800200F609B
:1010600089F800201A7008F04DFD214889F80060C9
:10107000267008F08DFF2A68002A04DD0BF0D0F9F5
:101080002B68002BFADC322005F0E0FCFFF7FDBBFB
:10109000B019FF1F081EFF1FF807FF1FF407FF1FEF
:1010A00064510100B519FF1FFCA80020B819FF1FEB
:1010B000AC1F0100CCED0000B219FF1FF607FF1FA7
:1010C00040ED0000D807FF1F6CED00007CED000034
:1010D0008CED0000A0ED0000B0ED0000BCED0000C4
:1010E00088F00F400008FF1F04F10F4008F10F4087
:1010F00010ED0000B119FF1FE0170100A819FF1F34
:1011000078100100AC19FF1FE01B0100B319FF1F8D
:10111000B419FF1FFC07FF1F33791B067FF5B9AD1C
:1011200098F8003001333F2B86BF4FF0000E734616
:101130005FFA83FED35CDBB2F37188F800E098F8C5
:1011400000304B453FF4AAADDFF810E302F8091078
:1011500001228EF80020BC239DF800208AF8002090
:10116000F37095F80080B8F1010F00F01C840023A3
:101170008BF80730A5E405F0EFFDB6E64FF4807379
:101180009FE5744808F0BEFC734808F0BBFC724849
:1011900008F0B8FC714808F0B5FC714808F0B2FCE2
:1011A000704808F0AFFC704808F0ACFC6F4808F0DD
:1011B000A9FC6F4808F0A6FC6E4808F0A3FC6E4836
:1011C00008F0A0FC6D4808F09DFC6D4808F09AFC02
:1011D0006C4808F097FC6C4808F094FC6B4808F0E9
:1011E00091FC6B4808F08EFC6A4808F08BFC6A485A
:1011F00008F088FC694808F085FC694808F082FC22
:10120000684808F07FFC684808F07CFC674808F0F4
:1012100079FC674808F076FC664808F073FC66487D
:1012200008F070FC654808F06DFC654808F06AFC41
:10123000494808F067FC634808F064FC624808F01D
:1012400061FC624808F05EFC614808F05BFC6148A4
:1012500008F058FC604808F055FC604808F052FC63
:101260005F4808F04FFC5F4808F04CFC5E4808F00F
:1012700049FC394808F046FC5C4808F043FC5C48EF
:1012800008F040FC5B4808F03DFC5B4808F03AFC85
:101290005A4808F037FC5A4808F034FC594808F01E
:1012A00031FC594808F02EFC584808F02BFC5848EF
:1012B00008F028FC284808F025FC564808F022FCD5
:1012C000554808F01FFC554808F01CFC544808F02D
:1012D00019FC544808F016FC534808F013FC534816
:1012E00008F010FC524808F00DFC524808F00AFCC7
:1012F000514808F007FC514808F004FC164808F073
:1013000001FC4F4808F0FEFB134808F0FBFB4D487A
:1013100008F0F8FB4C4808F0F5FB4C4808F0F2FBED
:101320004B4808F0EFFB0C4808F0ECFB494808F08C
:10133000E9FB094808F0E6FB474808F0E3FB0548ED
:1013400008F0E0FB034808F0DDFBCEE505F004FD06
:101350008CE500BFAC1F01008C2B0100242A01008A
:10136000182A01000C2A0100002A0100F4290100BA
:10137000E8290100DC290100D0290100C42901006D
:10138000B8290100AC290100A0290100942901001D
:10139000882901007C29010070290100701F0100CB
:1013A00064290100582901004C290100402901004D
:1013B0007C1F010034290100282901001C2901009B
:1013C00010290100B81E0100CC2A0100C02A01002A
:1013D000B42A0100A82A01009C2A0100902A0100D9
:1013E000941F0100842A0100A01F0100941E010027
:1013F000881E01007C1E0100701E0100641E010099
:10140000581E01004C1E0100401E0100341E010048
:10141000281E01005C2B01002C2B0100202B010059
:10142000082B0100F02A0100142B0100D82A01002A
:10143000542A0100E42A0100FC2A0100302A01009C
:10144000041E01001C1E0100DC1E0100101E010014
:10145000D01E0100AC1E0100C41E0100F81BFF1FBE
:10146000B94808F04FFBB94808F04CFBB74808F002
:1014700049FBB74808F046FBB64808F043FBB648BE
:1014800008F040FBB54808F03DFBB54808F03AFBD2
:10149000B44808F037FBB44808F034FBB34808F010
:1014A00031FBB34808F02EFBB24808F02BFBB248E2
:1014B00008F028FBB14808F025FBB14808F022FBF2
:1014C000B04808F01FFBB04808F01CFBAF4808F01C
:1014D00019FBAF4808F016FBAE4808F013FBAE4806
:1014E00008F010FBAD4808F00DFBAD4808F00AFB12
:1014F000AC4808F007FBAC4808F004FBAB4808F028
:1015000001FBAB4808F0FEFAAA4808F0FBFA8F4846
:1015100008F0F8FAA84808F0F5FAA84808F0F2FA36
:10152000A74808F0EFFAA74808F0ECFAA64808F038
:10153000E9FAA64808F0E6FAA54808F0E3FAA54853
:1015400008F0E0FAA44808F0DDFAA44808F0DAFA56
:10155000A34808F0D7FAA34808F0D4FAA24808F044
:10156000D1FAA24808F0CEFAA14808F0CBFAA14877
:1015700008F0C8FAA04808F0C5FAA04808F0C2FA76
:101580009F4808F0BFFA9F4808F0BCFA9E4808F050
:10159000B9FA9E4808F0B6FA9D4808F0B3FA9D489B
:1015A00008F0B0FA9C4808F0ADFA9C4808F0AAFA96
:1015B000654808F0A7FA654808F0A4FA634808F0FF
:1015C000A1FA974808F09EFA964808F09BFA9648C8
:1015D00008F098FA954808F095FA954808F092FABC
:1015E000944808F08FFA944808F08CFA934808F071
:1015F00089FA934808F086FA924808F083FA53482B
:1016000008F080FA904808F07DFA904808F07AFADD
:101610008F4808F077FA8F4808F074FA8E4808F07F
:1016200071FA8E4808F06EFA8D4808F06BFA8D4812
:1016300008F068FA8C4808F065FA8C4808F062FAFD
:101640008B4808F05FFA8B4808F05CFA8A4808F08B
:1016500059FA8A4808F056FA894808F053FA894836
:1016600008F050FA884808F04DFA884808F04AFA1D
:10167000874808F047FA874808F044FA864808F097
:1016800041FA324808F03EFA844808F03BFA8448B0
:1016900008F038FA834808F035FA834808F032FA3F
:1016A000824808F02FFA824808F02CFA814808F0A6
:1016B00029FA814808F026FA804808F023FA804881
:1016C00008F020FA7F4808F01DFA1F4808F01AFABF
:1016D0001D4808F017FAFFF7C9BB009B1A78002ACB
:1016E00040F054819AF80020002A40F04B8199F88C
:1016F0000020002A40F04E81734ADBF88419116003
:1017000001222270FFF7C1B8704B1B7893B172B6FB
:101710006F4A906840B16F4CB0F800E0A388416810
:101720009160CEEB0303A38062B6C9F800000028E5
:101730007FF491A87F24FEF7DABE08A800F8011D07
:101740000AF09EFAFFF7BAB9AC1F01008C2B01001A
:10175000242A0100182A01000C2A0100002A010095
:10176000F4290100E8290100DC290100D029010049
:10177000C4290100B8290100AC290100A0290100F9
:1017800094290100882901007C29010070290100A9
:10179000701F010064290100582901004C29010033
:1017A000402901007C1F0100342901002829010083
:1017B0001C29010010290100BC280100B0280100EB
:1017C000A4280100982801008C280100802801002D
:1017D00074280100682801005C28010050280100DD
:1017E00044280100382801002C280100202801008D
:1017F0001428010008280100FC270100F02701003F
:10180000E4270100D8270100CC270100C0270100F0
:10181000B4270100A82701009C27010090270100A0
:10182000881F0100CC2A0100C02A0100B42A01004F
:10183000A82A01009C2A0100902A0100941F01009F
:10184000842A0100A01F0100802B0100742B0100DD
:10185000682B01005C2B0100502B0100442B010080
:10186000382B01002C2B0100202B0100142B010030
:10187000082B0100FC2A0100F02A0100E42A0100E3
:10188000D82A0100782A01006C2A0100602A010090
:10189000542A0100482A01003C2A0100302A010094
:1018A00004290100F8280100EC280100E0280100CB
:1018B000D4280100C82801008427010078270100EE
:1018C0006C27010060270100A819FF1FCCA8002089
:1018D000181CFF1FD8A80020984ADBF88419116053
:1018E00001222270FEF7D6BF6979022009F000FFBD
:1018F00098F80010032009F0FBFE914B04201978A2
:1019000009F0F6FEE9780A2009F0F2FEA9780B202A
:1019100009F0EEFEFFF729BB00230B7009F0F2FA85
:10192000012008F01FFE874A874B884D88482021F8
:1019300011601B6813F0FF0F14BF864B864B4FF0EE
:1019400080721A600123237008F022FB2B68002BA1
:1019500004DD0AF065FD2B68002BFADC322005F06F
:1019600075F8FEF79CBF002300939946FFF790B9E6
:101970007A4808F0C7F8FFF7A1BA794808F0C2F82A
:10198000FFF795BA754808F0BDF8B0E6744808F05E
:10199000B9F8A7E6734808F0B5F8ADE6724808F064
:1019A000B1F8FFF792BA714B1B78002B3FF4DFAB15
:1019B0006F4BDFF8DCA1D3F8009000938AF8008029
:1019C000B9F1000F00F057816A49B9F802204FF0D1
:1019D000000881F800804846A9F800200AF0D6F8EF
:1019E000009BC3F8008000238AF80030FFF7BFBBDC
:1019F0006149DFF890E108789EF80030C0B2DBB2B0
:101A000098422CBF3F3303F1FF331B1A002B7FF7A3
:101A1000DBA95A4B1B68580571D50B78584A01331E
:101A20003F2B88BF00208DE8140094BFD8B2034636
:101A3000724692F800E09E4553D1EFF3138EBEF14B
:101A4000000F30D1EFF3108EBEF1000F2BD1EFF36A
:101A5000058CBCF1000F41D0BCF10F0F03D9DFF8AA
:101A600028E11EF80CE0EFF3118CBCF1000F02D05E
:101A7000E64528BFE646BEF1400F14D9BEF5807F8B
:101A8000D7D1DFF808E19EF800E0BEF1000FD0D119
:101A900005920491039302900AF0B0F8059A049914
:101AA000039B0298C5E79AF804E01EF0800FC0D0AF
:101AB00092F800E0009C0EF1010EBEF13F0F86BFD0
:101AC0004FF0000CE6465FFA8EFC14F80EE05FFA69
:101AD0008EFE8AF807E082F800C0AAE74FF4807E05
:101AE000C1E7009ADFF8ACC002F803904FF0010E96
:101AF000BC238CF800E0019C08708AF803302A7837
:101B0000012A00F0C28001238BF80730FFF75CB98F
:101B1000154807F0F7FFFFF78BBA114807F0F2FFFF
:101B2000FFF778BA0D4807F0EDFFFFF77ABA08A87B
:101B300000F8049D0AF0A4F8FFF743B9A819FF1FA5
:101B4000F607FF1F88F00F400008FF1FFCA80020C9
:101B500010ED000004F10F4008F10F4070D60000B6
:101B600064D60000E01B0100E4DD0000CCA80020EA
:101B7000C8A80020CEA80020B41BFF1F348004405A
:101B8000B81BFF1FB51BFF1FF0E300E0ECA800200F
:101B9000C5A80020F81BFF1FDFF8E4816E4F98F8FE
:101BA00000003978C0B2CAB290422CBF3F3202F175
:101BB000FF32121A002A7EF772AE684A1268500588
:101BC0007FF537A998F80060DFF8B8A1644B0136BB
:101BD0003F2E8ABF4FF000095FFA86F94E463A78E9
:101BE000B2423BD1EFF31382EAB9EFF31082D2B9DC
:101BF000EFF3058139B30F2901D95A4A525CEFF34B
:101C0000118111B18A4228BF0A46402A0BD9B2F588
:101C1000807FE4D1544A1278002AE0D1009309F081
:101C2000EDFF009BDBE71A791106D8D53A7801322F
:101C30003F2A86BF00210A46D1B21AF80220D2B24A
:101C4000DA713970CBE74FF48072D8E708A86822C0
:101C500000F8022D0AF014F8FFF7E8B868214348AD
:101C60003F4A0AF806100126BC21067088F8009049
:101C7000D170FFF7DEB804F035F93D4B00285CD099
:101C800083F8009009F082FFADE63A4B1B78002BF9
:101C90003FF439AF3849DFF8E4900B68019189F8D7
:101CA0000020002B37D03248B3F802E00022027047
:101CB000A3F800E01846009209F068FF0199009A25
:101CC0000A60002389F800301DE72A4A1278002AAA
:101CD0003FF4B5A8DFF8A090284ED9F8007086F838
:101CE00000806FB322497A884FF0000881F80080A5
:101CF00038463A8009F04AFFC9F800800022327065
:101D0000FFF79DB804F0EEF8194A80B1177009F09A
:101D10003DFFFEF70DBF0192009304F0E3F8019A36
:101D200040B1134A009B137009F030FFC9E71470EB
:101D3000FEF7FEBE0E4B1A70C3E783F8008052E632
:101D400004F0D0F80A4A18B1177009F01FFFD5E760
:101D500082F80080D2E700BFB51BFF1F348004402B
:101D600000A00640F0E300E0ECA80020F81BFF1FF5
:101D7000CEA80020CCA80020C8A80020C5A800201C
:101D8000B41BFF1FB81BFF1FAD4B1B78002B00F0CF
:101D90001B812DE9F04FAB4BAB4A1B6889B0079311
:101DA000079B13604FF44873013BFDD1A74BA84933
:101DB000D3F800B0D1F800A01A68D3F80090D1F899
:101DC0000080D3F800C0D3F800E01F681E680868E0
:101DD000A04C0192054608680290086809681A68D4
:101DE000039205F4805522680492019A0195029DA0
:101DF00000F4804005F4005502950590049D039879
:101E00000BF0040B0AF4803A02F0080209F0010911
:101E100008F400380CF0100C0EF0400E07F08007AC
:101E200006F4807601F4004100F002003DB91B6821
:101E30005D0702D509B0BDE8F08F0E232360BBF12A
:101E4000000F40F08480BAF1000F00F08380236817
:101E50000E2B00F007817F4B1B68012B00F00281E5
:101E6000002A00F0B280B9F1000F00F04981B8F10A
:101E7000000F00F08481BCF1000F00F0D381BEF1AF
:101E8000000F00F00382002F00F06082002E00F0AF
:101E90001E83019B002B00F06F83029B002B00F040
:101EA000D583059B002B00F0B982002940F0C28247
:101EB000002800F06F842268664B0C2A03D01B6850
:101EC0000D2B40F0BA822268624B0C2AB2D10D254C
:101ED0001D6002F011FF284607F09AFD5E4C5A4B38
:101EE000D4F804211B689A4203D84121022002F051
:101EF00085FE554BD4F808211B689A4203D842212D
:101F00000E2002F07BFE504BD4F814211B689A423D
:101F100003D84521142002F071FE4B4BD4F81C115C
:101F20001A684D48914285D84C4A1268120640F111
:101F300054844B4A92F8471000293FF47BAF0021AC
:101F400082F847101B680F33C0F81C3172E7BAF1F2
:101F5000000F85D1002A38D023683E4A012B03D0D8
:101F60001368022B7FF47FAF23683A4A012B7FF47A
:101F700061AF0225156002F0BFFE284607F048FD5C
:101F8000354C314BA2681B689A4240F27A822E4B44
:101F900062691B689A4240F270822B4BE2691B68AF
:101FA0009A4240F26582284B226A1B689A4240F2AC
:101FB0005B82254B626A1B689A423FF63BAF092160
:101FC000052002F01BFE35E77047B9F1000F00F065
:101FD000978023681F4A022B03D01368032B7FF4DA
:101FE00046AF23681B4A022B7FF424AF03251560FC
:101FF00002F082FE284607F00BFD174C124BA26A36
:102000001B689A4240F250820F4BE26A1B689A4268
:1020100040F246820C4B226B1B689A4240F23B8294
:10202000094B626B1B689A4240F23082064BA26BEE
:102030001B689A423FF6FEAE0E2003F089F9F9E6DE
:102040009C19FF1FE8A800200C1AFF1F90F00F40FA
:1020500010F00F4048A60020101AFF1FD0F00F40CC
:10206000BC19FF1F2368A74A0E2B7FF4E3AE01249F
:10207000146002F041FE204607F0CAFCA24BA34CBC
:102080001870A34B22681B689A4273D9A04B6268F0
:102090001B689A4269D99F4B9F4918689F4A0860FC
:1020A000116821B19A4909681068091A196098499C
:1020B000096811601B68974A092B40F296801368E3
:1020C000192B7FF6B7AE964B1B78012B7FF4B2AE7F
:1020D000944B1B78012B7FF4ADAE9349934A0B6868
:1020E000934801330B60936801339360036813F0E6
:1020F000FF0F40F092808F4B4FF080721A6099E68C
:10210000B8F1000F3BD023687E4A032B03D013683D
:10211000042B7FF4B0AE23687A4A032B7FF48AAE97
:102120000425156002F0E8FD284607F071FC774CA5
:10213000774BE26B1B689A4240F2C481744B226C6D
:102140001B689A4240F2B981714BA26C1B689A429B
:1021500040F2AF816E4BA26D1B689A423FF66AAEA9
:102160001621052002F098FD64E601210E2007F0FB
:1021700065FF90E70021022007F060FF86E7BCF1D1
:10218000000F4FD023685F4A042B03D01368052B40
:102190007FF475AE23685B4A042B7FF44BAE0524B5
:1021A000146002F0A9FD204607F032FC564A574B56
:1021B0005070574AD86D116888423FF63BAE5E4971
:1021C0005E48096811F0010FC17D40F01B820029B3
:1021D0007FF430AE0121C1751268594D594855320E
:1021E0009E24DA652970046024E64D4B1B78012B90
:1021F0007FF420AE4B4B1B78012B7FF41BAE4A497A
:102200004A4A0B684A4801330B60536801335360F4
:10221000036813F0FF0F3FF46EAF4B4B4FF080722B
:102220001A6007E6BEF1000F30D02368354A052B4F
:1022300003D01368062B7FF426AE2368314A052BA2
:102240007FF4F8AD0625156002F056FD284607F02C
:10225000DFFB2E4C2E4B226E1B689A4240F23C82D2
:102260002B4B626E1B689A4240F23282284BA26E60
:102270001B689A4240F23582254BE26E1B689A42F7
:102280003FF6D8AD1B2003F063F8D3E5002F5DD0F7
:1022900023681C4A062B03D01368072B7FF4F6AD86
:1022A0002368184A062B7FF4C5AD0725156002F098
:1022B00023FD284607F0ACFB144C154B226F1B681E
:1022C0009A4203D81C210E2002F0E6FC104B626FEC
:1022D0001B689A4202D81D2003F014F80C4BA26F21
:1022E0001B689A4203D81E21062002F0D5FC084B39
:1022F000E26F1B689A423FF69DAD1F2003F028F85D
:1023000098E500BF48A600205C18FF1F101AFF1FA9
:102310000C1AFF1F4CA6002050A6002060A600202B
:102320009C19FF1FFC07FF1F341DFF1F501BFF1FC1
:10233000A019FF1F08F10F40D0F00F40BC19FF1F7C
:102340005418FF1F4C1BFF1F04F10F40002E00F01C
:10235000BE802268B54B072A03D01B68082B7FF488
:1023600098AD2368B14A072B7FF464AD082515604A
:1023700002F0C2FC284607F04BFBAD4CAD4BD4F845
:1023800080201B689A4203D82021022002F084FC9E
:10239000A84BD4F884201B689A4203D821210E2030
:1023A00002F07AFCA34BD4F888201B689A4203D829
:1023B0002221072002F070FC9E4BD4F88C201B6871
:1023C0009A4202D8232002F09DFF9A4BD4F8902025
:1023D0001B689A4203D82421062002F05DFC954B2D
:1023E000D4F894201B689A4203D82521142002F0C7
:1023F00053FC904BD4F898201B689A4202D82620B0
:1024000002F0A6FF8B4BD4F89C201B689A423FF643
:1024100011AD2721052002F03FFC0BE500293FF418
:1024200047AD2268814B0B2A00F060811B680C2BA2
:1024300000F05C81002800F0AD81BBF1000F40F09E
:10244000B481BAF1000F00F0B0817B4C2378002BEF
:1024500000F0AB8102F050FC2278784B53F8323018
:10246000012283F88020E5E4082002F071FFA0E556
:102470000721142002F010FC95E5052002F042FF30
:102480008BE52946284602F0B9FB80E50D21142092
:1024900002F002FCCAE50C21062002F0FDFBBFE5BC
:1024A0000B2002F02FFFB5E50A210E2002F0F4FB0D
:1024B000AAE5122002F026FF4CE610210E2002F0C1
:1024C000EBFB41E60F21022002F098FB36E6019B70
:1024D000002B51D02268554B082A03D01B68092BCA
:1024E0007FF4DBAC2268514B082A7FF4A3AC0925AA
:1024F0001D6002F001FC284607F08AFA4C4C4D4B57
:10250000D4F8A0201B689A4240F26E82494BD4F85E
:10251000A4201B689A4240F26282464BD4F8A8205D
:102520001B689A4240F25682424BD4F8AC201B689A
:102530009A4240F24B823F4BD4F8B0201B689A423B
:1025400040F265823B4BD4F8B4201B689A4240F2BB
:102550005982384BD4F8B8201B689A4240F249821D
:10256000344BD4F8BC201B689A423FF663AC2F2151
:10257000052002F091FB5DE4029B002B66D02268EF
:102580002A4B092A03D01B680A2B7FF48AAC2268E5
:10259000264B092A7FF44EAC0A251D6002F0ACFBE5
:1025A000284607F035FA224C224BD4F8C0201B688D
:1025B0009A4240F23F821F4BD4F8C4201B689A42D3
:1025C00040F233821B4BD4F8C8201B689A4240F279
:1025D0002882184BD4F8CC201B689A4240F21C8207
:1025E000144BD4F8D0201B689A4240F20682114B5B
:1025F000D4F8D4201B689A423FF61CAC352002F078
:10260000A7FE17E400293FF415AC0021C17512683C
:102610000B4D0C4C0C480F32DA65297023788B4235
:1026200014BF4F230B46036004E400BF48A60020FC
:10263000101AFF1F0C1AFF1F5C18FF1F64510100C6
:102640005418FF1F5218FF1F4C1BFF1F059B002B28
:102650003FF4E4AE2268BC4B0A2A03D01B680B2B64
:102660007FF423AC2268B84B0A2A7FF4E3AB0B2536
:102670001D6002F041FB284607F0CAF9B34CB44B89
:10268000D4F8D8201B689A4203D836210E2002F0D5
:1026900003FBAF4BD4F8DC201B689A4202D83720EA
:1026A00002F030FEAA4BD4F8E0201B689A4203D80F
:1026B0003821062002F0F0FAA54BD4F8E4201B687C
:1026C0009A423FF6B7AB392002F042FEFFF7B2BBA9
:1026D000192002F017FEC9E518210E2002F0DCFADD
:1026E000BEE51A21062002F0D7FAC5E52268964B0E
:1026F0000B2A7FF49FAB0C251D6002F0FDFA2846E3
:1027000007F086F9914C924BD4F8E8201B689A4266
:1027100003D83A21022002F0BFFA8D4BD4F8EC2006
:102720001B689A4203D83B21072002F0B5FA884B78
:10273000D4F8F0201B689A4202D83C2002F0E2FD57
:10274000834BD4F8F4201B689A4203D83D2106201D
:1027500002F0A2FA7E4BD4F8F8201B689A4203D804
:102760003E21142002F098FA794BD4F8FC201B6823
:102770009A4202D83F2002F0EBFD754BD4F80021BD
:102780001B689A423FF656AB4021052002F084FABE
:10279000FFF750BBBBF1000F3FF453AE22686A4B0A
:1027A0000D2A38D01B680E2B35D0B8F1000F40F041
:1027B0008B80BCF1000F00F08780664C6378002BA3
:1027C00000F0828002F098FA6278634B53F832305E
:1027D000012283F88020FFF72DBB604A92F8471052
:1027E000002940F0D580012182F8471019685C4C1F
:1027F0009631C0F81C111B6803F5FA73C4F81C313C
:10280000937D002B40F09780564B1868473005F0B9
:10281000CFFDFFF70FBB22684B4B0D2A7FF40AABAD
:102820000E251D6002F068FA284607F0F1F8474CC3
:10283000474BD4F820211B689A4203D84821022034
:1028400002F02AFA424BD4F824111B683F4D404A4B
:10285000994228D93E4BD4F828211B689A4203D8C4
:102860004A21072002F018FA394BD4F82C211B68B2
:102870009A4202D84B2002F045FD354BD4F8302166
:102880001B689A4203D84C21142002F005FA304B01
:10289000D4F834211B689A423FF6CCAA4D2002F0AE
:1028A00057FDFFF7C7BA304B1B689B0727D52B4B4B
:1028B00093F849100029CDD0002183F849101368FE
:1028C0000F33C5F82431C5E702F016FA274B1B7801
:1028D000012B7FF4AFAA264B1B78012B7FF4AAAA09
:1028E0002449254A0B68254801330B60D36801331E
:1028F000D360036813F0FF0F3FF4FDAB8DE417487E
:1029000090F84930002BA5D1012180F849101068BA
:102910001B4A5530C5F82401107800284AD11948BF
:10292000194B117001701A780E4B002A14BF9E22A9
:102930004F221A608EE74FF0FF331448C4F81C3161
:1029400007F03EFBFFF776BA48A60020101AFF1FDB
:102950000C1AFF1F5C18FF1F64510100BC19FF1FF8
:102960006018FF1F4C1BFF1FD0F00F409C19FF1F6A
:10297000FC07FF1F341DFF1F501BFF1FA019FF1F67
:102980005318FF1F5218FF1F5418FF1FA01E0100ED
:102990002B4AD2F81C01196888423FF64BAA1B68E3
:1029A00028496433C2F81C310868473005F000FD3F
:1029B000FFF740BA24482549137003700A78214B69
:1029C000002A14BF9E2200221A6043E72B2002F047
:1029D00099FCB0E52A21072002F05EF9A4E529213F
:1029E0000E2002F059F998E52821022002F054F94E
:1029F0008CE52E2002F0ACFCB2E53421142002F06C
:102A00004BF9F4E52D21142002F046F9A1E52C2123
:102A1000062002F041F995E53321062002F03CF949
:102A2000DEE5322002F06EFCD3E53121072002F012
:102A300033F9C7E530210E2002F02EF9BBE500BFC7
:102A40006018FF1F4C1BFF1F5218FF1F5418FF1F59
:102A50002DE9F04F494BDFF868A193F800E0484BAF
:102A60009AF800701D78474BDFF858B11978464B3B
:102A700046481A789BF800C0454C464E8DB05FFA28
:102A80008EF30393FBB20093EBB20593CBB20693A4
:102A9000D3B207935FFA8CF3029307F033F83E4BFF
:102AA0003E48197805F034FA3B4B18703C4B3D48D2
:102AB000197805F02DFA3A4B1870304B3A481978CE
:102AC00005F026FA2D4B18709AF80050374807F099
:102AD00019F83648EDB207F015F814F8012B02F09A
:102AE0007F0306EBC3033AB15B681846002BF4D0B2
:102AF00007F008F80028F0D1012D00F059812C4E84
:102B0000244C16F8012B02F07F0304EBC3033AB107
:102B10005B681846002BF4D006F0F4FF0028F0D1D3
:102B20009BF800303F2B09DD224C23683F2B05DC4E
:102B30001E4806F0E7FF23683F2BF9DD1E4804F02E
:102B400091F800F0DF0055283ED0522800F0E285D1
:102B5000012D39D0194E0F4C16F8012B02F07F03CE
:102B600004EBC303002A41D05B681846002BF3D066
:102B700006F0C8FF0028EFD138E000BFF607FF1FBE
:102B8000D907FF1FF907FF1FFA07FF1FAC1F01003E
:102B9000C00B0100B81F0100DD07FF1F6CED000036
:102BA000FC07FF1F7CED00008CED00008C2B01006A
:102BB000C80B0100B008FF1FE80B0100F80B010073
:102BC000F707FF1FAC08FF1F834D844C15F8012B3E
:102BD00002F07F0304EBC3033AB15B681846002B95
:102BE000F4D006F08FFF0028F0D101257C4B8AF845
:102BF00000501D787B487C4E784C06F083FF794866
:102C0000EDB206F07FFF16F8012B02F07F0304EB14
:102C1000C3033AB15B681846002BF4D006F072FF8C
:102C20000028F0D1012D00F0AF80704E6B4C16F8EB
:102C3000012B02F07F0304EBC3033AB15B68184633
:102C4000002BF4D006F05EFF0028F0D19BF8003096
:102C50003F2B09DD664C23683F2B05DC614806F0FD
:102C600051FF23683F2BF9DD624803F0FBFF00F0C2
:102C7000DF00482800F0D080462800F04885012D6C
:102C800000F0CA805C4E554C16F8012B02F07F0311
:102C900004EBC303002A00F0D1805B681846002BC8
:102CA000F2D006F02FFF0028EED14D4B1D709AF8A0
:102CB0000030012B40F0C980504B4A481D78504EDF
:102CC000464C06F01FFF4748EDB206F01BFF16F812
:102CD000012B02F07F0304EBC3033AB15B68184693
:102CE000002BF4D006F00EFF0028F0D1012D01F0EA
:102CF0007380022D00F01185424E384C16F8012BDE
:102D000002F07F0304EBC3033AB15B681846002B63
:102D1000F4D006F0F7FE0028F0D19BF800303F2BEE
:102D200009DD334C23683F2B05DC2E4806F0EAFE14
:102D300023683F2BF9DD344803F094FF00F0DF00F7
:102D40004E2801F066804F2800F0EC84452801F001
:102D50009F80012D01F05D80022D00F0E3842B4E59
:102D60001E4C16F8012B02F07F0304EBC303002A6C
:102D700000F0DC845B681846002BF2D006F0C2FE3F
:102D80000028EED100F0D2BC214E144C16F8012BD5
:102D900002F07F0304EBC303002A3FF457AF5B68E4
:102DA0001846002BF2D006F0ADFE0028EED14DE71C
:102DB000184E0A4C16F8012B02F07F0304EBC303F4
:102DC000002A3FF4ADAE5B681846002BF2D006F047
:102DD00099FE0028EED1A3E6F00B0100B81F010018
:102DE000AB08FF1F8C2B0100000C0100080C010038
:102DF000B008FF1F280C0100380C0100D907FF1F85
:102E0000400C01005C0C0100840C0100940C0100DA
:102E1000180C0100D80B0100CE4DCF4C15F8012B3A
:102E200002F07F0304EBC3033AB15B681846002B42
:102E3000F4D006F067FE0028F0D10125C74B1D70C5
:102E40009AF80030012B3FF437AFC54BC54893F8D3
:102E50000080C54DC04C5FFA88F3019306F052FE26
:102E6000C04806F04FFE15F8012B02F07F0304EB7B
:102E7000C3033AB15B681846002BF4D006F042FE5B
:102E80000028F0D1B94DB44C15F8012B02F07F03A6
:102E900004EBC3033AB15B681846002BF4D006F08C
:102EA00031FE0028F0D1B24A0199B24B52F82150BC
:102EB000A3FB0526F60806EB8607A5EB47070DF1F1
:102EC000240830374FF02032FFB200210992C8F8B1
:102ED0000420C8F808208DF82E708DF82F10002ED1
:102EE00000F0BB86A3FB0612D20802EB8201A24AC5
:102EF000A6EB4101A2FB0502303152098DF82D10DD
:102F000000F0CB86A3FB0201C90801EB81009B49BD
:102F1000A2EB4002A1FB0501303289098DF82C207B
:102F200000F0B786A3FB0102D20802EB8200944AAC
:102F3000A1EB4001A2FB05023031520B8DF82B10A2
:102F400000F0A386A3FB0210C00800EB80008D49AF
:102F5000A2EB40006A09A1FB02213030C9098DF8BB
:102F60002A0000F08E86A3FB0102D20802EB820049
:102F7000854AA1EB4001A2FB05023031920C8DF88D
:102F8000291000F07A86A3FB0201C90801EB810039
:102F90007E49A2EB4002A1FB05013032890D8DF87C
:102FA000282000F06686A3FB0102D20802EB820013
:102FB000774AA1EB4001A2FB05023031520E8DF899
:102FC000271000F05286A3FB0213DB0803EB8303F8
:102FD0007049A2EB43036A0AA1FB02123033D20903
:102FE0008DF8263000F03D8630328DF825204FF0E8
:102FF0000109C144584C09F1FF3919F8012F02F0B9
:103000007F0304EBC3033AB15B681846002BF4D08E
:1030100006F078FD0028F0D1DFF884914E4C19F8C5
:10302000012B02F07F0304EBC3033AB15B6818463F
:10303000002BF4D006F066FD0028F0D19BF800309C
:103040003F2B09DD544C23683F2B05DC454806F037
:1030500059FD23683F2BF9DD504803F003FE31286A
:1030600000F00D85322800F05A85332800F0D28513
:10307000342800F0FD84352800F06E86362800F0F4
:103080006B85372800F01786392800F041854FF00E
:10309000203300220993C8F80430C8F808308DF8AE
:1030A0002E708DF82F20002E00F0F886A3F15333F8
:1030B000A3FB0613304ADB0803EB8303A6EB4303B1
:1030C000A2FB0512303352098DF82D3000F0E38653
:1030D000284B2A49A3FB0240C00800EB8000A2EB6A
:1030E0004002A1FB0501303289098DF82C2000F047
:1030F000EA86A3FB0102D20802EB8200204AA1EB80
:103100004001A2FB05023031520B8DF82B1000F06C
:10311000D786A3FB0210C00800EB80001949A2EB80
:1031200040006A09A1FB02213030C9098DF82A004C
:1031300000F0C386A3FB0102D20802EB8200124A10
:10314000A1EB4001A2FB05023031920C8DF8291051
:1031500028E000BF300C0100B81F0100AB08FF1FC2
:10316000F907FF1F8C2B0100A40C0100B00C01001B
:10317000EC1B0100CDCCCCCC1F85EB51D34D6210A4
:103180005917B7D1C55A7C0A83DE1B436BCA5F6BE4
:10319000893BE655834B0400B008FF1FC00C0100BB
:1031A0003C4F010000F08686A3FB0201C90801EB39
:1031B0008100B049A2EB4002A1FB05013032890D2C
:1031C0008DF8282000F07386A3FB0102D20802EBE1
:1031D0008200A94AA1EB4001A2FB05023031520E48
:1031E0008DF8271000F06086A3FB0213DB08A349CB
:1031F00003EB83036D0AA2EB4302A1FB05133032FC
:10320000DB098DF8262000F04C8630338DF8253010
:103210000120404406F0BCFE994806F073FC994B2F
:103220009DF804201A70984B98481D78984E994C38
:1032300006F068FC9548EDB206F064FC16F8012B28
:1032400002F07F0304EBC3033AB15B681846002B1E
:10325000F4D006F057FC0028F0D1012D00F03B849B
:10326000022D00F06F84032D00F0E484042D00F0A3
:103270001885052D00F01A85062D00F0A385072D71
:1032800000F06584844E834C16F8012B02F07F0316
:1032900004EBC3033AB15B681846002BF4D006F088
:1032A00031FC0028F0D19BF800303F2B09DD7B4C2E
:1032B00023683F2B05DC754806F024FC23683F2B70
:1032C000F9DD774803F0CEFC372800F0F483382886
:1032D00000F05B83734B6F4C53F82560013E16F88A
:1032E000012F02F07F0304EBC3033AB15B68184679
:1032F000002BF4D006F006FC0028F0D1604806F060
:1033000001FC614B1D70684B60481D78674E614C35
:1033100006F0F8FB5D48EDB206F0F4FB16F8012B61
:1033200002F07F0304EBC3033AB15B681846002B3D
:10333000F4D006F0E7FB0028F0D1012D00F0BE82AA
:103340005B4E544C16F8012B02F07F0304EBC303D1
:103350003AB15B681846002BF4D006F0D3FB002886
:10336000F0D19BF800303F2B09DD4C4C23683F2BFC
:1033700005DC464806F0C6FB23683F2BF9DD4D48C7
:1033800003F070FC00F0DF004E2800F08482582823
:1033900000F06C83012D00F07E82474E3D4C16F804
:1033A000012B02F07F0304EBC3033AB15B681846BC
:1033B000002BF4D006F0A6FB0028F0D13A4B1D708C
:1033C0009AF80030022B3D4B00F008831A46049314
:1033D000012313703A4B3B48197804F099FD384BA0
:1033E0001870394B1B78012B354B1B7800F04C8241
:1033F000022B364B0CBF364A364A1A60364B3748DA
:103400001978DFF8F890364E224C04F081FD324BEB
:103410001870344B3448197804F01CFC314B187088
:1034200099F80010314804F015FC314B89F8000080
:103430001978304804F06CFD2D4B18709BF8005043
:10344000124806F05FFB1148EDB206F05BFB16F880
:10345000012B02F07F0304EBC3033AB15B6818460B
:10346000002BF4D006F04EFB0028F0D1224E094C80
:1034700046E000BF6BCA5F6B893BE655834B040097
:10348000AC1F0100F907FF1FFA07FF1F8C2B01007B
:10349000580D0100B81F01004C0E0100B008FF1FBD
:1034A0009C0E0100FCED0000DE07FF1FC00E0100B6
:1034B000D00E0100F80E0100000F0100F807FF1FF9
:1034C000B508FF1FAC0F0100AB08FF1F5818FF1F06
:1034D000F0FC000058040100B408FF1FBC0F0100FD
:1034E0000C100100AA08FF1FC80F0100E00F010027
:1034F000D807FF1FF40F010018100100DC07FF1FA1
:1035000016F8012B02F07F0304EBC3033AB15B68AA
:103510001846002BF4D006F0F5FA0028F0D1BA4B8B
:1035200083FB0526B60806EB8607A5EB4707303771
:10353000FAB21046019200214FF020320992C8F8E9
:103540000420C8F808208DF82E008DF82F10002ECA
:1035500000F0C88283FB06239B08AC4A03EB83037D
:10356000A6EB430382FB0512303352098DF82D3050
:1035700000F0B68230328DF82C2008224244A44C50
:10358000571E17F8012F02F07F0304EBC3033AB173
:103590005B681846002BF4D006F0B4FA0028F0D18E
:1035A0009C4F9B4C17F8012B02F07F0304EBC303E5
:1035B0003AB15B681846002BF4D006F0A3FA002855
:1035C000F0D19BF800303F2B09DD934C23683F2B53
:1035D00005DC924806F096FA23683F2BF9DD904807
:1035E00003F040FBA0F13803DBB2012B044640F2AC
:1035F0008081312800F09D814FF020330993002213
:10360000C8F80430C8F808309DF804308DF82E3022
:103610008DF82F20002E00F09D83A2F1993282FBBD
:1036200006127A4B920802EB8202A6EB420683FB5B
:10363000052330365B098DF82D6000F08983303327
:103640008DF82C3008264644714C013E16F8012FA7
:1036500002F07F0304EBC3033AB15B681846002B0A
:10366000F4D006F04FFA0028F0D16E4806F04AFA7E
:103670006D4C8BF8005021786C486D4D04F048FC7F
:1036800003466848237006F03DFA9BF80030029A22
:103690009A4207D02B78674ADBB213701178062064
:1036A00008F026F8644806F0D7F8002843D15D48B2
:1036B00006F028FA9AF80030009A9A4200F09080BA
:1036C0005E495F4A00230B701370009B012B09D0E9
:1036D0005C4B1B68012B00F04F835B48437B0BB1B5
:1036E00008F0A0FD9AF80030584A012B03D0137857
:1036F000022B00F0F981564B039A1B789A4200F096
:10370000F180012004F03AFD0DB0BDE8F08F0225F4
:10371000FFF7B8BA0225FFF71DBA4E4806F038FC8D
:10372000FFF7FBBA4C4806F033FC02254B4B0DF17A
:1037300024081D70E7E54A4B0220197807F0D8FFEE
:10374000484B0320197807F0D3FF414B0420197828
:1037500007F0CEFF9AF80010142007F0C9FF424B83
:103760001520197807F0C4FF404B1620197807F090
:10377000BFFF3A4B1720197807F0BAFF3C4B1820CF
:10378000197807F0B5FF3B4B1920197807F0B0FF07
:10379000049B1A20197807F0ABFF374B21201978CA
:1037A00007F0A6FF354B1B20197807F0A1FF344B1B
:1037B0001C20197807F09CFF99F800101F2007F0D3
:1037C00097FF304B2020197807F092FF9BF80010EC
:1037D0001D2007F08DFF21781E2007F089FF66E786
:1037E0001E4B059A1B789A427FF46AAF1F4B069ACC
:1037F0001B789A427FF464AF1D4B079A1B789A425C
:103800007FF45EAF77E700BF676666661F85EB51A2
:10381000B81F01003C4F0100B008FF1F8C2B0100B6
:1038200024100100AC1F0100A808FF1F4810010070
:10383000AC08FF1FA708FF1FBCED0000DB0EFF1F39
:10384000C812FF1FB819FF1F081EFF1FF707FF1F31
:10385000F607FF1F700C01009C0C0100D907FF1F29
:10386000DD07FF1FFC07FF1FAB08FF1FF907FF1F46
:10387000FA07FF1FDE07FF1FB508FF1FB408FF1F71
:10388000AA08FF1FD807FF1F022BB74B0CBFB74A70
:10389000B74A1A60B2E5B74DB74C15F8012B02F0E4
:1038A0007F0304EBC3033AB15B681846002BF4D0E6
:1038B00006F028F90028F0D101257FE5AF4EAE4C87
:1038C00016F8012B02F07F0304EBC303002A3FF438
:1038D00048AD5B681846002BF2D006F013F90028BB
:1038E000EED13EE59BF80030029A9A427FF409AF90
:1038F0000AE7A14E06EBC003586808B106F002F9CA
:103900009F4803F0AFF900F07F0306EBC306303C9D
:1039100004EB8404054670686400E4B208B106F064
:10392000F1F8303C9748254406F0ECF805F0FF0527
:103930009EE69548904E06F0E5F8944803F092F91B
:1039400000F07F0306EBC3030546586808B106F094
:10395000D9F8362DA5F1300303EB83030CBF8C4857
:1039600087485C0003F07EF900F07F0306EBC30696
:1039700005467068E4B208B106F0C4F834348148F2
:10398000254406F0BFF8EDB272E6824806F0BAF8B8
:10399000814803F067F900F0DF004E2800F04F8106
:1039A0004F280DD07D4806F0ADF87D4803F05AF958
:1039B000312800F051827B4806F0EAFA0825A0E49D
:1039C000794806F09FF8764803F04CF9312800F06A
:1039D0008F81744806F0DCFA072592E41D7873485D
:1039E000049306F08FF87148714E634CEDB206F007
:1039F00089F816F8012B02F07F0304EBC3033AB1F8
:103A00005B681846002BF4D006F07CF80028F0D153
:103A1000012D00F01D82022D0CBF6648664806F09D
:103A2000B7FA9BF800303F2B09DD644C23683F2B2D
:103A300005DC5E4806F066F823683F2BF9DD604838
:103A400003F010F900F0DF004E2800F0C08152288A
:103A500000F0CD81012D00F0BA81022D0CBF594834
:103A6000594806F095FA049B1D70B3E4022594E4CE
:103A7000564806F08DFA0C230193FFF7D0BB42485D
:103A800006F040F8524803F0EDF8312800F0EA81E2
:103A9000322800F0CF81332800F03081352800F043
:103AA0003481382800F0ED814A4806F071FA0E237F
:103AB0000193FFF7B4BB484806F024F8474803F0E9
:103AC000D1F800F0DF004F2800F08B81444806F069
:103AD0005FFA022515E4434806F05AFAFFF7E3BB04
:103AE00009224BE50A2249E53F4B3F4A1B78082B48
:103AF00000F28C813D4913780A683D490978002A13
:103B0000DBB2CEB240F308813A4B02221A60F2E5F2
:103B1000394806F03DFA0D230193FFF780BB374883
:103B200005F0F0FF364803F09DF8302800F07B8167
:103B3000332800F0D680334806F02AFA0B2301938D
:103B4000FFF76DBB304806F023FAFFF7ACBB2F48F8
:103B500006F01EFAFFF7A7BB2D4806F019FA082356
:103B60000193FFF75CBB00BF5818FF1F20EE000059
:103B700088F500008C0C0100B81F0100E40E010064
:103B80002C100100AC1F0100CC2A010038100100EC
:103B900040100100842A0100B00E01008C280100B1
:103BA000B80E0100FC0B0100142801008C2B010051
:103BB0000C0F0100380F0100540F0100B008FF1F67
:103BC000700F0100940F0100A00F0100240D0100EF
:103BD000CC0C0100F80C0100941F0100A00E0100A4
:103BE000AC0E01005C0D0100F907FF1FE4A80020E6
:103BF000FA07FF1FB819FF1F500D0100C02A01006E
:103C0000000D0100100D0100840D0100740E010073
:103C1000380D0100B84805F075FFB84803F022F8E8
:103C2000302800F00E81B64806F0B2F90F23019358
:103C3000FFF7F5BAB34806F0ABF9FFF734BBB2486B
:103C400005F060FFB14803F00DF8312843D0B048CB
:103C500006F09EF90625FFF754BB4FF00A09FFF75F
:103C6000C8B94FF00209FFF7C4B94FF00309FFF7D5
:103C7000C0B94FF00409FFF7BCB94FF00509FFF7D1
:103C8000B8B94FF00609FFF7B4B94FF00709FFF7CD
:103C9000B0B94FF00809FFF7ACB94FF00909FFF7C9
:103CA000A8B99C4806F074F9FFF7FDBA9A4806F0E7
:103CB0006FF9FFF7F8BA994805F024FF984802F029
:103CC000D1FF352800F00281964806F061F91123F2
:103CD0000193FFF7A4BA944806F05AF90325FFF7B9
:103CE00010BB924806F054F913230193FFF797BADB
:103CF0008D4806F04DF90425FFF703BB8C4806F00C
:103D000047F904230193FFF78ABA8A4806F040F97D
:103D100005230193FFF783BA874A52F8230009F07D
:103D200019F8864B04460D46854853F8266002F084
:103D300067F8204629460022824B09F0F3FA002852
:103D40007FF4E2AEB2B22046294600F09DF9DBE6F0
:103D5000092678E40A2676E47B4805F0D3FE7B4802
:103D600002F080FF302800F0B880794806F010F9A2
:103D700010230193FFF753BA764B1B685B057FF561
:103D8000B1ACDFF83082DFF83092734C734B1B78A4
:103D9000002B00F013812378002BFCD1704B714A6B
:103DA000714C72484FF000411960002340F203113A
:103DB000D370216001601179D27988F8003089F8D8
:103DC00000308FE46A4806F0E3F8FFF76CBA694800
:103DD00006F0DEF8012546E6674806F0D9F8FEF75A
:103DE0009CBF664806F0D4F80125FFF78ABA6448FC
:103DF00006F0CEF8634802F035FF00F0DF005328EC
:103E00000CD0614806F0C4F803252CE602F072FEDF
:103E100071E4584806F0BCF8012587E45B4806F0D9
:103E2000B7F802251FE65A4806F0B2F806230193B8
:103E3000FFF7F5B9574806F0ABF809230193FFF7F0
:103E4000EEB9534806F0A4F807230193FFF7E7B94A
:103E5000514806F09DF8E4E5334806F099F8052549
:103E6000FFF74FBA4D4805F04DFE4D4802F0FAFEFF
:103E7000302839D04B4806F08BF812230193FFF716
:103E8000CEB9494806F084F80A230193FFF7C7B971
:103E90000325FEF764BF0920FFF7BBB90A20FFF72F
:103EA000B8B90220FFF7B5B90320FFF7B2B9042073
:103EB000FFF7AFB90520FFF7ACB90620FFF7A9B9A6
:103EC0000720FFF7A6B90820FFF7A3B9374806F087
:103ED0005FF802230193FFF7A2B9354806F058F8BE
:103EE00001230193FFF79BB9314806F051F80323F2
:103EF0000193FFF794B900BFB42A0100180D010027
:103F00001C0D0100AC0D010020280100B80E0100BD
:103F1000FC0B0100D40D0100FC0D0100941F0100F9
:103F2000400D0100480D0100BC0E0100080D01000C
:103F3000E80C0100EC0C0100EC1B0100441C01002A
:103F4000381EFF1F0000F03F9C2A01002C0D0100CD
:103F5000300D010034800440F81BFF1FECA8002046
:103F600080E100E000A0064040A0044044A00440DE
:103F7000240E01008C0C0100480C0100A80E010069
:103F8000780F01007C0F01008C0F0100840F0100ED
:103F9000040D0100E00C01001C0F0100CC2A0100FF
:103FA000D40C0100D80C0100F00C0100440D0100FC
:103FB0000C0D0100BCA80020BDA80020DFF8BCC08B
:103FC000DFF8BCE0224F234E234D1A4623782349C5
:103FD00003F0FF00002B35D098F8003099F800303E
:103FE0001F4B1B781F4B1B781F4B1B781F4B1B78DD
:103FF0009CF800309EF800303B7833782B780B78B3
:10400000EFF305830122002BE0D119490B70EFF388
:10401000108172B6174B186878B1174D2E7866B9B3
:1040200047692A701F6007B1BE6101B962B60026F8
:104030004677836898472E70A8E600297FF4A6AEDD
:1040400062B6A3E6002A3FF4A9AE094B1870A5E6B4
:10405000D5A60020D6A6002064A6002065A60020D4
:1040600025A8002026A80020B5A70020B6A700207C
:10407000ECA80020C0A80020C4A8002045A700206C
:1040800046A70020FFFFFFFFF8B506460F4615467E
:104090003B463246E2A1D1E9000108F0FBFFDA4CD1
:1040A0003B46C4E904013246D5A1D1E9000108F03C
:1040B000F1FF40F235239D42C4E9060100F08F84F0
:1040C0004FD940F235339D4200F0578200F2EC8028
:1040D00040F215339D4200F08A8400F2A58140F23F
:1040E00012339D4200F0A68440F2A88340F21333BD
:1040F0009D4200F06B82B5F5457F40F0EB840923CB
:104100004FF48071802004277F2684F82230BF4B33
:10411000E184A084608501220225062107202784EE
:1041200084F8286084F8642184F8652184F8662185
:1041300084F86751C4F86831C4F86C31C4F8703140
:10414000C4F87431C4F87831C4F87C31C4F88031D3
:10415000C4F8843184F8881184F8891184F88A01BC
:10416000C2E140F235139D4200F0FA83B5F59B7F22
:1041700080F0B88040F215139D4200F0F883B5F549
:104180008B7F80F08181B5F5897F00F0378440F224
:10419000B28240F213139D4200F02C82B5F58A7F63
:1041A00040F09A84072340212020042701221F2663
:1041B00084F8223084F88231944BE1840225062170
:1041C000A0846085278484F8286084F8642184F8BA
:1041D000652184F8662184F8675194F82E50C4F85C
:1041E0006831C4F86C31C4F87031C4F87431C4F863
:1041F0007831C4F87C3184F8801184F8811194F806
:104200002D30002D40F07781814951F83320012075
:104210003F2B82F8800013D801EBC30301205B68B9
:1042200082F880024FF4A2721A601A6822F020020B
:104230001A6094F82D3051F83320002D40F064813D
:1042400094F82C00704F002301263F2882F88060EC
:10425000636484F8D4602364A36484F8D53000F2E6
:10426000338201EBC00251F83010526881F880327D
:1042700040F20311116097F82C00664A66491760F6
:104280003F28C7F8D830C7F8DC30C7F8E0307E7375
:104290000E6098BF022240F26481FF2002225F4933
:1042A000BDE8F84007F088B940F215439D4200F0A0
:1042B00050835DD940F233439D4200F0EC8300F21D
:1042C000F88040F231439D4200F0798140F2324360
:1042D0009D4240F004840B264FF4C0654FF4807378
:1042E0000221F5E040F215239D4200F0458300F2E3
:1042F000B38040F212239D4200F0438340F25F827C
:1043000040F213239D4200F0C081B5F5057F40F0D7
:10431000E78308238021402004273F2684F82230A9
:104320003A4BE184A0846085012202250621072002
:10433000278484F8286084F8642184F8652184F84F
:10434000662184F86751C4F86831C4F86C31C4F848
:104350007031C4F87431C4F87831C4F87C31C4F8D1
:10436000803184F8841184F8851184F88601BBE0DB
:1043700040F212439D4200F0B88240F2E78140F2E1
:1043800013439D4200F06C8140F214439D4240F083
:104390009E830A234FF400714FF48070042701229A
:1043A000FF26022584F82230E184184BA0840621E0
:1043B00060850720278484F8286084F8642184F8C5
:1043C000652184F8662184F86751C4F86831C4F81F
:1043D0006C31C4F87031C4F87431C4F87831C4F861
:1043E0007C31C4F88031C4F88431C4F8883184F851
:1043F0008C1184F88D1184F88E0175E0AFF3008084
:104400000000000080840E41081EFF1F0304040505
:1044100064510100E0A80020E4A8002031C500009C
:104420000000000080842E4140F232339D4200F0B3
:10443000548240F27E8140F233339D4200F0078186
:10444000B5F54D7F40F045830A264FF44075802333
:1044500004217F2208203DE040F232239D4200F0FB
:104460002A8340F22D8240F233239D4200F09F8048
:10447000B5F50D7F40F0288309264FF4C075402321
:1044800004213F22072025E0B5F5997F00F00C8339
:1044900040F20A8240F233139D4276D0B5F59A7FFE
:1044A00040F011830826C025202304211F22062066
:1044B00010E040F234439D4258D040F235439D42D3
:1044C00040F00B830B264FF4C0654FF48073052139
:1044D000FF22092084F82260E584A3846385218477
:1044E00084F8282005F02AFA94F82E5094F82D30FC
:1044F000002D3FF489AECB4951F8332001203F2BEA
:1045000082F800017FF688AE94F82C00C64F002395
:1045100001263F2882F8006184F8D4602364636434
:10452000A36484F8D53000F2CF8001EBC00251F8CB
:104530003010526881F880324FF48171116097F821
:104540002C00BA4ABA4917603F28C7F8D830C7F8D4
:10455000DC30C7F8E0307E730E6098BF032200F2B3
:10456000C080B449BDE8F84007F026B80B264FF4E8
:10457000C0654FF480730421AAE70A264FF4407502
:10458000802305217F220820A4E707276026002535
:1045900003211F221023052084F82270E684A584BD
:1045A000218484F82820638505F0C8F99CE7082752
:1045B000C026002503213F2220230620ECE70B26FE
:1045C0004FF4C0654FF48073012181E708258023F3
:1045D000002103207F27402684F82250E384A18411
:1045E000208401220225944B84F82870062107209C
:1045F0006685A0E60623002101224FF0200E032746
:104600001F26102584F8223084F87C3184F87D310F
:104610000220894BA1840721A4F826E0278484F88E
:104620002860658584F8642184F8652184F8662112
:1046300084F86701C4F86831C4F86C31C4F870318B
:10464000C4F87431C4F8783184F87E114CE7092736
:104650004FF4C076002503217F22402307209BE7EB
:1046600009254FF4807300210320FF27802684F85A
:104670002250E384A1842084012202256E4B84F819
:1046800028700621072066854CE5072301220021BA
:104690004FF0400E03273F262025022084F82230C9
:1046A00084F88231A184A4F826E0634B2784062194
:1046B00084F82860658584F8642184F8652184F88D
:1046C000662184F8670188E559485849002301228A
:1046D000026062730C60C4F8D830C4F8DC30C4F8EF
:1046E000E030002D3FF4D9ADFF2003225149BDE851
:1046F000F84006F061BF40F211139D4240F0EB819B
:1047000001220721202040271F2684F8221084F848
:1047100082110225484BE7840621A084608522840B
:1047200084F8642184F8652184F8662184F828607F
:1047300051E540F231339D4240F0D3810A264FF4D7
:104740004075802301217F220820C3E640F21143F7
:104750009D4240F0C7810A214FF40075364B84F822
:10476000221001224FF480700621FF270226E584E3
:104770000725A0846085228484F8642184F865215B
:1047800084F8662184F8287084F86761C4F8683179
:10479000C4F86C31C4F87031C4F87431C4F878319D
:1047A000C4F87C31C4F88031C4F88431C4F888314D
:1047B00084F88C1184F88D1184F88E5194E640F2BF
:1047C00011239D4240F08481082180251A4B84F8F2
:1047D00022100122402006213F270226E5840725DA
:1047E000A0846085228484F8642184F8652184F89B
:1047F000662184F8287084F86761C4F86831C4F8C9
:104800006C31C4F87031C4F87431C4F87831C4F82C
:104810007C31C4F8803184F8841184F8851184F8DF
:10482000865161E664510100081EFF1FE0A80020C8
:10483000E4A8002031C500000304040540F2113350
:104840009D4240F0428109214FF48075A64B84F8C7
:1048500022100122802006217F270226E5840725D9
:10486000A0846085228484F8642184F8652184F81A
:10487000662184F8287084F86761C4F86831C4F848
:104880006C31C4F87031C4F87431C4F87831C4F8AC
:104890007C31C4F88031C4F8843184F8881184F8FC
:1048A000891184F88A511FE640F231139D4240F08D
:1048B0000D810826C025202301211F22062009E69C
:1048C00040F231239D4240F0098109264FF4C07522
:1048D000402301213F220720FCE50A264FF44075C2
:1048E000802302217F220820F4E50A214FF400767C
:1048F0007D4B84F8221001224FF48075022006219E
:10490000FF27E6840726A5846585208484F867014F
:1049100084F8287084F8642184F8652184F866217D
:10492000C4F86831C4F86C31C4F87031C4F874311B
:10493000C4F87831C4F87C31C4F88031C4F88431CB
:10494000C4F8883184F88C1184F88D1184F88E6154
:10495000CAE50A234FF400714FF4807005271EE565
:104960000826C025202305211F220620B2E50723A3
:1049700040212020052719E4082380214020052715
:10498000CBE408218026584B84F8221001224025D0
:10499000022006213F27E6840726A584658520841A
:1049A00084F8670184F8287084F8642184F865210C
:1049B00084F86621C4F86831C4F86C31C4F87031E9
:1049C000C4F87431C4F87831C4F87C31C4F880314B
:1049D00084F8841184F8851184F8866184E50926B9
:1049E0004FF4C075402305213F22072072E50923BB
:1049F0004FF4807180200527FFF786BB0721012235
:104A00002025022040271F2684F8221084F88211D6
:104A1000354BE7840621A5846585208484F86701E9
:104A200084F8286084F8642184F8652184F866217C
:104A3000FFF7D3BB09214FF480762B4B84F822106B
:104A400001228025022006217F27E6840726A584EF
:104A50006585208484F8670184F8287084F86421CF
:104A600084F8652184F86621C4F86831C4F86C3193
:104A7000C4F87031C4F87431C4F87831C4F87C31AA
:104A8000C4F88031C4F8843184F8881184F889111D
:104A900084F88A6128E50A274FF44076002503212F
:104AA000FF228023082077E50826C0252023022145
:104AB0001F2206200EE509264FF4C075402302216F
:104AC0003F22072006E5F8BDF8BDF8BDF8BDF8BDEA
:104AD000F8BDF8BDF8BDF8BDF8BDF8BDF8BDF8BD2E
:104AE000F8BDF8BDF8BD00BF030404053D4B1B68CD
:104AF000D3F8D020002A1ADDD3F8CC2093F82D105B
:104B000012F0010F384A52F831204FF0010114BF62
:104B100082F8801082F80011D3F8CC10D3F8D0209E
:104B20004910013AC3F8CC10C3F8D020704793F86D
:104B3000D420F0B41AB31A6C002A20DD9A6C03EB6F
:104B4000420101323F2AB1F84C109A6401DD002283
:104B50009A641A6C93F82E0093F82D40013A1A6467
:104B600088B3214A52F83420012082F8800093F85B
:104B70002220C3F8CC10C3F8D020F0BC7047196BCA
:104B8000002083F8D50091B1184A194F0A44121138
:104B900002F1300404F01F0601256411B540154EE2
:104BA00047F82450144C46F822408860186393F864
:104BB0002E2093F82D306AB10B4A52F8333001227F
:104BC00083F80021D9E7084A52F83420012082F8FE
:104BD0000001CCE7044A52F83330012283F88020E8
:104BE000CBE700BFE0A8002064510100008FFCBFAC
:104BF00080E100E0740AFF1FDD5A0000C0B2204BC4
:104C000053F8303093F80032DBB91E4B5A5C70B465
:104C10001ABB01225A541C4A1C4D16681C4C1D48D4
:104C20000F290CBF96235523334445F821301368D0
:104C300003F5FA7344F82130006870BC084403F0AF
:104C4000B7BB104B5A5C82B100225A540E4B0F4A2C
:104C50001B680F3342F8213070470D4B0A4A53F856
:104C600021401068844201D970BC7047126809481D
:104C7000643243F82120006870BC084403F098BBFC
:104C800064510100BC19FF1F0C1AFF1F101AFF1FEF
:104C90006018FF1F4C1BFF1FC0B2124B53F830307F
:104CA00093F800321BB9104B5A5C6AB170470E4B37
:104CB0005A5C002AFAD000225A540C4B0C4A1B684A
:104CC0000F3342F82130704701225A54074B0848ED
:104CD0001B68084A553340F821301068084403F037
:104CE00067BB00BF64510100BC19FF1F0C1AFF1FF6
:104CF000101AFF1F4C1BFF1FF0B4124B124E134C27
:104D00001349144801224FF40077022537601A60D6
:104D10001D60247851F8344084F80021007851F85F
:104D200030604FF4806586F800214FF400644FF442
:104D300080204FF400211D601C601860F0BC1960D9
:104D4000704700BF48F00F4084F00F40E007FF1F9E
:104D500064510100E107FF1F2DE98048C14CC24E9C
:104D6000C24D83B000272120277007F021FAC04BE5
:104D700093F80032DBB2012B00F03982012161602F
:104D8000252226231320122137602A706B70EA71C6
:104D90002B7228756975172007F00AFA1C2007F096
:104DA00007FA092007F004FA0F2007F001FA27207C
:104DB00007F0FEF90A2007F0FBF90B2007F0F8F9DD
:104DC0000C2007F0F5F9232007F0F2F9032007F093
:104DD000EFF9042007F0ECF91A2007F0E9F91B209D
:104DE00007F0E6F9162007F0E3F9022007F0E0F9F2
:104DF0000E2007F0DDF9072007F0DAF9082007F0A8
:104E0000D7F9062007F0D4F9142007F0D1F91520BE
:104E100007F0CEF9052007F0CBF9102007F0D8F9FC
:104E2000112007F0D5F9287807F0E6F9687807F03F
:104E3000E3F91F2007F0CCF9202007F0C9F91D2065
:104E400007F0C6F91E2007F0C3F9182007F0B0F9E3
:104E5000222007F0ADF90D2007F0BAF9212007F064
:104E6000B7F9242007F0B4F9002007F0A1F90120D8
:104E700007F0AEF9287D07F0BFF96B7DDBB23F2B61
:104E80000BD87C4A02EBC30052F8331043684FF44E
:104E90008072002081F880021A60FFF72DFF764BA8
:104EA000764820221A60336813F0FF0F14BF744B4A
:104EB000744B4FF080721A60734A744B4FF4007653
:104EC0004FF40031066011601A68570140F14581C6
:104ED0001B689B014CBF01230223237272B6267A02
:104EE000F6B2042E4FF0020200F03B816849172011
:104EF00001F030FD022266491C2001F02BFD022248
:104F00006349092001F026FD022261490F2001F0CA
:104F100021FD02225E49272001F01CFD02225C498E
:104F20000A2001F017FD022259490B2001F012FD61
:104F3000022257490C2001F00DFD02225449232082
:104F400001F008FD02225249032001F003FD022274
:104F50004F49042001F0FEFC02224D491A2001F0C5
:104F6000F9FC02224A491B2001F0F4FC02224849C4
:104F7000162001F0EFFC62B605F0C4FF002005F03A
:104F8000F1FA237A042B03D0AB7D022B00F03C8195
:104F900094F80880334E5FFA88F8B8F1010F00F0FA
:104FA0004081337A022B00F03881337A394F032B5A
:104FB00018BF337A237A042B07D0EB7D2B4D012BBE
:104FC00003D0EB7D022B00F0458107F0D7F90123D8
:104FD0002370237A042B00F01E81DFF8C8A02E4D29
:104FE000DFF8C490DFF8C4802C4B1B68002B5FDD1A
:104FF00072B62B4B1B68DAF80020D9F8001062B6A5
:105000004E0102D5322B88BF0132C3F5EA33BF33DC
:105010004FF47A77A8FB031307FB02F2DFF880B0A6
:1050200002EB931672B6DBF80010DAF80020D9F81C
:10503000000062B6C1F5EA33BF33A8FB03E34001C9
:10504000C6EB931302D5322988BF013207FB023326
:10505000B3F57A7FC8D22B78002BE3D106F0CEFDD2
:10506000E0E700BF9C19FF1F0008FF1FE007FF1FBC
:105070006020FE436451010088F00F4084F00F402F
:1050800004F10F4008F10F4044F00F4010F10F40C1
:10509000891D000078100100ECA80020FCA8002069
:1050A00018E000E0E8A8002004ED00E08988888886
:1050B000322001F0CBFCDFF83CB2DFF83CA2DFF895
:1050C0003C92DFF83C82794F794E237A042B01D051
:1050D000FBF7CCF92B78002BF7D19BF8002033702D
:1050E0009AF8003099F8003098F800303B78714B0E
:1050F0001B78714B1B78714B1B78714B1B78714B74
:105100001B78714B1B78714B1B78EFF30583002BD9
:10511000DBD1EFF3108272B66D4B18689E46C0B1BA
:105120006C4BDFF8B0C11B789BB94169CEF8001019
:105130004FF0010E8CF800E001B18B6102B962B64C
:1051400000234377826801939047624A019B137062
:10515000BBE7002AB9D162B6B7E71B680423237204
:10516000BCE65D49172001F0F5FB02225A491C20DC
:1051700001F0F0FB02225849092001F0EBFB02226A
:1051800055490F2001F0E6FB02225349272001F088
:10519000E1FB022250490A2001F0DCFB02224E49C9
:1051A0000B2001F0D7FB02224B490C2001F0D2FB6F
:1051B00002224949232001F0CDFB02224649032067
:1051C00001F0C8FB30460222434901F0C3FB022232
:1051D00041491A2001F0BEFB02223F491B2001F089
:1051E000B9FB02223C49162001F0B4FBC3E667601C
:1051F0001321122225272620336029706A70E97155
:105200002A722F756875C6E5344804F07BFC344873
:1052100004F078FCBCE6264D4DE706F0A9FE314FC0
:10522000C8E6304F85F817802522327500232621E5
:1052300007F5ED6207F668307175F76085F818803C
:105240003261B375F3753376737604F05BFC86F8E0
:105250001880AFE66B7E082B14D86B7E07EB8303B8
:10526000D3F8740B07F076FD1F4BAA7E1B6807EB83
:105270008207002B80468946B7F8CC5B05DD022308
:10528000E361A2E601F036FC9FE6184800F0B8FDA5
:105290000022174B4046494608F044F80028EED15A
:1052A0002A4640464946FEF7EFFEE8E7B5A700204C
:1052B000ECA80020B6A7002045A7002046A70020A4
:1052C000D5A60020D6A6002064A6002065A6002052
:1052D000C0A80020C4A800205DBE0000681C01001A
:1052E000741C010078100100E4A80020381EFF1F84
:1052F0000000F03FBCA80020BDA8002025A8002089
:1053000026A80020104B1B681B070BD50F4B1A5CFF
:1053100062B100221A541A6D03EB800002F10F03F0
:1053200043657047094B1A5C0AB170477047012208
:105330001A541A6D03EB800155324A65D3F8903147
:10534000184403F035B800BFD0F00F40BC19FF1F60
:10535000104B1B685B060BD50F4B1A5C62B1002229
:105360001A541A6D03EB800002F10F034365704776
:10537000094B1A5C0AB17047704701221A541A6D22
:1053800003EB800155324A65D3F89031184403F09D
:105390000FB800BFD0F00F40BC19FF1F2DE9F04F30
:1053A000D64BD64CD64E1A78012100232170C6F870
:1053B0009C31636893B013F0FF0FD2B214BFD14B8E
:1053C000D14B01924FF080721A60D04BD0F804E0BC
:1053D00093E8070003F10C040DF10C0A8AE80700BA
:1053E00094E807000DF1180903F1180489E8070093
:1053F00094E8070009AD03F1240485E8070094E868
:10540000070030330CAC84E8070093E807000EF582
:10541000864330330FAF87E80700CDF810E0CDF8B2
:105420001CE00A930D934FF00F0B1093504604F0BD
:1054300069FB484604F066FB284604F063FB2046FF
:1054400004F060FB384604F05DFBBBF1010BEDD1CD
:10545000DFF8F0A2DFF8F092D6F8A421D6F8A83150
:10546000A74C9A423ED072B6A94DAA4B1B682C6835
:10547000DAF8002062B6520102D5322B88BF01341F
:10548000C3F5EA33BF334FF47A72A9FB031302FB6F
:1054900004F4DFF88082DFF8B4B204EB93144FF425
:1054A0007A70A64672B6D8F800102A68DAF800407A
:1054B00062B6C1F5EA33BF33A9FB03C36401CEEB87
:1054C000931302D5322988BF013200FB0233B3F5B2
:1054D0007A7FC1D29BF80030002BE3D1744606F0EE
:1054E0008DFBDCE706F04AFFD4F89C418A4D84EA44
:1054F000E472A2EBE47285FB0230D317C3EBA00089
:1055000000EB80014FF0000CA2EB41014FF0203E78
:1055100030316045C7F808E0CDF83CE08DF8461022
:10552000C7F804E08DF847C040F3E18085FB001721
:10553000C117C1EBA70101EB81077849A0EB470038
:1055400081FB02713030D3EB61118DF8450000F022
:10555000D08085FB0107C817C0EBA70000EB8007D0
:105560006F48A1EB470180FB02703031D3EBA010F4
:105570008DF8441000F0BF8085FB0017C117C1EB08
:10558000A70101EB81076749A0EB470081FB02718E
:105590003030D3EB21318DF8430000F0D98085FB0A
:1055A0000107C817C0EBA70000EB80075E48A1EB1E
:1055B000470180FB02703031D3EB60308DF8421030
:1055C00000F0C88085FB0017C117C1EBA70101EBF4
:1055D00081075649A0EB470081FB02713030D3EBC5
:1055E000A1418DF8410000F0B78085FB0107C81785
:1055F000C0EBA70000EB80074D48A1EB470180FB03
:1056000002703031D3EBA0508DF8401000F0A6802E
:1056100085FB0017C117C1EBA70101EB81074549C5
:10562000A0EB470081FB02713030D3EB61618DF854
:105630003F0000F0958085FB0105C817C0EBA5056C
:105640003D4805EB8505A1EB450180FB02023031A9
:10565000D3EB22738DF83E1047D02F49DA1781FB28
:105660000301C2EBA10202EB8202A3EB420330333F
:105670008DF83D306346002C31DB304D0DF1430792
:1056800017F8012F02F07F0305EBC3033AB15B6803
:105690001846002BF4D004F035FA0028F0D1284841
:1056A00004F030FA06F06AFE144A9DF804101170F6
:1056B0000023C6F89C31536813F0FF0F07D1124B3B
:1056C0004FF0807220461A6013B0BDE8F08F0D4B8A
:1056D0004FF0807220461A6013B0BDE8F08F12AA16
:1056E00013442D2203F80C2CC7E70123C3E7092339
:1056F000C1E70823BFE70723BDE700BFFC07FF1F83
:10570000BC19FF1F04F10F4008F10F40701F01008A
:10571000E8A8002018E000E0676666661F85EB5188
:10572000D34D6210AD8BDB6889B5F81483DE1B4363
:105730006BCA5F6B893BE655A12FB844B81F0100C7
:10574000AC1F010004ED00E089888888ECA80020E7
:10575000062390E705238EE704238CE703238AE7DB
:10576000022388E72DE9F04FBD4FBE4E97F8008029
:10577000012200233A70C6F89C317B6887B05FFA3B
:1057800088F213F0FF0F0546019200F04481B64BFA
:105790004FF080721A604D24284604F0B3F9013CA2
:1057A000FAD1DFF800A3DFF80093D6F8A421D6F8E9
:1057B000A831AC4C9A423CD072B6AC4DAC4B1B6895
:1057C0002C68DAF8002062B6520102D5322B88BF6D
:1057D0000134C3F5EA33BF334FF47A72A9FB0313E4
:1057E00002FB04F4DFF888B2DFF8C08204EB931404
:1057F0004FF47A7C72B6DBF800102A68DAF8000001
:1058000062B6C1F5EA33BF33A9FB03E34001C4EB41
:10581000931302D5322988BF01320CFB0233B3F552
:105820007A7FC2D298F80030002BE3D106F0E6F977
:10583000DEE706F0A3FDD4F89C518E4C85EAE572B4
:10584000A2EBE57284FB0230D317C3EBA00000EBA0
:1058500080014FF0000CA2EB41014FF0203E3031AF
:105860006045CDF814E0CDF80CE08DF81610CDF8B9
:1058700010E08DF817C040F3E38084FB001EC117D1
:10588000C1EBAE0101EB810E7B49A0EB4E0081FB29
:1058900002E13030D3EB61118DF8150000F0D280B9
:1058A00084FB010EC817C0EBAE0000EB800E7348FE
:1058B000A1EB4E0180FB02E03031D3EBA0108DF85C
:1058C000141000F0C18084FB001EC117C1EBAE01B3
:1058D00001EB810E6A49A0EB4E0081FB02E1303002
:1058E000D3EB21318DF8130000F0B08084FB010E62
:1058F000C817C0EBAE0000EB800E6248A1EB4E0172
:1059000080FB02E03031D3EB60308DF8121000F0F4
:105910009F8084FB001EC117C1EBAE0101EB810E1D
:105920005949A0EB4E0081FB02E13030D3EBA1419D
:105930008DF8110000F08E8084FB010EC817C0EBBB
:10594000AE0000EB800E5148A1EB4E0180FB02E05F
:105950003031D3EBA0508DF810107DD084FB001EA9
:10596000C117C1EBAE0101EB810E4949A0EB4E001E
:1059700081FB02E13030D3EB61618DF80F006DD017
:1059800084FB0104C817C0EBA404424804EB840460
:10599000A1EB440180FB02023031D3EB22738DF87E
:1059A0000E104BD03349DA1781FB0301C2EBA10281
:1059B00002EB8202A3EB420330338DF80D306346D5
:1059C000002D35DB344C0DF1130919F8012F02F0CD
:1059D0007F0304EBC3033AB15B681846002BF4D095
:1059E00004F090F80028F0D12C4804F08BF806F071
:1059F000C5FC00239DF804203A70C6F89C317B68F2
:105A000013F0FF0F0CD1264B4FF0807228461A601E
:105A100007B0BDE8F08F224B4FF080721A60BAE6F3
:105A2000114B4FF0807228461A6007B0BDE8F08F26
:105A300006AA13442D2203F80C2CC3E70123BFE769
:105A40000923BDE70823BBE70723B9E70623B7E728
:105A50000523B5E70423B3E70323B1E70223AFE748
:105A6000FC07FF1FBC19FF1F04F10F40E8A800202E
:105A700018E000E0676666661F85EB51D34D621043
:105A8000AD8BDB6889B5F81483DE1B436BCA5F6B93
:105A9000893BE655A12FB844B81F0100AC1F010097
:105AA00008F10F4004ED00E089888888ECA8002008
:105AB000F8B50E4671B17AB10746144600253B6829
:105AC00016F8011B1B6838469847013C0544F6D17F
:105AD0002846F8BD0846F8BD1046F8BD704700BF1F
