:10000000F8FF022099010000C14B00003D8800006C
:100010003D8800003D8800003D8800003D880000CC
:100020003D8800003D8800003D880000C14B000075
:10003000C14B00003D880000058800008D8600004F
:10004000C14B0000C14B0000C14B0000C14B000080
:10005000C14B0000C14B0000C14B0000C14B000070
:10006000C14B0000C14B0000C14B0000C14B000060
:10007000C14B0000C14B0000C14B0000C14B000050
:10008000C14B0000C14B0000C14B0000C14B000040
:10009000C14B0000C14B0000C14B0000C14B000030
:1000A000C14B0000C14B0000C14B0000C14B000020
:1000B000C14B0000C14B0000C14B0000F5780000AF
:1000C000C14B0000E94A0000C14B00004D4A00004E
:1000D000C14B0000B1490000C14B0000C14B000002
:1000E000C14B0000C14B0000C14B0000C14B0000E0
:1000F000C14B0000C14B0000C14B0000C14B0000D0
:10010000C14B0000C14B0000C14B0000C14B0000BF
:10011000C14B0000CD790000C14B0000C14B000075
:10012000C14B0000C14B0000C14B0000C14B00009F
:10013000C14B0000C14B0000C14B0000C14B00008F
:10014000C14B0000C14B000015490000C14B00002D
:1001500081480000C14B0000C14B0000C14B0000B2
:10016000C14B0000C14B0000C14B0000C14B00005F
:10017000C14B0000C14B0000C14B0000C14B00004F
:10018000C14B0000C14B0000C14B0000C14B00003F
:10019000C14B0000C14B000008B55D4B4CF2205232
:1001A0001A804DF628121A8000BF00BF102223F8D3
:1001B0000E2CA3F51F43DE3B4FF030621A60554A08
:1001C0009A60554ADA60554B4FF470021A60544AEF
:1001D000136813F4807304D152490B604FF4A85391
:1001E0001360514B1A78100703D51A7842F00802B1
:1001F0001A704E4B4E492A221A704E4A4E4B8B4271
:1002000004D252F8040F43F8040BF8E74B4B4C4967
:1002100000228B4202D243F8042BFAE749494A4AAA
:10022000002352F8230041F823000133662BF8D154
:10023000464B474A802103F8011B9342FBD1454BB3
:10024000404A1A60444B8A221A70A3F58053242234
:100250005A70A0221A709A799107FCD59A79D20621
:10026000FCD43E4A937903F00C03082B3B4BF9D1A5
:1002700003221A7146225A719A799406FCD5374A9C
:100280009179364B4806FBD5354A4FF082711160A3
:100290000921516020221A709A7902F00C020C2A6E
:1002A000FAD1304B304A1A60304B314A1A60002480
:1002B00007225C6043F8042C2E4AC3F80C2D62B66A
:1002C00008F09AFD174B1A68D1070AD52A4A2B491C
:1002D0001C60146042F8041C10221A60284A294944
:1002E0001160294A127852060ED52549254A086818
:1002F000904209D12048214C00221A60026040F847
:10030000044C102018600A6008F0A2FF00F0AEF85C
:100310000E200540823F04000100002B88ED00E024
:1003200010D0034014D0034002D0074000E0074043
:100330009C0EFF1FF00D0100F806FF1F9C0EFF1F13
:1003400024A700200002FF1F0000000000E400E0DE
:1003500056E400E008ED00E0005006400040064092
:100360004480044004800440C010050014E000E014
:10037000BFD401000000202004D00340AF71435DD2
:100380001CE00340A5C3945A00F00740FFFFFFFFA5
:10039000FFFFFFFFFFFFFFFFFFFFFFFFFFFFFFFF6D
:1003A000FFFFFFFFFFFFFFFFFFFFFFFFFFFFFFFF5D
:1003B000FFFFFFFFFFFFFFFFFFFFFFFFFFFFFFFF4D
:1003C000FFFFFFFFFFFFFFFFFFFFFFFFFFFFFFFF3D
:1003D000FFFFFFFFFFFFFFFFFFFFFFFFFFFFFFFF2D
:1003E000FFFFFFFFFFFFFFFFFFFFFFFFFFFFFFFF1D
:1003F000FFFFFFFFFFFFFFFFFFFFFFFFFFFFFFFF0D
:10040000FFFFFFFFFFFFFFFFFFFFFFFFDEF9FFFF23
:1004100010B5054C237833B9044B13B10448AFF33E
:1004200000800123237010BD9C0EFF1F0000000000
:10043000F40D0100084B10B51BB108490848AFF393
:1004400000800848036803B910BD074B002BFBD0A0
:10045000BDE81040184700BF00000000A00EFF1FBD
:10046000F40D01009C0EFF1F000000002DE98048E4
:100470000026CA4CCA4D267085B03146212008F0AE
:1004800077F8C84B93F80032DBB2012B01F0ED8412
:100490002522262301271320122167602E602A714E
:1004A0006B71EA722B73287669760021172008F0A9
:1004B0005FF800211C2008F05BF80021092008F0FB
:1004C00057F800210F2008F053F80021272008F0EA
:1004D0004FF800210A2008F04BF800210B2008F00B
:1004E00047F800210C2008F043F80021232008F0F1
:1004F0003FF80021032008F03BF80021042008F019
:1005000037F800211A2008F033F800211B2008F0EA
:100510002FF80021162008F02BF80021022008F007
:1005200027F800210E2008F023F80021072008F00A
:100530001FF80021082008F01BF80021062008F011
:1005400017F80021142008F013F80021152008F0F6
:100550000FF80021052008F00BF80121102008F009
:1005600007F81120012108F003F82879C0B23F28CC
:1005700002D8012107F0FCFF6879C0B23F2802D8F9
:10058000012107F0F5FF01211F2007F0F1FF0121F4
:10059000202007F0EDFF01211D2007F0E9FF0121D8
:1005A0001E2007F0E5FF0021182007F0E1FF0021E1
:1005B000222007F0DDFF01210D2007F0D9FF0121E6
:1005C000212007F0D5FF0121242007F0D1FF0021D1
:1005D000084607F0CDFF0121084607F0C9FF287E35
:1005E000C0B23F2802D8012107F0C2FF687EC0B226
:1005F0003F2802D8002107F0BBFF07F067F86A4BDD
:10060000694820221A602B6813F0FF0F14BF674B54
:10061000674B4FF080721A60664A674B4FF4007662
:100620004FF40031066011601A68500141F11884DE
:100630001B689E014CBF01230223237272B6267AE7
:10064000F6B2042E01F0D2835C49172004F0E8FAD8
:100650005A491C2004F0E4FA5849092004F0E0FA51
:1006600056490F2004F0DCFA5449272004F0D8FA48
:1006700052490A2004F0D4FA50490B2004F0D0FA71
:100680004E490C2004F0CCFA4C49232004F0C8FA5F
:100690004A49032004F0C4FA4849042004F0C0FA8F
:1006A00046491A2004F0BCFA44491B2004F0B8FA69
:1006B0004249162004F0B4FA62B6002005F0A2FC0C
:1006C00007F02EF8237A042B08D0AB7E022B05D13D
:1006D0003B4806F093FA3B4806F090FA277A2F4EF3
:1006E000FFB2012F01F06683337A022B01F0D18330
:1006F000337A032B344B01F0C6831A460093337AC6
:1007000002F5EA630293237A042B63D0EA7E244B3A
:10071000012A5FD0597F009E9A7F2C4B06EB810106
:1007200006EB8202D1F85C0BD2F8B46B420813449A
:10073000B3FBF0F007F0CCFE254B9A7806F00303EC
:1007400002F0EC0213437107214A06F00F0148BF83
:1007500043F010030429937003D1937943F04003CD
:1007600093711B4B5B79F20603F0EF03184A48BF05
:1007700043F0100353719279154B02F0EF02B70664
:1007800048BF42F01002F6059A7123D55A781978BD
:10079000D2B241F0200119705A701BE0B80EFF1F51
:1007A000D407FF1F6020FE4388F00F4004F10F4084
:1007B00008F10F4044F00F4010F10F40C51E00003B
:1007C00084B8000090B8000028940000001C4E0E71
:1007D00000A006404FF4FA6007F004FF01232370E5
:1007E000237A042B01D006F0A1F9B74FDFF810836C
:1007F000B64E237A042B00F0CA81DFF808B34FF01D
:10080000000AEB7E012B3DD0B14B1A78B14B1B781F
:10081000D2B2DBB29A4238BF4032D31A003318BF8B
:100820000123002B3DD0EB7E012B00F06F81A84B04
:100830001A78A84B1B78DBB29A4200F0728301331E
:100840003F2B84BF00221346A34998BFDAB211F8A8
:100850000390A04B09F07F091A70E369B3F57A7F22
:1008600080F26A8198F82030002B00F0FD80009B18
:10087000994499F8D83B002BC3D088F820A0EB7E90
:10088000012BC1D1954B1A68954B9B88002AC5D086
:10089000118852888A1A1344003318BF0123002B91
:1008A000C1D194F81034002B4DD12B7F8D4A012BF0
:1008B00007D0537E8C4A52F8333093F80032002B25
:1008C00041D18A4B1B68002B3DDD4FF0000BDFF858
:1008D0001492DA4616E007F08FFDD4F81434013391
:1008E000B3F57A7F4FF0FF30C4F81434A8BFC8F8CE
:1008F00014A408F02BFA7D4B1B68002B4FF0010B62
:1009000040F3A885D4F81434234493F81804EB7EFC
:10091000012B00F07F0000F0A682EB7E012B00F09F
:10092000B382734B734A1B781278DBB2D2B2934214
:100930002CBF3F3202F1FF32D31A002BCBDCBBF1CC
:10094000000F40F087856C4B1B68002BC8BF4FF031
:10095000000911DC1AE0D8F800380133632B4FF09E
:10096000FF30C8F80038C8BFC8F8009808F0FAF996
:10097000614B1B68002B09DDD4F8003804EB8303BE
:10098000D3F8040806F03AF90028E4D1237A012BC1
:1009900000F02B83DFF84C91DFF86CA1E369002BAA
:1009A00040F3DE80554B1A684AF6C7739A4200F34B
:1009B000D780D8F89C39434493F828B0D8F89C39AC
:1009C0000133B3F57A7FC8F89C39A4BF0023C8F877
:1009D0009C39E369013BE361E369322B5FFA8BFBEE
:1009E0000CDC98F823304BB195F82630022B00F040
:1009F000098299F81C30032B00F02882BBF10D0FFF
:100A000005D00023BBF10A0F84F8A13902D00023DE
:100A100084F8A039226952F83B30013B0F2BBDD836
:100A200001A151F823F000BFE70C0000310C0000D9
:100A3000F50C0000BB0C00008F0C0000550C0000F2
:100A40009D090000950D00003B0D0000470D0000C2
:100A5000290C0000210C00005B0C00000F0D0000B1
:100A6000290C0000210C0000EB7FDBB2012B67D0CA
:100A700094F82130002B69D0B9F10D0F88F821A02E
:100A80003FF4BFAEE26940F2ED239A420CDD98F8E4
:100A900023304BB995F82620124B022A00F07682BB
:100AA0001A7F032A00F09682636A234483F8289011
:100AB000636A0133B3F57A7F6362A8BFC8F824A0E4
:100AC000E3690133E3619CE6A41AFF1F04ED00E033
:100AD00064A5002065A5002004A400207CA50020BA
:100AE00080A50020D407FF1FD40B010088A500209B
:100AF00044A4002045A400208CA5002090A500203F
:100B0000B80EFF1FA8A4002070A50020A44B1868F1
:100B1000002800F0F08143880288C1180133934215
:100B200091F8089080F0BA814380E369B3F57A7F49
:100B300009F07F09FFF696AE022004F0D9FDB0E679
:100B4000B9F11B0F94D188F820305AE698F822208A
:100B5000002A97D0B9F10A0F88F8223092D150E6D6
:100B60002378022B00F020832378032B00F09A8255
:100B70002378042B0BD198F8A239002B40F09087F2
:100B8000D8F8A839C8F80C30012388F80030854B14
:100B9000844A1B78002B7FF42CAE13708249834B60
:100BA00009781B78824B1B78824B1B78824B1B7811
:100BB000824B1B78824B1B78824B1B78824B1B78B5
:100BC000824B1B78824B1B78824B1B78EFF305839B
:100BD000002B7FF40EAEEFF3108272B67E4B1868D6
:100BE0009E46002800F079867C4BDFF8F0C11B7828
:100BF000002B40F072864169CEF800104FF0010ED4
:100C00008CF800E001B18B6102B962B64FF00009C7
:100C1000836880F81D909847704B83F80090E8E552
:100C2000002384F81034B9E6012384F81034B5E6C3
:100C3000A37D009AE260002B40F05281E37D002BFF
:100C400040F0A180237E2BB9654805F0D7FF012332
:100C500088F8183001236376A0E695F82330012B3D
:100C600000F0188199F82330022B00F0658199F883
:100C70002330032B04D094F8A139002B40F00A81D3
:100C8000584805F0BBFF002384F8A13986E6A37D10
:100C9000554AE260002B40F01C81E37D002B40F0C0
:100CA0001181237E002BD5D0504805F0A7FF0023EB
:100CB00088F818300123637670E6A37D4C4AE26021
:100CC000002B40F0F88095F821B05FFA8BFBBBF168
:100CD000010FE6D1E37D002BE3D1464805F08EFFFE
:100CE00088F817B0DDE702EBCB0BDBF8040005F06A
:100CF00085FF53E6A37D404AE260002BE3D1A2F1D9
:100D0000180005F07BFF012388F81630DBE795F823
:100D10002330012B00F0EB8099F82330022B00F0F8
:100D2000038199F82330032B00F00281012384F81A
:100D3000A139002384F8A03930E60222012385F886
:100D4000222063762AE6009BE3602C4B4FF0000BD9
:100D500084F8A2B984F8A3B984F8A4B9C3F800B0A0
:100D600084F823B084F810B404F05AFCA37D002B5F
:100D70003FF464AF224805F041FF88F816B0E37DE8
:100D8000002B3FF45FAF1B4805F038FF002388F8C5
:100D9000173057E7012385F822306376FEE500BF60
:100DA0007CA50020A81AFF1F64A5002065A50020CF
:100DB0002D1AFF1F2E1AFF1FBD19FF1FBE19FF1F7F
:100DC0004D19FF1F4E19FF1FDD18FF1FDE18FF1FF3
:100DD0006C18FF1F6D18FF1F68A500206CA5002070
:100DE000789F000094B7000044B00000E8A800001D
:100DF000F4A800008CA1000098A1000020A700200A
:100E000080A1000098F8150099F81B30012BC0B2A2
:100E100000F09680924B934A1B781278DBB2D2B2E4
:100E200093422CBF3F3202F1FF32D31A002B09DD6F
:100E300007F0E2FAEB7EDBB2012B00F08B8000239F
:100E400084F823302B7F032B7FF4D8AD99F818302A
:100E5000854ADBB2012152F83320002382F880104A
:100E600084F82330CAE599F82030022B1ED099F877
:100E70002030032B7FF451AD009B1844EB7E90F89B
:100E8000D80C012B7FF44DAD07F0AAFD01283FF4EB
:100E900024AD54E5754805F0B1FEF4E607F0AAFE6E
:100EA000734B09F07F09C3F800A0D6E4009B1844F7
:100EB00090F8580C31E56F4805F0A0FE002388F843
:100EC000163000E76C4805F099FE002388F81730CB
:100ED000E7E6684805F092FE002388F81630DCE665
:100EE000644805F08BFE002388F81630A6E66348B8
:100EF00005F084FE1DE7624B1B7893B172B6614B1F
:100F0000986840B1604B02889B884168CBF8081014
:100F10009B1A5D4A938062B6554B186000287FF497
:100F2000FAAD4FF07F0998E494F8A039002BDED099
:100F30004E4805F063FEFCE6012384F8A039A2E6E2
:100F400007F04EFD01287FF47DAFEB7EDBB2012B75
:100F50007FF475AF4A4A1278002A3FF470AF4B4ACB
:100F60004B4912680B70002A00F0AA864948518844
:100F70000023037011801046019303F09DFF019B35
:100F8000CAF80030424A0023137058E798F814005A
:100F9000DB7E012BC0B200F05286314B314A1B7808
:100FA0001278DBB2D2B293422CBF3F3202F1FF3251
:100FB000D31A002B09DD07F01FFAEB7EDBB2012B01
:100FC00000F04786012384F823302A7F324B032A1E
:100FD0007FF46AAD1B7E244ADBB252F83320012332
:100FE00082F8003184F823305EE598F81930002B40
:100FF0003FF4D0AC294B1B68002B3FF7C8AD284B02
:101000001B68002B3FF7C3ADD8F894390C2B3FF683
:10101000BEADD8F898390C2B3FF6B9ADEB7E012B5D
:1010200000F040860E4B0F4A1B781278DBB2D2B22A
:1010300093422CBF3F3202F1FF32D31A002B7FF7CD
:10104000A6AD682007F0D8F995F81B905FFA89F9EA
:10105000B9F1010F00F04F86002363769AE400BFD8
:1010600044A4002045A40020D40B010000EA0000A5
:101070007CA5002080A100008CA10000A0B700008A
:1010800074A50020A8A4002080A5002070A5002041
:101090006DA5002076A50020D407FF1F8CA5002099
:1010A00090A5002098F8A239002B00F0AF82002311
:1010B000012088F8003004F0A5FF06F031FB324B28
:1010C000DFF8E0B020221A602B6813F0FF0F14BF86
:1010D0002E4B2F4B4FF080721A6008F071F80123ED
:1010E0002C48237006F0D0F92B4803952B4B1B6836
:1010F000002B3FDD72B6DBF800303968326862B62B
:10110000550102D5322B88BF0131C3F5EA33BF3315
:101110004FF47A72A0FB035302FB01F909EB931918
:101120004FF00A0A72B6DBF800103A68356862B60A
:10113000C1F5EA33BF33A0FB03E36D01C9EB9313A1
:101140004FF47A7E02D5322988BF01320EFB02337A
:10115000B3F57A7F05D3BAF1010AC7D009F57A79D8
:10116000E0E70F4B1B78002BDCD1019007F0E4FB8C
:101170000198D7E7D4F894390C2BBBD8D8F8983914
:101180000C2BB7D8039DF3E488F00F4004F10F4017
:1011900008F10F40D8BA00008988888890A50020FF
:1011A000A81AFF1F18E000E098F8A239002B40F0C1
:1011B000E98498F81630002B40F02285E37D002B5F
:1011C00040F02585237E002B40F02885C14805F09E
:1011D00015FDC04805F012FDBF4806F055F9BD48A1
:1011E00005F00CFDBB4805F009FD04F017FE73285F
:1011F00000F0EF80652800F02A81632840F05681D6
:10120000B44805F0FBFCB54805F0F8FCB34805F020
:10121000F5FCB34805F0F2FCB24805F0EFFCB2482B
:1012200005F0ECFCB14805F0E9FCB14805F0E6FC3E
:10123000B04805F0E3FCB04805F0E0FCAF4805F02D
:10124000DDFCAF4805F0DAFCAE4805F0D7FCAE484F
:1012500005F0D4FCAD4805F0D1FCAD4805F0CEFC5E
:10126000AC4805F0CBFCAC4805F0C8FCAB4805F039
:10127000C5FCAB4805F0C2FCAA4805F0BFFCAA4873
:1012800005F0BCFCA94805F0B9FCA94805F0B6FC7E
:10129000A84805F0B3FCA84805F0B0FCA74805F045
:1012A000ADFCA74805F0AAFCA64805F0A7FC8B48B2
:1012B00005F0A4FCA44805F0A1FCA44805F09EFCA0
:1012C000A34805F09BFCA34805F098FCA24805F054
:1012D00095FCA24805F092FCA14805F08FFCA148BE
:1012E00005F08CFCA04805F089FCA04805F086FCC0
:1012F0007A4805F083FC9E4805F080FC9D4805F087
:101300007DFC9D4805F07AFC9C4805F077FC9C48E4
:1013100005F074FC9B4805F071FC9B4805F06EFCE1
:101320009A4805F06BFC9A4805F068FC994805F06E
:1013300065FC6A4805F062FC974805F05FFC974839
:1013400005F05CFC964805F059FC964805F056FC03
:10135000954805F053FC954805F050FC944805F07D
:101360004DFC944805F04AFC934805F047FC93482F
:1013700005F044FC924805F041FC584805F03EFC5D
:10138000904805F03BFC554805F038FC8E4805F0C8
:1013900035FC8E4805F032FC8D4805F02FFC8D4859
:1013A00005F02CFC4D4805F029FC8B4805F026FC87
:1013B0004A4805F023FC894805F020FC454805F023
:1013C0001DFC444805F01AFC04F028FD73287FF446
:1013D00011AF404895F81A90DFF82CA205F00EFCEA
:1013E00095F824107E4804F01DFC85F8240095F83B
:1013F00025107C4804F016FC85F82500A97E7A4863
:1014000004F010FCA87695F82210784804F00AFC45
:1014100085F8220095F82110754804F003FC034676
:101420002C4885F8213005F0E9FB72485FFA89F90C
:1014300003F05CFC002840F05682264805F0DEFBF5
:10144000AB7E99453FF4D1AE04F0EAF8CDE603F067
:10145000F9FDCAE695F81B905FFA89F9B9F1010F19
:101460007FF471AA644B1B78002B3FF46CAA634B8A
:10147000DFF888B1D3F800A0614B83F80090BAF18F
:10148000000F00F02C845F4ABAF802304FF00009D8
:1014900082F800905046AAF8003003F00DFDCBF81A
:1014A0000090574A00231370FFF74DBAA37D002B1D
:1014B00040F0C183E37D002B40F0B983237E002BF5
:1014C00040F0B183D4F8A839E36001232370FFF71B
:1014D0004BBB00BF00EA000008BB000058DD000065
:1014E00074E8000068E800005CE8000050E80000D4
:1014F00044E8000038E800002CE8000020E8000084
:1015000014E8000008E80000FCE70000F0E7000035
:10151000E4E70000D8E70000CCE70000C0E70000E7
:10152000B4E70000A8E700009CE7000090E7000097
:1015300084E7000078E700006CE7000060E7000047
:1015400054E7000048E70000ACB7000034E90000B1
:1015500028E900001CE9000010E9000004E900008F
:10156000F8E80000ECE80000E0E80000D4E8000043
:10157000B8B70000C4B70000D0B70000DCB7000067
:10158000E8B70000F4B7000000B800000CB8000095
:1015900018B8000024B80000D0E90000A0E900005D
:1015A00094E900007CE9000064E9000088E900009B
:1015B0004CE90000A4E8000058E9000070E90000D0
:1015C00080E8000030B800003CB8000048B80000D7
:1015D00054B8000060B800006CB8000078B8000093
:1015E0003CBB00004CBB00005CBB000070BB0000BB
:1015F00080BB00008CBB000074A5002070A50020FB
:101600006DA5002076A50020D407FF1FC34805F074
:10161000F5FAC24805F0F2FAC14805F035FFBF48B7
:1016200005F0ECFABD4805F0E9FA04F0F7FB732881
:1016300000F04681652800F04681632840F046812D
:10164000B64805F0DBFAB74805F0D8FAB54805F01A
:10165000D5FAB54805F0D2FAB44805F0CFFAB44847
:1016600005F0CCFAB34805F0C9FAB34805F0C6FA5C
:10167000B24805F0C3FAB24805F0C0FAB14805F027
:10168000BDFAB14805F0BAFAB04805F0B7FAB0486B
:1016900005F0B4FAAF4805F0B1FAAF4805F0AEFA7C
:1016A000AE4805F0ABFAAE4805F0A8FAAD4805F033
:1016B000A5FAAD4805F0A2FAAC4805F09FFAAC488F
:1016C00005F09CFAAB4805F099FAAB4805F096FA9C
:1016D000AA4805F093FAAA4805F090FAA94805F03F
:1016E0008DFAA94805F08AFAA84805F087FA8D48CE
:1016F00005F084FAA64805F081FAA64805F07EFABE
:10170000A54805F07BFAA54805F078FAA44805F04D
:1017100075FAA44805F072FAA34805F06FFAA348D9
:1017200005F06CFAA24805F069FAA24805F066FADD
:10173000A14805F063FAA14805F060FAA04805F059
:101740005DFAA04805F05AFA9F4805F057FA9F48FD
:1017500005F054FA9E4805F051FA9E4805F04EFAFD
:101760009D4805F04BFA9D4805F048FA9C4805F065
:1017700045FA9C4805F042FA9B4805F03FFA9B4821
:1017800005F03CFA9A4805F039FA9A4805F036FA1D
:10179000624805F033FA634805F030FA614805F015
:1017A0002DFA954805F02AFA944805F027FA94484E
:1017B00005F024FA934805F021FA934805F01EFA43
:1017C000924805F01BFA924805F018FA914805F086
:1017D00015FA914805F012FA904805F00FFA5148B1
:1017E00005F00CFA8E4805F009FA8E4805F006FA65
:1017F0008D4805F003FA8D4805F000FA8C4805F095
:10180000FDF98C4805F0FAF98B4805F0F7F98B489B
:1018100005F0F4F98A4805F0F1F98A4805F0EEF987
:10182000894805F0EBF9894805F0E8F9884805F0A2
:10183000E5F9884805F0E2F9874805F0DFF98748BF
:1018400005F0DCF9864805F0D9F9864805F0D6F9A7
:10185000854805F0D3F9854805F0D0F9844805F0AE
:10186000CDF9304805F0CAF9824805F0C7F9824839
:1018700005F0C4F9814805F0C1F9814805F0BEF9C9
:10188000804805F0BBF9804805F0B8F97F4805F0BD
:10189000B5F97F4805F0B2F97E4805F0AFF97E480A
:1018A00005F0ACF97D4805F0A9F91C4805F0A6F94A
:1018B0001A4805F0A3F904F0B1FA73287FF4BAAE20
:1018C00001F022FAB1E603F0BDFBAEE6D4F8A83988
:1018D000E36001232370FFF74BB9002A7EF489AF40
:1018E00062B6FEF786BF9AF82410022003F082FB4E
:1018F0009AF82510032003F07DFB9AF81A100420B3
:1019000003F078FB9AF822100A2003F073FB9AF890
:1019100021100B2003F06EFB8FE500BF00EA0000F2
:101920009CBB000058DD000074E8000068E800007F
:101930005CE8000050E8000044E8000038E80000DF
:101940002CE8000020E8000014E8000008E800008F
:10195000FCE70000F0E70000E4E70000D8E7000043
:10196000CCE70000C0E70000B4E70000A8E70000F3
:101970009CE7000090E7000084E7000078E70000A3
:101980006CE7000060E7000054E7000048E7000053
:10199000F4E60000E8E60000DCE60000D0E6000027
:1019A000C4E60000B8E60000ACE60000A0E60000D7
:1019B00094E6000088E600007CE6000070E6000087
:1019C00064E6000058E600004CE6000040E6000037
:1019D00034E6000028E600001CE6000010E60000E7
:1019E00004E60000F8E50000ECE50000E0E500009A
:1019F000D4E50000C8E5000040E9000034E900003B
:101A000028E900001CE9000010E9000004E90000DA
:101A1000F8E80000ECE80000E0E80000D4E800008E
:101A2000F4E90000E8E90000DCE90000D0E900008A
:101A3000C4E90000B8E90000ACE90000A0E900003A
:101A400094E9000088E900007CE9000070E90000EA
:101A500064E9000058E900004CE90000C8E8000013
:101A6000BCE80000B0E80000A4E8000098E800002E
:101A70008CE8000080E800003CE7000030E7000050
:101A800024E7000018E700000CE7000000E7000072
:101A9000BCE50000B0E50000A4E5000098E500000A
:101AA0000023012088F8003004F0ACFA05F038FE7D
:101AB000B04BB148DFF8F8B220221A602B6813F05F
:101AC000FF0F14BFAD4BAE4B4FF080721A60012375
:101AD000237005F0D9FCAB480395AB4B1B68002B7A
:101AE0003FDD72B6DBF800303968326862B6520109
:101AF00002D5322B88BF0131C3F5EA33BF334FF42F
:101B00007A72A0FB035302FB01F909EB93194FF022
:101B10000A0A72B6DBF800103A68356862B6C1F599
:101B2000EA33BF33A0FB03E36D01C9EB93134FF41A
:101B30007A7E02D5322988BF01320EFB0233B3F51B
:101B40007A7F05D3BAF1010AC7D009F57A79E0E7BF
:101B50008E4B1B78002BDCD1019006F0EDFE019836
:101B6000D7E7D4F894390C2BBBD8D8F898390C2B7C
:101B7000B7D8864B039D1B78844A002B7EF439AE80
:101B8000FFF70BB80023012088F8003004F03AFA80
:101B900005F0C6FD774B20221A602B6813F0FF0F6B
:101BA00014BF764B764B4FF080721A60A37D002BEA
:101BB00074D1E37D002B6DD1237E002B66D14FF0D5
:101BC0000109009985F81B902523237526220023FF
:101BD000E1606F4802996275216185F81C90A375D8
:101BE000E3752376637605F009F8634884F8189066
:101BF00084F8009005F048FC04F098FFFEF7B4BFAD
:101C0000644804F0FBFFE37D002B3FF4DBAA62484D
:101C100004F0F4FF237E002B3FF4D8AA5F4804F0C1
:101C2000EDFFFFF7D3BA5A4804F0E8FF4AE45A48F8
:101C300004F0E4FF42E4574804F0E0FF3AE406F021
:101C4000CFFE01287FF4C1A9EB7EDBB2012B7FF42C
:101C5000B9A9534A1278002A3FF4B4A9514A52490B
:101C600012680B704F490191002A67D04F49538881
:101C700081F800A01046138003F01EF90199C1F805
:101C800000A0494B83F800A0FFF79CB9434804F03B
:101C9000B5FF94E7404804F0B1FF8DE73D4804F0FC
:101CA000ADFF86E7682006F09BFE01283FF4CCA933
:101CB000364B364A1B78002B7EF49BADFEF76DBF8A
:101CC0000193039206F076FF019B002800F0EB8061
:101CD000364B039A1A7003F0EFF8FFF753B906F08A
:101CE00069FF324B002800F0E28083F800A003F087
:101CF000E3F8FFF7D6BB2A4B1B78002B3FF4ACA9C7
:101D0000284BDFF8A0B0D3F800A0274B83F8009051
:101D1000BAF1000F1ED0254ABAF802304FF0000980
:101D200082F800905046AAF8003003F0C5F8CBF8CE
:101D300000901D4A00231370FFF78EB901930392A0
:101D400006F038FF019B70B1184B039A1A7003F02C
:101D5000B3F896E706F02EFF144B38B183F800A0D5
:101D600003F0AAF8E5E7114A13708AE783F80090B8
:101D7000DFE700BF88F00F40D8BA000004F10F4041
:101D800008F10F408988888890A50020A81AFF1FB5
:101D9000789F000080A100008CA10000E8A800004E
:101DA00074A5002070A500206DA5002076A5002058
:101DB00018E000E0404BEF7618462521317500F51C
:101DC000EA6102910146009326220023F16000F5AA
:101DD00035600299727531612F77B375F37533767B
:101DE000737604F00BFF3776FEF78DBC334917206E
:101DF00002F016FF31491C2002F012FF2F49092082
:101E000002F00EFF2D490F2002F00AFF2B49272078
:101E100002F006FF29490A2002F002FF27490B20A1
:101E200002F0FEFE25490C2002F0FAFE2349232091
:101E300002F0F6FE2149032002F0F2FE30461F496F
:101E400002F0EEFE1D491A2002F0EAFE1B491B209B
:101E500002F0E6FE1949162002F0E2FEFEF72CBC65
:101E60001B6804232372FEF7E9BB6660132112226C
:101E7000252626202B6029716A71E9722A732E7635
:101E80006876FEF712BB009303F5EA630293FEF750
:101E90003ABC094B00931E4607F092F906F5EA6337
:101EA0000293FEF730BC064A1370FFF76BB883F855
:101EB0000090FFF7F6BA00BF28940000818C000064
:101EC00076A50020C94B1B78002B00F003812DE97B
:101ED000F04FC74BC74A1B6889B00793079B136035
:101EE0005023013BFDD1C44B1B685B0700F1F3801D
:101EF000DFF80883D8F800800123062718F4803F14
:101F0000019302934FF00E0B4FF00D034FF00C02B4
:101F10004FF00B014FF00A004FF009044FF0080595
:101F20004FF0070600974FF0050E4FF0040C4FF0EE
:101F3000030A4FF0020900F0F3809B4613460A465D
:101F40000021C846DDF808900291014620462C4643
:101F50003546009ECDF800E0E646D446DFF898A26C
:101F6000DAF800A01AF0080F00F0E5809B4613464F
:101F70000A46014620462C463546009ECDF800E034
:101F8000E646DFF874C2DCF800C01CF0010FC24660
:101F9000C8464FF0000900F0D9809B4613460A4618
:101FA00000210391014620462C463546009ECDF87F
:101FB00000E0DFF848E2DEF800E01EF4003FD4461F
:101FC000C24600F0CE808C4F3F68FF069B46E64637
:101FD0001346D4460A464FF00008014620462C46D8
:101FE0003546009E40F1C6809B4613460A460021B6
:101FF0000091014620462C4635467F4E36687606CF
:102000007746E64640F1BE809B4613460A460146A7
:1020100020462C46784D2D682D063E464FF0000A8E
:10202000774640F1B7809B4613460A46002104914B
:1020300001462046704C2468E40535463E4640F192
:10204000B1809B4613460A4601466C480068C004AE
:102050002C4635464FF0000640F1AC809B461346B7
:102060000A4600210591654909688F0420462C46DF
:1020700040F1A8809B461346604A12685504014609
:102080004FF00007204640F1A5809B465B4B1B6844
:102090001C040A4601464FF0000040F1A38015469B
:1020A0004FF0000E0A465449554C0B68D4F800C056
:1020B00003F00203002B16BF154601230023BCF1D9
:1020C000000F40F0A1800A68520740F19B8009B0E0
:1020D000BDE8F08F7047DFF82481D8F80080002336
:1020E000052718F4803F019302934FF00D0B4FF03A
:1020F0000C034FF00B024FF00A014FF009004FF0B4
:1021000008044FF007054FF0060600974FF0040E45
:102110004FF0030C4FF0020A4FF001097FF40DAFAE
:10212000D046DFF8D4A0DAF800A001271AF0080F93
:1021300002977FF41BAFE246DFF8BCC0DCF800C0BA
:102140001CF0010F4FF001097FF427AFF446DFF8D0
:10215000ACE0DEF800E001271EF4003F03977FF4B7
:1021600032AF254FDDF800E03F68FF064FF0010871
:102170003FF53AAF3746012600961F4E3668760681
:102180003FF542AF2E461C4D2D682D064FF0010A3B
:102190003FF549AF254601240494174C2468E40513
:1021A0003FF54FAF044615480068C0044FF00106E4
:1021B0003FF554AF084601210591104909688F0485
:1021C0003FF558AF11460D4A126855044FF001070C
:1021D0003FF55BAF1A46094B1B681C044FF001002A
:1021E0003FF55DAF5D464FF0010E5CE7B80EFF1F97
:1021F000A41AFF1FE4A5002090F00F4010F00F403C
:102200006418FF1F0E222260019A32B122687C49B5
:102210000E2A49D00A68012A46D0029A42B12268A1
:102220007749012A00F08D800A68022A00F089802F
:10223000B9F1000F08D022687149022A00F0B1807C
:102240000A68032A00F0AD80039A002A00F0F080AB
:1022500022686B49032A03D00A68042A40F0E88008
:102260002368674A032B7FF432AF0425156005F01D
:102270002DFA284604F00AFC624C634BE26B1B68A3
:102280009A4240F22B83604B626C1B689A4240F288
:1022900021835D4B626D1B689A423FF618AF152192
:1022A000052005F0E3F912E72368554D0E2B7FF466
:1022B0000EAF01242C6005F009FA204604F0E6FB7D
:1022C000504C514B287122681B689A4240F2AF82F1
:1022D0004D4B62681B689A4203D801210E2005F01D
:1022E00029F94A4B4A4918684A4A0860116821B1DD
:1022F000454909681068091A19604349096811605D
:102300001B68632B7FF6E3AE434B1B78012B7FF4F6
:10231000DEAE424B1B78012B7FF4D9AE4049414AD7
:102320000B68414801330B60536801335360036805
:1023300013F0FF0F40F04C823C4B4FF080721A605C
:10234000C5E623682E4A012B7FF4C1AE0225156035
:1023500005F0BCF9284604F099FB2A4C2A4BA268E8
:102360001B689A4240F27582274B62691B689A4249
:1023700040F26B82244BE2691B689A4240F2608211
:10238000214B226A1B689A4240F256821E4B626AB7
:102390001B689A423FF69BAE0921052005F014F90F
:1023A00095E62368164A022B7FF491AE032515604B
:1023B00005F08CF9284604F069FB124C124BA26A16
:1023C0001B689A4240F27C820F4BE26A1B689A4279
:1023D00040F272820C4B226B1B689A4240F275826B
:1023E000094B626B1B689A4240F26182064BA26BFA
:1023F0001B689A423FF66BAE0E2002F0E5FB66E6E4
:102400006418FF1FE8A50020E4A500204C18FF1F5A
:102410005018FF1F00A40020B80EFF1FF907FF1F70
:102420003C1BFF1F5C1BFF1FBC0EFF1F08F10F4072
:10243000B8F1000F08D02268B249042A00F0CD811B
:102440000A68052A00F0C981009A42B12268AD49A4
:10245000052A00F096800A68062A00F09280BAF1F8
:10246000000F08D02268A749062A00F0F7810A6801
:10247000072A00F0F381049A42B12168A14A072992
:1024800000F0A8801268082A00F0A48046B12168F4
:102490009C4A082900F027821268092A00F023824A
:1024A000059A42B12168974A092900F0EF80126825
:1024B0000A2A00F0EB8047B12168924A0A2900F00D
:1024C0002B8112680B2A00F0278140B121688D4AC8
:1024D0000B2900F09F8212680C2A00F09B82BEF14B
:1024E000000F00F04E812168864A0C2903D0126843
:1024F0000D2A40F046812268824B0C2A7FF4E7AD1A
:102500000D251D6005F0E2F8284604F0BFFA7E4C68
:102510007E4BD4F800211B689A4203D84021022048
:1025200005F052F8794BD4F804211B689A4203D87D
:1025300041210E2005F048F8744BD4F810211B6897
:102540009A4203D84421142005F03EF86F4BD4F88A
:10255000180119686C4A88423FF6B9AD6C490968A0
:10256000090640F154836B4991F8460000283FF476
:10257000AEAD002081F846001B680F33C2F8183159
:10258000A5E523685F4A052B7FF4A1AD06251560FC
:1025900005F09CF8284604F079FA5B4C5B4BE26D41
:1025A0001B689A4240F20782584B226E1B689A427F
:1025B00040F2FD81554B626E1B689A4240F2F281F7
:1025C000524BA26E1B689A423FF681AD1A2002F070
:1025D000FBFA7CE522684B4B072A7FF478AD08258F
:1025E0001D6005F073F8284604F050FA464C474B3E
:1025F000E26F1B689A4203D81F21022005F036F8CB
:10260000424BD4F880201B689A4203D820210E2028
:1026100005F02CF83D4BD4F884201B689A4203D86F
:102620002121072005F022F8384BD4F888201B68B8
:102630009A4202D8222006F0B5FB344BD4F88C2005
:102640001B689A4203D82321062005F00FF82F4B70
:10265000D4F890201B689A4203D82421142005F056
:1026600005F82A4BD4F894201B689A4202D82520FA
:1026700002F0AAFA254BD4F898201B689A423FF63C
:1026800026AD2621052004F0F1FF20E522681D4B30
:10269000092A7FF41CAD0A251D6005F017F82846AD
:1026A00004F0F4F9184C194BD4F8BC201B689A427A
:1026B00040F28882154BD4F8C0201B689A4240F241
:1026C0007C82124BD4F8C4201B689A4240F27F826D
:1026D0000E4BD4F8C8201B689A4240F269820B4B1B
:1026E000D4F8CC201B689A4240F2E881074BD4F81A
:1026F000D0201B689A423FF6EAAC342002F064FA1C
:10270000E5E400BF6418FF1FE8A50020E4A5002051
:10271000D0F00F4094A500202268B04B0A2A7FF425
:10272000D6AC0B251D6004F0D1FF284604F0AEF9AD
:10273000AB4CAC4BD4F8D4201B689A4203D835215B
:102740000E2004F093FFA74BD4F8D8201B689A42C0
:1027500002D8362006F026FBA24BD4F8DC201B68FA
:102760009A4203D83721062004F080FF9D4BD4F80D
:10277000E0201B689A423FF6AAAC382002F024FA07
:10278000A5E443B12268954B0D2A00F0B8811B687F
:102790000E2B00F0B48104F099FF012D00F093811D
:1027A000914B1B78012B7FF492AC904B1B78012B43
:1027B0007FF48DAC8E498F4A0B688F4801330B60D4
:1027C000936801339360036813F0FF0F3FF4B4ADD7
:1027D0008A4B4FF080721A6079E423687F4C042B97
:1027E0007FF475AC0525256004F070FF284604F0E1
:1027F0004DF97B4B7B4A6071986D116888423FF6BA
:1028000066AC7F497F48096811F0010F817D40F077
:10281000B58000297FF45BAC0121817512687A4D87
:102820007A4855329C249A65297004604FE400214F
:10283000022004F07FFE4BE5082002F0C5F9A5E573
:102840000721142004F012FF9AE5052006F0AAFAE9
:1028500090E52946284604F0B7FE85E523685F4ADF
:10286000062B7FF434AC0725156004F02FFF2846B3
:1028700004F00CF95A4C5B4BE26E1B689A4240F232
:10288000A880584B226F1B689A4240F29E80554B9D
:10289000626F1B689A4240F29380524BA26F1B6892
:1028A0009A423FF614AC1E2002F08EF90FE40D217F
:1028B000142004F0DBFE99E50B2006F073FA89E59D
:1028C0000A210E2004F0D2FE7EE50C21062004F041
:1028D000CDFE85E5112006F065FADAE40F2102202D
:1028E00004F072FECFE422683C4B082A7FF4EFAB81
:1028F00009251D6004F0EAFE284604F0C7F8384CAC
:10290000384BD4F89C201B689A4240F2C281354B68
:10291000D4F8A0201B689A4240F2B681314BD4F81B
:10292000A4201B689A4240F290812E4BD4F8A82034
:102930001B689A4240F285812A4BD4F8AC201B6870
:102940009A4240F28C81274BD4F8B0201B689A42FF
:1029500040F28081234BD4F8B4201B689A4240F2A5
:102960008381204BD4F8B8201B689A423FF6AFAB66
:102970002E21052004F07AFEFFF7A9BB00293FF4C1
:10298000A6AB0021817512681F4D214C1F480F32E4
:102990009A65297023788B420CBF0B464E23036047
:1029A000FFF795BB1921062004F060FE08E6182009
:1029B00006F0F8F9FEE517210E2004F057FEF3E5C6
:1029C0001D21062004F052FE67E71C2006F0EAF9FC
:1029D0005DE71B210E2004F049FE52E76418FF1F3B
:1029E000E8A50020E4A50020B80EFF1FF907FF1F8F
:1029F0003C1BFF1F5C1BFF1FBC0EFF1F04F10F40A1
:102A0000D0F00F4094A500205C18FF1F20A70020E5
:102A10005A18FF1F2268B14B0B2A7FF458AB0C25C4
:102A20001D6004F053FE284604F030F8AC4CAD4B6A
:102A3000D4F8E4201B689A4203D83921022004F01C
:102A400015FEA84BD4F8E8201B689A4203D83A2117
:102A5000072004F00BFEA34BD4F8EC201B689A422D
:102A600002D83B2006F09EF99E4BD4F8F0201B685C
:102A70009A4203D83C21062004F0F8FD994BD4F883
:102A8000F4201B689A4203D83D21142004F0EEFD87
:102A9000944BD4F8F8201B689A4202D83E2002F0EA
:102AA00093F8904BD4F8FC201B689A423FF60FAB8A
:102AB0003F21052004F0DAFDFFF709BB3321142084
:102AC00004F0D4FD12E6019B43B12279834B2AB175
:102AD0001A79854B53F8323083F88050B8F1000FE3
:102AE0003FF45EAE62797D4B002A3FF459AE5A79CD
:102AF0007D4B53F83230012283F8802050E6226863
:102B0000764B0D2A7FF4E3AA0E251D6004F0DEFD4E
:102B1000284603F0BBFF724C724BD4F81C211B6893
:102B20009A4203D84721022004F0A0FD6D4BD4F84F
:102B300020211B686A4D6B489A4228D9694BD4F80A
:102B400024211B689A4203D84921072004F08EFDF6
:102B5000644BD4F828211B689A4202D84A2006F018
:102B600021F9604BD4F82C211B689A4203D84B21E1
:102B7000142004F07BFD5B4BD4F830211B689A4293
:102B80003FF6A5AA4C2002F01FF8FFF7A0BA574B5A
:102B90001B689B071FD5564B93F84820002ACDD0C1
:102BA000002283F8482003680F33C5F82031C5E7B9
:102BB0003221062004F05AFD91E53021072004F06F
:102BC00055FD7EE52F210E2004F050FD72E53120E9
:102BD00006F0E8F87CE5464A92F84830002BADD183
:102BE000012182F848100068424A5530C5F820019A
:102BF000107800283CD14048404B117001701A7881
:102C00003F4B002A0CBF4E229C221A6096E738499F
:102C100091F8460000284AD1012081F84600186842
:102C2000384C9630C2F818011B68C833C4F8183104
:102C30004B7D9BBB324B1868463004F037FAFFF7E8
:102C400046BA2A2006F0AEF876E62921072004F0DD
:102C50000DFD6AE62C21142004F008FD7AE62B21F4
:102C6000062004F003FD6EE62D2001F0ADFF78E6AE
:102C700021482249137003700A78214B002A0CBFA7
:102C800000229C221A6059E728210E2004F0EEFC55
:102C900044E62721022004F0E9FC38E64FF0FF3338
:102CA000B120C4F8183104F001FAFFF710BA154842
:102CB000D0F8184119688C423FF609AA1968104CDF
:102CC0009631C2F818111B68C833C0F81831206853
:102CD000463004F0EBF9FFF7FAB900BF6418FF1FA4
:102CE000E8A50020E4A50020D40B0100D0F00F409F
:102CF00094A500205B18FF1F5A18FF1F5C18FF1FC8
:102D000020A70020C8A200202DE9F04F994B9A4837
:102D10001E789A4B1D789A4B1C789A4B19789A4BCF
:102D20001A789A4B1B7891B0D2B2C9B2DBB2E4B236
:102D3000F6B2EDB2069204940591079303960295BC
:102D400003F05CFF924B9348197802F06BFF904BB5
:102D50001870914B9148197802F064FF8E4B1870EF
:102D6000844B8F48197802F05DFF824B1870834BBB
:102D70008C481B78DBB21C469B4603F03FFF89481A
:102D800003F03CFF884804F07FFB012C0CBF874810
:102D9000874804F079FB7D4B1B783F2B09DD854D7F
:102DA0002B683F2B05DC7F4803F028FF2B683F2B67
:102DB000F9DD814CDFF82CA2DFF82C927F4E804D9C
:102DC0002368002B41D172B6DAF80030D9F80070D0
:102DD000326862B6510102D5322B88BF0137C3F584
:102DE000EA33BF334FF47A72A5FB031302FB07F7F4
:102DF00007EB93174FF00A0872B6DAF80010D9F80B
:102E00000020D6F800E062B6C1F5EA33BF33A5FB77
:102E100003031EF0806FC7EB93134FF47A7002D058
:102E2000322988BF013200FB0233B3F57A7F05D324
:102E3000B8F10108C4D007F57A77DDE7614B1B785C
:102E4000002BD9D105F078FDD6E75F4B5E4A1B68B1
:102E50005E495948CF5C13680133632B1360FFB29E
:102E6000C8BF00234FF0FF31C8BF136002F062FCFF
:102E700007F0DF03552B01F05C80522B01F05580E9
:102E80000D2F9DD15B46012B01F05380504804F07B
:102E9000FBFA3A4B434883F800B04E4B1B78DBB249
:102EA0001D469B4603F0AAFE3E4803F0A7FE4A4893
:102EB00004F0EAFA012D0CBF4848494804F0E4FA4E
:102EC000324B1B783F2B09DD3A4D2B683F2B05DC3D
:102ED000344803F093FE2B683F2BF9DDDFF804A1A3
:102EE000DFF80491354E364D2368002B7ED172B643
:102EF000DAF80030D9F80070326862B6520102D5B3
:102F0000322B88BF0137C3F5EA33BF334FF47A72EF
:102F1000A5FB031302FB07F707EB93174FF00A0813
:102F200072B6DAF80010D9F80020D6F800E062B6E0
:102F3000C1F5EA33BF33A5FB03031EF0806FC7EB77
:102F400093134FF47A7002D0322988BF013200FB0C
:102F50000233B3F57A7F05D3B8F10108C4D007F581
:102F60007A77DDE7174B1B78002BD9D105F0E4FC0D
:102F7000D6E700BFEE07FF1F00EA0000EF07FF1FC4
:102F8000F407FF1FF107FF1FF207FF1FB009FF1F24
:102F9000F807FF1F3CBB0000F907FF1F4CBB0000F8
:102FA0005CBB000058DD000034D900003CD90000B3
:102FB0004CD90000B409FF1FA01AFF1F04ED00E068
:102FC00089888888A81AFF1FAC1AFF1FB01AFF1F34
:102FD00064D90000C209FF1F6CD9000074D9000039
:102FE00084D9000018E000E0A41AFF1FB84BB84ACB
:102FF0001B68B849B848CF5C13680133632B136072
:10300000FFB2C8BF00234FF0FF31C8BF136002F00A
:1030100091FB07F0DF03482B00F08087462B00F080
:1030200079870D2F7FF460AF5B46012B00F0768728
:10303000AA4804F029FAAA4B83F800B0A94B1B78E0
:10304000012B00F0DD80A84BA8481B78A84DDBB20F
:103050001E469B4603F0D2FDA44803F0CFFDA548D1
:1030600004F012FAA44804F00FFA10AB1946A34B6F
:1030700053F8263000931A46002301F8043D13202C
:103080000891134600E01046A5FB0362D20802EB4C
:103090008206A3EB4603303301F8013D1346421E7E
:1030A000002BF0D10AAB1844019304F0EDF99448D9
:1030B00004F0EAF9934B1B783F2B09DD924D2B6806
:1030C0003F2B05DC894803F099FD2B683F2BF9DD88
:1030D000DFF858A2DFF858928C4E8D4D2368002BF4
:1030E00041D172B6DAF80030D9F80070326862B6B1
:1030F000510102D5322B88BF0137C3F5EA33BF3304
:103100004FF47A72A5FB031302FB07F707EB931743
:103110004FF00A0872B6DAF80010D9F80020D6F895
:1031200000E062B6C1F5EA33BF33A5FB03031EF02E
:10313000806FC7EB93134FF47A7002D0322988BFA7
:10314000013200FB0233B3F57A7F05D3B8F10108F1
:10315000C4D007F57A77DDE76E4B1B78002BD9D109
:1031600005F0EAFBD6E75A4B594A1B6859495A48B9
:10317000CF5C13680133632B1360FFB2C8BF002319
:103180004FF0FF31C8BF136002F0D4FA312F00F0C6
:10319000D786322F01F0C582332F01F0B282342F4F
:1031A00001F09882352F01F02582362F01F00F8231
:1031B000372F01F0FC81392F01F0E3810D2F8DD1E4
:1031C00000238DF83C300899494D009B132000E006
:1031D0001046A5FB0362D20802EB8206A3EB46036E
:1031E000303301F8013D1346421E002BF0D1019B04
:1031F000184404F049F9484803F000FD00F0FFBE10
:10320000464B3A481B78DBB21D469B4603F0F6FC62
:10321000364803F0F3FC424804F036F9012D01F082
:10322000AB81022D0CBF3F483F4804F02DF9354BD0
:103230001B783F2B00F36186DFF8F0A0DFF8F090F9
:10324000324E334D2368002B74D172B6DAF8003059
:10325000D9F80070326862B6500102D5322B88BFAF
:103260000137C3F5EA33BF334FF47A72A5FB03137A
:1032700002FB07F707EB93174FF00A0872B6DAF86C
:103280000010D9F80020D6F800E062B6C1F5EA33A4
:10329000BF33A5FB03031EF0806FC7EB93134FF4FE
:1032A0007A7002D0322988BF013200FB0233B3F5B5
:1032B0007A7F05D3B8F10108C4D007F57A77DDE746
:1032C000144B1B78002BD9D105F036FBD6E700BF95
:1032D000AC1AFF1FB01AFF1FA01AFF1F9CD90000D5
:1032E000C209FF1FEF07FF1FF107FF1F58DD000096
:1032F000CDCCCCCC00DA00000CDA0000849F0000BA
:103300008CEB0000B009FF1FB409FF1F04ED00E0C3
:1033100089888888A81AFF1F00EA0000F407FF1FA9
:10332000A4D90000C0D90000D4D9000018E000E002
:10333000A41AFF1F4E4B4E4A1B684E494E48CF5CA5
:1033400013680133632B1360FFB2C8BF00234FF033
:10335000FF31C8BF136002F0EDF907F0DF034E2B19
:1033600001F003814F2B01F0F980452B01F0F28031
:103370000D2F7FF467AF5B46012B01F0F6805B46B3
:10338000022B01F0EB803D4804F07EF83C4B83F8C3
:1033900000B00AAB01933B4B3B481B78DBB21D46A8
:1033A0009B4603F02BFC384803F028FC374804F018
:1033B0006BF8012D0CBF3648364804F065F8364BE3
:1033C0001B783F2B09DD354D2B683F2B05DC2E4844
:1033D00003F014FC2B683F2BF9DDDFF8D0A0DFF8F9
:1033E000D0902F4E2F4D2368002B63D172B6DAF8A0
:1033F0000030D9F80070326862B6500102D5322B25
:1034000088BF0137C3F5EA33BF334FF47A72A5FBA7
:10341000031302FB07F707EB93174FF00A0872B686
:10342000DAF80010D9F80020D6F800E062B6C1F54D
:10343000EA33BF33A5FB03031EF0806FC7EB931382
:103440004FF47A7002D0322988BF013200FB023378
:10345000B3F57A7F05D3B8F10108C4D007F57A77C0
:10346000DDE7114B1B78002BD9D105F065FAD6E7C3
:10347000AC1AFF1FB01AFF1FA01AFF1FF8D90000D7
:10348000F407FF1FFA07FF1F58DD0000DCDB000018
:10349000ECDB000000DC0000B009FF1FB409FF1FD7
:1034A00004ED00E089888888A81AFF1F18E000E072
:1034B000A41AFF1F7D4B7D4A1B687D497D48CF5C68
:1034C00013680133632B1360FFB2C8BF00234FF0B2
:1034D000FF31C8BF136002F02DF907F0DF034E2B58
:1034E00000F00485582B00F0FD840D2F7FF47BAF96
:1034F0005B46012B00F0FA846F4803F0C5FF6F4B69
:1035000083F800B06E4B1B78022B00F04E846D4B9D
:103510006D48197802F086FB6A4B18706B4B1B786C
:10352000012B684B1B7800F03484022B684B0CBFD6
:10353000684A694A1A60694B6948197802F072FB57
:10354000664B1870674B6848197802F06FF9654B45
:103550001870664B6648197802F068F9634B18706A
:10356000644B6548197802F05DFB624B1870634B41
:1035700063481B78DBB21D46009303F03FFB6048B5
:1035800003F03CFB5F4803F07FFF5F4803F07CFFE4
:103590005E4B83FB051292081146099202EB8202F0
:1035A000A5EB42023032D2B21046089200228DF8CA
:1035B00033208DF832000A46002900F0F48383FBA3
:1035C00002239B0803EB8303514AA1EB43032946E3
:1035D000303382FB01128DF83130530900F0E18362
:1035E00030338DF830300820019B184403F04CFF35
:1035F000484803F049FF414B1B783F2B09DD464DFE
:103600002B683F2B05DC3E4803F0F8FA2B683F2B74
:10361000F9DDDFF814A1DFF81491404E404D236826
:10362000002B40F0858072B6DAF80030D9F80070CF
:10363000326862B6520102D5322B88BF0137C3F51A
:10364000EA33BF334FF47A72A5FB031302FB07F78B
:1036500007EB93174FF00A0872B6DAF80010D9F8A2
:103660000020D6F800E062B6C1F5EA33BF33A5FB0F
:1036700003031EF0806FC7EB93134FF47A7002D0F0
:10368000322988BF013200FB0233B3F57A7F05D3BC
:10369000B8F10108C3D007F57A77DDE7214B1B7835
:1036A000002BD9D105F048F9D6E700BFAC1AFF1FAF
:1036B000B01AFF1FA01AFF1F14DC0000FA07FF1F3B
:1036C000EF07FF1FBF09FF1FB0DC0000C209FF1F8B
:1036D0006018FF1F94CA0000E4D10000C009FF1F5A
:1036E000C0DC0000C109FF1FCCDC0000F707FF1F92
:1036F000E4DC0000F307FF1FF8DC0000B009FF1F47
:1037000058DD000010DD00001CDD00006766666605
:103710001F85EB518CEB0000B409FF1F04ED00E0A6
:1037200089888888A81AFF1F18E000E0A41AFF1FE4
:10373000AA4BAA4A1B68AA49AA4811F803B0136801
:103740000133632B13605FFA8BFBC8BF00234FF07C
:10375000FF31C8BF136001F0EDFFABF13803012B5F
:1037600040F28082BBF1310F00F08681BBF10D0F7A
:103770007FF455AF09989DF820208DF83220002362
:103780008DF83330002800F0E286974B974A0146C7
:1037900083FB01139B0803EB83030099A0EB430316
:1037A000303382FB01128DF83130530900F0CC86A2
:1037B00030338DF830300820019B0344184603F065
:1037C00063FE8B488B4D8C4C03F018FA9DF800205B
:1037D0002A702178894802F025FA0346844823702C
:1037E00003F00CFA864801F081FA002852D0854B8C
:1037F0000220197801F0FEFB834B0320197801F0B9
:10380000F9FB824B0420197801F0F4FB804B142063
:10381000197801F0EFFB7F4B1520197801F0EAFBD6
:103820007D4B1620197801F0E5FB7C4B17201978A9
:1038300001F0E0FB7A4B1820197801F0DBFB794BA3
:103840001920197801F0D6FB774B1A20197801F06E
:10385000D1FB764B2120197801F0CCFB744B1B2057
:10386000197801F0C7FB734B1C20197801F0C2FBDB
:10387000714B1F20197801F0BDFB704B2020197887
:1038800001F0B8FB29781D2001F0B4FB21781E203F
:1038900001F0B0FB564803F0B1F95D4B029A1B787A
:1038A0009A427CD06649674A00230B701370029BD2
:1038B000012B27D0644B1B685E0523D5DFF8A88158
:1038C000DFF8A8A1DFF8A8B1DFF8A89198F80030D8
:1038D000002B00F0EE8599F80030002BFBD15B4BFC
:1038E0005B4A5C4C5C484FF000411960002340F299
:1038F0000311D370216001601179D2798AF8003008
:103900008BF80030424B1B78012B3ED0424B534A80
:103910001978534B52F82100414A44081178514A12
:103920002344B3FBF0F052F8214004F0D1FD484BA2
:103930009A7804F0030302F0EC0213436507444A4B
:1039400004F00F0148BF43F010030429937000F006
:10395000AA853F4B3E4A5B79E00603F0EF0348BF80
:1039600043F0100353719279394B02F0EF02A10634
:1039700048BF42F010029A71E20506D55A781978CC
:10398000D2B241F0200119705A70204B039A1B7873
:103990009A421BD001F044FE11B0BDE8F08F1F4BDE
:1039A000049A1B789A427FF47DAF1B4B059A1B78D3
:1039B0009A427FF477AF1A4B069A1B789A427FF4AB
:1039C00071AF124B039A1B789A42E3D1094B079AC5
:1039D0001B789A42DED111B0BDE8F08FAC1AFF1F00
:1039E000B01AFF1FA01AFF1F676666661F85EB519E
:1039F00000EA0000B009FF1FBC09FF1F28DD00001E
:103A00008CBB0000F807FF1FF907FF1FEE07FF1F21
:103A1000EF07FF1FC209FF1FF107FF1FF407FF1F7A
:103A2000F207FF1FFA07FF1FF007FF1FBF09FF1F65
:103A3000C009FF1FC109FF1FF707FF1FF307FF1F83
:103A4000DB0EFF1FC812FF1F3480044080E100E03E
:103A500000A0064040A0044044A00440849F000011
:103A6000001C4E0EDC9F0000A81AFF1F64A500205A
:103A700065A5002088A40020A848DFF8C0A2DFF8D0
:103A8000C092A74EA74D03F0B9F82368002B41D18F
:103A900072B6DAF80030D9F80070326862B65101B7
:103AA00002D5322B88BF0137C3F5EA33BF334FF459
:103AB0007A72A5FB031302FB07F707EB93174FF08E
:103AC0000A0872B6DAF80010D9F80020D6F800E03B
:103AD00062B6C1F5EA33BF33A5FB03031EF0806F66
:103AE000C7EB93134FF47A7002D0322988BF0132AA
:103AF00000FB0233B3F57A7F05D3B8F10108C4D0D7
:103B000007F57A77DDE7884B1B78002BD9D104F0D5
:103B100013FFD6E7854B854A1B688549854811F810
:103B200003B013680133632B13605FFA8BFBC8BFCC
:103B300000234FF0FF31C8BF136001F0FBFDABF174
:103B40003003DAB2062AA0D87B4A009203EB830343
:103B500002EBCB0B5B00DBB2DBF80400089303F154
:103B60006405EDB208B103F049F8A02D0CBF352370
:103B70003923DFF8C8A1DFF8C891694E694D019378
:103B80002368002B41D172B6DAF80030D9F8007002
:103B9000326862B6520102D5322B88BF0137C3F5B5
:103BA000EA33BF334FF47A72A5FB031302FB07F726
:103BB00007EB93174FF00A0872B6DAF80010D9F83D
:103BC0000020D6F800E062B6C1F5EA33BF33A5FBAA
:103BD00003031EF0806FC7EB93134FF47A7002D08B
:103BE000322988BF013200FB0233B3F57A7F05D357
:103BF000B8F10108C4D007F57A77DDE74A4B1B78A6
:103C0000002BD9D104F098FED6E7484B474A1B68F1
:103C10004749484811F803B013680133632B136018
:103C20005FFA8BFBC8BF00234FF0FF31C8BF1360A2
:103C300001F080FDBBF12F0FA2D9019B9B459FDCBA
:103C4000009A0BF07F0302EBC303089A58683432E2
:103C500093445FFA8BF3009300283FF4B2AD02F077
:103C6000CDFFAEE5344B009303EBCB03ABF1300B50
:103C70000BEB8B0B58684FEA4B0B5FFA8BF30193FE
:103C800008B102F0BBFFDFF8B4A0DFF8B490244E17
:103C9000244D2368002B55D172B6DAF80030D9F8DC
:103CA0000070326862B6500102D5322B88BF0137EE
:103CB000C3F5EA33BF334FF47A72A5FB031302FB5B
:103CC00007F707EB93174FF00A0872B6DAF80010FF
:103CD000D9F80020D6F800E062B6C1F5EA33BF3368
:103CE000A5FB03031EF0806FC7EB93134FF47A70AC
:103CF00002D0322988BF013200FB0233B3F57A7F4C
:103D000005D3B8F10108C4D007F57A77DDE7064B93
:103D10001B78002BD9D104F00FFED6E734E9000060
:103D200004ED00E089888888A81AFF1FAC1AFF1FDD
:103D3000B01AFF1FA01AFF1F64DD000018E000E0AA
:103D4000A41AFF1F924B924A1B689249924811F89D
:103D500003B013680133632B13605FFA8BFBC8BF9A
:103D600000234FF0FF31C8BF136001F0E3FCABF15B
:103D70003003DBB2092B8CD8009A02EBCB0B019AF3
:103D8000DBF804001A44D3B2009300287FF467AF35
:103D900017E5022B814B0CBF814A824A1A60FFF75C
:103DA000CABB092020E40A201EE47F4B7F481B7811
:103DB000DBB21D469B4602F021FF7C4802F01EFF4D
:103DC0007B4803F061FB012D00F06383022D0CBFE3
:103DD0007848794803F058FB784B1B783F2B76DC0A
:103DE000DFF808A2DFF80892754E764D2368002BA5
:103DF00041D172B6DAF80030D9F80070326862B694
:103E0000510102D5322B88BF0137C3F5EA33BF33E6
:103E10004FF47A72A5FB031302FB07F707EB931726
:103E20004FF00A0872B6DAF80010D9F80020D6F878
:103E300000E062B6C1F5EA33BF33A5FB03031EF011
:103E4000806FC7EB93134FF47A7002D0322988BF8A
:103E5000013200FB0233B3F57A7F05D3B8F10108D4
:103E6000C4D007F57A77DDE7574B1B78002BD9D103
:103E700004F062FDD6E7464B454A1B684549464873
:103E8000CF5C13680133632B1360FFB2C8BF0023FC
:103E90004FF0FF31C8BF136001F04CFC07F0DF03A7
:103EA0004E2B00F0EA82522B00F0D5820D2F9DD1CF
:103EB0005B46012B00F0E182022B0CBF43484448D3
:103EC00003F0E2FA384B83F800B0FFF720BB414D16
:103ED0002B683F2B84DC354802F090FE2B683F2B8B
:103EE000F9DD7DE702239B46FFF706BB3A4803F066
:103EF000CBFA01239B46FFF702BB364D2B683F2BC5
:103F00003FF79AA9294802F079FE2B683F2BF9DD8B
:103F1000FFF792B902239B46FFF78AB82F4803F0B8
:103F2000B3FA01239B46FFF786B802239B46FEF7B0
:103F3000ADBF2B4803F0A8FA01239B46FEF7A9BFAB
:103F4000284802F05BFE0DE0332800F07E82352821
:103F500000F07582322800F06C82382800F01D8253
:103F6000392847D001F0EEFB3128EDD11D4802F091
:103F700045FE02E0352800F0908201F0E3FB302896
:103F8000F8D1194803F080FA03239B4637E000BFBD
:103F9000AC1AFF1FB01AFF1FA01AFF1F6018FF1FE7
:103FA000F4BB000044C30000F007FF1F58DD000011
:103FB00020DC00004CDC000068DC0000B009FF1FC2
:103FC00004ED00E089888888A81AFF1F98DC0000AB
:103FD000A4DC0000B409FF1FE8D9000094D9000058
:103FE0005CD9000034E9000054DA000018E000E079
:103FF000A41AFF1FBC4803F047FA0E239B46BB4B95
:10400000BB4883F800B0BB4B1B78DBB21D469B4618
:1040100002F0F4FDB64802F0F1FDB74803F034FABF
:10402000012D00F0B081022D00F0C981032D00F0B8
:10403000C281042D00F0BB81052D00F0B481062D56
:1040400000F0C181072D0CBFAC48AD4803F01CFA4D
:10405000AC4B1B783F2B09DDAB4D2B683F2B05DCB0
:10406000A34802F0CBFD2B683F2BF9DDDFF8CCA293
:10407000DFF8CC92A54EA64D2368002B41D172B635
:10408000DAF80030D9F80070326862B6500102D513
:10409000322B88BF0137C3F5EA33BF334FF47A724E
:1040A000A5FB031302FB07F707EB93174FF00A0872
:1040B00072B6DAF80010D9F80020D6F800E062B63F
:1040C000C1F5EA33BF33A5FB03031EF0806FC7EBD6
:1040D00093134FF47A7002D0322988BF013200FB6B
:1040E0000233B3F57A7F05D3B8F10108C4D007F5E0
:1040F0007A77DDE7874B1B78002BD9D104F01CFCC5
:10410000D6E7854B844A1B6884498548CF5C136891
:104110000133632B1360FFB2C8BF00234FF0FF31A0
:10412000C8BF136001F006FB372F00F08E80382FD8
:104130000ED00D2FA0D17B4B53F82B0003F0A4F928
:10414000794802F05BFD6B4B83F800B0FFF723B9B1
:104150007648DFF8E8A1DFF8E8916C4E6C4D02F08C
:104160004DFD2368002B41D172B6DAF80030D9F842
:104170000070326862B6520102D5322B88BF013717
:10418000C3F5EA33BF334FF47A72A5FB031302FB86
:1041900007F707EB93174FF00A0872B6DAF800102A
:1041A000D9F80020D6F800E062B6C1F5EA33BF3393
:1041B000A5FB03031EF0806FC7EB93134FF47A70D7
:1041C00002D0322988BF013200FB0233B3F57A7F77
:1041D00005D3B8F10108C4D007F57A77DDE74D4B78
:1041E0001B78002BD9D104F0A7FBD6E74A4B4A49EC
:1041F0001B684A4A4A48D35C0A680132632ADFB224
:104200000B46C8BF00230A60C8BF0B604FF0FF31E8
:1042100001F090FA07F0DF034E2B00F0E8804F2BFF
:1042200000F0D580452B9CD1414802F0E7FC02E02C
:10423000322800F0F28001F085FA3128F8D13D48AB
:1042400003F022F905239B467DE73B48DFF8ECA00D
:10425000DFF8EC902D4E2E4D02F0D0FC2368002BA1
:1042600070D172B6DAF80030D9F80070326862B6F0
:10427000510102D5322B88BF0137C3F5EA33BF3372
:104280004FF47A72A5FB031302FB07F707EB9317B2
:104290004FF00A0872B6DAF80010D9F80020D6F804
:1042A00000E062B6C1F5EA33BF33A5FB03031EF09D
:1042B000806FC7EB93134FF47A7002D0322988BF16
:1042C000013200FB0233B3F57A7F05D3B8F1010860
:1042D000C4D007F57A77DDE70E4B1B78002BD9D1D8
:1042E00004F02AFBD6E700BF3CDA0000F107FF1F0D
:1042F00058DD0000F207FF1F8CDA000080DB0000B1
:10430000A8DB0000B009FF1FB409FF1F04ED00E0A7
:1043100089888888A81AFF1FAC1AFF1FB01AFF1FD0
:10432000A01AFF1FD0BB000000EA0000E0E8000078
:10433000C4E60000D8DB0000ECE8000018E000E074
:10434000A41AFF1FAD4BAD491B68AD4AAD48D35C05
:104350000A680132632ADFB20B46C8BF00230A6035
:10436000C8BF0B604FF0FF3101F0E4F907F0DF0345
:104370004F2B0CD0452B7FF471AFA34803F084F88A
:1043800002239B46DFE6A14803F07EF860E6A048E2
:1043900003F07AF801239B46D5E69E4803F074F8B3
:1043A0000A239B462BE69C4803F06EF850E69B4898
:1043B00003F06AF84CE69A4803F066F848E6994834
:1043C00003F062F844E6984803F05EF840E6974848
:1043D00002F014FC01E0322819D001F0B3F93128C1
:1043E000F9D1934803F050F804239B46ABE691487B
:1043F00002F004FC01E0322815D001F0A3F93128C5
:10440000F9D18B4803F040F803239B469BE68A488A
:1044100003F03AF807239B4695E6874803F034F803
:1044200008239B468FE6844803F02EF806239B461C
:1044300089E6824803F028F809239B46DFE5804897
:1044400003F022F805239B46D9E57E4803F01CF8CB
:1044500004239B46D3E57C4803F016F801E052287C
:1044600011D001F06FF900F0DF005328F7D1774841
:1044700003F00AF802239B4624E5754803F004F88C
:1044800001239B461EE5734802F0FEFF03239B4673
:1044900018E5714802F0F8FF9EE4704802F0F4FF5E
:1044A00012239B46ABE5937943F040039371FFF7EA
:1044B00050BA6B4F6B4E6C4D6C4C6D4899F80020A8
:1044C000DFF8F4E102F0FF01002A36D09AF800305C
:1044D0009BF80030674B1B78674B1B78674B1B784A
:1044E000674B1B783B7833782B78237803789EF8DA
:1044F0000030EFF305820123002ADFD188F8002085
:10450000EFF3108272B65F4E306810B15E4C2578C2
:104510002DB1002A7FF4DAA962B6FFF7D7B9416955
:104520002370316001B18D6102B962B60025457713
:10453000836898472570FFF7C9B9002B3FF4CFA9CE
:1045400088F80010FFF7CBB90920FFF735B90A202A
:10455000FFF732B903239B46FEF715BF4B4802F025
:1045600093FF02239B46FEF711BF394802F08CFFF0
:1045700001239B46FEF70ABF454802F085FFFEF780
:1045800056BE444802F03AFB01E0322809D001F05F
:10459000D9F83628F9D1404802F076FF0D239B4622
:1045A0002DE53E4802F070FF15239B4627E53C4869
:1045B00002F024FB01E0362816D001F0C3F83528BC
:1045C000F9D1384802F060FF02239B4617E53648D0
:1045D00002F014FB01F0B6F83028FBD1334802F0AA
:1045E00053FF08239B460AE5314802F04DFF112393
:1045F0009B4604E52F4802F001FB61E0AC1AFF1F67
:10460000B01AFF1FA01AFF1FD4DB000090DA0000D1
:10461000D0DB000034DA000030DB000008DB0000F3
:10462000E0DA0000B8DA000058DB00004CE60000D9
:10463000D8DB000058E6000068D900002CDA000042
:1046400028DA000024DA000084DC000088DC0000A6
:10465000E8D9000090DC000030DC00001CDA00002B
:104660004D19FF1F4E19FF1FDD18FF1FDE18FF1F1A
:104670006C18FF1F2D1AFF1F2E1AFF1FBD19FF1FD9
:10468000BE19FF1F68A500206CA50020F0D900000E
:10469000ACD90000D4E800007CDA000084DA000025
:1046A000ECE8000070DA0000F8E8000044DA0000EE
:1046B00074DA000004E900006D18FF1F37281AD0D3
:1046C00001F040F83028F9D15A4802F0DDFE01230C
:1046D0009B4694E4584802F091FA02E0362800F034
:1046E000948001F02FF83828F8D1544802F0CCFE1D
:1046F0000C239B4683E4524802F0C6FE10239B46DF
:104700007DE4504802F07AFA01E0382876D001F0D2
:1047100019F83028F9D14C4802F0B6FE07239B4621
:104720006DE44A48DFF850A1DFF85091484E494DFA
:1047300002F064FA2368002B41D172B6DAF8003037
:10474000D9F80070326862B6520102D5322B88BFA8
:104750000137C3F5EA33BF334FF47A72A5FB031375
:1047600002FB07F707EB93174FF00A0872B6DAF867
:104770000010D9F80020D6F800E062B6C1F5EA339F
:10478000BF33A5FB03031EF0806FC7EB93134FF4F9
:104790007A7002D0322988BF013200FB0233B3F5B0
:1047A0007A7F05D3B8F10108C4D007F57A77DDE741
:1047B000294B1B78002BD9D104F0BEF8D6E7274B44
:1047C000264A1B6826492748CF5C13680133632BB0
:1047D0001360FFB2C8BF00234FF0FF31C8BF1360A2
:1047E00000F0A8FF302F1ED0342F15D0332FA1D1C9
:1047F0001D4802F049FE13239B4600E41B4802F0CB
:1048000043FE0F239B46FFF7FABB194802F03CFE1C
:1048100014239B46FFF7F3BB164802F035FE0B232B
:104820009B46FFF7ECBB084802F02EFE06239B4692
:10483000FFF7E5BB54DA000010E9000034DA0000AD
:1048400068DA00001CE9000044DA000028E90000F2
:1048500004ED00E089888888A81AFF1FAC1AFF1FA2
:10486000B01AFF1FA01AFF1F50DA000058DA00002C
:1048700060DA000048DA000018E000E0A41AFF1F28
:1048800010B4224B1A7992060ED5214AD9791378A1
:10489000507801333F2BC8BF00238342C9B203D0F5
:1048A000D018DBB2017113701849CB78DBB21C064B
:1048B0000ED4590609D5154B1A79520605D5144957
:1048C00000202C2281F87000DA705DF8044B7047EC
:1048D0000A791006EDD50E4A92F8444092F8450048
:1048E000C0B284420ED0411C272986BF0020014659
:1048F000C8B21144054C91F84810C9B2E17182F870
:104900004500D6E76C22CA70D3E700BF00B00E4066
:104910006C18FF1F10B4244B1A79920612D5234A43
:10492000D97992F8713092F8720001333F2BC8BFE9
:1049300000238342C9B205D0D018DBB280F87410CE
:1049400082F871301849CB78DBB21C060ED45906B8
:1049500009D5154B1A79520605D5144900202C2289
:1049600081F8E000DA705DF8044B70470A791006B0
:10497000EDD50E4A92F8B44092F8B500C0B2844228
:104980000ED0411C272986BF00200146C8B2114421
:10499000054C91F8B810C9B2E17182F8B500D6E7BC
:1049A0006C22CA70D3E700BF00A00E406C18FF1F36
:1049B00010B4244B1A79920612D5234AD97992F869
:1049C000E13092F8E20001333F2BC8BF002383425D
:1049D000C9B205D0D018DBB280F8E41082F8E1301B
:1049E0001849CB78DBB21C060ED4590609D5154BF5
:1049F0001A79520605D5144900202C2281F850015D
:104A0000DA705DF8044B70470A791006EDD50E4A4E
:104A100092F8244192F82501C0B284420ED0411C84
:104A2000272986BF00200146C8B21144054C91F8E1
:104A30002811C9B2E17182F82501D6E76C22CA704B
:104A4000D3E700BF00D006406C18FF1F10B4244B02
:104A50001A79920612D5234AD97992F8513192F8EF
:104A6000520101333F2BC8BF00238342C9B205D096
:104A7000D018DBB280F8541182F851311849CB7844
:104A8000DBB21C060ED4590609D5154B1A7952060D
:104A900005D5144900202C2281F8C001DA705DF898
:104AA000044B70470A791006EDD50E4A92F89441EE
:104AB00092F89501C0B284420ED0411C272986BFCE
:104AC00000200146C8B21144054C91F89811C9B2B2
:104AD000E17182F89501D6E76C22CA70D3E700BF76
:104AE00000C006406C18FF1FF0B4334B1A7912F067
:104AF000300F22D072B6997D01F0FF0200292FD02D
:104B000062B62E4D95F8C10195F8C2711C46C0B22F
:104B1000FFB2431C402BE17928BF0023BB4202F1C6
:104B2000FF32C9B203D0EE18184686F8C41112F04D
:104B3000FF02EED1C0B285F8C1011F49CA78D2B2D6
:104B4000150612D4510609D51B4B1A79520605D504
:104B50001A4900203C2281F83002DA70F0BC70471C
:104B60004022D9795A7462B6E7E70B791C06E9D579
:104B7000124D95F8044295F80532E4B2DBB29C423E
:104B800002D10EE0A3420CD00133282B28BF002312
:104B9000E8180E7990F80802C0B2C871087D07289D
:104BA000F0D9DBB2044985F805320B79180644BF09
:104BB0007C23CB70C6E700BF00B006406C18FF1F17
:104BC00008B503F03BFE00BF104B1B685B060BD51E
:104BD0000F4B1A5C62B100221A540E4B0E4A1B682E
:104BE0000F3342F820307047094B1A5C0AB1704706
:104BF000704701221A54074B07491B68074A55336F
:104C000041F820301368184402F050BAD0F00F4039
:104C100094A50020E4A50020E8A5002020A70020FE
:104C2000F8B5264B03EBC0030D465C68216811F410
:104C3000E06101D13F2838D9214B224A2249C3F8EB
:104C40002C2104F14042C3F83011A2F592211F4FEC
:104C50001F4E2048C3F834717C29C3F83861C3F86B
:104C60003C0120D9A2F594237C2B0DD9A2F59623E3
:104C70007C2B1FD9A2F598237C2B19D9A2F59A2257
:104C80007C2A19D8144800E0144872B62368C4F38B
:104C9000840123F4702343F08572236040F821508F
:104CA000226062B6F8BD0E48EFE703F061FCC3E78F
:104CB0000C48EAE70C48E8E7F8BD00BFD40B010058
:104CC0000002FF1FA907FF1F7D07FF1F5107FF1FDE
:104CD0002507FF1FF906FF1FFC07FF1FD808FF1F4E
:104CE0003809FF1F6808FF1FA808FF1F2DE9F84FAC
:104CF0000446664800F10C0501F080FFA5F10C00A8
:104D000001F07CFF013C14F8012F02F07F0305EB5A
:104D1000C3033AB15B681846002BF4D001F06EFF74
:104D20000028F0D15A4C5B4D14F8012B02F07F03A0
:104D300005EBC3033AB15B681846002BF4D001F0D1
:104D40005DFF0028F0D1544C94F8B431302B0ADDCB
:104D5000D4F8B831302B06DC4C4801F04FFFD4F8C2
:104D6000B831302BF8DD4D4CDFF848814C4F4D4DBC
:104D7000A346D4F83432494A002B3FD172B6D8F852
:104D80000030DBF838123A6862B6520102D5322B95
:104D900088BF0131C3F5EA33BF334FF47A72A5FB04
:104DA000030302FB01F909EB93194FF00A0A72B6EB
:104DB000D8F80010D4F838223E6862B6C1F5EA335C
:104DC000BF33A5FB03037601C9EB93134FF47A704D
:104DD00002D5322988BF013200FB0233B3F57A7F56
:104DE00005D3BAF1010AC4D009F57A79DFE794F85E
:104DF0003C32002BDBD103F09FFDD8E7D2F84032E4
:104E0000294813444FF0FF3193F84492D2F84032CE
:104E10000133632BC2F840325FFA89F9C4BF002323
:104E2000C2F8403200F086FC09F0DF03592B18D09D
:104E30004E2B02D0B9F10D0F9BD11C4C154D14F81F
:104E4000012B02F07F0305EBC3033AB15B68184600
:104E5000002BF4D001F0D2FE0028F0D10020BDE8F4
:104E6000F88F134C0B4D14F8012B02F07F0305EB68
:104E7000C3033AB15B681846002BF4D001F0BEFEC4
:104E80000028F0D10120BDE8F88F00BF58DD0000F8
:104E90003CEA000064DD0000FC07FF1F6C18FF1FE8
:104EA00004ED00E089888888A01AFF1F50EA0000FE
:104EB00048EA000018E000E072B6184A92F8AB32F7
:104EC000032B1DD8DFE803F016130219144B05213C
:104ED00082F8AB12018813F0080F14BFC822882291
:104EE000083042EA014258601A6062B670470221F7
:104EF0000C4BEDE703210A4BEAE70421094BE7E7F6
:104F0000D2F8B832054933B1D1F8C8325860C2F886
:104F1000C80262B67047C1F8B802F8E76C18FF1F04
:104F20009000FF1F9800FF1FFEE700BFFEE700BFD5
:104F30000B4908B5D1F8BC3148B16A461844A2F50E
:104F40000052904205D2C1F8BC01184608BD18466F
:104F500008BD04F077F90C2303604FF0FF3008BD63
:104F6000FC07FF1FF0B51B4B1B4E596818689A6869
:104F7000DB6885B06C460FC4337899071DD5174A96
:104F8000174C1378174913F0700318BF1370164AA3
:104F9000164B8027177000261220052226706D46BA
:104FA00008701A7072B6043C45F001052046A84707
:104FB00062B6237813F0700309D10D4B064901E066
:104FC000013B02D00A78D207FAD505B0F0BD2370B4
:104FD00005B0F0BD54EA00000100024000000240AC
:104FE000040002400B000240070002400A00024099
:104FF000410D0300B0F5805F17D238B50F4B1B7819
:10500000DA070D46044611D504F1A0500378AB42EF
:105010000AD00B4A137813F0700318BF1370074AB5
:1050200005701378DB07FCD538BD7047FFF79AFF92
:1050300004F1A0500378AB42EBD1F5E70100024048
:10504000000002402DE9F04FE34D2B6885B01BB9FD
:105050006B68002B00F05882E04801F0CFFD2B6810
:10506000002B40F3A582DFF8A883DD4F00244FEA30
:10507000840905EB09039A68002A40F3F8809868D0
:10508000DFF878E380EAE072A2EBE0728EFB023692
:10509000D317C3EBA60101EB81060DF1040A4FF013
:1050A000000BA2EB46064FF0203C30365945CDF8B8
:1050B00004C0CAF804C0CAF808C08DF80E608DF8A4
:1050C0000FB040F36D828EFB016CCE17C6EBAC06C1
:1050D00006EB8606A1EB460688FB02C13036D3EB11
:1050E00061118DF80D6000F05D828EFB016CCE17B2
:1050F000C6EBAC0606EB8606A1EB460101F13006D5
:1051000087FB02C1D3EBA1118DF80C6000F0408247
:105110008EFB016CCE17C6EBAC0606EB8606A1EB48
:105120004601B04E86FB02C63031D3EB26368DF8F1
:105130000B1000F02F828EFB061CF117C1EBAC01A7
:1051400001EB810CA849A6EB4C0681FB02C130366D
:10515000D3EB61318DF80A6000F01E828EFB016C8A
:10516000CE17C6EBAC0606EB8606A1EB460101F1B5
:1051700030069E498DF8096081FB02C1D3EBA14145
:1051800000F00C828EFB016CCE17C6EBAC0606EB72
:105190008606A1EB4601964E86FB02C63031D3EB64
:1051A000A6568DF8081000F0EF818EFB061CF11753
:1051B000C1EBAC0101EB810C8E49A6EB4C0681FBE7
:1051C00002C13036D3EB61618DF8076000F0DE81FB
:1051D0008EFB016ECE17C6EBAE0E874E0EEB8E0E1B
:1051E000A1EB4E0186FB02623031D3EB22738DF8C6
:1051F000061000F0C781814AD91782FB0362C1EB18
:10520000A20202EB8202A3EB420330338DF8053099
:105210005B460028C0F27281794E1AF8012B02F029
:105220007F0306EBC3033AB15B681846002BF4D04A
:1052300001F0E4FC0028F0D17248714E01F0DEFC70
:10524000714B53F8093003F1FF3919F8012F02F0BF
:105250007F0306EBC3033AB15B681846002BF4D01A
:1052600001F0CCFC0028F0D15C4801F0C7FC01340F
:10527000072C7FF4FCAE594801F0C0FC6348FFF7EF
:1052800035FD002840F07081544801F0B7FC6B6890
:10529000002B40F38981DFF87881514F00244FEAD9
:1052A000840905EB09035A6A002A40F31681586AFB
:1052B000DFF848E180EAE072A2EBE0728EFB023692
:1052C000D317C3EBA60101EB81060DF1040A4FF0E1
:1052D000000BA2EB46064FF0203C30365945CDF886
:1052E00004C0CAF804C0CAF808C08DF80E608DF872
:1052F0000FB040F361818EFB016CCE17C6EBAC069C
:1053000006EB8606A1EB460688FB02C13036D3EBDE
:1053100061118DF80D6000F051818EFB016CCE178C
:10532000C6EBAC0606EB8606A1EB460101F13006A2
:1053300087FB02C1D3EBA1118DF80C6000F0408116
:105340008EFB016CCE17C6EBAC0606EB8606A1EB16
:105350004601244E86FB02C63031D3EB26368DF84B
:105360000B1000F02F818EFB061CF117C1EBAC0176
:1053700001EB810C1C49A6EB4C0681FB02C13036C7
:10538000D3EB61318DF80A6000F01E818EFB016C59
:10539000CE17C6EBAC0606EB8606A1EB460101F183
:1053A000300612498DF8096081FB02C1D3EBA1419F
:1053B00000F00C818EFB016CCE17C6EBAC0606EB41
:1053C0008606A1EB46010A4E86FB02C63031D3EBBE
:1053D000A6568DF808101DE0381BFF1F00EA0000DC
:1053E000D34D6210AD8BDB6889B5F81483DE1B43A7
:1053F0006BCA5F6B893BE655A12FB844676666664A
:1054000064DD000058DD000064EA0000C0EA00002E
:105410001F85EB5100F0DC808EFB061CF117C1EB01
:10542000AC0101EB810C6D49A6EB4C0681FB02C17E
:105430003036D3EB61618DF8076000F0CB808EFBD6
:10544000016ECE17C6EBAE0E654E0EEB8E0EA1EBC7
:105450004E0186FB02623031D3EB22738DF80610C9
:1054600000F0BA805F4AD91782FB0362C1EBA20247
:1054700002EB8202A3EB420330338DF805305B462A
:10548000002855DB584E1AF8012B02F07F0306EB7B
:10549000C3033AB15B681846002BF4D001F0AEFBB1
:1054A0000028F0D15148504E01F0A8FB504B53F862
:1054B000093003F1FF3919F8012F02F07F0306EBE1
:1054C000C3033AB15B681846002BF4D001F096FB99
:1054D0000028F0D1474801F091FB0134032C7FF400
:1054E000DEAE444801F08AFB4348FFF7FFFB28BBD0
:1054F000404805B0BDE8F04F01F080BB04AA13445A
:105500002D2203F80C2C87E63C4C374D14F8012B68
:1055100002F07F0305EBC3033AB15B681846002B2A
:10552000F4D001F06BFB0028F0D105B0BDE8F08F9E
:1055300004AA13442D2203F80C2CA3E7304A314966
:105540002C4800236B606B62536093600B6813F010
:10555000FF0F14BF2C4B2D4B4FF080721A6005B01B
:10556000BDE8F04F01F04ABB294A2A490023202018
:105570002B60AB6053609360D360136153619361A0
:10558000086081E6012344E6032342E6022340E665
:1055900007233EE606233CE605233AE6042338E6E5
:1055A000092336E6082334E61B4801F06DFF9FE728
:1055B0001A4801F069FF67E6092361E708235FE7FE
:1055C00007235DE706235BE7052359E7042357E735
:1055D000032355E7022353E7012351E7893BE655AF
:1055E000A12FB8446766666664DD000058DD0000E0
:1055F00080EA000000EA0000E0EA0000A4EA0000FF
:105600005C1BFF1FD407FF1F04F10F4008F10F4080
:10561000401BFF1F88F00F40F0EA0000D0EA0000B6
:1056200070B5274801F0EAFA264801F0E7FA264863
:1056300001F0E4FA5024254801F0E0FA013CFAD1E7
:10564000234B244D1B78022B32D06B78012BC8BF23
:10565000012406DD204801F0D1FA6B780134A34221
:10566000F8DC1E4801F0CAFA6C78AB78E4B29C42D0
:1056700016DA1B4E05E0184801F0C0FAAB78A342D9
:105680000EDD3319013493F83030012BF3D1154876
:1056900001F0B4FA104801F0B1FAAB78A342F0DCA3
:1056A000114801F0ABFA0748BDE8704001F0A6BA16
:1056B0002B78012BC9D10D4801F0A0FAC5E700BF36
:1056C0008CEA000000EA000078BA000018EA000046
:1056D000C00EFF1FBC09FF1F58DD0000B4BA000058
:1056E000381BFF1F6CBA000084BA000098EA000063
:1056F0000C4B1B78012B00D070470B4B1B78012BF8
:10570000FAD1431E052BF7D8084B09491A6803EB59
:10571000800001321A6083682022013383600A60AE
:10572000704700BFB80EFF1FF807FF1F381BFF1F91
:1057300084F00F4050E8003F0B4440E80032002A5C
:10574000F8D170472DE9F84FDFF8D0B0DFF8D0A0DE
:10575000DFF8D090DFF8D0802C4FDBF80030002B42
:105760003FD172B6DAF80030D9F80040D8F80020FE
:1057700062B6520102D5322B88BF0134C3F5EA3339
:10578000BF334FF47A72A7FB031302FB04F404EB5C
:1057900093140A2572B6DAF80010D9F80020D8F868
:1057A000006062B6C1F5EA33BF33A7FB030376019D
:1057B000C4EB93134FF47A7002D5322988BF0132BB
:1057C00000FB0233B3F57A7F04D3013DC5D004F565
:1057D0007A74DFE70E4B1B78002BDBD103F0ACF8BB
:1057E000D8E70C4A0C4913680C48CC5C13680133A9
:1057F000632B1360E4B2C8BF00234FF0FF31C8BF72
:105800001360FFF797FF2046BDE8F88F89888888E6
:10581000A81AFF1FAC1AFF1FB01AFF1FA01AFF1F04
:1058200018E000E0A41AFF1F04ED00E02DE9F84F96
:105830000446BD48BD4D8B4601F0E0F9BA4801F081
:10584000DDF9013C14F8012F02F07F0305EBC303DF
:105850003AB15B681846002BF4D001F0CFF900286C
:10586000F0D15B46012B00F0BC815B46022B00F0BF
:10587000B4815B46032B00F0AC81AD4CAB4D14F80A
:10588000012B02F07F0305EBC3033AB15B681846B6
:10589000002BF4D001F0B2F90028F0D1A54B1B7811
:1058A0003F2B09DDA44C23683F2B05DC9E4801F00B
:1058B000A5F923683F2BF9DDA04EDFF8ACA2DFF895
:1058C000AC929F4D9F4C3368002B41D172B6DAF8F1
:1058D0000030D9F800702A6862B6500102D5322B28
:1058E00088BF0137C3F5EA33BF334FF47A72A4FBA4
:1058F000031302FB07F707EB93174FF00A0872B682
:10590000DAF80010D9F80020D5F800E062B6C1F549
:10591000EA33BF33A4FB03031EF0806FC7EB93137E
:105920004FF47A7002D0322988BF013200FB023373
:10593000B3F57A7F05D3B8F10108C4D007F57A77BB
:10594000DDE7814B1B78002BD9D102F0F5FFD6E7BC
:105950007E4B7E4A1B687E497848CF5C13680133D2
:10596000632B1360FFB2C8BF00234FF0FF31C8BFE5
:105970001360FFF7DFFE07F0DF03432B16D04C2B3D
:1059800000F08B800D2F9ED15B46012B00F02D8106
:105990005B46022B00F02D815B46032B0CBF6D484C
:1059A0006D4801F071FD5846BDE8F88F6B48DFF88F
:1059B000B891DFF8B881624D624C01F065FD336843
:1059C000002B41D172B6D9F80030D8F800702A689F
:1059D00062B6510102D5322B88BF0137C3F5EA33D5
:1059E000BF334FF47A72A4FB031302FB07F707EBF4
:1059F00093174FF00A0A72B6D9F80010D8F80020B1
:105A0000D5F800E062B6C1F5EA33BF33A4FB030367
:105A10001EF0806FC7EB93134FF47A7002D03229D7
:105A200088BF013200FB0233B3F57A7F05D3BAF1A8
:105A3000010AC4D007F57A77DDE7434B1B78002BCA
:105A4000D9D102F079FFD6E7404B404A1B68404964
:105A50003A48CF5C13680133632B1360FFB2C8BFB1
:105A600000234FF0FF31C8BF1360FFF763FE07F05C
:105A7000DF034C2B09D00D2FA1D1394801F004FDD3
:105A800001239B465846BDE8F88F324801F0FCFCE4
:105A900002239B465846BDE8F88F3248DFF8C8908D
:105AA000DFF8C880264D274C01F0EEFC3368002B50
:105AB00065D172B6D9F80030D8F800702A6862B69D
:105AC000520102D5322B88BF0137C3F5EA33BF3309
:105AD0004FF47A72A4FB031302FB07F707EB93174B
