:10000000F8FF02209901000069A900006DA8000016
:100010006DA800006DA800006DA800006DA800008C
:100020006DA800006DA800006DA8000069A900007F
:1000300069A900006DA8000075470000FD4500009B
:1000400069A9000069A9000069A9000069A9000068
:1000500069A9000069A9000069A9000069A9000058
:1000600069A9000069A9000069A9000069A9000048
:1000700069A9000069A9000069A9000069A9000038
:1000800069A9000069A9000069A9000069A9000028
:1000900069A9000069A9000069A9000069A9000018
:1000A00069A9000069A9000069A9000069A9000008
:1000B00069A9000069A9000069A90000757600001F
:1000C00069A900009DA7000069A900007949000006
:1000D00069A90000DD48000069A9000069A90000C5
:1000E00069A9000069A9000069A9000069A90000C8
:1000F00069A9000069A9000069A9000069A90000B8
:1001000069A9000069A9000069A9000069A90000A7
:1001100069A900000D7A000069A9000069A9000022
:1001200069A9000069A9000069A9000069A9000087
:1001300069A9000069A9000069A9000069A9000077
:1001400069A9000069A900004148000069A90000F0
:10015000AD47000069A9000069A9000069A9000075
:1001600069A9000069A9000069A9000069A9000047
:1001700069A9000069A9000069A9000069A9000037
:1001800069A9000069A9000069A9000069A9000027
:1001900069A9000069A9000008B55D4B4CF2205226
:1001A0001A804DF628121A8000BF00BF102223F8D3
:1001B0000E2CA3F51F43DE3B4FF030621A60554A08
:1001C0009A60554ADA60554B4FF470021A60544AEF
:1001D000136813F4807304D152490B604FF4A85391
:1001E0001360514B1A78100703D51A7842F00802B1
:1001F0001A704E4B4E492A221A704E4A4E4B8B4271
:1002000004D252F8040F43F8040BF8E74B4B4C4967
:1002100000228B4202D243F8042BFAE749494A4AAA
:10022000002352F8230041F823000133662BF8D154
:10023000464B474A802103F8011B9342FBD1454BB3
:10024000404A1A60444B8A221A70A3F58053242234
:100250005A70A0221A709A799107FCD59A79D20621
:10026000FCD43E4A937903F00C03082B3B4BF9D1A5
:1002700003221A7146225A719A799406FCD5374A9C
:100280009179364B4806FBD5354A4FF082711160A3
:100290000921516020221A709A7902F00C020C2A6E
:1002A000FAD1304B304A1A60304B314A1A60002480
:1002B00007225C6043F8042C2E4AC3F80C2D62B66A
:1002C00005F0CEFA174B1A68D1070AD52A4A2B49EE
:1002D0001C60146042F8041C10221A60284A294944
:1002E0001160294A127852060ED52549254A086818
:1002F000904209D12048214C00221A60026040F847
:10030000044C102018600A600AF0C8FC00F0AEF837
:100310000E200540823F04000100002B88ED00E024
:1003200010D0034014D0034002D0074000E0074043
:100330009C0EFF1FF82B0100F806FF1F9C0EFF1FED
:1003400034A700200002FF1F0000000000E400E0CE
:1003500056E400E008ED00E0005006400040064092
:100360004480044004800440C010050014E000E014
:10037000BFD401000000202004D00340AED1C55DF1
:100380001CE00340A5C3945A00F00740FFFFFFFFA5
:10039000FFFFFFFFFFFFFFFFFFFFFFFFFFFFFFFF6D
:1003A000FFFFFFFFFFFFFFFFFFFFFFFFFFFFFFFF5D
:1003B000FFFFFFFFFFFFFFFFFFFFFFFFFFFFFFFF4D
:1003C000FFFFFFFFFFFFFFFFFFFFFFFFFFFFFFFF3D
:1003D000FFFFFFFFFFFFFFFFFFFFFFFFFFFFFFFF2D
:1003E000FFFFFFFFFFFFFFFFFFFFFFFFFFFFFFFF1D
:1003F000FFFFFFFFFFFFFFFFFFFFFFFFFFFFFFFF0D
:10040000FFFFFFFFFFFFFFFFFFFFFFFFDEF9FFFF23
:1004100010B5054C237833B9044B13B10448AFF33E
:1004200000800123237010BD9C0EFF1F0000000000
:10043000FC2B0100084B10B51BB108490848AFF36D
:1004400000800848036803B910BD074B002BFBD0A0
:10045000BDE81040184700BF00000000A00EFF1FBD
:10046000FC2B01009C0EFF1F000000002DE98048BE
:100470000025C94C87B029462120257008F074F862
:10048000C64B93F80032DBB2012B01F0C383C44B9F
:10049000C44E02931F4601216160252226231320AA
:1004A00012213D6032707370F27133723075717564
:1004B0000021172008F058F800211C2008F054F8FB
:1004C0000021092008F050F800210F2008F04CF816
:1004D0000021272008F048F800210A2008F044F8FD
:1004E00000210B2008F040F800210C2008F03CF817
:1004F0000021232008F038F80021032008F034F808
:100500000021042008F030F800211A2008F02CF80F
:1005100000211B2008F028F80021162008F024F8FC
:100520000021022008F020F800210E2008F01CF81D
:100530000021072008F018F80021082008F014F81E
:100540000021062008F010F80021142008F00CF813
:100550000021152008F008F80021052008F004F813
:100560000121102008F000F81120012107F0FCFF04
:100570003078C0B23F2802D8012107F0F5FF70782B
:10058000C0B23F2802D8012107F0EEFF01211F2051
:1005900007F0EAFF0121202007F0E6FF01211D20DE
:1005A00007F0E2FF01211E2007F0DEFF00211820E6
:1005B00007F0DAFF0021222007F0D6FF01210D20ED
:1005C00007F0D2FF0121212007F0CEFF01212420D6
:1005D00007F0CAFF0021084607F0C6FF01210846C0
:1005E00007F0C2FF307DC0B23F2802D8012107F0DA
:1005F000BBFF707DC0B23F2802D8002107F0B4FFD6
:1006000009F0DEFB684B694820221A60029B1B68D8
:1006100013F0FF0F14BF664B664B4FF080721A60E9
:10062000654A664B4FF400754FF400310560116068
:100630001A68520141F1E9821B689B014CBF0123FA
:100640000223237272B6257AEDB2042D01F0F482F2
:100650005B49172006F0B2FA59491C2006F0AEFAA1
:100660005749092006F0AAFA55490F2006F0A6FAC4
:100670005349272006F0A2FA51490A2006F09EFAB3
:100680004F490B2006F09AFA4D490C2006F096FAD5
:100690004B49232006F092FA4949032006F08EFACE
:1006A0004749042006F08AFA45491A2006F086FADE
:1006B00043491B2006F082FA4149162006F07EFAD3
:1006C00062B608F05FFD002008F0CCF8237A042B16
:1006D00008D0B37D022B05D13A4809F01FF93A48FA
:1006E00009F01CF9277A2C4DFFB2012F01F050823E
:1006F0002B7A022B01F06E822B7A032B334B01F005
:1007000063821A4601932B7A02F5ED630393237AF1
:10071000042B68D0F27D234B012A64D0597E019DC1
:100720009A7E2B4B05EB810105EB8202D1F8740B0D
:10073000D2F8CC5B42081344B3FBF0F007F0BEFEE6
:10074000244B9A7805F0030302F0EC0213436F0781
:10075000204A05F00F0148BF43F0100304299370AD
:1007600003D1937943F0400393711A4B194A5B7993
:10077000E80603F0EF0348BF43F01003537192798A
:10078000144B02F0EF02A90648BF42F010029A7122
:10079000EA0528D520E000BFB80EFF1F6020FE4309
:1007A000B809FF1FD407FF1F88F00F4084F00F40E7
:1007B00004F10F4008F10F4044F00F4010F10F40DA
:1007C000E51C000030D300003CD3000074AE0000F4
:1007D000001C4E0E00A006405A781978D2B241F0A3
:1007E000200119705A704FF4FA6007F0F7FE0123E8
:1007F0002370237A042B01D009F026F8C34FDFF8C9
:100800002C93DFF82CA3B046237A042B00F0B2819E
:10081000002598F81730012B3BD0BD4B1A783B7858
:10082000D2B2DBB29A4238BF4032D31A003318BF7B
:100830000123002B3CD098F81730012B00F04781A2
:10084000B34B1A783B78DBB29A4200F04B8301330A
:100850003F2B86BF00221346DAB2234493F82C6064
:100860003A7006F07F06E36EB3F57A7F80F244813A
:100870009AF87030002B00F0F780019B1E4496F828
:10088000F03B002BC5D08AF8705098F81730012B38
:10089000C3D1A04B1A68A04B9B88002AC6D01188F0
:1008A00052888A1A1344003318BF0123002BC2D187
:1008B00094F86C34002B4FD198F81830974A012BDC
:1008C00007D0537D964A52F8333093F80032002B0C
:1008D00042D1944B1B68002B3EDD4FF0000B8F4D37
:1008E0005E4616E007F07EFDD4F870340133B3F5B0
:1008F0007A7F4FF0FF30C4F87034A8BFCAF8706434
:100900000AF030F9874B1B68002B4FF0010B40F3C6
:100910002F85D4F87034234493F8740498F8173072
:10092000012B00F07F0000F04E8298F81730012B69
:1009300000F0598294F8743094F87520DBB2D2B28A
:1009400093422CBF3F3202F1FF32D31A002BC9DC95
:10095000BBF1000F40F00C85734B1B68002BC8BF28
:10096000002511DC1AE0DAF85C380133632B4FF014
:10097000FF30CAF85C38C8BFCAF85C580AF0FEF805
:10098000694B1B68002B09DDD4F85C3804EB83034A
:10099000D3F8600808F0C2FF0028E4D1237A012BC5
:1009A00000F007835D4E4AF6C77BE36E002B40F3F1
:1009B000CA80D9F800305B4500F3C580DAF8F03919
:1009C000534493F88450DAF8F0390133B3F57A7F61
:1009D000CAF8F039A4BF0023CAF8F039E36E013B2E
:1009E000E366E36E322BEDB20BDC9AF8733043B161
:1009F00098F82130022B00F0B581337E032B00F0F4
:100A0000D6810D2D04D000230A2D84F8F53902D0AB
:100A1000002384F8F439226952F83530013B0F2B5A
:100A2000C3D801A151F823F0B50C0000070C000059
:100A3000C10C00008D0C0000610C00002B0C0000AC
:100A4000AB0900005B0D0000030D00000F0D00005E
:100A5000FF0B0000F70B0000310C0000DB0C000066
:100A6000FF0B0000F70B000098F81B30DBB2012BE6
:100A700046D094F87130002B5CD00D2E8AF871505E
:100A80003FF4C7AEE26E40F2ED239A420CDD9AF8D5
:100A900073304BB998F82120204B022A00F056827F
:100AA0001A7E032A00F07A82D4F88030234483F837
:100AB0008460D4F880300133B3F57A7FC4F8803095
:100AC000A8BFCAF88050E36E0133E366A1E6114B7C
:100AD0001868002800F0F18143880288C1180133AA
:100AE00093420E7A80F089814380E36EB3F57A7F7A
:100AF00006F07F06FFF6BCAE022009F083FAD7E6C7
:100B00001B2EB6D18AF8703083E600BF7AA500208C
:100B100079A5002088A500208CA50020D407FF1F00
:100B2000DC29010094A5002098A500209CA50020A8
:100B3000B80EFF1F9AF87220002AA3D00A2E8AF856
:100B400072309FD165E62378022B00F0B1822378C2
:100B5000032B00F06C822378042B0BD19AF8F63922
:100B6000002B40F01B87DAF8FC39CAF80C3001235F
:100B70008AF80030B14BB14A1B78002B7FF444AEA9
:100B8000AF49137009783B78AE4B1B78AE4B1B789E
:100B9000AE4B1B78AE4B1B78AE4B1B78AE4B1B7825
:100BA000AE4B1B78AE4B1B78AE4B1B78AE4B1B7815
:100BB000EFF30583002B7FF427AEEFF3108272B6BC
:100BC000AA4B18681D46002800F0E286A84BA84EE4
:100BD0001B78002B40F0DC864169296001253570C7
:100BE00001B18B6102B962B60025836845779847E9
:100BF0009F4B1D7008E6002384F86C34D3E6012374
:100C000084F86C34CFE6A37D019AE260002B40F0BB
:100C10004981E37D002B40F09980237E2BB99548D4
:100C200008F07CFE01238AF8183001236376BAE6C7
:100C300098F81F30012B00F0DC80F37F022B00F0CE
:100C40005B81F37F032B04D094F8F539002B40F03F
:100C5000D080894808F062FE002384F8F539A2E6C6
:100C6000A37D864AE260002B40F0E180E37D002B0B
:100C700040F0D680237E002BD7D0814808F04EFE6E
:100C800000238AF81830012363768CE6A37D7D4A21
:100C9000E260002B40F0BD8098F81D50EDB2012DB0
:100CA000E8D1E37D002BE5D1774808F037FE8AF8DC
:100CB0001750DFE702EBC505686808F02FFE72E603
:100CC000A37D724AE260002BE6D1A2F1180008F081
:100CD00025FE01238AF81630DEE798F81F30012B35
:100CE00000F0E780F37F022B00F0FE80F37F032B00
:100CF00000F0FE80012384F8F539002384F8F439EC
:100D000051E60222012388F81E2063764BE6019B00
:100D1000E3605F4B0025012084F8F65984F8F75909
:100D200084F8F8591D6084F8735084F86C5409F005
:100D300077F8A37D002B3FF46CAF564808F0EEFD2A
:100D40008AF81650E37D002B3FF467AF4E4808F059
:100D5000E5FD00238AF817305FE7012388F81E308D
:100D6000637620E69AF81500F37D012BC0B200F0FF
:100D7000C7809AF874309AF87520DBB2D2B29342E9
:100D80002CBF3F3202F1FF32D31A002B0ADD07F0ED
:100D900029FB98F81730DBB2012B00F0BC80002350
:100DA00084F8733098F81830032B7FF42AAE337D23
:100DB000394ADBB2012152F83320002382F8801037
:100DC00084F873301DE62B7F022B1DD02B7F032B65
:100DD0007FF4ABAD019B184498F8173090F8F00CF5
:100DE000012B7FF4A7AD06F0B5FC01283FF47CADE4
:100DF000AEE52A4808F092FD2EE706F0B7FD284B35
:100E000006F07F061D602EE5019B184490F8700CDB
:100E10008BE5204808F082FD00238AF816303BE776
:100E2000194808F07BFD00238AF8173022E719489B
:100E300008F074FD00238AF8163017E7681BFF1FBF
:100E400079A5002008A5002009A50020191AFF1F78
:100E50001A1AFF1FA919FF1FAA19FF1F3919FF1F0F
:100E60003A19FF1FC818FF1FC918FF1F7CA50020D3
:100E700080A50020DCB9000040D20000D8CA0000E4
:100E800064C3000070C30000F0BB0000FCBB0000A6
:100E900030A70020E4BB0000DC290100200901008C
:100EA00088A50020744808F039FD00238AF8163020
:100EB000AFE6724808F032FD1FE7A37E93B172B629
:100EC000DAF8240040B16E4B02889B884168CAF86A
:100ED00024109B1A6A4A938062B66A4B18600028F5
:100EE0007FF4FAAD7F26BEE494F8F439002BE0D00D
:100EF000654808F013FD00E7012384F8F439ABE6F8
:100F000006F028FC01287FF44DAF98F81730DBB2CB
:100F1000012B7FF444AFA27E002A3FF440AFDAF801
:100F200078208AF87630002A00F0F6850023518870
:100F30008AF87C3010461180049304F057FC049B1F
:100F4000CAF87830002384F8763028E79AF814003D
:100F5000DB7D012BC0B200F09E859AF874309AF8C0
:100F60007520DBB2D2B293422CBF3F3202F1FF3286
:100F7000D31A002B0CDD07F035FA98F817B05FFA9A
:100F80008BFBBBF1010F00F09385012384F87330D4
:100F900098F818203D4B032A7FF486AD1B7D3C4A10
:100FA000DBB252F83320012382F8003184F8733029
:100FB0007AE59AF81930002B3FF4F4AC354B1B68F6
:100FC000002B3FF7D7ADD9F80030002B3FF7D2AD5B
:100FD000314B1B68012B7FF4CDAD304B1B680C2BC4
:100FE0003FF6C8AD2E4B1B680C2B3FF6C3AD98F8EF
:100FF0001730012B00F082859AF874309AF875202A
:10100000DBB2D2B293422CBF3F3202F1FF32D31A8D
:10101000002B7FF7AFAD682007F0E4F998F8175080
:10102000EDB2012D00F08E8500236376BAE49AF8C4
:10103000F639002B00F0668200238AF8003008F0B1
:10104000A1F8012007F00EFC164A20231360029B32
:101050001B6813F0FF0F08BF134A4FF0807314BFD3
:10106000D367136009F0D2FD01231048237007F005
:1010700009FB08F0E9FB6EE5E4BB00004CD2000080
:101080008CA5002088A5002020090100D407FF1F9F
:10109000DC29010098A50020581BFF1F5C1BFF1FC7
:1010A000601BFF1F88F00F4008F10F409CD5000027
:1010B0009AF8F639002B40F096849AF81630002BF7
:1010C00040F0D884E37D002B40F0CF84237E002BBA
:1010D00040F0C684C04808F021FCBF4808F01EFC60
:1010E000BE4807F0CFFABC4808F018FCBA4808F030
:1010F00015FC09F079FA732800F0F280642800F0FA
:101100003181652800F03181632840F05181B24877
:1011100008F004FCB24808F001FCB14808F0FEFBFE
:10112000B04808F0FBFBB04808F0F8FBAF4808F007
:10113000F5FBAF4808F0F2FBAE4808F0EFFBAE4815
:1011400008F0ECFBAD4808F0E9FBAD4808F0E6FB21
:10115000AC4808F0E3FBAC4808F0E0FBAB4808F013
:10116000DDFBAB4808F0DAFBAA4808F0D7FBAA4839
:1011700008F0D4FBA94808F0D1FBA94808F0CEFB41
:10118000A84808F0CBFBA84808F0C8FBA74808F01F
:10119000C5FBA74808F0C2FBA64808F0BFFBA6485D
:1011A00008F0BCFBA54808F0B9FBA54808F0B6FB61
:1011B000A44808F0B3FBA44808F0B0FB884808F046
:1011C000ADFBA24808F0AAFBA14808F0A7FBA14884
:1011D00008F0A4FBA04808F0A1FBA04808F09EFB83
:1011E0009F4808F09BFB9F4808F098FB9E4808F03A
:1011F00095FB9E4808F092FB9D4808F08FFB7848CD
:1012000008F08CFB9B4808F089FB9B4808F086FBA4
:101210009A4808F083FB9A4808F080FB994808F048
:101220007DFB994808F07AFB984808F077FB9848CE
:1012300008F074FB974808F071FB974808F06EFBC4
:10124000674808F06BFB954808F068FB944808F085
:1012500065FB944808F062FB934808F05FFB9348F5
:1012600008F05CFB924808F059FB924808F056FBE6
:10127000914808F053FB914808F050FB904808F063
:101280004DFB904808F04AFB554808F047FB8E4854
:1012900008F044FB524808F041FB8C4808F03EFB44
:1012A0008B4808F03BFB8B4808F038FB8A4808F075
:1012B00035FB4B4808F032FB884808F02FFB4848C4
:1012C00008F02CFB864808F029FB434808F026FB71
:1012D000414808F023FB09F087F973287FF40EAF2B
:1012E0003D4898F81650DFF818B27E4E08F016FB0D
:1012F00098F820107C4809F08BF888F820009BF8BB
:1013000000107A4809F084F88BF8000098F816105D
:10131000774809F07DF888F8160098F81E1075488F
:1013200009F076F888F81E0098F81D10724809F048
:101330006FF80346284888F81D3008F0EFFA6F4828
:10134000EDB204F089F9002840F04982224808F003
:10135000E5FA98F816309D423FF4CBAE012008F034
:101360005FFDC6E605F038F8C3E604F041FDC0E6CF
:1013700098F81750EDB2012D7FF4EEAAA37E002B52
:101380003FF4EAAADAF878608AF87650002E00F086
:10139000D083002573888AF87C503046338004F06F
:1013A00025FACAF87850002384F87630FFF7D4BACB
:1013B000A37D002B40F06B83E37D002B40F0638323
:1013C000237E002B40F05B83D4F8FC39E3600123DB
:1013D0002370FFF7BCBB00BF20090100CCD5000083
:1013E00058FC0000D0020100C4020100B802010054
:1013F000AC020100A0020100940201008802010079
:101400007C02010070020100640201005802010028
:101410004C020100400201003402010028020100D8
:101420001C020100E4080100100201000402010096
:10143000F8010100EC010100F0080100E0010100E9
:10144000D4010100C8010100BC01010058D2000014
:10145000780301006C0301006003010054030100E4
:10146000480301003C0301000809010030030100AA
:101470001409010064D2000070D200007CD2000088
:1014800088D2000094D20000A0D20000ACD20000AC
:10149000B8D20000C4D20000D0D20000080401007D
:1014A000D8030100CC030100B40301009C03010038
:1014B000C003010084030100000301009003010048
:1014C000A8030100DC020100DCD20000E8D2000029
:1014D000F4D2000000D300000CD3000018D30000A9
:1014E00024D30000D407FF1FF8D5000008D6000061
:1014F00018D600002CD600003CD6000048D60000CC
:10150000B409FF1FC14808F009FAC04808F006FAFC
:10151000BF4807F0B7F8BD4808F000FABB4808F02C
:10152000FDF909F061F8732800F04981642800F0A2
:101530004981652800F04981632840F04981B3481A
:1015400008F0ECF9B34808F0E9F9B24808F0E6F918
:10155000B14808F0E3F9B14808F0E0F9B04808F004
:10156000DDF9B04808F0DAF9AF4808F0D7F9AF482C
:1015700008F0D4F9AE4808F0D1F9AE4808F0CEF939
:10158000AD4808F0CBF9AD4808F0C8F9AC4808F010
:10159000C5F9AC4808F0C2F9AB4808F0BFF9AB4850
:1015A00008F0BCF9AA4808F0B9F9AA4808F0B6F959
:1015B000A94808F0B3F9A94808F0B0F9A84808F01C
:1015C000ADF9A84808F0AAF9A74808F0A7F9A74874
:1015D00008F0A4F9A64808F0A1F9A64808F09EF979
:1015E000A54808F09BF9A54808F098F9894808F043
:1015F00095F9A34808F092F9A24808F08FF9A2489B
:1016000008F08CF9A14808F089F9A14808F086F99A
:10161000A04808F083F9A04808F080F99F4808F036
:101620007DF99F4808F07AF99E4808F077F99E48BE
:1016300008F074F99D4808F071F99D4808F06EF9BA
:101640009C4808F06BF99C4808F068F99B4808F042
:1016500065F99B4808F062F99A4808F05FF99A48E2
:1016600008F05CF9994808F059F9994808F056F9DA
:10167000984808F053F9984808F050F9974808F04E
:101680004DF9974808F04AF9964808F047F95F483D
:1016900008F044F95F4808F041F95E4808F03EF967
:1016A000914808F03BF9914808F038F9904808F063
:1016B00035F9904808F032F98F4808F02FF98F4833
:1016C00008F02CF98E4808F029F98E4808F026F920
:1016D0008D4808F023F98D4808F020F94D4808F0AE
:1016E0001DF98B4808F01AF98A4808F017F98A485A
:1016F00008F014F9894808F011F9894808F00EF942
:10170000884808F00BF9884808F008F9874808F07D
:1017100005F9874808F002F9864808F0FFF886487E
:1017200008F0FCF8854808F0F9F8854808F0F6F864
:10173000844808F0F3F8844808F0F0F8834808F08B
:10174000EDF8834808F0EAF8824808F0E7F88248A4
:1017500008F0E4F8814808F0E1F8814808F0DEF884
:101760002C4808F0DBF87F4808F0D8F87E4808F0ED
:10177000D5F87E4808F0D2F87D4808F0CFF87D48CB
:1017800008F0CCF87C4808F0C9F87C4808F0C6F8A6
:101790007B4808F0C3F87B4808F0C0F87A4808F0A6
:1017A000BDF87A4808F0BAF8184808F0B7F81748B2
:1017B00008F0B4F808F018FF73287FF4B7AE01F012
:1017C000F5F8AEE604F008FEABE604F011FBA8E67F
:1017D000D4F8FC39E36001232370FFF7BCB996F815
:1017E0002010022004F068FA9BF80010032004F097
:1017F00063FAB17D042004F05FFAB17F0A2004F09F
:101800005BFA717F0B2004F057FA9FE52009010075
:1018100058D6000058FC0000D0020100C4020100AC
:10182000B8020100AC020100A00201009402010014
:10183000880201007C0201007002010064020100C4
:10184000580201004C020100400201003402010074
:10185000280201001C020100E4080100100201003E
:1018600004020100F8010100EC010100F008010090
:10187000E0010100D4010100C8010100BC01010028
:10188000680101005C0101005001010044010100F8
:10189000380101002C0101002001010014010100A8
:1018A00008010100FC000100F0000100E40001005B
:1018B000D8000100CC000100C0000100B40001000C
:1018C000A80001009C0001009000010084000100BC
:1018D000780001006C00010060000100540001006C
:1018E000480001003C000100FC08010078030100F1
:1018F0006C03010060030100540301004803010070
:101900003C03010008090100300301001409010033
:101910002C0401002004010014040100080401004B
:10192000FC030100F0030100E4030100D8030100FF
:10193000CC030100C0030100B4030100A8030100AF
:101940009C030100900301008403010024030100B3
:10195000180301000C03010000030100F402010060
:10196000E8020100DC020100B0010100A401010055
:10197000980101008C010100800101007401010047
:101980003000010024000100180001000C000100DB
:10199000002A7EF439AF62B6FEF736BF00238AF81C
:1019A000003007F0EFFB012006F05CFFC14AC2489F
:1019B00020231360029B1B6813F0FF0F08BFBF4A70
:1019C0004FF0807314BFD36713600123237006F0B8
:1019D00059FE07F039FFBA4BB94A1B78002B7EF449
:1019E00013AFFFF7CDB800238AF8003007F0CAFB29
:1019F000012006F037FFAF4A20231360029B1B68CB
:101A000013F0FF0F08BFAD4A4FF0807314BFD367C8
:101A10001360A37D002B6DD1E37D002B60D1237E6D
:101A2000002B63D10125019988F8175025232375D0
:101A300026220023E160A34803996275216188F89A
:101A40001850A375E3752376637607F067FF9A480D
:101A50002576257006F016FE07F0F6FEFFF777B83C
:101A6000994807F05BFFFFF735BB984807F056FF32
:101A7000FFF72CBB964807F051FFFFF723BB9148B7
:101A800007F04CFFA0E4914807F048FF98E4904825
:101A900007F044FF90E405F05DFE01287FF478AA8A
:101AA00098F817B05FFA8BFBBBF1010F7FF46DAABA
:101AB000A37E002B3FF469AADAF878308AF876B072
:101AC000002B00F091805A888AF87C5018461A80C2
:101AD00003F08CFECAF8785084F87650FFF755BAB8
:101AE0007A4807F01BFF237E002B9BD0764807F037
:101AF00015FF97E7764807F011FF8DE7682005F09E
:101B000029FE01283FF48AAA6D4B6D4A1B78002BF1
:101B10007EF47AAEFFF734B80493059205F006FF21
:101B2000049B38B3059A8AF87C2003F05FFEFFF728
:101B300009BA05F0FBFE002860D08AF87C6003F04B
:101B400055FE30E4A37E002B3FF46EAADAF87860ED
:101B50008AF8765096B1002573888AF87C50304612
:101B6000338003F043FECAF87850002384F87630BF
:101B7000FFF75ABA8AF87C30FFF7E4B905F0D6FED1
:101B8000002800F093808AF87C6003F02FFEECE7D9
:101B9000504BF77518462521297500F5ED61039125
:101BA0000146019326220023E96000F6683003997C
:101BB0006A7529613776AB75EB752B766B7607F016
:101BC000ADFE2F76FEF7A3BD019303F5ED630393FE
:101BD000FEF79DBD3F4B01931D4609F017F805F533
:101BE000ED630393FEF793BD049305F09FFE48B1A8
:101BF000049B8AF87C3003F0F9FD6DE78AF87C508D
:101C0000FFF7D1BB8AF87CB066E71B680423237218
:101C1000FEF718BD304A314E656017461321029217
:101C20002525122226203B6031707270F1713272CC
:101C300035757075FEF73CBC2949172004F0BEFFCE
:101C400027491C2004F0BAFF2549092004F0B6FFFB
:101C500023490F2004F0B2FF2149272004F0AEFFF2
:101C60001F490A2004F0AAFF1D490B2004F0A6FF1B
:101C70001B490C2004F0A2FF1949232004F09EFF09
:101C80001749032004F09AFF2846154904F096FFEF
:101C900013491A2004F092FF11491B2004F08EFF13
:101CA0000F49162004F08AFFFEF70ABD8AF87C501F
:101CB0005BE700BF88F00F409CD5000008F10F40A3
:101CC000681BFF1FDCB9000064C30000F0BB00000C
:101CD000E4BB000074AE0000B809FF1FD407FF1F6B
:101CE00051AA0000AD4B1B78002B00F01B812DE9A1
:101CF000F04FAB4BAB4A1B6889B00793079B13604F
:101D00004FF44873013BFDD1A74BA849D3F800B06D
:101D1000D1F800A01A68D3F80090D1F80080D3F869
:101D200000C0D3F800E01F681E680868A04C01924C
:101D3000054608680290086809681A68039205F465
:101D4000805522680492019A0195029D00F480401A
:101D500005F4005502950590049D03980BF0040BC3
:101D60000AF4803A02F0080209F0010908F4003888
:101D70000CF0100C0EF0400E07F0800706F4807691
:101D800001F4004100F002003DB91B685D0702D577
:101D900009B0BDE8F08F0E232360BBF1000F40F0C7
:101DA0008480BAF1000F00F0838023680E2B00F0CE
:101DB00007817F4B1B68012B00F00281002A00F095
:101DC000B280B9F1000F00F04981B8F1000F00F0C6
:101DD0008481BCF1000F00F0D381BEF1000F00F050
:101DE0000382002F00F06082002E00F01E83019B12
:101DF000002B00F06F83029B002B00F0D583059B26
:101E0000002B00F0B982002940F0C282002800F0C7
:101E10006F842268664B0C2A03D01B680D2B40F0A0
:101E2000BA822268624B0C2AB2D10D251D6007F0E0
:101E3000C7FF284607F084FC5E4C5A4BD4F80421B7
:101E40001B689A4203D84121022006F0BBFC554B87
:101E5000D4F808211B689A4203D842210E2006F0CC
:101E6000B1FC504BD4F814211B689A4203D8452189
:101E7000142006F0A7FC4B4BD4F81C111A684D48EF
:101E8000914285D84C4A1268120640F154844B4A5C
:101E900092F8471000293FF47BAF002182F84710E9
:101EA0001B680F33C0F81C3172E7BAF1000F85D1FF
:101EB000002A38D023683E4A012B03D01368022B36
:101EC0007FF47FAF23683A4A012B7FF461AF02258C
:101ED000156007F075FF284607F032FC354C314B92
:101EE000A2681B689A4240F27A822E4B62691B6894
:101EF0009A4240F270822B4BE2691B689A4240F290
:101F00006582284B226A1B689A4240F25B82254B0D
:101F1000626A1B689A423FF63BAF0921052006F032
:101F200051FC35E77047B9F1000F00F09780236846
:101F30001F4A022B03D01368032B7FF446AF23689C
:101F40001B4A022B7FF424AF0325156007F038FFEE
:101F5000284607F0F5FB174C124BA26A1B689A4201
:101F600040F250820F4BE26A1B689A4240F246826E
:101F70000C4B226B1B689A4240F23B82094B626B0E
:101F80001B689A4240F23082064BA26B1B689A4251
:101F90003FF6FEAE0E2004F0E5FDF9E6B80EFF1F99
:101FA000641BFF1FF0A5002090F00F4010F00F40C1
:101FB000581BFF1FF4A50020D0F00F40A0A5002063
:101FC0002368A74A0E2B7FF4E3AE0124146007F0C8
:101FD000F7FE204607F0B4FBA24BA34C1870A34BAE
:101FE00022681B689A4273D9A04B62681B689A42A8
:101FF00069D99F4B9F4918689F4A0860116821B1B1
:102000009A4909681068091A1960984909681160A5
:102010001B68974A092B40F296801368192B7FF6AC
:10202000B7AE964B1B78012B7FF4B2AE944B1B7866
:10203000012B7FF4ADAE9349934A0B68934801336B
:102040000B60936801339360036813F0FF0F40F057
:1020500092808F4B4FF080721A6099E6B8F1000FB2
:102060003BD023687E4A032B03D01368042B7FF4F4
:10207000B0AE23687A4A032B7FF48AAE042515603C
:1020800007F09EFE284607F05BFB774C774BE26B30
:102090001B689A4240F2C481744B226C1B689A42BE
:1020A00040F2B981714BA26C1B689A4240F2AF8139
:1020B0006E4BA26D1B689A423FF66AAE1621052050
:1020C00007F04EFE64E601210E2006F031FB90E79A
:1020D0000021022006F02CFB86E7BCF1000F4FD058
:1020E00023685F4A042B03D01368052B7FF475AE79
:1020F00023685B4A042B7FF44BAE0524146007F081
:102100005FFE204607F01CFB564A574B5070574A5B
:10211000D86D116888423FF63BAE5E495E4809685B
:1021200011F0010FC17D40F01B8200297FF430AE19
:102130000121C1751268594D594855329E24DA65FE
:102140002970046024E64D4B1B78012B7FF420AEF0
:102150004B4B1B78012B7FF41BAE4A494A4A0B6854
:102160004A4801330B60536801335360036813F02E
:10217000FF0F3FF46EAF4B4B4FF080721A6007E6D3
:10218000BEF1000F30D02368354A052B03D0136809
:10219000062B7FF426AE2368314A052B7FF4F8AD79
:1021A0000625156007F00CFE284607F0C9FA2E4CEC
:1021B0002E4B226E1B689A4240F23C822B4B626E81
:1021C0001B689A4240F23282284BA26E1B689A42E8
:1021D00040F23582254BE26E1B689A423FF6D8AD3D
:1021E0001B2004F0BFFCD3E5002F5DD023681C4A00
:1021F000062B03D01368072B7FF4F6AD2368184A2B
:10220000062B7FF4C5AD0725156007F0D9FD2846DC
:1022100007F096FA144C154B226F1B689A4203D8AC
:102220001C210E2007F09CFD104B626F1B689A4228
:1022300002D81D2008F0C2FC0C4BA26F1B689A420A
:1022400003D81E21062007F08BFD084BE26F1B68A8
:102250009A423FF69DAD1F2004F084FC98E500BF34
:10226000581BFF1FB818FF1FF4A50020F0A5002081
:102270005C1BFF1F601BFF1FAC1DFF1FB80EFF1F65
:10228000B409FF1F201BFF1F401BFF1FBC0EFF1FB9
:1022900008F10F40D0F00F40A0A50020B018FF1F9C
:1022A00030A7002004F10F40002E00F0BE8022680D
:1022B000B54B072A03D01B68082B7FF498AD236821
:1022C000B14A072B7FF464AD0825156007F078FD4F
:1022D000284607F035FAAD4CAD4BD4F880201B688A
:1022E0009A4203D82021022007F03AFDA84BD4F8E7
:1022F00084201B689A4203D821210E2007F030FD6C
:10230000A34BD4F888201B689A4203D822210720C7
:1023100007F026FD9E4BD4F88C201B689A4202D809
:10232000232008F04BFC9A4BD4F890201B689A426B
:1023300003D82421062007F013FD954BD4F89420F0
:102340001B689A4203D82521142007F009FD904B01
:10235000D4F898201B689A4202D8262004F002FC88
:102360008B4BD4F89C201B689A423FF611AD272175
:10237000052007F0F5FC0BE500293FF447AD226886
:10238000814B0B2A00F060811B680C2B00F05C81F4
:10239000002800F0AD81BBF1000F40F0B481BAF12C
:1023A000000F00F0B0817B4C2378002B00F0AB8154
:1023B00007F006FD2278784B53F83230012283F87B
:1023C0008020E5E4082004F0CDFBA0E507211420DF
:1023D00007F0C6FC95E5052008F0F0FB8BE52946E3
:1023E000284606F0EFF980E50D21142007F0B8FC2F
:1023F000CAE50C21062007F0B3FCBFE50B2008F06E
:10240000DDFBB5E50A210E2007F0AAFCAAE51220A3
:1024100008F0D4FB4CE610210E2007F0A1FC41E6A9
:102420000F21022006F0CEF936E6019B002B51D099
:102430002268554B082A03D01B68092B7FF4DBACBC
:102440002268514B082A7FF4A3AC09251D6007F0D0
:10245000B7FC284607F074F94C4C4D4BD4F8A0203B
:102460001B689A4240F26E82494BD4F8A4201B6844
:102470009A4240F26282464BD4F8A8201B689A42E6
:1024800040F25682424BD4F8AC201B689A4240F28C
:102490004B823F4BD4F8B0201B689A4240F26582D1
:1024A0003B4BD4F8B4201B689A4240F25982384B17
:1024B000D4F8B8201B689A4240F24982344BD4F8D1
:1024C000BC201B689A423FF663AC2F21052007F021
:1024D00047FC5DE4029B002B66D022682A4B092A48
:1024E00003D01B680A2B7FF48AAC2268264B092A8A
:1024F0007FF44EAC0A251D6007F062FC284607F009
:102500001FF9224C224BD4F8C0201B689A4240F29B
:102510003F821F4BD4F8C4201B689A4240F233829A
:102520001B4BD4F8C8201B689A4240F22882184BF3
:10253000D4F8CC201B689A4240F21C82144BD4F889
:10254000D0201B689A4240F20682114BD4F8D42066
:102550001B689A423FF61CAC352004F003FB17E4DD
:1025600000293FF415AC0021C17512680B4D0C4CCD
:102570000C480F32DA65297023788B4214BF4F2341
:102580000B46036004E400BF581BFF1FF4A50020A6
:10259000F0A50020B818FF1FDC290100B018FF1FAC
:1025A000AE18FF1F30A70020059B002B3FF4E4AEC0
:1025B0002268BC4B0A2A03D01B680B2B7FF423AC88
:1025C0002268B84B0A2A7FF4E3AB0B251D6007F0A5
:1025D000F7FB284607F0B4F8B34CB44BD4F8D82036
:1025E0001B689A4203D836210E2007F0B9FBAF4B87
:1025F000D4F8DC201B689A4202D8372008F0DEFAB3
:10260000AA4BD4F8E0201B689A4203D83821062050
:1026100007F0A6FBA54BD4F8E4201B689A423FF6CE
:10262000B7AB392004F09EFAFFF7B2BB192008F0CF
:10263000C5FAC9E518210E2007F092FBBEE51A2164
:10264000062007F08DFBC5E52268964B0B2A7FF428
:102650009FAB0C251D6007F0B3FB284607F070F810
:10266000914C924BD4F8E8201B689A4203D83A2147
:10267000022007F075FB8D4BD4F8EC201B689A42C2
:1026800003D83B21072007F06BFB884BD4F8F020E0
:102690001B689A4202D83C2008F090FA834BD4F889
:1026A000F4201B689A4203D83D21062007F058FB0E
:1026B0007E4BD4F8F8201B689A4203D83E211420A0
:1026C00007F04EFB794BD4F8FC201B689A4202D8E5
:1026D0003F2004F047FA754BD4F800211B689A425A
:1026E0003FF656AB4021052007F03AFBFFF750BB01
:1026F000BBF1000F3FF453AE22686A4B0D2A38D06D
:102700001B680E2B35D0B8F1000F40F08B80BCF168
:10271000000F00F08780664C6378002B00F0828009
:1027200007F04EFB6278634B53F83230012283F896
:102730008020FFF72DBB604A92F84710002940F037
:10274000D580012182F8471019685C4C9631C0F899
:102750001C111B6803F5FA73C4F81C31937D002B20
:1027600040F09780564B1868473006F0FBFDFFF7A6
:102770000FBB22684B4B0D2A7FF40AAB0E251D6060
:1027800007F01EFB284606F0DBFF474C474BD4F80A
:1027900020211B689A4203D84821022007F0E0FA62
:1027A000424BD4F824111B683F4D404A994228D926
:1027B0003E4BD4F828211B689A4203D84A210720AF
:1027C00007F0CEFA394BD4F82C211B689A4202D874
:1027D0004B2008F0F3F9354BD4F830211B689A42AE
:1027E00003D84C21142007F0BBFA304BD4F8342125
:1027F0001B689A423FF6CCAA4D2004F0B3F9FFF7CC
:10280000C7BA304B1B689B0727D52B4B93F8491051
:102810000029CDD0002183F8491013680F33C5F883
:102820002431C5E707F0CCFA274B1B78012B7FF446
:10283000AFAA264B1B78012B7FF4AAAA2449254A6C
:102840000B68254801330B60D3680133D3600368FC
:1028500013F0FF0F3FF4FDAB8DE4174890F84930BB
:10286000002BA5D1012180F8491010681B4A553072
:10287000C5F82401107800284AD11948194B117065
:1028800001701A780E4B002A14BF9E224F221A6044
:102890008EE74FF0FF331448C4F81C3105F00AFFEF
:1028A000FFF776BA581BFF1FF4A50020F0A5002003
:1028B000B818FF1FDC290100A0A50020701CFF1F15
:1028C00030A70020D0F00F40B80EFF1FB409FF1F43
:1028D000201BFF1F401BFF1FBC0EFF1FAF18FF1F59
:1028E000AE18FF1FB018FF1FE4D400002B4AD2F827
:1028F0001C01196888423FF64BAA1B6828496433BB
:10290000C2F81C310868473006F02CFDFFF740BACA
:1029100024482549137003700A78214B002A14BFFC
:102920009E2200221A6043E72B2008F047F9B0E509
:102930002A21072007F014FAA4E529210E2007F028
:102940000FFA98E52821022007F00AFA8CE52E20DC
:1029500004F008F9B2E53421142007F001FAF4E597
:102960002D21142007F0FCF9A1E52C21062007F009
:10297000F7F995E53321062007F0F2F9DEE532207C
:1029800008F01CF9D3E53121072007F0E9F9C7E584
:1029900030210E2007F0E4F9BBE500BF701CFF1FDB
:1029A00030A70020AE18FF1FB018FF1F2DE9F04F11
:1029B0009C4B9D481E789D4B1D789D4B1C789D4BD4
:1029C00019789D4B1A789D4B1B788FB0D2B2C9B243
:1029D000DBB2E4B2F6B2EDB206920494059107932D
:1029E0000396029506F09AFF954B9648197807F0E2
:1029F0000FFD934B1870944B9448197807F008FD1D
:102A0000914B1870874B9248197807F001FD854B60
:102A10001870864B8F481B78DBB21C469B4606F02D
:102A20007DFF8C4806F07AFF8B4805F02BFE012CC9
:102A30000CBF8A488A4805F025FE804B1B783F2B47
:102A40000CDDDFF84C92D9F800303F2B06DC8148D2
:102A500006F064FFD9F800303F2BF8DD814CDFF839
:102A600034A2DFF83492804E804D2368002B41D190
:102A700072B6DAF80030D9F80070326862B65001E8
:102A800002D5322B88BF0137C3F5EA33BF334FF489
:102A90007A72A5FB031302FB07F707EB93174FF0BE
:102AA0000A0872B6DAF80010D9F80020D6F800E06B
:102AB00062B6C1F5EA33BF33A5FB03031EF0806F96
:102AC000C7EB93134FF47A7002D0322988BF0132DA
:102AD00000FB0233B3F57A7F05D3B8F10108C4D007
:102AE00007F57A77DDE7624B1B78002BD9D107F029
:102AF0005BFFD6E75F4B5F4A1B685F495948CF5C75
:102B000013680133632B1360FFB2C8BF00234FF07B
:102B1000FF31C8BF136007F09DFA07F0DF03552BA4
:102B200001F06A83522B01F063830D2F9DD15B4628
:102B3000012B01F06183514805F0A4FD3B4B454852
:102B400083F800B04E4B1B78DBB21D469B4606F067
:102B5000E5FE404806F0E2FE4A4805F093FD012DEF
:102B60000CBF4948494805F08DFD344B1B783F2B7D
:102B70000CDDDFF81C91D9F800303F2B06DC35481E
:102B800006F0CCFED9F800303F2BF8DDDFF804A1C9
:102B9000DFF80491344E354D2368002B7ED172B698
:102BA000DAF80030D9F80070326862B6510102D507
:102BB000322B88BF0137C3F5EA33BF334FF47A7243
:102BC000A5FB031302FB07F707EB93174FF00A0867
:102BD00072B6DAF80010D9F80020D6F800E062B634
:102BE000C1F5EA33BF33A5FB03031EF0806FC7EBCB
:102BF00093134FF47A7002D0322988BF013200FB60
:102C00000233B3F57A7F05D3B8F10108C4D007F5D4
:102C10007A77DDE7164B1B78002BD9D107F0C4FE7D
:102C2000D6E700BFEA07FF1F20090100EB07FF1FDF
:102C3000F007FF1FED07FF1FEE07FF1FF807FF1F3D
:102C4000F407FF1FF8D50000B409FF1F08D60000E5
:102C500018D6000058FC00004CF4000054F40000AA
:102C600064F400008C1AFF1F04ED00E08988888856
:102C7000681BFF1F901AFF1F941AFF1F7CF40000AF
:102C8000650AFF1F84F400008CF400009CF400002F
:102C9000FC07FF1F18E000E0641BFF1FA84BA84AB9
:102CA0001B68A849A848CF5C13680133632B1360E5
:102CB000FFB2C8BF00234FF0FF31C8BF136007F059
:102CC000C9F907F0DF03482B01F08B82462B01F096
:102CD00084820D2F7FF460AF5B46012B01F081826F
:102CE0009A4805F0CFFC9A4B83F800B0994B1B78BB
:102CF000012B00F03282984B98481B78DBB21D46BE
:102D00009B4606F00BFE954806F008FE944805F039
:102D1000B9FC944805F0B6FC934A944B52F8252030
:102D200008921146A3FB0202D2081546099202EB53
:102D30008202A1EB4202084630320BA90F46D2B202
:102D400001924FF020320B9200917A60BA6000211C
:102D50009DF804208DF836208DF83710002D01F0F5
:102D60005282A3FB0512D20802EB8201804AA5EB36
:102D700041010646A2FB0002303152098DF83510A0
:102D800001F0FD83A3FB0201C90801EB8100794931
:102D9000A2EB40023046A1FB0001303289098DF8D8
:102DA000342001F0E883A3FB0102D20802EB820089
:102DB000714AA1EB40013046A2FB00023031520BB8
:102DC0008DF8331001F0D383A3FB0210C00800EB91
:102DD00080006A49A2EB40007209A1FB0221303059
:102DE000C9098DF8320001F0BE83A3FB0102D208AD
:102DF00002EB8200624AA1EB40013046A2FB0002D6
:102E00003031920C8DF8311001F0A983A3FB02013F
:102E1000C90801EB81005B49A2EB40023046A1FBEF
:102E200000013032890D8DF8302001F09483A3FB2E
:102E30000102D20802EB8200534AA1EB4001A2FB3F
:102E400006523031520E8DF82F1001F08083A3FB13
:102E50000213DB0803EB83034C49A2EB4303720A22
:102E60003033A1FB02128DF82E30D30901F06B83B1
:102E700030338DF82D3001203B46184405F002FC1C
:102E8000434805F0FFFB434B1B783F2B0CDDDFF87D
:102E90001491D9F800303F2B06DC304806F03EFD97
:102EA000D9F800303F2BF8DDDFF8FCA0DFF8FC900C
:102EB000394E3A4D2368002B7AD172B6DAF80030D9
:102EC000D9F80070326862B6500102D5322B88BF43
:102ED0000137C3F5EA33BF334FF47A72A5FB03130E
:102EE00002FB07F707EB93174FF00A0872B6DAF800
:102EF0000010D9F80020D6F800E062B6C1F5EA3338
:102F0000BF33A5FB03031EF0806FC7EB93134FF491
:102F10007A7002D0322988BF013200FB0233B3F548
:102F20007A7F05D3B8F10108C4D007F57A77DDE7D9
:102F30001B4B1B78002BD9D107F036FDD6E700BF1D
:102F4000901AFF1F941AFF1F8C1AFF1FB4F4000081
:102F5000650AFF1FEB07FF1FED07FF1F58FC00006E
:102F600018F5000024F50000E8B90000CDCCCCCC69
:102F70001F85EB51D34D62105917B7D1C55A7C0A42
:102F800083DE1B436BCA5F6B893BE655834B0400B2
:102F90003C290100F807FF1F04ED00E089888888BC
:102FA000681BFF1FFC07FF1F18E000E0641BFF1FEA
:102FB0009D4B9D4A1B689D499D48CF5C136801331A
:102FC000632B1360FFB2C8BF00234FF0FF31C8BFAF
:102FD000136007F03FF8312F01F08B82322F01F0A0
:102FE0007882332F00F01887342F01F06282352F5A
:102FF00001F05982372F01F02F82392F01F01C8206
:103000000D2F7FF457AF00984FF020330B934360A0
:10301000836009989DF804308DF8363000228DF8D1
:103020003720002801F03C82824B089D824A0146ED
:10303000A3FB0113DB0803EB83032946A0EB430347
:10304000A2FB0112303352098DF8353001F0258290
:10305000784B7A49A3FB0260C00800EB8000A2EB2A
:1030600040022846A1FB0001303289098DF8342046
:1030700001F01082A3FB0102D20802EB8200704A29
:10308000A1EB40012846A2FB00023031520B8DF823
:10309000331001F0FC81A3FB0210C00800EB80009C
:1030A0006849A2EB40006A09A1FB02213030C9093E
:1030B0008DF8320001F0E881A3FB0102D20802EB97
:1030C0008200614AA1EB40012846A2FB0002303198
:1030D000920C8DF8311001F0D481A3FB0201C908D4
:1030E00001EB81005949A2EB40022846A1FB0001F7
:1030F0003032890D8DF8302001F0C081A3FB010230
:10310000D20802EB8200524AA1EB40012846A2FB02
:1031100000523031520E8DF82F1001F0AC81A3FB1C
:103120000213DB0803EB83034A49A2EB4302430A81
:10313000A1FB03133032DB098DF82E2001F09281C0
:1031400030338DF82D300120009B184405F09AFA99
:10315000414806F0E3FB00F064BE404B40481B785A
:10316000DBB21D469B4606F0D9FB3D4806F0D6FB78
:103170003C4805F087FA012D01F05981022D0CBF62
:1031800039483A4805F07EFA394B1B783F2B00F35B
:103190003386DFF8ECA0DFF8EC90364E364D23682E
:1031A000002B71D172B6DAF80030D9F800703268AD
:1031B00062B6520102D5322B88BF0137C3F5EA331C
:1031C000BF334FF47A72A5FB031302FB07F707EB3B
:1031D00093174FF00A0872B6DAF80010D9F80020F9
:1031E000D6F800E062B6C1F5EA33BF33A5FB0303AE
:1031F0001EF0806FC7EB93134FF47A7002D0322920
:1032000088BF013200FB0233B3F57A7F05D3B8F1F2
:103210000108C4D007F57A77DDE7184B1B78002B3F
:10322000D9D107F0C1FBD6E7901AFF1F941AFF1FF0
:103230008C1AFF1FCDCCCCCC1F85EB51D34D621027
:103240005917B7D1C55A7C0A83DE1B436BCA5F6B23
:10325000893BE655834B040020090100F007FF1F5E
:1032600058FC0000BCF40000D8F40000ECF40000AE
:10327000F807FF1F04ED00E089888888681BFF1F9E
:1032800018E000E0641BFF1F504B504A1B68504978
:103290005048CF5C13680133632B1360FFB2C8BF83
:1032A00000234FF0FF31C8BF136006F0D3FE07F0D4
:1032B000DF034E2B01F0B4804F2B01F0AA80452B89
:1032C00001F0A3800D2F7FF46AAF5B46012B01F064
:1032D000A7805B46022B01F09C803F4805F0D2F9A5
:1032E0003E4B83F800B00BAB00933D4B3D481B7841
:1032F000DBB21D469B4606F011FB3A4806F00EFB7A
:10330000394805F0BFF9012D0CBF3848384805F0A1
:10331000B9F9384B1B783F2B0CDDDFF8E890D9F872
:1033200000303F2B06DC2F4806F0F8FAD9F80030C1
:103330003F2BF8DDDFF8D0A0DFF8D0902E4E2F4DD8
:103340002368002B64D172B6DAF80030D9F8007027
:10335000326862B6510102D5322B88BF0137C3F5FE
:10336000EA33BF334FF47A72A5FB031302FB07F76E
:1033700007EB93174FF00A0872B6DAF80010D9F885
:103380000020D6F800E062B6C1F5EA33BF33A5FBF2
:1033900003031EF0806FC7EB93134FF47A7002D0D3
:1033A000322988BF013200FB0233B3F57A7F05D39F
:1033B000B8F10108C4D007F57A77DDE7104B1B7828
:1033C000002BD9D107F0F0FAD6E700BF901AFF1F03
:1033D000941AFF1F8C1AFF1F10F50000F007FF1F43
:1033E000F507FF1F58FC0000DCF60000ECF60000BB
:1033F00000F70000F807FF1F04ED00E089888888C7
:10340000681BFF1FFC07FF1F18E000E0641BFF1F85
:10341000814B814A1B6881498148CF5C1368013325
:10342000632B1360FFB2C8BF00234FF0FF31C8BF4A
:10343000136006F00FFE07F0DF034E2B00F0D5847B
:10344000582B00F0CE840D2F7FF47AAF5B46012B12
:1034500000F0CB84734805F015F9734B83F800B086
:10346000724B1B78022B00F05A84714B714819780B
:1034700006F0CEFF6E4B18706F4B1B78012B6C4B18
:103480001B7800F04484022B6C4B0CBF6C4A6D4AD5
:103490001A606D4B6D48197806F0BAFF6A4B1870C8
:1034A0006B4B6C48197806F0DDFD694B18706A4B60
:1034B0006A48197806F0D6FD674B1870684B694862
:1034C000197806F0A5FF664B1870674B67481B78A4
:1034D000DBB21D46019306F021FA644806F01EFA9D
:1034E000634805F0CFF8634805F0CCF8624B009FC5
:1034F00083FB050292081046099202EB8202A5EBBB
:1035000042023032D2B21646089200214FF02032E9
:103510000B927A60BA608DF836608DF837100246EB
:10352000002800F05A8483FB02239B0803EB8303EB
:10353000524AA0EB43032946303382FB01128DF837
:103540003530530900F0458430338DF8343008208D
:103550003B46184405F096F8494805F093F8424B6D
:103560001B783F2B0CDDDFF82891D9F800303F2B7A
:1035700006DC3E4806F0D2F9D9F800303F2BF8DDE2
:10358000DFF810A1DFF810913E4E3F4D2368002B6D
:1035900040F0848072B6DAF80030D9F800703268F2
:1035A00062B6520102D5322B88BF0137C3F5EA3328
:1035B000BF334FF47A72A5FB031302FB07F707EB47
:1035C00093174FF00A0872B6DAF80010D9F8002005
:1035D000D6F800E062B6C1F5EA33BF33A5FB0303BA
:1035E0001EF0806FC7EB93134FF47A7002D032292C
:1035F00088BF013200FB0233B3F57A7F05D3B8F1FF
:103600000108C3D007F57A77DDE7204B1B78002B44
:10361000D9D107F0C9F9D6E7901AFF1F941AFF1FF6
:103620008C1AFF1F14F70000F507FF1FEB07FF1FA1
:10363000630AFF1FB0F70000650AFF1FB418FF1FE1
:103640007CE50000E4EC0000660AFF1FC0F7000004
:10365000640AFF1FCCF70000F307FF1FE4F7000028
:10366000EF07FF1FF8F70000F807FF1F58FC0000E6
:1036700010F800001CF80000676666661F85EB51B5
:103680003C29010004ED00E089888888681BFF1F41
:10369000FC07FF1F18E000E0641BFF1FAE4BAE4AA3
:1036A0001B68AE49AE4811F803B013680133632BB1
:1036B00013605FFA8BFBC8BF00234FF0FF31C8BF18
:1036C000136006F0C7FCABF13803012B40F288828F
:1036D000BBF1310F00F08E81BBF10D0F7FF456AFBF
:1036E00000984FF020330B934360836009989DF856
:1036F00020308DF8363000228DF83720002800F079
:103700008186984B984A014683FB01139B0803EB83
:1037100083030199A0EB4303303382FB01128DF840
:103720003530530900F06B8630338DF83430082083
:10373000009B0344184604F0A5FF8C488C4D8D4C2B
:1037400006F0ECF89DF804202A7021788A4806F0EB
:103750005FFE03468548237006F0E0F8874801F0D5
:103760007BFF002852D0864B0220197802F0A4FA81
:10377000844B0320197802F09FFA834B04201978B8
:1037800002F09AFA814B1420197802F095FA804BD6
:103790001520197802F090FA7E4B1620197802F065
:1037A0008BFA7D4B1720197802F086FA7B4B182094
:1037B000197802F081FA7A4B1920197802F07CFA14
:1037C000784B1A20197802F077FA774B2120197874
:1037D00002F072FA754B1B20197802F06DFA744BE7
:1037E0001C20197802F068FA724B1F20197802F039
:1037F00063FA714B2020197802F05EFA29781D20B7
:1038000002F05AFA21781E2002F056FA574806F0C4
:1038100085F85E4B029A1B789A427DD06749684AC8
:1038200000230B701370029B012B27D0654B1B6884
:103830005E0523D5DFF8AC81DFF8ACA1DFF8ACB1D1
:10384000DFF8AC9198F80030002B00F08D8599F8E6
:103850000030002BFBD15C4B5C4A5D4C5D484FF067
:1038600000411960002340F20311D3702160016010
:103870001179D2798AF800308BF80030434B1B78ED
:10388000012B3ED0434B544A1978544B52F8210037
:10389000424A44081178524A2344B3FBF0F052F8EC
:1038A000214004F00BFE494B9A7804F0030302F028
:1038B000EC0213436507454A04F00F0148BF43F08B
:1038C00010030429937000F00D85404B3F4A5B794B
:1038D000E00603F0EF0348BF43F010035371927901
:1038E0003A4B02F0EF02A10648BF42F010029A7173
:1038F000E20506D55A781978D2B241F02001197044
:103900005A70214B039A1B789A421CD0012006F072
:1039100087FA0FB0BDE8F08F1F4B049A1B789A42CC
:103920007FF47CAF1B4B059A1B789A427FF476AFED
:103930001A4B069A1B789A427FF470AF124B039A87
:103940001B789A42E2D10A4B079A1B789A42DDD142
:103950000FB0BDE8F08F00BF901AFF1F941AFF1F31
:103960008C1AFF1F676666661F85EB5120090100F0
:10397000F807FF1F680AFF1F28F8000048D600005C
:10398000F407FF1FB409FF1FEA07FF1FEB07FF1F24
:10399000650AFF1FED07FF1FF007FF1FEE07FF1F60
:1039A000F507FF1FEC07FF1F630AFF1F660AFF1FD3
:1039B000640AFF1FF307FF1FEF07FF1F2B0FFF1FF7
:1039C0002413FF1F3480044080E100E000A0064083
:1039D00040A0044044A00440E8B90000001C4E0E82
:1039E00040BA0000681BFF1F79A500207AA50020BF
:1039F000AC1BFF1FA848DFF8C0A2DFF8C092A74E9B
:103A0000A74D05F08BFF2368002B41D172B6DAF881
:103A10000030D9F80070326862B6510102D5322BFD
:103A200088BF0137C3F5EA33BF334FF47A72A5FB81
:103A3000031302FB07F707EB93174FF00A0872B660
:103A4000DAF80010D9F80020D6F800E062B6C1F527
:103A5000EA33BF33A5FB03031EF0806FC7EB93135C
:103A60004FF47A7002D0322988BF013200FB023352
:103A7000B3F57A7F05D3B8F10108C4D007F57A779A
:103A8000DDE7884B1B78002BD9D106F08DFFD6E7F8
:103A9000854B854A1B688549854811F803B0136832
:103AA0000133632B13605FFA8BFBC8BF00234FF019
:103AB000FF31C8BF136006F0CDFAABF13003DAB2C4
:103AC000062AA0D87B4A009203EB830302EBCB0BC0
:103AD0005B00DBB2DBF80400089303F16405EDB290
:103AE00008B105F01BFFA02D0CBF35233923DFF8EB
:103AF000C8A1DFF8C891694E694D01932368002B76
:103B000041D172B6DAF80030D9F80070326862B686
:103B1000520102D5322B88BF0137C3F5EA33BF33D8
:103B20004FF47A72A5FB031302FB07F707EB931719
:103B30004FF00A0872B6DAF80010D9F80020D6F86B
:103B400000E062B6C1F5EA33BF33A5FB03031EF004
:103B5000806FC7EB93134FF47A7002D0322988BF7D
:103B6000013200FB0233B3F57A7F05D3B8F10108C7
:103B7000C4D007F57A77DDE74A4B1B78002BD9D103
:103B800006F012FFD6E7484B474A1B6847494848AA
:103B900011F803B013680133632B13605FFA8BFBDA
:103BA000C8BF00234FF0FF31C8BF136006F052FAC0
:103BB000BBF12F0FA2D9019B9B459FDC009A0BF014
:103BC0007F0302EBC303089A5868343293445FFAC8
:103BD0008BF3019300283FF4B0AD05F09FFEACE5F8
:103BE000344B009303EBCB03ABF1300B0BEB8B0BA4
:103BF00058684FEA4B0B5FFA8BF3019308B105F05D
:103C00008DFEDFF8B4A0DFF8B490244E244D236875
:103C1000002B55D172B6DAF80030D9F8007032684E
:103C200062B6500102D5322B88BF0137C3F5EA33A3
:103C3000BF334FF47A72A5FB031302FB07F707EBC0
:103C400093174FF00A0872B6DAF80010D9F800207E
:103C5000D6F800E062B6C1F5EA33BF33A5FB030333
:103C60001EF0806FC7EB93134FF47A7002D03229A5
:103C700088BF013200FB0233B3F57A7F05D3B8F178
:103C80000108C4D007F57A77DDE7064B1B78002BD7
:103C9000D9D106F089FED6E77803010004ED00E0F3
:103CA00089888888681BFF1F901AFF1F941AFF1FBE
:103CB0008C1AFF1F58F8000018E000E0641BFF1F7B
:103CC000AE4BAE4A1B68AE49AE4811F803B013685C
:103CD0000133632B13605FFA8BFBC8BF00234FF0E7
:103CE000FF31C8BF136006F0B5F9ABF13003DBB2AA
:103CF000092B8CD8009A02EBCB0B019ADBF804005D
:103D00001A44D3B2019300287FF467AF15E5022B64
:103D10009D4B0CBF9D4A9E4A1A60FFF7BABB9D4E51
:103D20009D48357805F0FAFD9B4805F0F7FDEDB2AA
:103D30009A4804F0A7FC012D00F0C982022D0CBFA7
:103D40009748984804F09EFC974B1B783F2B32DC39
:103D5000DFF8289202E00A2004F040FC2368002BE0
:103D6000F9D0864B864A1B68D75C844B834A1B6814
:103D70000133632BFFB2136002DD0023C9F800306A
:103D80004FF0FF317F4806F065F907F0DF034E2B57
:103D900000F09682522B00F080820D2FDED1012D93
:103DA00000F08E82022D0CBF8048814804F06AFC2E
:103DB0003570FFF75ABBDFF82C92D9F800303F2B53
:103DC000C6DC754805F0AAFDD9F800303F2BF8DDB8
:103DD000BEE709203B46FFF7BCBB0A203B46FFF786
:103DE000B8BB02239B46FFF735BB724804F04AFC80
:103DF00001239B46FFF731BBDFF8E891D9F800308B
:103E00003F2B3FF7C6A9644805F088FDD9F800307C
:103E10003F2BF8DDFFF7BDB9674804F033FC0F23F3
:103E20009B46664B5C4883F800B0654B1B78DBB261
:103E30001D469B4605F072FD574805F06FFD614831
:103E400004F020FC012D00F0BE81022D00F0218243
:103E5000032D00F01A82042D00F01382052D00F0CE
:103E60000C82062D00F0F981072D0CBF56485748EB
:103E700004F008FC4C4B1B783F2B0CDDDFF8649101
:103E8000D9F800303F2B06DC434805F047FDD9F850
:103E900000303F2BF8DDDFF850A1DFF850914C4E99
:103EA0004C4D2368002B41D172B6DAF80030D9F8B6
:103EB0000070326862B6510102D5322B88BF0137DB
:103EC000C3F5EA33BF334FF47A72A5FB031302FB49
:103ED00007F707EB93174FF00A0872B6DAF80010ED
:103EE000D9F80020D6F800E062B6C1F5EA33BF3356
:103EF000A5FB03031EF0806FC7EB93134FF47A709A
:103F000002D0322988BF013200FB0233B3F57A7F39
:103F100005D3B8F10108C4D007F57A77DDE72E4B59
:103F20001B78002BD9D106F03FFDD6E7134B134A7F
:103F30001B6813491348CF5C13680133632B13606C
:103F4000FFB2C8BF00234FF0FF31C8BF136006F0B7
:103F500081F8372F00F0C980382F49D00D2FA0D11C
:103F60001E4B53F82B0004F08DFB1D4805F0D6FCCA
:103F7000134B83F800B0FFF7B8B900BF901AFF1FCA
:103F8000941AFF1F8C1AFF1FB418FF1FACD6000035
:103F900014DE0000EC07FF1F58FC000020F70000B3
:103FA0004CF7000068F70000F807FF1F98F70000C3
:103FB000A4F7000000F500005CF50000ED07FF1F0E
:103FC000EE07FF1F8CF5000080F60000A8F6000049
:103FD00004ED00E089888888681BFF1F88D60000F0
:103FE00020090100FC07FF1F18E000E0641BFF1F11
:103FF000BF48DFF86CA3DFF86C93BE4EBE4D05F0F2
:104000008DFC2368002B41D172B6DAF80030D9F864
:104010000070326862B6500102D5322B88BF01377A
:10402000C3F5EA33BF334FF47A72A5FB031302FBE7
:1040300007F707EB93174FF00A0872B6DAF800108B
:10404000D9F80020D6F800E062B6C1F5EA33BF33F4
:10405000A5FB03031EF0806FC7EB93134FF47A7038
:1040600002D0322988BF013200FB0233B3F57A7FD8
:1040700005D3B8F10108C4D007F57A77DDE79F4B87
:104080001B78002BD9D106F08FFCD6E79C4B9C49BE
:104090001B689C4A9C48D35C0A680132632ADFB2E1
:1040A0000B46C8BF00230A60C8BF0B604FF0FF314A
:1040B00005F0D0FF07F0DF034E2B00F0BE804F2B42
:1040C00000F0A580452B9CD1904805F027FC02E02C
:1040D000322800F0AC8001F017FE3128F8D18C486E
:1040E00004F0D0FA05239B4642E78A48DFF870A225
:1040F000DFF870927F4E804D05F010FC2368002B96
:1041000041D172B6DAF80030D9F80070326862B680
:10411000520102D5322B88BF0137C3F5EA33BF33D2
:104120004FF47A72A5FB031302FB07F707EB931713
:104130004FF00A0872B6DAF80010D9F80020D6F865
:1041400000E062B6C1F5EA33BF33A5FB03031EF0FE
:10415000806FC7EB93134FF47A7002D0322988BF77
:10416000013200FB0233B3F57A7F05D3B8F10108C1
:10417000C4D007F57A77DDE7604B1B78002BD9D1E7
:1041800006F012FCD6E75E4B5D491B685D4A5E484F
:10419000D35C0A680132632ADFB20B46C8BF002332
:1041A0000A60C8BF0B604FF0FF3105F053FF07F006
:1041B000DF034F2B0BD0452BA0D1574804F062FAF8
:1041C00002239B46D4E6554804F05CFA52E6544874
:1041D00004F058FA01239B46CAE602239B46FEF7E9
:1041E0007FBD504804F04EFA01239B46FEF77BBD8D
:1041F00002239B46FEF79FBC4B4804F043FA012381
:104200009B46FEF79BBC0A203B46FEF736BE47485E
:1042100005F084FB01E0322829D001F075FD31283A
:10422000F9D13B4804F02EFA04239B46A0E640480F
:1042300004F028FA08239B469AE63E4805F06EFBF8
:1042400001E032280DD001F05FFD3128F9D130486E
:1042500004F018FA03239B468AE6374804F012FA62
:1042600008E6334804F00EFA06239B4680E6304801
:1042700004F008FA07239B467AE6304804F002FA75
:10428000F8E52F4804F0FEF9F4E52E4804F0FAF9B9
:10429000F0E52D4804F0F6F9ECE52C4804F0F2F9CD
:1042A00001E0522817D001F02FFD00F0DF00532865
:1042B000F7D12748022504F0E5F93570FFF7D5B8A6
:1042C0002448012504F0DEF93570FFF7CEB8224806
:1042D00004F0D8F938E52148032504F0D3F9357006
:1042E000FFF7C3B8937943F040039371FFF7EDBA3A
:1042F0003003010004ED00E089888888681BFF1FF7
:10430000901AFF1F941AFF1F8C1AFF1F380101001B
:10431000D8F6000008090100D4F6000090F500006E
:10432000D0F60000ACF4000074F40000C0000100FE
:1043300080F40000CC00010058F6000030F60000C8
:1043400008F60000E0F50000B8F5000084F7000072
:1043500088F7000000F5000030F7000090F700003B
:1043600018E000E0641BFF1F874F884E884D894C82
:10437000894899F80020DFF880E202F0FF01002A66
:1043800036D09AF800309BF80030844B1B78844B71
:104390001B78844B1B78844B1B783B7833782B78C5
:1043A000237803789EF80030EFF305820123002A7A
:1043B000DFD188F80020EFF3108272B67B4E3068B0
:1043C00010B17B4C25782DB1002A7FF43BAA62B650
:1043D000FFF738BA41692370316001B18D6102B9CC
:1043E00062B600254577836898472570FFF72ABA9B
:1043F000002B3FF430AA88F80010FFF72CBA0920F0
:10440000FFF796B90A20FFF793B903239B46FEF7FF
:1044100064BF684804F036F902239B46FEF760BF8C
:10442000654804F02FF901239B46FEF759BF634806
:1044300004F028F9FEF7A8BE614805F06FFA01E024
:10444000362812D001F060FC3228F9D15D4804F022
:1044500019F915239B46E4E45B4804F013F9112392
:104460009B46DEE40220FEF76FBE584804F00AF9CE
:104470000D239B46D5E40320FEF766BE0420FEF71D
:1044800063BE0520FEF760BE0620FEF75DBE072076
:10449000FEF75ABE0820FEF757BE0920FEF754BEAD
:1044A0000A20FEF751BE4A4804F0ECF810239B4660
:1044B000B7E4484805F032FA01E0382831D001F07D
:1044C00023FC3628F9D1444804F0DCF814239B4639
:1044D000A7E4424805F022FA01E034281BD001F09D
:1044E00013FC3328F9D13E4804F0CCF813239B4643
:1044F00097E43C4805F012FA03E038281DD039282B
:1045000015D001F001FC3128F7D1374804F0BAF892
:1045100012239B4685E4354804F0B4F80B239B46F0
:104520007FE4334804F0AEF80C239B4679E431482D
:1045300004F0A8F80E239B4673E42D4804F0A2F87B
:104540000A239B466DE402203B46FEF796BC0320FF
:104550003B46FEF792BC04203B46FEF78EBC05208E
:104560003B46FEF78ABC06203B46FEF786BC07208A
:104570003B46FEF782BC08203B46FEF77EBC092086
:104580003B46FEF77ABC00BFA919FF1FAA19FF1FFF
:104590003919FF1F3A19FF1FC818FF1F08A500206F
:1045A00009A50020191AFF1F1A1AFF1F7CA5002059
:1045B00080A5002008F5000000F50000C4F400000C
:1045C000140901007CF5000074F5000084F500007A
:1045D0006CF500005403010064F500006C03010059
:1045E0004CF500007803010034F5000054F500009C
:1045F0003CF5000044F50000C918FF1F5B4A2DE997
:10460000F0415B4D13682C6801331360002C31D0EE
:104610002368002B2CD198462E46022703E03468ED
:1046200044B3236823BBA3680BB1C3F80C80206993
:104630002B60036884F814801B6822460021984789
:104640006368002BEBD030682360002800F0838083
:1046500001688B4245D2CB1AA060C4F80C8034604C
:104660000360C4602046277504462368002BDAD017
:10467000013B2360EFF3108372B6002268686A6022
:1046800003B962B600286BD04FF000082E68C4460C
:104690004FF0020E0EE0CB1A8660C0F80CC0014647
:1046A0003360F0604FF0010880F814E00E463846A1
:1046B000002F37D08768002E39D0036831688B42CD
:1046C000E9D3344603E011688B4214461BD3A26839
:1046D0005B1A0360002AF6D18260C4603146A06094
:1046E000E2E7864603E011688B42964625D3DEF862
:1046F00008205B1A2360002AF5D1A260C4F80CE000
:10470000CEF80840AFE7D268C2608460E060C2685B
:10471000CB1A314690600E46236080F814E038468C
:10472000002FC7D1B8F1000F1CD1BDE8F081866021
:10473000C66001464FF00108B6E7D268E260C4F8EF
:1047400008E0CEF80C40E268CB1A9460CEF8003056
:104750002775044665E7A060E0603460204682E784
:10476000BDE8F0812960BDE8F08100BF641BFF1F38
:10477000BC18FF1F38B5EFF3108272B60A4CA06860
:1047800078B100254369A36003B19D6102B962B6A7
:10479000457783689847EFF3108272B6A0680028C7
:1047A000F0D102B962B638BDBC18FF1F10B4224B5D
:1047B0001A7992060ED5214AD979137B507B0133A1
:1047C0003F2BC8BF00238342C9B203D0D018DBB24D
:1047D000017413731849CB78DBB21C060ED459064A
:1047E00009D5154B1A79520605D5144900202C22FB
:1047F00081F87C00DA705DF8044B70470A79100686
:10480000EDD50E4A92F8504092F85100C0B2844261
:104810000ED0411C272986BF00200146C8B2114492
:10482000054C91F85410C9B2E17182F85100D6E7F5
:104830006C22CA70D3E700BF00B00E40BC18FF1F47
:1048400010B4244B1A79920612D5234AD97992F8DA
:104850007D3092F87E0001333F2BC8BF0023834296
:10486000C9B205D0D018DBB280F8801082F87D3054
:104870001849CB78DBB21C060ED4590609D5154B66
:104880001A79520605D5144900202C2281F8EC0033
:10489000DA705DF8044B70470A791006EDD50E4AC0
:1048A00092F8C04092F8C100C0B284420ED0411CC0
:1048B000272986BF00200146C8B21144054C91F853
:1048C000C410C9B2E17182F8C100D6E76C22CA7087
:1048D000D3E700BF00A00E40BC18FF1F10B4244B4C
:1048E0001A79920612D5234AD97992F8ED3092F8C6
:1048F000EE0001333F2BC8BF00238342C9B205D06D
:10490000D018DBB280F8F01082F8ED301849CB787F
:10491000DBB21C060ED4590609D5154B1A7952067E
:1049200005D5144900202C2281F85C01DA705DF86D
:10493000044B70470A791006EDD50E4A92F83041C3
:1049400092F83101C0B284420ED0411C272986BFA3
:1049500000200146C8B21144054C91F83411C9B287
:10496000E17182F83101D6E76C22CA70D3E700BF4B
:1049700000D00640BC18FF1F10B4244B1A799206D1
:1049800012D5234AD97992F85D3192F85E0101334C
:104990003F2BC8BF00238342C9B205D0D018DBB279
:1049A00080F8601182F85D311849CB78DBB21C06C3
:1049B0000ED4590609D5154B1A79520605D5144956
:1049C00000202C2281F8CC01DA705DF8044B70478E
:1049D0000A791006EDD50E4A92F8A04192F8A1018D
:1049E000C0B284420ED0411C272986BF0020014658
:1049F000C8B21144054C91F8A411C9B2E17182F812
:104A0000A101D6E76C22CA70D3E700BF00C0064000
:104A1000BC18FF1F2DE9F04FB94BB94C1A78012192
:104A20002170B84900238B60B74B1B6887B0D2B2A6
:104A300013F0FF0F0546019200F04481B34B4FF095
:104A400080721A600A24284604F068FF013CFAD1FB
:104A5000AF4FB04EDFF80093DFF800A33A68336839
:104A60009A423ED072B6AC4DAC4B1B682C68D9F85C
:104A7000002062B6520102D5322B88BF0134C3F543
:104A8000EA33BF334FF47A72AAFB031302FB04F438
:104A9000DFF88882DFF8C8B204EB93144FF47A7021
:104AA000A64672B6D8F800102A68D9F8004062B657
:104AB000C1F5EA33BF33AAFB03C36401CEEB931302
:104AC00002D5322988BF013200FB0233B3F57A7F69
:104AD000C4D29BF80030002BE3D1744605F064FF8C
:104AE000DCE78F4B1B68012BBCD18E4B1B680C2B5A
:104AF000B8D88D4B1B680C2BB4D84FF4FA6003F078
:104B00006DFD804B894D9C6884EAE472A2EBE472EF
:104B100085FB0230D317C3EBA00000EB8001002718
:104B2000A2EB41014FF020363031B8420596039692
:104B30008DF8161004968DF8177040F3DE8085FB13
:104B40000016C117C1EBA60101EB81067849A0EB65
:104B5000460081FB02613030D3EB61118DF8150006
:104B600000F0C98085FB0106C817C0EBA60000EB6A
:104B700080067048A1EB460180FB02603031D3EB28
:104B8000A0108DF8141000F0B48085FB0016C1173A
:104B9000C1EBA60101EB81066749A0EB460081FB52
:104BA00002613030D3EB21318DF8130000F09F808B
:104BB00085FB0106C817C0EBA60000EB80065F4826
:104BC000A1EB460180FB02603031D3EB60308DF801
:104BD000121000F08A8085FB0015C117C1EBA505F6
:104BE000574905EB8505A0EB450081FB02513030AC
:104BF000D3EBA1418DF8110075D04C48514D80FB8D
:104C00000167CE17C6EBA70606EB8606A1EB4601A9
:104C100085FB02653031D3EBA5558DF8101060D0BF
:104C200080FB0516E917C1EBA60101EB8106464999
:104C3000A5EB460581FB02613035D3EB61618DF850
:104C40000F504CD080FB0156CD17C5EBA6053F4E4B
:104C500005EB8505A1EB450186FB02523031D3EB14
:104C600022738DF80E1038D080FB0320DA17C2EBC8
:104C7000A00202EB8202A3EB420330338DF80D3029
:104C80000023002C23DB05A803F0FCFC304804F0D3
:104C900045FE4FF4FA6003F0A1FC194A9DF8041098
:104CA0001170184A00239360174B1B6813F0FF0F15
:104CB00014BF164B274B4FF0807220461A6007B086
:104CC000BDE8F08F234B4FF080721A60BAE606AA57
:104CD00013442D2203F80C2CD5E70123D1E702233E
:104CE000CFE70323CDE70423CBE70523C9E706235A
:104CF000C7E70723C5E70823C3E70923C1E700BFC8
:104D0000B409FF1F401BFF1FB809FF1F04F10F402C
:104D1000501BFF1F541BFF1F641BFF1F18E000E008
:104D2000581BFF1F5C1BFF1F601BFF1F676666662B
:104D30001F85EB51D34D6210AD8BDB6889B5F8143C
:104D400083DE1B436BCA5F6B893BE655A12FB844DA
:104D50002009010008F10F4004ED00E089888888EF
:104D6000681BFF1F2DE9F047804607C986B08DE814
:104D70000700AE4804F0D2FD019B002BC0F20A816F
:104D80006846FFF747FE09286C4640F3F080002490
:104D900025460126A64F08F1FF3818F8012F02F02A
:104DA0007F0307EBC3033AB15B681846002BF4D0CE
:104DB00004F0B4FD0028F0D1DFF8A0829C4F18F871
:104DC000012B02F07F0307EBC3033AB15B6818467F
:104DD000002BF4D004F0A2FD0028F0D1954FE3178A
:104DE00087FB0421C3EBA10101EB8102A4EB42028A
:104DF0004FF0203E30320020CDF814E0CDF80CE02A
:104E00008DF81620CDF810E08DF81700002900F07D
:104E1000038187FB012ECA17C2EBAE0202EB820EA2
:104E2000854AA1EB4E0182FB04E23031D3EB6212E2
:104E30008DF8151000F0ED8087FB021ED117C1EB35
:104E4000AE0101EB810E7D49A2EB4E0281FB04E134
:104E50003032D3EBA1118DF8142000F0D78087FBFE
:104E6000012ECA17C2EBAE0202EB820E744AA1EB0E
:104E70004E0182FB04E23031D3EB22328DF8131065
:104E800000F0C18087FB021ED117C1EBAE0101EB20
:104E9000810E6C49A2EB4E0281FB04E13032D3EB70
:104EA00061318DF8122000F0AB8087FB012ECA170C
:104EB000C2EBAE0202EB820E634AA1EB4E0182FB13
:104EC00004E23031D3EBA2428DF8111000F095804E
:104ED00087FB021ED117C1EBAE0101EB810E5B49CE
:104EE000A2EB4E0281FB04E13032D3EBA1518DF8ED
:104EF00010207FD087FB012ECA17C2EBAE0202EB57
:104F0000820E534AA1EB4E0182FB04E23031D3EB17
:104F100062628DF80F106AD087FB0217D117C1EBC0
:104F2000A7074C4907EB8707A2EB470281FB041454
:104F30003032D3EB24738DF80E2055D030338DF8FA
:104F40000D300123002D29DB013003AB184403F0A1
:104F500099FB16B1404803F095FB344804F0DEFCA1
:104F60004FF4FA6003F03AFB06B0BDE8F087002882
:104F70004FF0000519DD019B03F51C53103320464B
:104F800001350193FFF746FD78B1142DF3D12C467E
:104F90000126FFE6002426462546FBE606AA024433
:104FA0002D21981E02F80C1CCEE7A5F1140A42F23E
:104FB0000F7900E03D46019E002E05F1FF37A6F572
:104FC0001C532DDD4E45CCBF103B002320460193E2
:104FD000FFF720FD18BB5745ECD187EAE774A4EB37
:104FE000E7743D460126D5E601200223AAE7022008
:104FF0000323A7E703200423A4E704200523A1E754
:10500000052006239EE7062007239BE707200823A9
:1050100098E70820092395E709200A2392E70196DB
:1050200085EAE574A4EBE5740026B3E620090100E7
:1050300058F80000676666661F85EB51D34D621015
:10504000AD8BDB6889B5F81483DE1B436BCA5F6BDD
:10505000893BE655A12FB8446404010070F40000B8
:105060002DE9F047804607C986B08DE80700AE48B5
:1050700004F054FC019B002BC0F20A81684602F048
:1050800067F909286C4640F3F08000242546012684
:10509000A64F08F1FF3818F8012F02F07F0307EB45
:1050A000C3033AB15B681846002BF4D004F036FC19
:1050B0000028F0D1DFF8A0829C4F18F8012B02F0F5
:1050C0007F0307EBC3033AB15B681846002BF4D0AB
:1050D00004F024FC0028F0D1954FE31787FB04214E
:1050E000C3EBA10101EB8102A4EB42024FF0203E91
:1050F00030320020CDF814E0CDF80CE08DF8162009
:10510000CDF810E08DF81700002900F0038187FB2F
:10511000012ECA17C2EBAE0202EB820E854AA1EB4A
:105120004E0182FB04E23031D3EB62128DF8151090
:1051300000F0ED8087FB021ED117C1EBAE0101EB41
:10514000810E7D49A2EB4E0281FB04E13032D3EBAC
:10515000A1118DF8142000F0D78087FB012ECA170B
:10516000C2EBAE0202EB820E744AA1EB4E0182FB4F
:1051700004E23031D3EB22328DF8131000F0C180FD
:1051800087FB021ED117C1EBAE0101EB810E6C490A
:10519000A2EB4E0281FB04E13032D3EB61318DF89A
:1051A000122000F0AB8087FB012ECA17C2EBAE02C3
:1051B00002EB820E634AA1EB4E0182FB04E2303126
:1051C000D3EBA2428DF8111000F0958087FB021EF0
:1051D000D117C1EBAE0101EB810E5B49A2EB4E0290
:1051E00081FB04E13032D3EBA1518DF810207FD048
:1051F00087FB012ECA17C2EBAE0202EB820E534AA6
:10520000A1EB4E0182FB04E23031D3EB62628DF8F8
:105210000F106AD087FB0217D117C1EBA7074C49C3
:1052200007EB8707A2EB470281FB04143032D3EB74
:1052300024738DF80E2055D030338DF80D300123B6
:10524000002D29DB013003AB184403F01BFA16B123
:10525000404803F017FA344804F060FB4FF4FA605A
:1052600003F0BCF906B0BDE8F08700284FF0000558
:1052700019DD019B03F51C531033204601350193C2
:1052800002F066F878B1142DF3D12C460126FFE622
:10529000002426462546FBE606AA02442D21981E38
:1052A00002F80C1CCEE7A5F1140A42F20F7900E0D7
:1052B0003D46019E002E05F1FF37A6F51C532DDD5E
:1052C0004E45CCBF103B00232046019302F040F82E
:1052D00018BB5745ECD187EAE774A4EBE7743D4669
:1052E0000126D5E601200223AAE702200323A7E72F
:1052F00003200423A4E704200523A1E705200623B7
:105300009EE7062007239BE70720082398E708204D
:10531000092395E709200A2392E7019685EAE574B7
:10532000A4EBE5740026B3E62009010058F800005C
:10533000676666661F85EB51D34D6210AD8BDB68E7
:1053400089B5F81483DE1B436BCA5F6B893BE65556
:10535000A12FB8446404010070F400002DE9F04767
:10536000804607C986B08DE80700AE4804F0D6FA3B
:10537000019B002BC0F20A81684601F057FE092804
:105380006C4640F3F080002425460126A64F08F124
:10539000FF3818F8012F02F07F0307EBC3033AB17F
:1053A0005B681846002BF4D004F0B8FA0028F0D15E
:1053B000DFF8A0829C4F18F8012B02F07F0307EB67
:1053C000C3033AB15B681846002BF4D004F0A6FA88
:1053D0000028F0D1954FE31787FB0421C3EBA1010F
:1053E00001EB8102A4EB42024FF0203E303200205C
:1053F000CDF814E0CDF80CE08DF81620CDF810E0D3
:105400008DF81700002900F0038187FB012ECA17D1
:10541000C2EBAE0202EB820E854AA1EB4E0182FB8B
:1054200004E23031D3EB62128DF8151000F0ED80FC
:1054300087FB021ED117C1EBAE0101EB810E7D4946
:10544000A2EB4E0281FB04E13032D3EBA1118DF8C7
:10545000142000F0D78087FB012ECA17C2EBAE02E2
:1054600002EB820E744AA1EB4E0182FB04E2303162
:10547000D3EB22328DF8131000F0C18087FB021E9F
:10548000D117C1EBAE0101EB810E6C49A2EB4E02CC
:1054900081FB04E13032D3EB61318DF8122000F052
:1054A000AB8087FB012ECA17C2EBAE0202EB820E65
:1054B000634AA1EB4E0182FB04E23031D3EBA242FE
:1054C0008DF8111000F0958087FB021ED117C1EBFB
:1054D000AE0101EB810E5B49A2EB4E0281FB04E1C0
:1054E0003032D3EBA1518DF810207FD087FB012EF5
:1054F000CA17C2EBAE0202EB820E534AA1EB4E0179
:1055000082FB04E23031D3EB62628DF80F106AD077
:1055100087FB0217D117C1EBA7074C4907EB870799
:10552000A2EB470281FB04143032D3EB24738DF8D5
:105530000E2055D030338DF80D300123002D29DB9E
:10554000013003AB184403F09DF816B1404803F056
:1055500099F8344804F0E2F94FF4FA6003F03EF8A9
:1055600006B0BDE8F08700284FF0000519DD019B6B
:1055700003F51C53103320460135019301F056FD0D
:1055800078B1142DF3D12C460126FFE600242646DF
:105590002546FBE606AA02442D21981E02F80C1CA3
:1055A000CEE7A5F1140A42F20F7900E03D46019ED4
:1055B000002E05F1FF37A6F51C532DDD4E45CCBF5F
:1055C000103B00232046019301F030FD18BB5745E6
:1055D000ECD187EAE774A4EBE7743D460126D5E6F3
:1055E00001200223AAE702200323A7E703200423C4
:1055F000A4E704200523A1E7052006239EE7062053
:1056000007239BE70720082398E70820092395E74D
:1056100009200A2392E7019685EAE574A4EBE57474
:105620000026B3E62009010058F8000067666666A8
:105630001F85EB51D34D6210AD8BDB6889B5F81433
:1056400083DE1B436BCA5F6B893BE655A12FB844D1
:105650006404010070F400002DE9F84F0446564838
:10566000A0F5806504F05AF905F5806004F056F95C
:10567000013C14F8012F02F07F0305EBC3033AB19C
:105680005B681846002BF4D004F048F90028F0D1EC
:105690004A4C4B4802F0F6FF2378302B08DD636854
:1056A000302B05DC444804F039F96368302BF9DD10
:1056B000444EDFF83091DFF83081434D3746D6F85D
:1056C000D031002B41D172B6D9F80030D8F8004063
:1056D0002A6862B6520102D5322B88BF01343B4999
:1056E000C3F5EA33BF334FF47A72A1FB030302FB25
:1056F00004F48B4604EB93144FF00A0A72B6D9F8FF
:105700000010D8F80020286862B6C1F5EA33BF332C
:10571000ABFB03E34001C4EB93134FF47A7E02D555
:10572000322988BF01320EFB0233B3F57A7F05D3ED
:10573000BAF1010AC3D004F57A74DFE7244B1B7871
:10574000002BDBD105F030F9D8E7D7F8D431214868
:105750003B444FF0FF3193F8D841D7F8D4310133AF
:10576000632BC7F8D431E4B2C4BF0023C7F8D431E7
:1057700004F070FC04F0DF03592B17D04E2B01D03E
:105780000D2C9CD1144C154D14F8012B02F07F0305
:1057900005EBC3033AB15B681846002BF4D004F064
:1057A000BDF80028F0D10020BDE8F88F0C4802F0C9
:1057B00069FF0120BDE8F88F58FC0000F807FF1FC3
:1057C0008C040100BC18FF1F04ED00E08988888864
:1057D000681BFF1F8C1AFF1F9804010058F8000077
:1057E0009C04010018E000E0641BFF1F72B6184A19
:1057F00092F83F32032B1DD8DFE803F0161302198D
:10580000144B052182F83F12018813F0080F14BFD2
:10581000C8228822083042EA014258601A6062B603
:10582000704702210C4BEDE703210A4BEAE7042104
:10583000094BE7E7D2F84C32054933B1D1F85C3275
:105840005860C2F85C0262B67047C1F84C02F8E7D3
:10585000BC18FF1F9000FF1F9800FF1F704700BF7C
:10586000B74BB848B849DFF838C34FF000622DE9AC
:10587000F0411A604FF080521A604FF000521A60E7
:105880004FF080421A604FF000421A60AF4EDFF8CE
:1058900014E3AF4DAF4CB04FDFF80C830022026031
:1058A00028234EF6FF70CCF80000CEF800303360AD
:1058B0000EF5012E0B602B60236005F500253B6083
:1058C00004F50024B3628B6206F5012601F501217F
:1058D00005F6E87504F6E874103610310EF1100E76
:1058E00007F501272B602360CEF8003033600B6092
:1058F0003B609A4FB3618B6109213960A6F50026A0
:1059000007F58057203E083732603860B360FB608F
:1059100046F8041C07F5FD2706F5FE26043607F2B7
:10592000FC773A603060BB60F36047F8041C0837CE
:1059300007F6FC770CF56F3CC6F8FC2F0CF2F93C2F
:105940003860AEF5FC2E2B602360A4F5FC246023A8
:10595000C6F8F81FAEF1140E88F80030083C07F5C1
:10596000005706F54056E1238CF800303921132307
:10597000043605F50055CEF800107948236014353B
:105980003960784933608423026084B02A6019202A
:10599000A3610B6002F022FE72B6734A734B744926
:1059A0001160702280211A701A46197013781B0634
:1059B000FCD5704B1B6862B66F4A704E93429CBF19
:1059C0000A225343A6FB0312D20802EB8201A3EB87
:1059D000410330338DF804301346002A00F0038170
:1059E00001A804460021A6FB0352D20802EB82055F
:1059F000A3EB4503303304F8013F01311346002A7D
:105A0000F1D104AC0C4401AA0A4404F80B3C14780C
:105A1000057800F8014B0133CC1AA34202F8015972
:105A2000F5DB9DF80430002B00F0E080544A9DF82F
:105A300005105380002900F0DF809DF8063091802A
:105A4000002B00F0DB809DF80710D380002900F0C8
:105A5000D7809DF808301181002B00F0D3809DF88D
:105A600009105381002900F0CF809DF80A30918100
:105A7000002B00F0CB809DF80B10D381002900F0A3
:105A8000C7809DF80C301182002B00F0C5809DF876
:105A90000D105382002900F0BD8091821621394BF0
:105AA000394C117000221A605A609A60DA601A61EB
:105AB0005A619A61DA611A625A629A62DA621A6308
:105AC0005A639A63DA631A645A649A64DA641A65E8
:105AD0005A659A65DA651A665A669A66DA661A67C8
