:10000000F8FF02209901000031AA000035A9000084
:1000100035A9000035A9000035A9000035A9000068
:1000200035A9000035A9000035A9000031AA00005B
:1000300031AA000035A9000035460000BD4400008B
:1000400031AA000031AA000031AA000031AA000044
:1000500031AA000031AA000031AA000031AA000034
:1000600031AA000031AA000031AA000031AA000024
:1000700031AA000031AA000031AA000031AA000014
:1000800031AA000031AA000031AA000031AA000004
:1000900031AA000031AA000031AA000031AA0000F4
:1000A00031AA000031AA000031AA000031AA0000E4
:1000B00031AA000031AA000031AA0000D175000069
:1000C00031AA0000D548000031AA000039480000DC
:1000D00031AA00009D47000031AA000031AA0000AB
:1000E00031AA000031AA000031AA000031AA0000A4
:1000F00031AA000031AA000031AA000031AA000094
:1001000031AA000031AA000031AA000031AA000083
:1001100031AA00006979000031AA000031AA00006C
:1001200031AA000031AA000031AA000031AA000063
:1001300031AA000031AA000031AA000031AA000053
:1001400031AA000031AA00000147000031AA0000D6
:100150006D46000031AA000031AA000031AA00005B
:1001600031AA000031AA000031AA000031AA000023
:1001700031AA000031AA000031AA000031AA000013
:1001800031AA000031AA000031AA000031AA000003
:1001900031AA000031AA000008B55D4B4CF2205294
:1001A0001A804DF628121A8000BF00BF102223F8D3
:1001B0000E2CA3F51F43DE3B4FF030621A60554A08
:1001C0009A60554ADA60554B4FF470021A60544AEF
:1001D000136813F4807304D152490B604FF4A85391
:1001E0001360514B1A78100703D51A7842F00802B1
:1001F0001A704E4B4E492A221A704E4A4E4B8B4271
:1002000004D252F8040F43F8040BF8E74B4B4C4967
:1002100000228B4202D243F8042BFAE749494A4AAA
:10022000002352F8230041F823000133662BF8D154
:10023000464B474A802103F8011B9342FBD1454BB3
:10024000404A1A60444B8A221A70A3F58053242234
:100250005A70A0221A709A799107FCD59A79D20621
:10026000FCD43E4A937903F00C03082B3B4BF9D1A5
:1002700003221A7146225A719A799406FCD5374A9C
:100280009179364B4806FBD5354A4FF082711160A3
:100290000921516020221A709A7902F00C020C2A6E
:1002A000FAD1304B304A1A60304B314A1A60002480
:1002B00007225C6043F8042C2E4AC3F80C2D62B66A
:1002C00006F006F8174B1A68D1070AD52A4A2B49B7
:1002D0001C60146042F8041C10221A60284A294944
:1002E0001160294A127852060ED52549254A086818
:1002F000904209D12048214C00221A60026040F847
:10030000044C102018600A600AF032FC00F0AEF8CD
:100310000E200540823F04000100002B88ED00E024
:1003200010D0034014D0034002D0074000E0074043
:100330009C0EFF1FCC2A0100F806FF1F9C0EFF1F1A
:1003400034A700200002FF1F0000000000E400E0CE
:1003500056E400E008ED00E0005006400040064092
:100360004480044004800440C010050014E000E014
:10037000BFD401000000202004D0034053BE085E1B
:100380001CE00340A5C3945A00F00740FFFFFFFFA5
:10039000FFFFFFFFFFFFFFFFFFFFFFFFFFFFFFFF6D
:1003A000FFFFFFFFFFFFFFFFFFFFFFFFFFFFFFFF5D
:1003B000FFFFFFFFFFFFFFFFFFFFFFFFFFFFFFFF4D
:1003C000FFFFFFFFFFFFFFFFFFFFFFFFFFFFFFFF3D
:1003D000FFFFFFFFFFFFFFFFFFFFFFFFFFFFFFFF2D
:1003E000FFFFFFFFFFFFFFFFFFFFFFFFFFFFFFFF1D
:1003F000FFFFFFFFFFFFFFFFFFFFFFFFFFFFFFFF0D
:10040000FFFFFFFFFFFFFFFFFFFFFFFFDEF9FFFF23
:1004100010B5054C237833B9044B13B10448AFF33E
:1004200000800123237010BD9C0EFF1F0000000000
:10043000D02A0100084B10B51BB108490848AFF39A
:1004400000800848036803B910BD074B002BFBD0A0
:10045000BDE81040184700BF00000000A00EFF1FBD
:10046000D02A01009C0EFF1F000000002DE98048EB
:100470000025C94C87B029462120257008F022F8B4
:10048000C64B93F80032DBB2012B01F03984C44B28
:10049000C44E02931F4601216160252226231320AA
:1004A00012213D6032707370F27133723075717564
:1004B0000021172008F006F800211C2008F002F89F
:1004C0000021092007F0FEFF00210F2007F0FAFFAE
:1004D0000021272007F0F6FF00210A2007F0F2FF95
:1004E00000210B2007F0EEFF00210C2007F0EAFFAF
:1004F0000021232007F0E6FF0021032007F0E2FFA0
:100500000021042007F0DEFF00211A2007F0DAFFA7
:1005100000211B2007F0D6FF0021162007F0D2FF94
:100520000021022007F0CEFF00210E2007F0CAFFB5
:100530000021072007F0C6FF0021082007F0C2FFB6
:100540000021062007F0BEFF0021142007F0BAFFAB
:100550000021152007F0B6FF0021052007F0B2FFAB
:100560000121102007F0AEFF1120012107F0AAFFA2
:100570003078C0B23F2802D8012107F0A3FF70787D
:10058000C0B23F2802D8012107F09CFF01211F20A3
:1005900007F098FF0121202007F094FF01211D2082
:1005A00007F090FF01211E2007F08CFF002118208A
:1005B00007F088FF0021222007F084FF01210D2091
:1005C00007F080FF0121212007F07CFF012124207A
:1005D00007F078FF0021084607F074FF0121084664
:1005E00007F070FF307DC0B23F2802D8012107F02C
:1005F00069FF707DC0B23F2802D8002107F062FF7A
:1006000008F08EFE684B694820221A60029B1B6826
:1006100013F0FF0F14BF664B664B4FF080721A60E9
:10062000654A664B4FF400754FF400310560116068
:100630001A68500141F15F831B689B014CBF012385
:100640000223237272B6257AEDB2042D01F01983CC
:100650005B49172004F068FF59491C2004F064FF2F
:100660005749092004F060FF55490F2004F05CFF52
:100670005349272004F058FF51490A2004F054FF41
:100680004F490B2004F050FF4D490C2004F04CFF63
:100690004B49232004F048FF4949032004F044FF5C
:1006A0004749042004F040FF45491A2004F03CFF6C
:1006B00043491B2004F038FF4149162004F034FF61
:1006C00062B608F00DFD002008F07AF8237A042BBA
:1006D00008D0B37D022B05D13A4809F0BDF83A485D
:1006E00009F0BAF8277A2C4DFFB2012F01F0AD8244
:1006F0002B7A022B01F034832B7A032B334B01F03E
:1007000011831A4600932B7A02F5ED630393237A43
:10071000042B68D0F27D234B012A64D0597E009DC2
:100720009A7E2B4B05EB810105EB8202D1F8740B0D
:10073000D2F8CC5B42081344B3FBF0F007F06CFE38
:10074000244B9A7805F0030302F0EC021343690787
:10075000204A05F00F0148BF43F0100304299370AD
:1007600003D1937943F0400393711A4B5B79EA0606
:1007700003F0EF03174A48BF43F010035371927917
:10078000AB0602F0EF02134B48BF42F01002EF0538
:100790009A7128D520E000BFB80EFF1F6020FE43ED
:1007A000BC09FF1FD407FF1F88F00F4084F00F40E3
:1007B00004F10F4008F10F4044F00F4010F10F40DA
:1007C0009D1D000004D2000010D2000048AD0000C2
:1007D000001C4E0E00A006405A781978D2B241F0A3
:1007E000200119705A7009F029FF01232370237A20
:1007F000DFF81C93042B01F0BD82BA4BBA4DDFF831
:1008000014A3DFF8148301930496D9F80030002B69
:1008100035DD72B6B54B1B682A68DAF8000062B69F
:10082000460102D5322B88BF0132C3F5EA33BF330C
:100830004FF47A7BA8FB03130BFB02F2AB4E02EBE7
:10084000931772B631682A68DAF8000062B6C1F50B
:10085000EA33BF33A8FB03E34001C7EB931302D590
:10086000322988BF01320BFB0233B3F57A7FCCD239
:10087000019B1B78002BE4D10AF0DEF8E1E732207F
:10088000049E07F059FE9A4FDFF890A2237A042BBA
:1008900000F0BA810025F37D012B39D0954B1A78F1
:1008A0003B78D2B2DBB29A4238BF4032D31A00331F
:1008B00018BF0123002B3AD0F37D012B00F0638198
:1008C0008C4B1A783B78DBB29A4200F054830133A8
:1008D0003F2B86BF00221346DAB2234493F82C80C4
:1008E0003A7008F07F08E36EB3F57A7F80F2618199
:1008F0009AF87030002B00F01381009B984498F810
:10090000F03B002BC7D08AF87050F37D012BC5D186
:10091000794B1A68794B9B88002AC8D01188528875
:100920008A1A1344003318BF0123002BC4D194F852
:100930006C34002B4CD1337E714A012B07D0537D90
:10094000704A52F8333093F80032002B40D16E4B8E
:100950001B68002B3CDD4FF0000B694DD84616E0BC
:1009600007F0EEFCD4F870340133B3F57A7F4FF022
:10097000FF30C4F87034A8BFCAF8708409F0F8FEDC
:10098000614B1B68002B4FF0010B40F32885D4F816
:100990007034234493F87404F37D012B00F07F003E
:1009A00000F08F82F37D012B00F09A8294F874306E
:1009B00094F87520DBB2D2B293422CBF3F3202F1E1
:1009C000FF32D31A002BCBDCBBF1000F40F00785C0
:1009D0004E4B1B68002BC8BF002511DC1AE0DAF86B
:1009E0005C380133632B4FF0FF30CAF85C38C8BF66
:1009F000CAF85C5809F0CCFE444B1B68002B09DD9B
:100A0000D4F85C3804EB8303D3F8600808F024FFC3
:100A10000028E4D1237A012B00F01283DFF8E08074
:100A20004AF6C77BE36E002B40F3D780D9F800303D
:100A30005B4500F3D280DAF8F039534493F88450E0
:100A4000DAF8F0390133B3F57A7FCAF8F039A4BF88
:100A50000023CAF8F039E36E013BE366E36E322B04
:100A6000EDB20CDC9AF873304BB196F82130022BC2
:100A700000F0F68198F81830032B00F015820D2D48
:100A800004D000230A2D84F8F53902D0002384F81D
:100A9000F439226952F83530013B0F2BC2D801A13D
:100AA00051F823F0C90C00009F0C0000590D000004
:100AB000330D0000070D0000C30C0000250A0000E4
:100AC000A70D00009D0D0000AF0D0000970C000069
:100AD0008F0C0000D50C0000730D0000970C000077
:100AE0008F0C000074A5002070A5002018E000E025
:100AF00019A7002018A7002028A700202CA7002055
:100B0000D407FF1FB028010078A500207CA5002095
:100B100080A5002004ED00E089888888B80EFF1FBA
:100B2000F37EDBB2012B48D094F87130002B4AD011
:100B3000B8F10D0F8AF871503FF4ADAEE26E40F29D
:100B4000ED239A420CDD9AF873304BB996F82120C8
:100B5000AA4B022A00F042821A7E032A00F0658224
:100B6000D4F88030234483F88480D4F88030013373
:100B7000B3F57A7FC4F88030A8BFCAF88050E36E1E
:100B80000133E36687E69E4B1868002800F0DE819B
:100B900043880288C1180133934291F8088080F09D
:100BA000A9814380E36EB3F57A7F08F07F08FFF6F2
:100BB0009FAE022009F064F9B9E6B8F11B0FB3D17A
:100BC0008AF8703067E69AF87220002AB6D0B8F139
:100BD0000A0F8AF87230B1D15DE62378022B00F05B
:100BE000A5822378032B00F058822378042B0BD1A5
:100BF0009AF8F639002B40F00D87DAF8FC39CAF87C
:100C00000C3001238AF80030019B7E4A1B78002BB0
:100C10007FF43CAE7C49137009783B787B4B1B78A2
:100C20007B4B1B787B4B1B787B4B1B787B4B1B7860
:100C30007B4B1B787B4B1B787B4B1B787B4B1B7850
:100C40007B4B1B78EFF30583002B7FF41FAEEFF394
:100C5000108272B6774B18681D46002800F0D486C3
:100C6000754BDFF8D4E11B78002B40F0CD8641694D
:100C7000296001258EF8005001B18B6102B962B67E
:100C800000258368457798476B4B1D70FEE5002370
:100C900084F86C34C4E6012384F86C34C0E6A37D88
:100CA000009AE260002B40F04681E37D002B40F08B
:100CB0009D80237E2BB9614808F0CEFD01238AF880
:100CC000183001236376ABE602EBC505686808F0CF
:100CD000C3FDA5E6F37F012B00F0088198F81F30D3
:100CE000022B00F04B8198F81F30032B04D094F8AE
:100CF000F539002B40F0FA80514808F0ADFD002393
:100D000084F8F5398CE6A37D4E4AE260002B40F072
:100D10000B81E37D002B40F00081237E002BD0D09F
:100D2000494808F099FD00238AF8183001236376BA
:100D300076E6A37D454AE260002B40F0E780757FB0
:100D4000EDB2012DE9D1E37D002BE6D1404808F05A
:100D500083FD8AF81750E0E7A37D3E4AE260002B4E
:100D6000EDD1A2F1180008F077FD01238AF81630C2
:100D7000E5E7F37F012B00F0E58098F81F30022BA8
:100D800000F0008198F81F30032B00F0FF80012352
:100D900084F8F539002384F8F43941E6022201236E
:100DA000B27763763CE60123B377637638E6009B3F
:100DB000E360294B0025012084F8F65984F8F7599F
:100DC00084F8F8591D6084F8735084F86C5408F066
:100DD00065FFA37D002B3FF468AF204808F03CFD81
:100DE0008AF81650E37D002B3FF463AF184808F0F3
:100DF00033FD00238AF817305BE700BFD407FF1FDD
:100E000028A7002074A5002018A70020891AFF1F1A
:100E10008A1AFF1F191AFF1F1A1AFF1FA919FF1F8D
:100E2000AA19FF1F3919FF1F3A19FF1FC818FF1F02
:100E3000C918FF1F1CA7002020A70020B0B8000081
:100E400014D10000ACC9000038C2000044C2000048
:100E5000C4BA0000D0BA000014A70020B8BA00003D
:100E60009AF8150098F81730012BC0B200F0928064
:100E70009AF874309AF87520DBB2D2B293422CBF44
:100E80003F3202F1FF32D31A002B09DD07F058FA86
:100E9000F37DDBB2012B00F08680002384F87330F1
:100EA000337E032B7FF4EBAD98F81430934ADBB21A
:100EB000012152F83320002382F8801084F8733027
:100EC000DDE52B7F022B1CD02B7F032B7FF46AAD3B
:100ED000009B1844F37D90F8F00C012B7FF466AD75
:100EE00006F0E6FB01283FF43DAD6DE5844808F0CF
:100EF000B3FC04E706F0E8FC824B08F07F081D60B5
:100F0000F1E4009B184490F8700C4BE57E4808F023
:100F1000A3FC00238AF8163011E77C4808F09CFCFB
:100F200000238AF81730F8E6774808F095FC00238C
:100F30008AF81630EDE6744808F08EFC00238AF833
:100F40001630B2E6724808F087FC23E7A37E93B11F
:100F500072B6DAF8240040B16E4B018842689B8873
:100F6000CAF824206B4A5B1A938062B6654B1860FE
:100F700000287FF40DAE4FF07F08B4E4012384F81D
:100F8000F439BCE694F8F439002BDBD05C4808F067
:100F900063FCFFE606F08CFB012881D1F37DDBB218
:100FA000012B7FF47AAFA27E002A3FF476AFDAF805
:100FB00078208AF87630002A00F0FF8500235188D7
:100FC0008AF87C3010461180049304F02DFA049BBB
:100FD000CAF87830002384F876305EE79AF8140077
:100FE000DB7D012BC0B200F0AA859AF874309AF824
:100FF0007520DBB2D2B293422CBF3F3202F1FF32F6
:10100000D31A002B0CDD07F09BF996F817B05FFAA6
:101010008BFBBBF1010F00F09F85012384F8733037
:10102000327E3D4B032A7FF49BAD1B7D334ADBB2FE
:1010300052F83320012382F8003184F873308FE5B1
:101040009AF81930002B3FF4E9AC344B1B68002BA5
:101050003FF7DAADD9F80030002B3FF7D5ADF37D7F
:10106000012B00F09C859AF874309AF87520DBB259
:10107000D2B293422CBF3F3202F1FF32D31A002B7F
:101080007FF7C2AD682007F05BF9F57DEDB2012D69
:1010900000F0A08500236376C0E49AF8F639002BAF
:1010A00000F0688200238AF8003008F019F8012067
:1010B00007F086FB1A4A20231360029B1B6813F07B
:1010C000FF0F08BF174A4FF0807314BFD367136038
:1010D00009F006FD01231448237007F081FAD9F8BE
:1010E0000030002B05DD09F0FBFAD9F80030002BA9
:1010F000F9DC322007F020FA77E500BFB0280100C4
:10110000B403010028A70020B8BA0000C4BA000048
:1011100020D100002CA70020D407FF1F7CA50020B1
:1011200088F00F4008F10F4070D400009AF8F639AB
:10113000002B40F09F849AF81630002B40F0E0849A
:10114000E37D002B40F0E384237E002B40F0E68417
:10115000BD4808F081FBBC4808F07EFBBB4807F0A7
:101160003FFAB94808F078FBB74808F075FB09F07A
:101170008BF9732800F0F280642800F02A8165283A
:1011800000F02A81632840F04C81AF4808F064FBEE
:10119000AF4808F061FBAE4808F05EFBAD4808F0D0
:1011A0005BFBAD4808F058FBAC4808F055FBAC4879
:1011B00008F052FBAB4808F04FFBAB4808F04CFB83
:1011C000AA4808F049FBAA4808F046FBA94808F0DD
:1011D00043FBA94808F040FBA84808F03DFBA8489D
:1011E00008F03AFBA74808F037FBA74808F034FBA3
:1011F000A64808F031FBA64808F02EFBA54808F0E9
:101200002BFBA54808F028FBA44808F025FBA448C0
:1012100008F022FBA34808F01FFBA34808F01CFBC2
:10122000A24808F019FBA24808F016FBA14808F0F4
:1012300013FBA14808F010FB854808F00DFB9F4800
:1012400008F00AFB9E4808F007FB9E4808F004FBE4
:101250009D4808F001FB9D4808F0FEFA9C4808F004
:10126000FBFA9C4808F0F8FA9B4808F0F5FA9B480E
:1012700008F0F2FA9A4808F0EFFA754808F0ECFA2C
:10128000984808F0E9FA984808F0E6FA974808F014
:10129000E3FA974808F0E0FA964808F0DDFA964835
:1012A00008F0DAFA954808F0D7FA954808F0D4FA29
:1012B000944808F0D1FA944808F0CEFA644808F04F
:1012C000CBFA924808F0C8FA914808F0C5FA91485C
:1012D00008F0C2FA904808F0BFFA904808F0BCFA4B
:1012E0008F4808F0B9FA8F4808F0B6FA8E4808F02F
:1012F000B3FA8E4808F0B0FA8D4808F0ADFA8D4880
:1013000008F0AAFA524808F0A7FA8B4808F0A4FAA5
:101310004F4808F0A1FA894808F09EFA884808F07A
:101320009BFA884808F098FA874808F095FA4848E8
:1013300008F092FA854808F08FFA454808F08CFAD0
:10134000834808F089FA404808F086FA3E4808F0D9
:1013500083FA09F099F873287FF40EAF3A48B57D07
:10136000DFF808B2DFF8088208F076FA96F8201065
:10137000784808F09DFF86F820009BF8001076481A
:1013800008F096FF8BF80000B17D744808F090FFDC
:10139000B075B17F724808F08BFFB077717F7148EC
:1013A00008F086FF03462848737708F055FA6E4820
:1013B000EDB203F06FFF002840F04982224808F0A8
:1013C0004BFAB37D9D423FF4D2AE012008F066FC9B
:1013D000CDE605F039FDCAE605F042FAC7E6F57D2F
:1013E000EDB2012D7FF4F4AAA37E002B3FF4F0AA06
:1013F000DAF878808AF87650B8F1000F00F00784A8
:101400000025B8F802308AF87C504046A8F8003031
:1014100004F00AF8CAF87850002384F87630FFF711
:10142000D7BAA37D002B40F08683E37D002B40F0EC
:101430007E83237E002B40F07683D4F8FC39E36072
:1014400001232370FFF7CDBBB4030100A0D400003B
:101450002CFB0000A4010100980101008C01010097
:101460008001010074010100680101005C010100BC
:101470005001010044010100380101002C0101006C
:10148000200101001401010008010100FC0001001D
:10149000F000010078030100E4000100D800010021
:1014A000CC000100C000010084030100B400010071
:1014B000A80001009C000100900001002CD1000058
:1014C0004C02010040020100340201002802010028
:1014D0001C020100100201009C0301000402010033
:1014E000A803010038D1000044D1000050D1000011
:1014F0005CD1000068D1000074D1000080D10000F0
:101500008CD1000098D10000A4D10000DC020100C1
:10151000AC020100A002010088020100700201007B
:101520009402010058020100D4010100640201008C
:101530007C020100B0010100B0D10000BCD100006C
:10154000C8D10000D4D10000E0D10000ECD10000EF
:10155000F8D10000CCD40000DCD40000ECD40000B2
:1015600000D5000010D500001CD50000B809FF1FF1
:10157000D407FF1FC34808F06FF9C24808F06CF9A0
:10158000C14807F02DF8BF4808F066F9BD4808F0DB
:1015900063F908F079FF732800F04981642800F0AE
:1015A0004981652800F04981632840F04981B548A8
:1015B00008F052F9B54808F04FF9B44808F04CF972
:1015C000B34808F049F9B34808F046F9B24808F0C2
:1015D00043F9B24808F040F9B14808F03DF9B14884
:1015E00008F03AF9B04808F037F9B04808F034F993
:1015F000AF4808F031F9AF4808F02EF9AE4808F0CE
:101600002BF9AE4808F028F9AD4808F025F9AD48A7
:1016100008F022F9AC4808F01FF9AC4808F01CF9B2
:10162000AB4808F019F9AB4808F016F9AA4808F0D9
:1016300013F9AA4808F010F9A94808F00DF9A948CB
:1016400008F00AF9A84808F007F9A84808F004F9D2
:10165000A74808F001F9A74808F0FEF88B4808F001
:10166000FBF8A54808F0F8F8A44808F0F5F8A448F5
:1016700008F0F2F8A34808F0EFF8A34808F0ECF8F7
:10168000A24808F0E9F8A24808F0E6F8A14808F0F6
:10169000E3F8A14808F0E0F8A04808F0DDF8A04819
:1016A00008F0DAF89F4808F0D7F89F4808F0D4F817
:1016B0009E4808F0D1F89E4808F0CEF89D4808F002
:1016C000CBF89D4808F0C8F89C4808F0C5F89C483D
:1016D00008F0C2F89B4808F0BFF89B4808F0BCF837
:1016E0009A4808F0B9F89A4808F0B6F8994808F00E
:1016F000B3F8994808F0B0F8984808F0ADF8614898
:1017000008F0AAF8614808F0A7F8604808F0A4F8C3
:10171000934808F0A1F8934808F09EF8924808F022
:101720009BF8924808F098F8914808F095F891488D
:1017300008F092F8904808F08FF8904808F08CF87C
:101740008F4808F089F88F4808F086F84F4808F06D
:1017500083F88D4808F080F88C4808F07DF88C48B4
:1017600008F07AF88B4808F077F88B4808F074F89E
:101770008A4808F071F88A4808F06EF8894808F03D
:101780006BF8894808F068F8884808F065F88848D8
:1017900008F062F8874808F05FF8874808F05CF8BE
:1017A000864808F059F8864808F056F8854808F049
:1017B00053F8854808F050F8844808F04DF88448FC
:1017C00008F04AF8834808F047F8834808F044F8DE
:1017D0002E4808F041F8814808F03EF8804808F0AB
:1017E0003BF8804808F038F87F4808F035F87F4823
:1017F00008F032F87E4808F02FF87E4808F02CF800
:101800007D4808F029F87D4808F026F87C4808F063
:1018100023F87C4808F020F81A4808F01DF8194809
:1018200008F01AF808F030FE73287FF4B7AE01F024
:1018300019F9AEE605F008FBABE605F011F8A8E6ED
:10184000D4F8FC39E36001232370FFF7CEB998F890
:101850002010022004F068FF9BF80010032004F021
:1018600063FF98F81610042004F05EFF98F81E102D
:101870000A2004F059FF98F81D100B2004F054FFC3
:101880009CE500BFB40301002CD500002CFB000038
:10189000A4010100980101008C01010080010100F8
:1018A00074010100680101005C01010050010100A8
:1018B00044010100380101002C0101002001010058
:1018C0001401010008010100FC000100F00001000A
:1018D00078030100E4000100D8000100CC00010001
:1018E000C000010084030100B4000100A800010051
:1018F0009C000100900001003C000100300001004C
:1019000024000100180001000C000100000001008B
:10191000F4FF0000E8FF0000DCFF0000D0FF000043
:10192000C4FF0000B8FF0000ACFF0000A0FF0000F3
:1019300094FF000088FF00007CFF000070FF0000A3
:1019400064FF000058FF00004CFF000040FF000053
:1019500034FF000028FF00001CFF000010FF000003
:10196000900301004C02010040020100340201001A
:10197000280201001C020100100201009C0301006A
:1019800004020100A803010000030100F4020100A9
:10199000E8020100DC020100D0020100C4020100E3
:1019A000B8020100AC020100A00201009402010093
:1019B000880201007C020100700201006402010043
:1019C00058020100F8010100EC010100E0010100F2
:1019D000D4010100C8010100BC010100B0010100F7
:1019E00084000100780001006C000100600001002B
:1019F000540001004800010004FF0000F8FE000050
:101A0000ECFE0000E0FE0000002A7EF43FAF62B66C
:101A1000FEF73CBF00238AF8003007F061FB01208D
:101A200006F0CEFEC24AC34820231360029B1B6807
:101A300013F0FF0F08BFC04A4FF0807314BFD36785
:101A400013600123237006F0CBFDD9F80030002B82
:101A500005DD08F045FED9F80030002BF9DC322016
:101A600006F06AFD019BB54A1B78002B7EF40EAF91
:101A7000FFF7D0B800238AF8003007F031FB0120CF
:101A800006F09EFEAA4A20231360029B1B6813F0F7
:101A9000FF0F08BFA84A4FF0807314BFD3671360CD
:101AA000A37D002B77D1E37D002B70D1237E002B0B
:101AB00069D101250099F575252323752622002378
:101AC000E1609F480399627521613576A375E375DE
:101AD0002376637607F0C0FE96482576257006F0DB
:101AE0007FFDD9F80030002B05DD08F0F9FDD9F8AD
:101AF0000030002BF9DC322006F01EFDFFF771B834
:101B0000904807F0A9FEE37D002B3FF41DAB8E4803
:101B100007F0A2FE237E002B3FF41AAB8B4807F0A0
:101B20009BFEFFF715BB864807F096FE85E48648C6
:101B300007F092FE7DE4834807F08EFE75E405F021
:101B4000B7FD01287FF46CAA96F817B05FFA8BFBFB
:101B5000BBF1010F7FF461AAA37E002B3FF45DAAC5
:101B6000DAF878308AF876B0002B59D05A888AF89B
:101B70007C5018461A8003F057FCCAF8785084F855
:101B80007650FFF74ABA714807F066FE91E76E4853
:101B900007F062FE8AE76B4807F05EFE83E7682085
:101BA00005F086FD01283FF470AA019B634A1B786B
:101BB000002B7EF46BAEFFF72DB80493059205F071
:101BC00063FE049BB0B3059A8AF87C2003F02CFCDA
:101BD000FFF700BAA37E002B3FF45CAADAF8788006
:101BE0008AF87650B8F1000F00F0C8800025B8F8E8
:101BF00002308AF87C504046A8F8003003F014FC0C
:101C0000CAF87850002384F87630FFF743BA05F01D
:101C10003BFE98B18AF87C8003F006FCFFF7FCBB22
:101C2000049305F031FE68B1049B8AF87C3003F020
:101C3000FBFBA4E78AF87C30FFF7CCB98AF87C502C
:101C4000FFF7EABB8AF87CB099E7414BF775184675
:101C50002521297500F5ED610391014600932622A7
:101C60000023E96000F6683003996A7529613776C8
:101C7000AB75EB752B766B7607F0EEFD2F76FEF7E6
:101C800046BD3449172003F04FFC32491C2003F0B5
:101C90004BFC3049092003F047FC2E490F2003F08C
:101CA00043FC2C49272003F03FFC2A490A2003F07B
:101CB0003BFC28490B2003F037FC26490C2003F09D
:101CC00033FC2449232003F02FFC2249032003F096
:101CD0002BFC28461F4903F027FC1E491A2003F05D
:101CE00023FC1C491B2003F01FFC1A49162003F09B
:101CF0001BFCFEF7E5BC1B6804232372FEF7A2BCA5
:101D0000154A164E656017461321029225251222A8
:101D100026203B6031707270F171327235757075CA
:101D2000FEF7C6BB009303F5ED630393FEF7EFBC2C
:101D300088F00F4070D4000008F10F4074A5002017
:101D4000B0B80000B8BA0000C4BA000038C2000041
:101D500048AD000021A80000BC09FF1FD407FF1FE9
:101D60000C4B00931D4608F0BBFE05F5ED63039395
:101D7000FEF7CDBC084B0193FEF785BD05F084FD51
:101D800020B18AF87C8003F04FFB3BE78AF87C5057
:101D900038E700BF48AD000074A50020AD4B1B78AC
:101DA000002B00F01B812DE9F04FAB4BAB4A1B68B9
:101DB00089B00793079B13604FF44873013BFDD133
:101DC000A74BA849D3F800B0D1F800A01A68D3F8FF
:101DD0000090D1F80080D3F800C0D3F800E01F686D
:101DE0001E680868A04C01920546086802900868C1
:101DF00009681A68039205F4805522680492019AD2
:101E00000195029D00F4804005F40055029505906F
:101E1000049D03980BF0040B0AF4803A02F00802C8
:101E200009F0010908F400380CF0100C0EF0400E17
:101E300007F0800706F4807601F4004100F002000C
:101E40003DB91B685D0702D509B0BDE8F08F0E23D0
:101E50002360BBF1000F40F08480BAF1000F00F066
:101E6000838023680E2B00F007817F4B1B68012BBA
:101E700000F00281002A00F0B280B9F1000F00F0FA
:101E80004981B8F1000F00F08481BCF1000F00F02F
:101E9000D381BEF1000F00F00382002F00F06082BA
:101EA000002E00F01E83019B002B00F06F83029B2D
:101EB000002B00F0D583059B002B00F0B982002990
:101EC00040F0C282002800F06F842268664B0C2A22
:101ED00003D01B680D2B40F0BA822268624B0C2A9B
:101EE000B2D10D251D6007F01BFA284607F036FC1D
:101EF0005E4C5A4BD4F804211B689A4203D8412106
:101F0000022006F00DFC554BD4F808211B689A42BC
:101F100003D842210E2006F003FC504BD4F81421C4
:101F20001B689A4203D84521142006F0F9FB4B4B5D
:101F3000D4F81C111A684D48914285D84C4A126851
:101F4000120640F154844B4A92F8471000293FF49E
:101F50007BAF002182F847101B680F33C0F81C319B
:101F600072E7BAF1000F85D1002A38D023683E4AC3
:101F7000012B03D01368022B7FF47FAF23683A4A0A
:101F8000012B7FF461AF0225156007F0C9F92846DF
:101F900007F0E4FB354C314BA2681B689A4240F2D3
:101FA0007A822E4B62691B689A4240F270822B4BF8
:101FB000E2691B689A4240F26582284B226A1B68DC
:101FC0009A4240F25B82254B626A1B689A423FF656
:101FD0003BAF0921052006F0A3FB35E77047B9F1B7
:101FE000000F00F0978023681F4A022B03D013686C
:101FF000032B7FF446AF23681B4A022B7FF424AFE8
:102000000325156007F08CF9284607F0A7FB174C4D
:10201000124BA26A1B689A4240F250820F4BE26A4E
:102020001B689A4240F246820C4B226B1B689A4214
:1020300040F23B82094B626B1B689A4240F230824D
:10204000064BA26B1B689A423FF6FEAE0E2003F0D1
:102050003FFAF9E6B80EFF1F70A50020D4A50020B6
:1020600090F00F4010F00F40B4A40020D8A500203D
:10207000D0F00F4084A500202368A74A0E2B7FF4E0
:10208000E3AE0124146007F04BF9204607F066FB2D
:10209000A24BA34C1870A34B22681B689A4273D9B9
:1020A000A04B62681B689A4269D99F4B9F49186888
:1020B0009F4A0860116821B19A4909681068091A95
:1020C00019609849096811601B68974A092B40F20A
:1020D00096801368192B7FF6B7AE964B1B78012BB1
:1020E0007FF4B2AE944B1B78012B7FF4ADAE9349D5
:1020F000934A0B68934801330B60936801339360F4
:10210000036813F0FF0F40F092808F4B4FF0807206
:102110001A6099E6B8F1000F3BD023687E4A032B82
:1021200003D01368042B7FF4B0AE23687A4A032BE4
:102130007FF48AAE0425156007F0F2F8284607F010
:102140000DFB774C774BE26B1B689A4240F2C481DF
:10215000744B226C1B689A4240F2B981714BA26C9D
:102160001B689A4240F2AF816E4BA26D1B689A4287
:102170003FF66AAE1621052007F0A2F864E60121B9
:102180000E2006F083FA90E70021022006F07EFA86
:1021900086E7BCF1000F4FD023685F4A042B03D0C1
:1021A0001368052B7FF475AE23685B4A042B7FF41C
:1021B0004BAE0524146007F0B3F8204607F0CEFAC2
:1021C000564A574B5070574AD86D116888423FF6AF
:1021D0003BAE5E495E48096811F0010FC17D40F0D9
:1021E0001B8200297FF430AE0121C1751268594D60
:1021F000594855329E24DA652970046024E64D4B17
:102200001B78012B7FF420AE4B4B1B78012B7FF406
:102210001BAE4A494A4A0B684A4801330B6053686F
:1022200001335360036813F0FF0F3FF46EAF4B4B65
:102230004FF080721A6007E6BEF1000F30D02368BD
:10224000354A052B03D01368062B7FF426AE23688E
:10225000314A052B7FF4F8AD0625156007F060F8CC
:10226000284607F07BFA2E4C2E4B226E1B689A42B2
:1022700040F23C822B4B626E1B689A4240F23282E3
:10228000284BA26E1B689A4240F23582254BE26EC3
:102290001B689A423FF6D8AD1B2003F019F9D3E52D
:1022A000002F5DD023681C4A062B03D01368072B30
:1022B0007FF4F6AD2368184A062B7FF4C5AD0725D9
:1022C000156007F02DF8284607F048FA144C154B16
:1022D000226F1B689A4203D81C210E2006F0F0FFE3
:1022E000104B626F1B689A4202D81D2008F070FAEA
:1022F0000C4BA26F1B689A4203D81E21062006F0E1
:10230000DFFF084BE26F1B689A423FF69DAD1F202E
:1023100003F0DEF898E500BFB4A40020B818FF1F52
:10232000D8A50020D4A50020B8A40020BCA400207B
:10233000081EFF1FB80EFF1FB809FF1FA81BFF1FB5
:102340008C1BFF1FBC0EFF1F08F10F40D0F00F4089
:1023500084A50020B018FF1F14A7002004F10F402F
:10236000002E00F0BE802268B54B072A03D01B6800
:10237000082B7FF498AD2368B14A072B7FF464AD36
:102380000825156006F0CCFF284607F0E7F9AD4CAC
:10239000AD4BD4F880201B689A4203D8202102203C
:1023A00006F08EFFA84BD4F884201B689A4203D80D
:1023B00021210E2006F084FFA34BD4F888201B684F
:1023C0009A4203D82221072006F07AFF9E4BD4F8C8
:1023D0008C201B689A4202D8232008F0F9F99A4B06
:1023E000D4F890201B689A4203D82421062006F0D6
:1023F00067FF954BD4F894201B689A4203D8252197
:10240000142006F05DFF904BD4F898201B689A4288
:1024100002D8262003F05CF88B4BD4F89C201B6874
:102420009A423FF611AD2721052006F049FF0BE542
:1024300000293FF447AD2268814B0B2A00F06081F0
:102440001B680C2B00F05C81002800F0AD81BBF113
:10245000000F40F0B481BAF1000F00F0B0817B4C66
:102460002378002B00F0AB8106F05AFF2278784BDE
:1024700053F83230012283F88020E5E4082003F08D
:1024800027F8A0E50721142006F01AFF95E505209E
:1024900008F09EF98BE52946284606F041F980E5CB
:1024A0000D21142006F00CFFCAE50C21062006F0D1
:1024B00007FFBFE50B2008F08BF9B5E50A210E20D8
:1024C00006F0FEFEAAE5122008F082F94CE6102183
:1024D0000E2006F0F5FE41E60F21022006F020F95D
:1024E00036E6019B002B51D02268554B082A03D0B9
:1024F0001B68092B7FF4DBAC2268514B082A7FF460
:10250000A3AC09251D6006F00BFF284607F026F94D
:102510004C4C4D4BD4F8A0201B689A4240F26E827E
:10252000494BD4F8A4201B689A4240F26282464B81
:10253000D4F8A8201B689A4240F25682424BD4F845
:10254000AC201B689A4240F24B823F4BD4F8B0203B
:102550001B689A4240F265823B4BD4F8B4201B685A
:102560009A4240F25982384BD4F8B8201B689A42FC
:1025700040F24982344BD4F8BC201B689A423FF6A3
:1025800063AC2F21052006F09BFE5DE4029B002B2F
:1025900066D022682A4B092A03D01B680A2B7FF4D5
:1025A0008AAC2268264B092A7FF44EAC0A251D60AE
:1025B00006F0B6FE284607F0D1F8224C224BD4F89C
:1025C000C0201B689A4240F23F821F4BD4F8C420BF
:1025D0001B689A4240F233821B4BD4F8C8201B6818
:1025E0009A4240F22882184BD4F8CC201B689A42B9
:1025F00040F21C82144BD4F8D0201B689A4240F25F
:102600000682114BD4F8D4201B689A423FF61CACCA
:10261000352002F05DFF17E400293FF415AC0021DE
:10262000C17512680B4D0C4C0C480F32DA652970DD
:1026300023788B4214BF4F230B46036004E400BF92
:10264000B4A40020D8A50020D4A50020B818FF1FEE
:10265000B0280100B018FF1FAE18FF1F14A70020FC
:10266000059B002B3FF4E4AE2268BC4B0A2A03D042
:102670001B680B2B7FF423AC2268B84B0A2A7FF42B
:10268000E3AB0B251D6006F04BFE284607F066F80D
:10269000B34CB44BD4F8D8201B689A4203D83621E7
:1026A0000E2006F00DFEAF4BD4F8DC201B689A42DA
:1026B00002D8372008F08CF8AA4BD4F8E0201B6829
:1026C0009A4203D83821062006F0FAFDA54BD4F82B
:1026D000E4201B689A423FF6B7AB392002F0F8FEBF
:1026E000FFF7B2BB192008F073F8C9E518210E20D6
:1026F00006F0E6FDBEE51A21062006F0E1FDC5E57F
:102700002268964B0B2A7FF49FAB0C251D6006F0C8
:1027100007FE284607F022F8914C924BD4F8E820A7
:102720001B689A4203D83A21022006F0C9FD8D4B5E
:10273000D4F8EC201B689A4203D83B21072006F00E
:10274000BFFD884BD4F8F0201B689A4202D83C2089
:1027500008F03EF8834BD4F8F4201B689A4203D863
:102760003D21062006F0ACFD7E4BD4F8F8201B6816
:102770009A4203D83E21142006F0A2FD794BD4F8EA
:10278000FC201B689A4202D83F2002F0A1FE754B44
:10279000D4F800211B689A423FF656AB4021052031
:1027A00006F08EFDFFF750BBBBF1000F3FF453AEB8
:1027B00022686A4B0D2A38D01B680E2B35D0B8F131
:1027C000000F40F08B80BCF1000F00F08780664C5A
:1027D0006378002B00F0828006F0A2FD6278634BE4
:1027E00053F83230012283F88020FFF72DBB604A76
:1027F00092F84710002940F0D580012182F8471057
:1028000019685C4C9631C0F81C111B6803F5FA730B
:10281000C4F81C31937D002B40F09780564B18680C
:10282000473006F0ADFDFFF70FBB22684B4B0D2A7A
:102830007FF40AAB0E251D6006F072FD284606F0F7
:102840008DFF474C474BD4F820211B689A4203D890
:102850004821022006F034FD424BD4F824111B68B5
:102860003F4D404A994228D93E4BD4F828211B6855
:102870009A4203D84A21072006F022FD394BD4F8AA
:102880002C211B689A4202D84B2007F0A1FF354B40
:10289000D4F830211B689A4203D84C21142006F04A
:1028A0000FFD304BD4F834211B689A423FF6CCAA76
:1028B0004D2002F00DFEFFF7C7BA304B1B689B0797
:1028C00027D52B4B93F849100029CDD0002183F850
:1028D000491013680F33C5F82431C5E706F020FD11
:1028E000274B1B78012B7FF4AFAA264B1B78012BBB
:1028F0007FF4AAAA2449254A0B68254801330B60B6
:10290000D3680133D360036813F0FF0F3FF4FDABCE
:102910008DE4174890F84930002BA5D1012180F8AB
:10292000491010681B4A5530C5F82401107800285A
:102930004AD11948194B117001701A780E4B002AB0
:1029400014BF9E224F221A608EE74FF0FF331448C7
:10295000C4F81C3105F05CFEFFF776BAB4A4002081
:10296000D8A50020D4A50020B818FF1FB02801006A
:1029700084A50020CC1CFF1F14A70020D0F00F401E
:10298000B80EFF1FB809FF1FA81BFF1F8C1BFF1FDE
:10299000BC0EFF1FAF18FF1FAE18FF1FB018FF1FA0
:1029A000B8D300002B4AD2F81C01196888423FF6C0
:1029B0004BAA1B6828496433C2F81C3108684730A9
:1029C00006F0DEFCFFF740BA244825491370037077
:1029D0000A78214B002A14BF9E2200221A6043E786
:1029E0002B2007F0F5FEB0E52A21072006F068FC51
:1029F000A4E529210E2006F063FC98E52821022099
:102A000006F05EFC8CE52E2002F062FDB2E534217A
:102A1000142006F055FCF4E52D21142006F050FC9E
:102A2000A1E52C21062006F04BFC95E5332106207C
:102A300006F046FCDEE5322007F0CAFED3E5312180
:102A4000072006F03DFCC7E530210E2006F038FCDB
:102A5000BBE500BFCC1CFF1F14A70020AE18FF1F52
:102A6000B018FF1F2DE9F04F9C4B9D481E789D4BE1
:102A70001D789D4B1C789D4B19789D4B1A789D4B6A
:102A80001B788FB0D2B2C9B2DBB2E4B2F6B2EDB20B
:102A900006920494059107930396029506F0DCFED6
:102AA000954B9648197807F003FC934B1870944B9C
:102AB0009448197807F0FCFB914B1870874B9248AB
:102AC000197807F0F5FB854B1870864B8F481B78FB
:102AD000DBB21C469B4606F0BFFE8C4806F0BCFEEF
:102AE0008B4805F07DFD012C0CBF8A488A4805F013
:102AF00077FD804B1B783F2B0CDDDFF84C92D9F82B
:102B000000303F2B06DC814806F0A6FED9F80030E5
:102B10003F2BF8DD814EDFF834A2DFF83492804D90
:102B2000804C3368002B41D172B6DAF80030D9F806
:102B300000702A6862B6520102D5322B88BF013775
:102B4000C3F5EA33BF334FF47A72A4FB031302FBDD
:102B500007F707EB93174FF00A0872B6DAF8001080
:102B6000D9F80020D5F800E062B6C1F5EA33BF33EA
:102B7000A4FB03031EF0806FC7EB93134FF47A702E
:102B800002D0322988BF013200FB0233B3F57A7FCD
:102B900005D3B8F10108C4D007F57A77DDE7624BB9
:102BA0001B78002BD9D107F047FFD6E75F4B5F4A70
:102BB0001B685F495948CF5C13680133632B13606E
:102BC000FFB2C8BF00234FF0FF31C8BF136007F04A
:102BD0007FF907F0DF03552B01F09782522B01F0AC
:102BE00090820D2F9DD15B46012B01F08E825148C2
:102BF00005F0F6FC3B4B454883F800B04E4B1B7884
:102C0000DBB21C469B4606F027FE404806F024FE39
:102C10004A4805F0E5FC012C0CBF4948494805F03D
:102C2000DFFC344B1B783F2B0CDDDFF81C91D9F80F
:102C300000303F2B06DC354806F00EFED9F8003098
:102C40003F2BF8DDDFF804A1DFF80491344D354C5B
:102C50003368002B7ED172B6DAF80030D9F80070F4
:102C60002A6862B6500102D5322B88BF0137C3F5FE
:102C7000EA33BF334FF47A72A4FB031302FB07F766
:102C800007EB93174FF00A0872B6DAF80010D9F87C
:102C90000020D5F800E062B6C1F5EA33BF33A4FBEB
:102CA00003031EF0806FC7EB93134FF47A7002D0CA
:102CB000322988BF013200FB0233B3F57A7F05D396
:102CC000B8F10108C4D007F57A77DDE7164B1B7819
:102CD000002BD9D107F0B0FED6E700BFEA07FF1FEF
:102CE000B4030100EB07FF1FF007FF1FED07FF1FF5
:102CF000EE07FF1FF807FF1FF407FF1FCCD40000EB
:102D0000B809FF1FDCD40000ECD400002CFB00004D
:102D100020F3000028F3000038F30000FC1AFF1F26
:102D200004ED00E08988888874A50020001BFF1F3F
:102D3000041BFF1F50F30000690AFF1F58F3000037
:102D400060F3000070F30000FC07FF1F18E000E0D4
:102D500070A50020A84BA84A1B68A849A848CF5CCA
:102D600013680133632B1360FFB2C8BF00234FF019
:102D7000FF31C8BF136007F0ABF807F0DF03482B43
:102D800001F0B881462B01F0B1810D2F7FF460AFC7
:102D90005B46012B01F0AE819A4805F021FC9A4B6D
:102DA00083F800B0994B1B78012B00F03282984BCE
:102DB00098481B78DBB21C469B4606F04DFD9548B3
:102DC00006F04AFD944805F00BFC944805F008FC19
:102DD000934A944B52F8242008921146A3FB020216
:102DE000D2081446099202EB8202A1EB4202084685
:102DF00030320BA90F46D2B201924FF020320B9223
:102E000000917A60BA6000219DF804208DF8362088
:102E10008DF83710002C01F07F81A3FB0412D2083B
:102E200002EB8201804AA4EB41010546A2FB0002AD
:102E3000303152098DF8351001F02583A3FB0201D2
:102E4000C90801EB81007949A2EB40022846A1FBA9
:102E50000001303289098DF8342001F01083A3FB82
:102E60000102D20802EB8200714AA1EB4001284620
:102E7000A2FB00023031520B8DF8331001F0FB82BF
:102E8000A3FB0210C00800EB80006A49A2EB4000DF
:102E90006A09A1FB02213030C9098DF8320001F026
:102EA000E682A3FB0102D20802EB8200624AA1EB98
:102EB00040012846A2FB00023031920C8DF83110FF
:102EC00001F0D182A3FB0201C90801EB81005B493B
:102ED000A2EB40022846A1FB00013032890D8DF89B
:102EE000302001F0BC82A3FB0102D20802EB820079
:102EF000534AA1EB4001A2FB05423031520E8DF83E
:102F00002F1001F0A882A3FB0213DB0803EB83035D
:102F10004C49A2EB43036A0A3033A1FB02128DF83D
:102F20002E30D30901F0938230338DF82D300120FB
:102F30003B46184405F054FB434805F051FB434B16
:102F40001B783F2B0CDDDFF81491D9F800303F2BB4
:102F500006DC304806F080FCD9F800303F2BF8DD65
:102F6000DFF8FCA0DFF8FC90394D3A4C3368002BB9
:102F70007AD172B6DAF80030D9F800702A6862B6F1
:102F8000510102D5322B88BF0137C3F5EA33BF3375
:102F90004FF47A72A4FB031302FB07F707EB9317B6
:102FA0004FF00A0872B6DAF80010D9F80020D5F808
:102FB00000E062B6C1F5EA33BF33A4FB03031EF0A1
:102FC000806FC7EB93134FF47A7002D0322988BF19
:102FD000013200FB0233B3F57A7F05D3B8F1010863
:102FE000C4D007F57A77DDE71B4B1B78002BD9D1CE
:102FF00007F022FDD6E700BF001BFF1F041BFF1FC9
:10300000FC1AFF1F88F30000690AFF1FEB07FF1F70
:10301000ED07FF1F2CFB0000ECF30000F8F30000AD
:10302000BCB80000CDCCCCCC1F85EB51D34D621089
:103030005917B7D1C55A7C0A83DE1B436BCA5F6B35
:10304000893BE655834B040010280100F807FF1F59
:1030500004ED00E08988888874A50020FC07FF1F24
:1030600018E000E070A50020C74BC74A1B68C7499D
:10307000C748CF5C13680133632B1360FFB2C8BF2E
:1030800000234FF0FF31C8BF136006F021FF312F3E
:1030900001F0B181322F01F09E81332F01F01A80AF
:1030A000342F00F09886352F01F08F81372F01F0F3
:1030B0008681392F01F062810D2F7FF457AF009880
:1030C0004FF020330B934360836009989DF80430E0
:1030D0008DF8363000228DF83720002801F06C8101
:1030E000AC4B089CAC4A0146A3FB0113DB0803EB85
:1030F00083032146A0EB4303A2FB011230335209A4
:103100008DF8353001F05581A24BA449A3FB025044
:10311000C00800EB8000A2EB40022046A1FB0001AA
:10312000303289098DF8342001F04081A3FB01027F
:10313000D20802EB82009A4AA1EB40012046A2FB92
:1031400000023031520B8DF8331001F02C81A3FBBB
:103150000210C00800EB80009249A2EB4000620917
:10316000A1FB02213030C9098DF8320001F018812D
:10317000A3FB0102D20802EB82008B4AA1EB4001C3
:103180002046A2FB00023031920C8DF8311001F084
:103190000481A3FB0201C90801EB81008349A2EB72
:1031A00040022046A1FB00013032890D8DF830200D
:1031B00001F0F080A3FB0102D20802EB82007C4AFE
:1031C000A1EB40012046A2FB00423031520E8DF8A7
:1031D0002F1001F0DC80A3FB0213DB0803EB830359
:1031E0007449A2EB4302430AA1FB03133032DB090B
:1031F0008DF82E2001F0C88030338DF82D3001205D
:10320000009B184405F0ECF96B4806F025FB00F034
:10321000E7BD6A4B6A481C7806F01EFB684806F05A
:103220001BFBE4B2674805F0DBF9012C01F0488094
:10323000022C0CBF6448654805F0D2F9644B1B783A
:103240003F2B1ADDDFF8B091D9F800303F2B14DCAA
:103250005B4806F001FBD9F800303F2BF8DD03F0A6
:103260008BFA00F0DF034E2B0DD04F2B01F01F80A7
:10327000452B01F019800D280AD003F07DFA00F0EB
:10328000DF034E2BF1D1534805F0AAF9012407E0E2
:10329000012CF8D0022C01F00A804F4805F0A0F96B
:1032A000464B1C700BAB00934C4B45481B78DBB274
:1032B0001C469B4606F0D0FA414806F0CDFA484835
:1032C00005F08EF9012C0CBF4648474805F088F9F7
:1032D0003F4B1B783F2B0CDDDFF81C91D9F80030F9
:1032E0003F2B06DC364806F0B7FAD9F800303F2B02
:1032F000F8DDDFF808A1DFF808913C4D3C4C33685D
:10330000002B7FD172B6DAF80030D9F800702A6845
:1033100062B6510102D5322B88BF0137C3F5EA33BB
:10332000BF334FF47A72A4FB031302FB07F707EBDA
:1033300093174FF00A0872B6DAF80010D9F8002097
:10334000D5F800E062B6C1F5EA33BF33A4FB03034E
:103350001EF0806FC7EB93134FF47A7002D03229BE
:1033600088BF013200FB0233B3F57A7F05D3B8F191
:103370000108C4D007F57A77DDE71E4B1B78002BD8
:10338000D9D107F059FBD6E7001BFF1F041BFF1F15
:10339000FC1AFF1FCDCCCCCC1F85EB51D34D621056
:1033A0005917B7D1C55A7C0A83DE1B436BCA5F6BC2
:1033B000893BE655834B0400B4030100F007FF1F6F
:1033C0002CFB000090F30000ACF30000C0F3000001
:1033D000F807FF1FD4F30000E4F30000F507FF1F18
:1033E000B0F50000C0F50000D4F5000004ED00E0E9
:1033F0008988888874A50020FC07FF1F18E000E07A
:1034000070A50020814B814A1B6881498148CF5CAF
:1034100013680133632B1360FFB2C8BF00234FF062
:10342000FF31C8BF136006F053FD07F0DF034E2BDA
:1034300000F0CA84582B00F0C3840D2F7FF45FAFD7
:103440005B46012B00F0C084734805F0C9F8734B4C
:1034500083F800B0724B1B78022B00F06A84714B2A
:103460007148197806F024FF6E4B18706F4B1B786B
:10347000012B6C4B1B7800F05484022B6C4B0CBF5F
:103480006C4A6D4A1A606D4B6D48197806F010FF52
:103490006A4B18706B4B6C48197806F021FD694B2C
:1034A00018706A4B6A48197806F01AFD674B187055
:1034B000684B6948197806F0FBFE664B1870674B3D
:1034C00067481B78DBB21C46019306F0C5F96448D7
:1034D00006F0C2F9634805F083F8634805F080F808
:1034E000624B009F83FB040292081046099202EB94
:1034F0008202A4EB42023032D2B215460892002179
:103500004FF020320B927A60BA608DF836508DF809
:1035100037100246002800F04F8483FB02239B08EB
:1035200003EB8303524AA0EB43032146303382FB73
:1035300001128DF83530530900F03A8430338DF89C
:10354000343008203B46184405F04AF8494805F055
:1035500047F8424B1B783F2B0CDDDFF82891D9F858
:1035600000303F2B06DC3E4806F076F9D9F80030F3
:103570003F2BF8DDDFF810A1DFF810913E4D3F4CF6
:103580003368002B40F0848072B6DAF80030D9F846
:1035900000702A6862B6520102D5322B88BF01370B
:1035A000C3F5EA33BF334FF47A72A4FB031302FB73
:1035B00007F707EB93174FF00A0872B6DAF8001016
:1035C000D9F80020D5F800E062B6C1F5EA33BF3380
:1035D000A4FB03031EF0806FC7EB93134FF47A70C4
:1035E00002D0322988BF013200FB0233B3F57A7F63
:1035F00005D3B8F10108C3D007F57A77DDE7204B92
:103600001B78002BD9D107F017FAD6E7001BFF1F54
:10361000041BFF1FFC1AFF1FE8F50000F507FF1F42
:10362000EB07FF1F670AFF1F84F60000690AFF1FF0
:10363000B418FF1F50E40000B8EB00006A0AFF1F37
:1036400094F60000680AFF1FA0F60000F307FF1FB2
:10365000B8F60000EF07FF1FCCF60000F807FF1FC9
:103660002CFB0000E4F60000F0F6000067666666DA
:103670001F85EB511028010004ED00E0898888883F
:1036800074A50020FC07FF1F18E000E070A50020D3
:10369000B54BB54A1B68B549B54811F803B0136876
:1036A0000133632B13605FFA8BFBC8BF00234FF01D
:1036B000FF31C8BF136006F00BFCABF13803012BE0
:1036C00040F29882BBF1310F00F09E81BBF10D0FEB
:1036D0007FF456AF00984FF020330B934360836024
:1036E00009989DF820308DF8363000228DF837206B
:1036F000002800F0E2859F4B9F4A014683FB01139F
:103700009B0803EB83030199A0EB4303303382FB57
:1037100001128DF83530530900F0C38530338DF830
:1037200034300823009A954D1A44541E14F8012F82
:1037300002F07F0305EBC3033AB15B681846002B28
:10374000F4D006F089F80028F0D18D488D4D8E4CCC
:1037500006F082F89DF804202A7021788B4806F044
:10376000A7FD03468648237006F076F8884801F0E6
:1037700091FD002852D0874B0220197802F0D4FF27
:10378000854B0320197802F0CFFF844B0420197871
:1037900002F0CAFF824B1420197802F0C5FF814B5A
:1037A0001520197802F0C0FF7F4B1620197802F01F
:1037B000BBFF7E4B1720197802F0B6FF7C4B182018
:1037C000197802F0B1FF7B4B1920197802F0ACFF99
:1037D000794B1A20197802F0A7FF784B212019782D
:1037E00002F0A2FF764B1B20197802F09DFF754B6B
:1037F0001C20197802F098FF734B1F20197802F0F3
:1038000093FF724B2020197802F08EFF29781D203B
:1038100002F08AFF21781E2002F086FF584806F049
:103820001BF85F4B029A1B789A427DD06849694A1F
:1038300000230B701370029B012B27D0664B1B6873
:103840005E0523D5DFF8B081DFF8B0A1DFF8B0B1B5
:10385000DFF8B09198F80030002B00F0D78499F889
:103860000030002BFBD15D4B5D4A5E4C5E484FF053
:1038700000411960002340F20311D3702160016000
:103880001179D2798AF800308BF80030444B1B78DC
:10389000012B3ED0444B554A1978554B52F8210024
:1038A000434A44081178534A2344B3FBF0F052F8DA
:1038B000214004F0B1FD4A4B9A7804F0030302F072
:1038C000EC0213436507464A04F00F0148BF43F07A
:1038D00010030429937000F09384414B404A5B79B4
:1038E000E00603F0EF0348BF43F0100353719279F1
:1038F0003B4B02F0EF02A10648BF42F010029A7162
:10390000E20506D55A781978D2B241F02001197033
:103910005A70224B039A1B789A421CD0012006F061
:10392000BDF90FB0BDE8F08F204B049A1B789A4286
:103930007FF47CAF1C4B059A1B789A427FF476AFDC
:103940001B4B069A1B789A427FF470AF134B039A75
:103950001B789A42E2D10B4B079A1B789A42DDD131
:103960000FB0BDE8F08F00BF001BFF1F041BFF1F3F
:10397000FC1AFF1F676666661F85EB512CF7000077
:10398000B4030100F807FF1F6C0AFF1FFCF60000DC
:103990001CD50000F407FF1FB809FF1FEA07FF1F2F
:1039A000EB07FF1F690AFF1FED07FF1FF007FF1F4F
:1039B000EE07FF1FF507FF1FEC07FF1F670AFF1F3A
:1039C0006A0AFF1F680AFF1FF307FF1FEF07FF1FA9
:1039D0002B0FFF1F2413FF1F3480044080E100E001
:1039E00000A0064040A0044044A00440BCB8000031
:1039F000001C4E0E14B9000074A5002018A700206A
:103A000019A70020081CFF1FA848DFF8C0A2DFF894
:103A1000C092A74DA74C05F01FFF3368002B41D182
:103A200072B6DAF80030D9F800702A6862B651012F
:103A300002D5322B88BF0137C3F5EA33BF334FF4C9
:103A40007A72A4FB031302FB07F707EB93174FF0FF
:103A50000A0872B6DAF80010D9F80020D5F800E0AC
:103A600062B6C1F5EA33BF33A4FB03031EF0806FD7
:103A7000C7EB93134FF47A7002D0322988BF01321A
:103A800000FB0233B3F57A7F05D3B8F10108C4D047
:103A900007F57A77DDE7884B1B78002BD9D106F044
:103AA000CBFFD6E7854B854A1B688549854811F8C9
:103AB00003B013680133632B13605FFA8BFBC8BF3D
:103AC00000234FF0FF31C8BF136006F001FAABF1DD
:103AD0003003DAB2062AA0D87B4A009203EB8303B4
:103AE00002EBCB0B5B00DBB2DBF80400089303F1C5
:103AF0006404E4B208B105F0AFFEA02C0CBF35237E
:103B00003923DFF8C8A1DFF8C891694D694C0193EA
:103B10003368002B41D172B6DAF80030D9F8007062
:103B20002A6862B6520102D5322B88BF0137C3F52D
:103B3000EA33BF334FF47A72A4FB031302FB07F797
:103B400007EB93174FF00A0872B6DAF80010D9F8AD
:103B50000020D5F800E062B6C1F5EA33BF33A4FB1C
:103B600003031EF0806FC7EB93134FF47A7002D0FB
:103B7000322988BF013200FB0233B3F57A7F05D3C7
:103B8000B8F10108C4D007F57A77DDE74A4B1B7816
:103B9000002BD9D106F050FFD6E7484B474A1B68A7
:103BA0004749484811F803B013680133632B136089
:103BB0005FFA8BFBC8BF00234FF0FF31C8BF136013
:103BC00006F086F9BBF12F0FA2D9019B9B459FDC24
:103BD000009A0BF07F0302EBC303089A5868343253
:103BE00093445FFA8BF3019300283FF4AEAD05F0E8
:103BF00033FEAAE5344B009303EBCB03ABF1300B60
:103C00000BEB8B0B58684FEA4B0B5FFA8BF301936E
:103C100008B105F021FEDFF8B4A0DFF8B490244D20
:103C2000244C3368002B55D172B6DAF80030D9F83D
:103C300000702A6862B6500102D5322B88BF013766
:103C4000C3F5EA33BF334FF47A72A4FB031302FBCC
:103C500007F707EB93174FF00A0872B6DAF800106F
:103C6000D9F80020D5F800E062B6C1F5EA33BF33D9
:103C7000A4FB03031EF0806FC7EB93134FF47A701D
:103C800002D0322988BF013200FB0233B3F57A7FBC
:103C900005D3B8F10108C4D007F57A77DDE7064B04
:103CA0001B78002BD9D106F0C7FED6E74C020100E5
:103CB00004ED00E08988888874A50020001BFF1FA0
:103CC000041BFF1FFC1AFF1F2CF7000018E000E088
:103CD00070A50020A84BA84A1B68A849A84811F85D
:103CE00003B013680133632B13605FFA8BFBC8BF0B
:103CF00000234FF0FF31C8BF136006F0E9F8ABF1C5
:103D00003003DBB2092B8CD8009A02EBCB0B019A63
:103D1000DBF804001A44D3B2019300287FF467AFA4
:103D200013E5022B974B0CBF974A984A1A60FFF78E
:103D3000AABB974D97482C7805F08EFD954805F065
:103D40008BFDE4B2944804F04BFC012C00F054824B
:103D5000022C0CBF9148924804F042FC914B1B7816
:103D60003F2B18DDDFF87C92D9F800303F2B12DCB6
:103D7000884805F071FDD9F800303F2BF8DD02F0DE
:103D8000FBFC00F0DF034E2B0BD0522B00F01A820D
:103D90000D2800F00B8202F0EFFC00F0DF034E2B49
:103DA000F3D18148012404F01BFC2C70FFF757BBB2
:103DB00009203B46FFF7C7BB0A203B46FFF7C3BBC2
:103DC00002239B46FFF740BB774804F009FC012320
:103DD0009B46FFF73CBB754804F002FC0C239B4656
:103DE000734B6C4883F800B0724B1B78DBB21C46F7
:103DF0009B4605F031FD674805F02EFD6E4804F046
:103E0000EFFB012C00F06281022C00F0CB81032C2F
:103E100000F0C481042C00F0BD81052C00F0B681B7
:103E2000062C00F0AF81072C0CBF6448644804F0F6
:103E3000D7FB5C4B1B783F2B0CDDDFF8A891D9F842
:103E400000303F2B06DC534805F006FDD9F8003062
:103E50003F2BF8DDDFF890A1DFF89091594D5A4CD7
:103E60003368002B41D172B6DAF80030D9F800700F
:103E70002A6862B6520102D5322B88BF0137C3F5DA
:103E8000EA33BF334FF47A72A4FB031302FB07F744
:103E900007EB93174FF00A0872B6DAF80010D9F85A
:103EA0000020D5F800E062B6C1F5EA33BF33A4FBC9
:103EB00003031EF0806FC7EB93134FF47A7002D0A8
:103EC000322988BF013200FB0233B3F57A7F05D374
:103ED000B8F10108C4D007F57A77DDE73B4B1B78D2
:103EE000002BD9D106F0A8FDD6E7234B224A1B6848
:103EF00022492348CF5C13680133632B1360FFB260
:103F0000C8BF00234FF0FF31C8BF136005F0E0FFCA
:103F1000372F6DD0382F0ED00D2FA1D12C4B53F849
:103F20002B0004F05DFB2B4805F096FC214B83F839
:103F300000B0FFF7B9B9284805F08EFC05E04F281E
:103F400000F0FE80452800F0EB8002F015FC00F048
:103F5000DF004E28F3D1214805F07EFC02E0322834
:103F600000F00A8102F008FC3128F8D11C4804F066
:103F700037FB03239B46D9E7001BFF1F041BFF1FD2
:103F8000FC1AFF1FB418FF1F80D50000E8DC0000FA
:103F9000EC07FF1F2CFB0000F4F5000020F60000EA
:103FA0003CF60000F807FF1FD4F3000040F40000C7
:103FB000ED07FF1FEE07FF1F60F4000054F500003F
:103FC0007CF5000004ED00E08988888874A5002055
:103FD0005CD50000B403010004020100A0FF000052
:103FE000ACF50000FC07FF1F18E000E070A5002002
:103FF000B648DFF87CA3DFF87C93B54DB54C05F0EF
:104000002BFC3368002B41D172B6DAF80030D9F8B6
:1040100000702A6862B6500102D5322B88BF013782
:10402000C3F5EA33BF334FF47A72A4FB031302FBE8
:1040300007F707EB93174FF00A0872B6DAF800108B
:10404000D9F80020D5F800E062B6C1F5EA33BF33F5
:10405000A4FB03031EF0806FC7EB93134FF47A7039
:1040600002D0322988BF013200FB0233B3F57A7FD8
:1040700005D3B8F10108C4D007F57A77DDE7964B90
:104080001B78002BD9D106F0D7FCD6E7934B934988
:104090001B68934A9348D35C0A680132632ADFB2F3
:1040A0000B46C8BF00230A60C8BF0B604FF0FF314A
:1040B00005F00EFF07F0DF034F2B11D0452BA0D1E9
:1040C000894804F08DFA02239B462FE7874804F0C5
:1040D00087FAAEE6864804F083FA0F239B467FE614
:1040E000844804F07DFA01239B461FE702239B4688
:1040F000FEF752BE804804F073FA01239B46FEF798
:104100004EBE02239B46FEF772BD7C4804F068FA5F
:1041100001239B46FEF76EBD0A203B46FEF709BF12
:10412000774805F099FB01E032281FD002F024FB0C
:104130003128F9D1734804F053FA05239B46F5E67C
:10414000714805F089FB01E0322809D002F014FB28
:104150003128F9D16B4804F043FA04239B46E5E685
:104160006A4804F03DFA07239B46DFE6674804F0FF
:1041700037FA08239B46D9E6644804F031FA06234F
:104180009B46D3E6624804F02BFA52E6614804F0FD
:1041900027FA4EE6604804F023FA4AE65F4804F046
:1041A0001FFA46E65E4804F01BFA42E6012C3FF493
:1041B000F8AD022C0CBF5B485B4804F011FA2C7080
:1041C000FFF74DB9594804F00BFA01E052280CD022
:1041D00002F0D2FA00F0DF005328F7D1544802244D
:1041E00004F0FEF92C70FFF73AB95248032404F0AA
:1041F000F7F92C70FFF733B94F4804F0F1F9ADE54A
:10420000937943F040039371FFF767BB4B4F4C4EDC
:104210004C4D4D4C4D4899F80020DFF85CE102F020
:10422000FF01002A36D09AF800309BF80030484B46
:104230001B78484B1B78484B1B78484B1B783B78C6
:1042400033782B78237803789EF80030EFF30582DB
:104250000123002ADFD188F80020EFF3108272B624
:104260003F4E306810B13F4C25782DB1002A7FF4C5
:10427000F1AA62B6FFF7EEBA41692370316001B16D
:104280008D6102B962B6002545778368984725702D
:10429000FFF7E0BA002B3FF4E6AA88F80010FFF71A
:1042A000E2BA0923FFF73EBA0324FEF7F6BF2E4811
:1042B00004F096F90224FEF7F3BF0A23FFF732BA9F
:1042C0002A4804F08DF9FEF7B9BF00BF9C03010036
:1042D00004ED00E08988888874A50020001BFF1F7A
:1042E000041BFF1FFC1AFF1FA8F5000064F4000068
:1042F00038F40000A4F5000080F3000048F300004B
:104300000C000100ACF5000094FF000054F3000025
:104310002CF5000004F50000DCF40000B4F400000B
:104320008CF400006CF6000078F6000058F60000EF
:104330005CF6000064F6000004F60000A919FF1FF7
:10434000AA19FF1F3919FF1F3A19FF1FC818FF1FAD
:10435000891AFF1F8A1AFF1F191AFF1F1A1AFF1F37
:104360001CA7002020A70020DCF3000098F3000029
:1043700018E000E070A50020C918FF1F444804F0B1
:104380002FF90D239B462BE50220FEF739BF0320B2
:10439000FEF736BF0420FEF733BF0520FEF730BF1F
:1043A0000620FEF72DBF0720FEF72ABF0820FEF7E4
:1043B00027BF0920FEF724BF0A20FEF721BF35489A
:1043C00004F00EF911239B460AE5334804F008F97E
:1043D00010239B4604E5314805F03EFA01E03428FD
:1043E0001DD002F0C9F93328F9D12D4804F0F8F8AE
:1043F00013239B46F4E42B4805F02EFA05E03228FF
:104400001FD0382817D039280FD002F0B5F931283D
:10441000F5D1254804F0E4F812239B46E0E4234854
:1044200004F0DEF80B239B46DAE4214804F0D8F8C8
:104430000E239B46D4E41F4804F0D2F80A239B467F
:10444000CEE41D4804F0CCF809239B46C8E40220C2
:104450003B46FEF76EBD03203B46FEF76ABD0420D7
:104460003B46FEF766BD05203B46FEF762BD0620D3
:104470003B46FEF75EBD07203B46FEF75ABD0820CF
:104480003B46FEF756BD09203B46FEF752BD00BF36
:1044900058F4000050F4000048F40000400201000D
:1044A00028F400004C02010008F4000030F4000081
:1044B00020F4000018F4000010F400005B4A2DE91D
:1044C000F0415B4D13682C6801331360002C31D030
:1044D0002368002B2CD198462E46022703E034682F
:1044E00044B3236823BBA3680BB1C3F80C802069D5
:1044F0002B60036884F814801B68224600219847CB
:104500006368002BEBD030682360002800F08380C4
:1045100001688B4245D2CB1AA060C4F80C8034608D
:104520000360C4602046277504462368002BDAD058
:10453000013B2360EFF3108372B6002268686A6063
:1045400003B962B600286BD04FF000082E68C4464D
:104550004FF0020E0EE0CB1A8660C0F80CC0014688
:104560003360F0604FF0010880F814E00E463846E2
:10457000002F37D08768002E39D0036831688B420E
:10458000E9D3344603E011688B4214461BD3A2687A
:104590005B1A0360002AF6D18260C4603146A060D5
:1045A000E2E7864603E011688B42964625D3DEF8A3
:1045B00008205B1A2360002AF5D1A260C4F80CE041
:1045C000CEF80840AFE7D268C2608460E060C2689D
:1045D000CB1A314690600E46236080F814E03846CE
:1045E000002FC7D1B8F1000F1CD1BDE8F081866063
:1045F000C66001464FF00108B6E7D268E260C4F831
:1046000008E0CEF80C40E268CB1A9460CEF8003097
:104610002775044665E7A060E0603460204682E7C5
:10462000BDE8F0812960BDE8F08100BF70A50020E1
:10463000BC18FF1F38B5EFF3108272B60A4CA068A1
:1046400078B100254369A36003B19D6102B962B6E8
:10465000457783689847EFF3108272B6A068002808
:10466000F0D102B962B638BDBC18FF1F10B4224B9E
:104670001A7992060ED5214AD979137B507B0133E2
:104680003F2BC8BF00238342C9B203D0D018DBB28E
:10469000017413731849CB78DBB21C060ED459068B
:1046A00009D5154B1A79520605D5144900202C223C
:1046B00081F87C00DA705DF8044B70470A791006C7
:1046C000EDD50E4A92F8504092F85100C0B28442A3
:1046D0000ED0411C272986BF00200146C8B21144D4
:1046E000054C91F85410C9B2E17182F85100D6E737
:1046F0006C22CA70D3E700BF00B00E40BC18FF1F89
:1047000010B4244B1A79920612D5234AD97992F81B
:104710007D3092F87E0001333F2BC8BF00238342D7
:10472000C9B205D0D018DBB280F8801082F87D3095
:104730001849CB78DBB21C060ED4590609D5154BA7
:104740001A79520605D5144900202C2281F8EC0074
:10475000DA705DF8044B70470A791006EDD50E4A01
:1047600092F8C04092F8C100C0B284420ED0411C01
:10477000272986BF00200146C8B21144054C91F894
:10478000C410C9B2E17182F8C100D6E76C22CA70C8
:10479000D3E700BF00A00E40BC18FF1F10B4244B8D
:1047A0001A79920612D5234AD97992F8ED3092F807
:1047B000EE0001333F2BC8BF00238342C9B205D0AE
:1047C000D018DBB280F8F01082F8ED301849CB78C1
:1047D000DBB21C060ED4590609D5154B1A795206C0
:1047E00005D5144900202C2281F85C01DA705DF8AF
:1047F000044B70470A791006EDD50E4A92F8304105
:1048000092F83101C0B284420ED0411C272986BFE4
:1048100000200146C8B21144054C91F83411C9B2C8
:10482000E17182F83101D6E76C22CA70D3E700BF8C
:1048300000D00640BC18FF1F10B4244B1A79920612
:1048400012D5234AD97992F85D3192F85E0101338D
:104850003F2BC8BF00238342C9B205D0D018DBB2BA
:1048600080F8601182F85D311849CB78DBB21C0604
:104870000ED4590609D5154B1A79520605D5144997
:1048800000202C2281F8CC01DA705DF8044B7047CF
:104890000A791006EDD50E4A92F8A04192F8A101CE
:1048A000C0B284420ED0411C272986BF0020014699
:1048B000C8B21144054C91F8A411C9B2E17182F853
:1048C000A101D6E76C22CA70D3E700BF00C0064042
:1048D000BC18FF1FF0B4334B1A7912F0300F22D0FE
:1048E00072B6997D01F0FF0200292FD062B62E4DDD
:1048F00095F8CD0195F8CE711C46C0B2FFB2431CAD
:10490000402BE17928BF0023BB4202F1FF32C9B23C
:1049100003D0EE18184686F8D01112F0FF02EED13F
:10492000C0B285F8CD011F49CA78D2B2150612D49B
:10493000510609D51B4B1A79520605D51A49002094
:104940003C2281F83C02DA70F0BC70474022D979F1
:104950005A7462B6E7E70B791C06E9D5124D95F853
:10496000104295F81132E4B2DBB29C4202D10EE063
:10497000A3420CD00133282B28BF0023E8180E795E
:1049800090F81402C0B2C871087D0728F0D9DBB2D4
:10499000044985F811320B79180644BF7C23CB708B
:1049A000C6E700BF00B00640BC18FF1F2DE9F04766
:1049B000804607C986B08DE80700AD4804F04CFF7B
:1049C000019B002BC0F20881684601F0F3FA092828
:1049D0006C4640F3EE80002425460126A54F08F1E1
:1049E000FF3818F8012F02F07F0307EBC3033AB139
:1049F0005B681846002BF4D004F02EFF0028F0D19D
:104A0000DFF89C829B4F18F8012B02F07F0307EB25
:104A1000C3033AB15B681846002BF4D004F01CFFC6
:104A20000028F0D1944FE31787FB0421C3EBA101C9
:104A300001EB8102A4EB42024FF0203E3032002015
:104A4000CDF814E0CDF80CE08DF81620CDF810E08C
:104A50008DF81700002900F0018187FB012ECA178D
:104A6000C2EBAE0202EB820E844AA1EB4E0182FB46
:104A700004E23031D3EB62128DF8151000F0EB80B8
:104A800087FB021ED117C1EBAE0101EB810E7C4901
:104A9000A2EB4E0281FB04E13032D3EBA1118DF881
:104AA000142000F0D58087FB012ECA17C2EBAE029E
:104AB00002EB820E734AA1EB4E0182FB04E230311D
:104AC000D3EB22328DF8131000F0BF8087FB021E5B
:104AD000D117C1EBAE0101EB810E6B49A2EB4E0287
:104AE00081FB04E13032D3EB61318DF8122000F00C
:104AF000A98087FB012ECA17C2EBAE0202EB820E21
:104B0000624AA1EB4E0182FB04E23031D3EBA242B8
:104B10008DF8111000F0938087FB021ED117C1EBB6
:104B2000AE0101EB810E5A49A2EB4E0281FB04E17A
:104B30003032D3EBA1518DF810207DD087FB012EB0
:104B4000CA17C2EBAE0202EB820E524AA1EB4E0133
:104B500082FB04E23031D3EB62628DF80F1068D033
:104B600087FB0217D117C1EBA7074B4907EB870754
:104B7000A2EB470281FB04143032D3EB24738DF88F
:104B80000E2053D030338DF80D300123002D27DB5C
:104B9000013003AB184403F023FD16B13F4803F086
:104BA0001FFD334804F058FE05F048FD06B0BDE88F
:104BB000F08700284FF0000519DD019B03F51C5319
:104BC000103320460135019301F0F4F978B1142D2A
:104BD000F3D12C46012601E7002426462546FDE6B2
:104BE00006AA02442D21981E02F80C1CD0E7A5F15C
:104BF000140A42F20F7900E03D46019E002E05F1B5
:104C0000FF37A6F51C532DDD4E45CCBF103B0023CE
:104C10002046019301F0CEF918BB5745ECD187EA45
:104C2000E774A4EBE7743D460126D7E60120022392
:104C3000ACE702200323A9E703200423A6E704200E
:104C40000523A3E705200623A0E7062007239DE709
:104C5000072008239AE70820092397E709200A2359
:104C600094E7019685EAE574A4EBE5740026B5E6C1
:104C7000B40301002CF70000676666661F85EB51E0
:104C8000D34D6210AD8BDB6889B5F81483DE1B430E
:104C90006BCA5F6B893BE655A12FB844380301000E
:104CA00044F300002DE9F047804607C986B08DE83F
:104CB0000700AD4804F0D0FD019B002BC0F2088135
:104CC000684600F0EBFF09286C4640F3EE800024B4
:104CD00025460126A54F08F1FF3818F8012F02F0EC
:104CE0007F0307EBC3033AB15B681846002BF4D08F
:104CF00004F0B2FD0028F0D1DFF89C829B4F18F839
:104D0000012B02F07F0307EBC3033AB15B6818463F
:104D1000002BF4D004F0A0FD0028F0D1944FE3174D
:104D200087FB0421C3EBA10101EB8102A4EB42024A
:104D30004FF0203E30320020CDF814E0CDF80CE0EA
:104D40008DF81620CDF810E08DF81700002900F03E
:104D5000018187FB012ECA17C2EBAE0202EB820E65
:104D6000844AA1EB4E0182FB04E23031D3EB6212A4
:104D70008DF8151000F0EB8087FB021ED117C1EBF8
:104D8000AE0101EB810E7C49A2EB4E0281FB04E1F6
:104D90003032D3EBA1118DF8142000F0D58087FBC1
:104DA000012ECA17C2EBAE0202EB820E734AA1EBD0
:104DB0004E0182FB04E23031D3EB22328DF8131026
:104DC00000F0BF8087FB021ED117C1EBAE0101EBE3
:104DD000810E6B49A2EB4E0281FB04E13032D3EB32
:104DE00061318DF8122000F0A98087FB012ECA17CF
:104DF000C2EBAE0202EB820E624AA1EB4E0182FBD5
:104E000004E23031D3EBA2428DF8111000F0938010
:104E100087FB021ED117C1EBAE0101EB810E5A498F
:104E2000A2EB4E0281FB04E13032D3EBA1518DF8AD
:104E300010207DD087FB012ECA17C2EBAE0202EB19
:104E4000820E524AA1EB4E0182FB04E23031D3EBD9
:104E500062628DF80F1068D087FB0217D117C1EB83
:104E6000A7074B4907EB8707A2EB470281FB041416
:104E70003032D3EB24738DF80E2053D030338DF8BD
:104E80000D300123002D27DB013003AB184403F064
:104E9000A7FB16B13F4803F0A3FB334804F0DCFC4A
:104EA00005F0CCFB06B0BDE8F08700284FF0000508
:104EB00019DD019B03F51C53103320460135019386
:104EC00000F0ECFE78B1142DF3D12C46012601E759
:104ED000002426462546FDE606AA02442D21981EFA
:104EE00002F80C1CD0E7A5F1140A42F20F7900E099
:104EF0003D46019E002E05F1FF37A6F51C532DDD22
:104F00004E45CCBF103B00232046019300F0C6FE67
:104F100018BB5745ECD187EAE774A4EBE7743D462C
:104F20000126D7E601200223ACE702200323A9E7EC
:104F300003200423A6E704200523A3E70520062376
:104F4000A0E7062007239DE7072008239AE708200B
:104F5000092397E709200A2394E7019685EAE57477
:104F6000A4EBE5740026B5E6B40301002CF70000BD
:104F7000676666661F85EB51D34D6210AD8BDB68AB
:104F800089B5F81483DE1B436BCA5F6B893BE6551A
:104F9000A12FB8443803010044F300002DE9F04785
:104FA000804607C986B08DE80700AD4804F054FC80
:104FB000019B002BC0F20881684600F0E3FC092841
:104FC0006C4640F3EE80002425460126A54F08F1EB
:104FD000FF3818F8012F02F07F0307EBC3033AB143
:104FE0005B681846002BF4D004F036FC0028F0D1A2
:104FF000DFF89C829B4F18F8012B02F07F0307EB30
:10500000C3033AB15B681846002BF4D004F024FCCB
:105010000028F0D1944FE31787FB0421C3EBA101D3
:1050200001EB8102A4EB42024FF0203E303200201F
:10503000CDF814E0CDF80CE08DF81620CDF810E096
:105040008DF81700002900F0018187FB012ECA1797
:10505000C2EBAE0202EB820E844AA1EB4E0182FB50
:1050600004E23031D3EB62128DF8151000F0EB80C2
:1050700087FB021ED117C1EBAE0101EB810E7C490B
:10508000A2EB4E0281FB04E13032D3EBA1118DF88B
:10509000142000F0D58087FB012ECA17C2EBAE02A8
:1050A00002EB820E734AA1EB4E0182FB04E2303127
:1050B000D3EB22328DF8131000F0BF8087FB021E65
:1050C000D117C1EBAE0101EB810E6B49A2EB4E0291
:1050D00081FB04E13032D3EB61318DF8122000F016
:1050E000A98087FB012ECA17C2EBAE0202EB820E2B
:1050F000624AA1EB4E0182FB04E23031D3EBA242C3
:105100008DF8111000F0938087FB021ED117C1EBC0
:10511000AE0101EB810E5A49A2EB4E0281FB04E184
:105120003032D3EBA1518DF810207DD087FB012EBA
:10513000CA17C2EBAE0202EB820E524AA1EB4E013D
:1051400082FB04E23031D3EB62628DF80F1068D03D
:1051500087FB0217D117C1EBA7074B4907EB87075E
:10516000A2EB470281FB04143032D3EB24738DF899
:105170000E2053D030338DF80D300123002D27DB66
:10518000013003AB184403F02BFA16B13F4803F08B
:1051900027FA334804F060FB05F050FA06B0BDE88A
:1051A000F08700284FF0000519DD019B03F51C5323
:1051B000103320460135019300F0E4FB78B1142D43
:1051C000F3D12C46012601E7002426462546FDE6BC
:1051D00006AA02442D21981E02F80C1CD0E7A5F166
:1051E000140A42F20F7900E03D46019E002E05F1BF
:1051F000FF37A6F51C532DDD4E45CCBF103B0023D9
:105200002046019300F0BEFB18BB5745ECD187EA5E
:10521000E774A4EBE7743D460126D7E6012002239C
:10522000ACE702200323A9E703200423A6E7042018
:105230000523A3E705200623A0E7062007239DE713
:10524000072008239AE70820092397E709200A2363
:1052500094E7019685EAE574A4EBE5740026B5E6CB
:10526000B40301002CF70000676666661F85EB51EA
:10527000D34D6210AD8BDB6889B5F81483DE1B4318
:105280006BCA5F6B893BE655A12FB8443803010018
:1052900044F300002DE9F84F04465648A0F5806518
:1052A00004F0DAFA05F5806004F0D6FA013C14F84F
:1052B000012F02F07F0305EBC3033AB15B68184688
:1052C000002BF4D004F0C8FA0028F0D14A4C4B4827
:1052D00003F086F92378302B08DD6368302B05DC7A
:1052E000444804F0B9FA6368302BF9DD444EDFF826
:1052F0003091DFF83081434D3746D6F84032002BED
:1053000041D172B6D9F80030D8F800402A6862B6A8
:10531000520102D5322B88BF01343B49C3F5EA3331
:10532000BF334FF47A72A1FB030302FB04F48B46F4
:1053300004EB93144FF00A0A72B6D9F80010D8F8AB
:105340000020286862B6C1F5EA33BF33ABFB03E344
:105350004001C4EB93134FF47A7E02D5322988BF03
:1053600001320EFB0233B3F57A7F05D3BAF1010A9D
:10537000C3D004F57A74DFE7244B1B78002BDBD114
:1053800005F05AFBD8E7D7F8443221483B444FF0A8
:10539000FF3193F84842D7F844320133632BC7F802
:1053A0004432E4B2C4BF0023C7F8443204F090FD95
:1053B00004F0DF03592B17D04E2B01D00D2C9CD1BC
:1053C000144C154D14F8012B02F07F0305EBC303B9
:1053D0003AB15B681846002BF4D004F03DFA00287F
:1053E000F0D10020BDE8F88F0C4803F0F9F8012057
:1053F000BDE8F88F2CFB0000F807FF1F60030100D9
:10540000BC18FF1F04ED00E08988888874A500207F
:10541000FC1AFF1F6C0301002CF700007003010051
:1054200018E000E070A5002072B6184A92F8AF327A
:10543000032B1DD8DFE803F016130219144B0521C6
:1054400082F8AF12018813F0080F14BFC822882217
:10545000083042EA014258601A6062B67047022181
:105460000C4BEDE703210A4BEAE70421094BE7E780
:10547000D2F8BC32054933B1D1F8CC325860C2F809
:10548000CC0262B67047C1F8BC02F8E7BC18FF1F37
:105490009000FF1F9800FF1FFEE700BFFEE700BF60
:1054A0000A4908B58B6840B16A461844A2F5005213
:1054B000904204D28860184608BD184608BD05F021
:1054C00051FB0C2303604FF0FF3008BDF807FF1FAE
:1054D000104B1B685B060BD50F4B1A5C62B10022A8
:1054E0001A540E4B0E4A1B680F3342F82030704797
:1054F000094B1A5C0AB17047704701221A54074BD6
:1055000007491B68074A553341F82030136818448F
:1055100003F036BFD0F00F4084A50020D4A50020B2
:10552000D8A5002014A70020F8B5264B03EBC00334
:105530000D465C68216811F4E06101D13F2838D93B
:10554000214B224A2249C3F82C2104F14042C3F8DE
:105550003011A2F592211F4F1F4E2048C3F834711D
:105560007C29C3F83861C3F83C0120D9A2F5942303
:105570007C2B0DD9A2F596237C2B1FD9A2F598235D
:105580007C2B19D9A2F59A227C2A19D8144800E05C
:10559000144872B62368C4F3840123F4702343F0E3
:1055A0008572236040F82150226062B6F8BD0E4833
:1055B000EFE702F087FFC3E70C48EAE70C48E8E7AB
:1055C000F8BD00BFB02801000002FF1FA907FF1FA0
:1055D0007D07FF1F5107FF1F2507FF1FF906FF1F4C
:1055E0000408FF1FE008FF1F4009FF1F7008FF1F8E
:1055F000B008FF1F2DE9F04FCE4BCE4CCE4E93F8A6
:10560000B4210121002384F8B411B360D4F8B83177
:1056100093B013F0FF0FD2B214BFC84BC84B019226
:105620004FF080721A60C74BD0F804E093E807008F
:1056300003F10C040DF10C0A8AE8070094E8070056
:105640000DF1180903F1180489E8070094E8070030
:1056500009AD03F1240485E8070094E8070030331E
:105660000CAC84E8070093E807000EF5864330335E
:105670000FAF87E80700CDF810E0CDF81CE00A93E3
:105680000D934FF00F0B1093504604F0E5F8484689
:1056900004F0E2F8284604F0DFF8204604F0DCF8D5
:1056A000384604F0D9F8BBF1010BEDD1DFF8C8A200
:1056B000DFF8C892326973699F4C9A423ED072B645
:1056C000A14DA24B1B682C68DAF8002062B652018B
:1056D00002D5322B88BF0134C3F5EA33BF334FF410
:1056E0007A72A9FB031302FB04F4DFF86082DFF88F
:1056F00090B204EB93144FF47A70A64672B6D8F8C1
:1057000000102A68DAF8004062B6C1F5EA33BF3308
:10571000A9FB03C36401CEEB931302D5322988BFE2
:10572000013200FB0233B3F57A7FC3D29BF800301D
:10573000002BE3D1744605F07FF9DCE704F07EFF2F
:10574000A468834D84EAE472A2EBE47285FB023024
:10575000D317C3EBA00000EB80014FF0000CA2EBCD
:1057600041014FF0203E30316045C7F808E0CDF8E8
:105770003CE08DF84610C7F804E08DF847C040F3D0
:10578000C98085FB0017C117C1EBA70101EB810799
:105790007049A0EB470081FB02713030D3EB6111FF
:1057A0008DF8450000F0B88085FB0107C817C0EBF5
:1057B000A70000EB80076848A1EB470180FB02705F
:1057C0003031D3EBA0108DF8441000F0A78085FB9A
:1057D0000017C117C1EBA70101EB81075F49A0EBDF
:1057E000470081FB02713030D3EB21318DF843004B
:1057F00000F0968085FB0107C817C0EBA70000EBFF
:1058000080075748A1EB470180FB02703031D3EB92
:1058100060308DF8421000F0858085FB0017C117BD
:10582000C1EBA70101EB81074E49A0EB470081FBCB
:1058300002713030D3EBA1418DF8410074D085FB6B
:105840000107C817C0EBA70000EB80074648A1EB93
:10585000470180FB02703031D3EBA0508DF840102F
:1058600064D085FB0017C117C1EBA70101EB8107CD
:105870003E49A0EB470081FB02713030D3EB616100
:105880008DF83F0054D085FB0105C817C0EBA50576
:10589000374805EB8505A1EB450180FB020230315D
:1058A000D3EB22738DF83E1032D02949DA1781FBF1
:1058B0000301C2EBA10202EB8202A3EB42033033ED
:1058C0008DF83D306346002C1CDB11A802F088FEE9
:1058D000284803F0C1FF04F0B1FE164A9DF80410F9
:1058E00082F8B4110023B360D2F8B83113F0FF0F7F
:1058F00014BF124B124B4FF0807220461A6013B047
:10590000BDE8F08F12AA13442D2203F80C2CDCE71B
:105910000123D8E70923D6E70823D4E70723D2E7F2
:105920000623D0E70523CEE70423CCE70323CAE709
:105930000223C8E70408FF1F8C1BFF1F04F10F4060
:1059400008F10F407803010070A5002018E000E086
:10595000676666661F85EB51D34D6210AD8BDB68C1
:1059600089B5F81483DE1B436BCA5F6B893BE65530
:10597000A12FB844B403010004ED00E089888888B1
:1059800074A500202DE9F04FB14FB24E97F8B481C5
:105990000122002387F8B421B360D7F8B83187B06B
:1059A0005FFA88F213F0FF0F0546019200F0338191
:1059B000A94B4FF080721A604D24284603F04CFF2B
:1059C000013CFAD1DFF8C8A2DFF8C89232697369E6
:1059D000A04C9A423CD072B6A04DA14B1B682C68DB
:1059E000DAF8002062B6520102D5322B88BF0134AA
:1059F000C3F5EA33BF334FF47A72A9FB031302FBFA
:105A000004F4DFF85CB2DFF8908204EB93144FF4F7
:105A10007A7C72B6DBF800102A68DAF8000062B609
:105A2000C1F5EA33BF33A9FB03E34001C4EB931391
:105A300002D5322988BF01320CFB0233B3F57A7FDD
:105A4000C4D298F80030002BE3D104F0F5FFDEE774
:105A500004F0F4FDA468834D84EAE472A2EBE472DE
:105A600085FB0230D317C3EBA00000EB80014FF0A1
:105A7000000CA2EB41014FF0203E30316045CDF8E3
:105A800014E0CDF80CE08DF81610CDF810E08DF88C
:105A900017C040F3CD8085FB001EC117C1EBAE01DE
:105AA00001EB810E7049A0EB4E0081FB02E130302A
:105AB000D3EB61118DF8150000F0BC8085FB010E61
:105AC000C817C0EBAE0000EB800E6848A1EB4E019A
:105AD00080FB02E03031D3EBA0108DF8141000F001
