:10000000F8FF022099010000A57F00005D7F00003D
:100010005D7F00005D7F00005D7F00005D7F000070
:100020005D7F00005D7F00005D7F0000A57F000018
:10003000A57F00005D7F0000DD990000E1990000D0
:10004000A57F0000A57F0000A57F0000A57F000020
:10005000A57F0000A57F0000A57F0000A57F000010
:10006000A57F0000A57F0000A57F0000A57F000000
:10007000A57F0000A57F0000A57F0000A57F0000F0
:10008000A57F0000A57F0000A57F0000A57F0000E0
:10009000A57F0000A57F0000A57F0000A57F0000D0
:1000A000A57F0000A57F0000A57F0000A57F0000C0
:1000B000A57F0000A57F0000A57F000095880000B7
:1000C000A57F0000A57F0000A57F0000A57F0000A0
:1000D000A57F0000A57F0000A57F0000A57F000090
:1000E000A57F0000A57F0000A57F0000A57F000080
:1000F000A57F0000A57F0000A57F0000A57F000070
:10010000CD9A0000E19A0000F59A0000099B0000DA
:10011000A57F0000558B0000A57F0000A57F000093
:10012000A57F0000A57F0000A57F0000A57F00003F
:10013000A57F0000A57F0000A57F0000A57F00002F
:10014000A57F0000A57F0000A57F0000A57F00001F
:10015000A57F0000A57F0000A57F0000A57F00000F
:10016000A57F0000A57F0000A57F0000A57F0000FF
:10017000A57F0000A57F0000A57F0000A57F0000EF
:10018000A57F0000A57F0000A57F0000A57F0000DF
:10019000A57F0000A57F0000584B4CF2205210B5FF
:1001A0001A804DF628121A8000BF00BF07F0FEFE2D
:1001B000534B4FF030621A60524A9A60524ADA60EA
:1001C000524B4FF470021A60514A136813F4807353
:1001D00004D150490B604FF4A85313604E4B1A786A
:1001E000110703D51A7842F008021A704B4B4C499C
:1001F0002A221A704B4A4C4B8B4204D252F8040FFD
:1002000043F8040BF8E7494B494900228B4202D2DC
:1002100043F8042BFAE74749474A002352F82300E2
:1002200041F823000133662BF8D1444B444A802126
:1002300003F8011B9342FBD1424B3E4A1A60424BEA
:100240008A221A70A3F5805324225A70A0221A70B1
:100250009A799207FCD59A79D406FCD43B4A9379D3
:1002600003F00C03082B394BF9D103221A714622F3
:100270005A719A799006FCD5344A9179334B4906E4
:10028000FBD5334A4FF08271116009215160202261
:100290001A709A7902F00C020C2AFAD12D4B2E4AD0
:1002A0001A602E4B2E4A1A6000225A60072243F829
:1002B000042C2C4AC3F80C2D62B608F025F8154B17
:1002C0001B68DA0705D5284807F0AAFF274B284AFC
:1002D0001A60284B1B785B0609D5244C244B2268F6
:1002E0009A4204D1204807F09BFF002323600AF0C4
:1002F00033FA07F061FE09F027FCFEE70E20054007
:1003000030800440823F04000100002B88ED00E0B3
:1003100010D0034014D0034002D0074000E0074053
:100320001C13FF1FF8300100F806FF1F2013FF1FEA
:10033000E8AB00200002FF1F0000000000E400E026
:1003400056E400E008ED00E00050064000400640A2
:100350004480044004800440C010050014E000E024
:10036000BFD4010000002020ADBFC35F1CE00340EC
:10037000A5C3945A00F00740FFFFFFFFFFFFFFFFF8
:10038000FFFFFFFFFFFFFFFFFFFFFFFFFFFFFFFF7D
:10039000FFFFFFFFFFFFFFFFFFFFFFFFFFFFFFFF6D
:1003A000FFFFFFFFFFFFFFFFFFFFFFFFFFFFFFFF5D
:1003B000FFFFFFFFFFFFFFFFFFFFFFFFFFFFFFFF4D
:1003C000FFFFFFFFFFFFFFFFFFFFFFFFFFFFFFFF3D
:1003D000FFFFFFFFFFFFFFFFFFFFFFFFFFFFFFFF2D
:1003E000FFFFFFFFFFFFFFFFFFFFFFFFFFFFFFFF1D
:1003F000FFFFFFFFFFFFFFFFFFFFFFFFFFFFFFFF0D
:10040000FFFFFFFFFFFFFFFFFFFFFFFFDEF9FFFF23
:1004100010B5054C237833B9044B13B10448AFF33E
:1004200000800123237010BD2013FF1F0000000077
:10043000F4300100084B10B51BB108490848AFF370
:1004400000800848036803B910BD074B002BFBD0A0
:10045000BDE81040184700BF000000002413FF1F34
:10046000F43001001C13FF1F0000000038B50546E2
:10047000074B45F83C3B0021044606F04DFC28465E
:1004800009F002FB04F1340009F0FEFA204638BD01
:10049000502E01000E4B1B78012B0E4B1B780FD0FA
:1004A000022B0D4B0CBF0D4A0D4A1A600D4A0E4827
:1004B0000E490F4B10601120132208701A707047FC
:1004C000022B054B0CBF0B4A0B4A1A60EEE700BF2C
:1004D000DE07FF1F0F08FF1F3417FF1FCC1001009E
:1004E000ACBB0000F09F002044C400004417FF1F75
:1004F000A8A300207426010070C90000F8B5DFF839
:10050000D0E1434B4348444F444E454D4549464A4C
:1005100000248EF800401C70444B047044483C603A
:100520003470444F2C70444E0C70444D1470444948
:100530001C70444A444B046044483C603460444F5F
:100540002C60444E0C60444D14601C600123036019
:100550004249434A43483C603460434F2C60434E19
:10056000434D0C60146043490460434A43483C6077
:100570003460434F2C60434E434D0C601460046064
:100580004249434A43483C603460434F2C60434EE9
:10059000434D0C60146021460460202241483C60B9
:1005A00033702B700AF0C0FB3F4B40481C60214663
:1005B0005C604FF49E759C604F22DC600AF0B4FBD7
:1005C00021462A463A480AF0AFFB2A4621463948D6
:1005D0000AF0AAFB4FF47A752146642236480AF0E5
:1005E000A3FB21462A4635480AF09EFB2A462146AF
:1005F00033480AF099FB21464FF4C87231480AF09B
:1006000093FB2146304A3148BDE8F8400AF08CBBE4
:100610009DA30020F49F0020A0A3002028A200207A
:100620003817FF1FB8A30020A9A300203C19FF1F03
:10063000F0A80020B4A3002030A20020E09F0020FA
:100640004817FF1FE49F0020A4A70020E807FF1F12
:100650004813FF1F3C17FF1F3C13FF1FF89F00208C
:100660005417FF1FB0A70020F8A800205CA20020AC
:100670005017FF1FBCA100203417FF1FB8A1002096
:10068000F09F0020FC9F00204013FF1F58A2002075
:10069000EC9F00202CA200204017FF1F2508FF1F01
:1006A000DF07FF1F34A2002004A000205C17FF1FFB
:1006B00060A20020B4A70020C4A10020BCA3002099
:1006C0004C13FF1FAC17FF1FA08601004019FF1F2E
:1006D000E89F0020F0B4124B124E134C13491448FB
:1006E00001224FF40077022537601A601D602478DC
:1006F00051F8344084F80021007851F830604FF40C
:10070000806586F800214FF400644FF480204FF498
:1007100000211D601C601860F0BC1960704700BFAC
:1007200048F00F4084F00F400C08FF1F7C2E0100A2
:10073000DB07FF1F3D4B1B7803B9704710B5FFF770
:10074000C9FF4FF44873013BFDD1394B1B68DC07EF
:1007500006D43849384B01204FF4007208601A6003
:10076000334B1A68900751D51B685A070CD4334B8A
:1007700033491B78304ADBB2012051F833104FF473
:10078000007381F880001360294B1B6819070CD493
:100790002C4B2B491B78284ADBB2012051F833102F
:1007A0004FF4007381F880001360214B1B68DA0658
:1007B00007D42049204B4FF480604FF4007208604A
:1007C0001A601B4B1B689B0607D41A491A4B4FF43F
:1007D00000604FF4007208601A60154B1B685C06DD
:1007E00007D41449144B4FF480204FF40072086072
:1007F0001A600F4B1B68180616D40E490E4B4FF4A7
:1008000000204FF4007208601A6010BD0A4A0948BF
:100810004FF400710224046011601A685107A6D5D4
:100820001B681B07C1D4B3E710BD00BFAAA30020FB
:10083000D0F00F4044F00F4088F00F400C08FF1F2D
:100840007C2E0100DB07FF1FF0B4C0B21B4B53F836
:10085000303093F80032B3B9194B5A5C8AB901228F
:100860005A54184B184E1B68184D194C19485533DB
:1008700046F821302A702378002B14BF9E234F2383
:100880000360F0BC70470E4B5A5C002AF9D000227E
:100890005A540C4B0C4F1B680F4E0C4D0C4C0D4812
:1008A0000F3347F8213032702A702378934214BFF7
:1008B0009E2313460360F0BC704700BF7C2E0100EE
:1008C0005C17FF1FF0A80020B4A70020E89F0020BD
:1008D000F49F0020A0A300209DA3002050E8003F2B
:1008E0000B4440E80032002AF8D170472DE9F84364
:1008F000DFF8DC90354DD9F80030EC5CE4B2FE2C2A
:10090000804641D0FF2C15D1314F324ED9F80030FE
:1009100031480133B342C9F80030C4BF00233B6003
:10092000D9F80030EC5C4FF0FF31E4B2FFF7D6FFAE
:10093000FF2CEBD0B8EB141F02D00020BDE8F883E9
:1009400004F00F04254B1B5D03F0FF044BB1244A58
:10095000244B52F8341001204FF4007281F88000CB
:100960001A60D9F800301B4A19491B4801339342D9
:10097000C9F80030C4BF00230B604FF0FF31FFF710
:10098000ADFF2046BDE8F883174B1B68012BD4D17F
:10099000164B1B68182BD0D8154B1B68182BCCD8BE
:1009A000D9F800300B4A01339342C9F8003002DD18
:1009B0000023C9F80030D9F800300748EC5C4FF04C
:1009C000FF31E4B2FFF78AFF9CE700BF4019FF1F29
:1009D000EC9F00209F8601004017FF1F2808FF1F83
:1009E0007C2E010088F00F405817FF1F30A2002016
:1009F000E09F00200E4B1B78012B00D070470D4B61
:100A00001B78012BFAD1431E062BF7D80A490B4A53
:100A10000B68013310B40B6052F82030084C2021D1
:100A2000013342F8203021605DF8044B704700BF6D
:100A3000AAA300203C08FF1FE49F002034A200204E
:100A400084F00F400E4B1B68632B10B513DC0D4A6E
:100A50000D491468136841F824000133632B1360B7
:100A60004FF00101C8BF00230548C8BF1360FFF75E
:100A700035FF012010BD0420FFF7BCFF002010BD92
:100A800058A200204013FF1FAC17FF1F2DE9F04FA5
:100A9000AC4FDFF82C83AC4AAC49AD4CAD4DDFF820
:100AA00024E3DFF824C3DFF82493DFF824A3DFF87E
:100AB00024B306463878D8F80030984283B020DA5C
:100AC000B36893421DD08B421BD0A34219D0AB42D6
:100AD00017D0734515D0634513D04B4511D05345FE
:100AE0000FD05B450DD09C4883420AD09B4B1B78AE
:100AF000012B00F0E1803878D8F80030984E984209
:100B0000DEDB984B1A78012A00F09F801B78022BBD
:100B100000F0B680B268DFF8C0C293491278DCF802
:100B200000300193DCF800300D68002A00F0BC8131
:100B30008E498D4205F1010479DCDFF8A09219F8A5
:100B4000021000297AD0C5F5C335DFF828E2DFF8B6
:100B500090A29F35002009E0A94204F1010466D06B
:100B600019F802B008465946002967D001335345A9
:100B7000C8BF0023411C0EF80320B268525C002A53
:100B8000EAD102307268002AC0F29D8078490D686F
:100B90002A440A600D6842F6D742954240F38781A5
:100BA000DFF8C8E1744504F1010540DCDFF8C4E179
:100BB000DFF82CA2DFF82CB214464FF0E00904E075
:100BC00001355D4500F1010031D001335345C8BF07
:100BD00000230EF803900A68A2F53352183A0A600F
:100BE0000A68A242ECDC411C604A95421FDC0132DB
:100BF00001339342C8BF00235E4C5B480022E2549D
:100C0000CCF80030FFF76AFE019AFF23A354336843
:100C1000013B092B4CD8DFE813F08D001E013A0090
:100C200029018200FB004B0005013001E70005208F
:100C3000FFF7E0FE002003B0BDE8F08F0620FFF7CD
:100C4000D9FE002003B0BDE8F08F4B4A964200F079
:100C500023814A498E4258D049498E4200F02A8168
:100C6000484A96427FF452AF474A1278022A51D13D
:100C7000464A0E461B78022B7FF44DAF444904E0F0
:100C8000444B9E422ED0B26841490E6043E7D8F8EB
:100C9000003039782B4A01338B42C8BF13783E4964
:100CA000C8BFDBB2CA5C022A00F0CB80C8F80030B3
:100CB000012003B0BDE8F08F3848FFF7E7FE0028B9
:100CC0007FF41FAFB7E7D8F80010354D524201FB53
:100CD00002F2297892FBF1F2254902F5F43248320A
:100CE0000A6057E72A492F4B0868984200F0EA80CB
:100CF0002D4B984200F0EC802C4D2D4B2D4C2E4A64
:100D0000A84204BF1A462646BFE71F4909780229B0
:100D100000F0DB801B78022B7FF4FCAEB3E7D8F841
:100D20000030264ADBB213700520117807F0EEF888
:100D3000012080E7D8F800300133C8F800300120E6
:100D400079E700BF3A08FF1F90B200000CB3000023
:100D50006010010004DA0000F0C300003808FF1F33
:100D600044D20000C0A100204017FF1F9E86010052
:100D70004817FF1F4019FF1F84D1000084C30000E3
:100D80003418010074010100D907FF1FACC3000033
:100D9000FC9F0020401A010000A90020C0C30000F1
:100DA000E707FF1F74D20000B818010014DA000032
:100DB00040B200009CBB0000C81001001108FF1FDA
:100DC000E807FF1F28B20000041A0100A0FC000081
:100DD00000DA000024BB00002CA20020E018010073
:100DE0009F860100A08601003B4CC82220460221BC
:100DF00009F09AFF3B78DBB20122E25464242046DA
:100E00000221013407F082F8B4F5967FF7D14FE75D
:100E1000D8F80030DBB23B700620397807F076F85E
:100E2000012008E7D8F800202B4B01249C54D8F867
:100E30000000D8F800206430995C07F067F820467D
:100E4000F9E63A789A427FF731AF0133CA5C022A59
:100E50007FF42CAFF5E7D8F80030204A012B7FF75C
:100E600027AF1368013B13600120E4E61C4B1B789D
:100E7000DBB2C8F800300120DDE6D8F80020164BC0
:100E800002219954D8F80000D8F800206430995C09
:100E900007F03CF80120CEE6124A1278012A7FF4CE
:100EA00039AF114A114EE5E62C4601206AE60146AB
:100EB000254699E60B4A1278012A7FF42BAF0C4A9B
:100EC0000C4ED7E60C4A0D4EDFE616460C4AD1E62C
:100ED0000C4A0D4ED9E600BF00A90020E807FF1F0D
:100EE0001108FF1FD907FF1F182E010084C300003F
:100EF000642601007401010038B2000090BB0000BC
:100F000060FB000040B200009CBB0000DFF880C026
:100F10001348144A1449F8B50124DFF878E08CF836
:100F200000404FF0260C8EF800C0104B104F114DB2
:100F3000114E4FF0250E80F800E0022010701C705A
:100F40000E480F4A00233B700E4F0B7007600E498E
:100F50000E482B7011603370FFF798FD2C70F8BDB0
:100F6000A8A300202408FF1F4C17FF1FDA07FF1F4C
:100F7000FCA800204413FF1F9CA300203417FF1F70
:100F8000F09F002058DD0000A4FC0000AC18010018
:100F90001008FF1F4417FF1F38B50A4D441E14F8F0
:100FA000012F02F07F0305EBC30342B15B681846D3
:100FB000002BF4D0FFF76AFD0028F0D138BD0120E6
:100FC00038BD00BF44C4000038B5744D744C284689
:100FD000FFF75CFD2046FFF759FD2046FFF756FD61
:100FE0007048FFF753FD7048FFF750FD6F48FFF75B
:100FF0004DFD6F48FFF74AFD6E48FFF747FD6E480D
:10100000FFF744FD6D48FFF741FD6D48FFF73EFDDA
:101010006C48FFF73BFD6C48FFF738FD6B48FFF766
:1010200035FD6B48FFF732FD6A48FFF72FFD6A4830
:10103000FFF72CFD6948FFF729FD6948FFF726FDFA
:101040006848FFF723FD6848FFF720FD6748FFF772
:101050001DFD6748FFF71AFD6648FFF717FD664854
:10106000FFF714FD6548FFF711FD6548FFF70EFD1A
:101070006448FFF70BFD6448FFF708FD2046FFF7C3
:1010800005FD6248FFF702FD6148FFF7FFFC61487C
:10109000FFF7FCFC6048FFF7F9FC6048FFF7F6FC3F
:1010A0005F48FFF7F3FC5F48FFF7F0FC5E48FFF78F
:1010B000EDFC5E48FFF7EAFC5D48FFF7E7FC2046E1
:1010C000FFF7E4FC5B48FFF7E1FC5B48FFF7DEFC61
:1010D0005A48FFF7DBFC5A48FFF7D8FC5948FFF79E
:1010E000D5FC5948FFF7D2FC5848FFF7CFFC5848C9
:1010F000FFF7CCFC5748FFF7C9FC5748FFF7C6FC81
:101100002046FFF7C3FC5548FFF7C0FC5448FFF7E3
:10111000BDFC5448FFF7BAFC5348FFF7B7FC5348EF
:10112000FFF7B4FC5248FFF7B1FC5248FFF7AEFCA2
:101130005148FFF7ABFC5148FFF7A8FC5048FFF7B8
:10114000A5FC5048FFF7A2FC2046FFF79FFC4E4845
:10115000FFF79CFC2046FFF799FC4C48FFF796FCF4
:101160004B48FFF793FC4B48FFF790FC4A48FFF7CA
:101170008DFC2046FFF78AFC4848FFF787FC204695
:10118000FFF784FC4648FFF781FC2846FFF77EFC0A
:101190002846BDE83840FFF779BC00BFC0C3000057
:1011A000401A010038D20000A8DA0000B4DA0000CA
:1011B000C0DA0000CCDA0000D8DA0000E4DA00007F
:1011C000F0DA0000FCDA000008DB000014DB0000AD
:1011D00020DB00002CDB000038DB000044DB0000DB
:1011E00050DB00005CDB000068DB000074DB00000B
:1011F00080DB00008CDB000098DB0000A4DB00003B
:10120000B0DB0000BCDB0000C8DB000084C30000D2
:101210005CDA00002CC4000068DA000074DA000018
:101220009CD1000080DA000050C800005CC80000BB
:1012300098DA000074010100401801004C18010008
:1012400058180100641801007018010074C80000EB
:101250007C180100881801009418010020FB000090
:101260004CC900004C1A010034C9000050D20000E3
:10127000A8BA000008FC000018BB00008CDA0000CF
:1012800058C9000068010100C4B200005CD200002F
:1012900040C90000E4C300008CBA000064C900002B
:1012A000C418010038B59F4D9F4C2846FFF7EEFB50
:1012B0002046FFF7EBFB2046FFF7E8FB9B48FFF7D4
:1012C000E5FB9B48FFF7E2FB9A48FFF7DFFB9A48F4
:1012D000FFF7DCFB9948FFF7D9FB9948FFF7D6FBEE
:1012E0009848FFF7D3FB9848FFF7D0FB9748FFF7E4
:1012F000CDFB9748FFF7CAFB9648FFF7C7FB964818
:10130000FFF7C4FB9548FFF7C1FB9548FFF7BEFB0D
:101310009448FFF7BBFB9448FFF7B8FB9348FFF7EF
:10132000B5FB9348FFF7B2FB9248FFF7AFFB92483B
:10133000FFF7ACFB9148FFF7A9FB9148FFF7A6FB2D
:101340009048FFF7A3FB9048FFF7A0FB8F48FFF7FB
:101350009DFB8F48FFF79AFB2046FFF797FB8D48D0
:10136000FFF794FB8C48FFF791FB8C48FFF78EFB4F
:101370008B48FFF78BFB8B48FFF788FB8A48FFF70A
:1013800085FB8A48FFF782FB8948FFF77FFB894886
:10139000FFF77CFB8848FFF779FB8848FFF776FB6F
:1013A0008748FFF773FB8748FFF770FB8648FFF716
:1013B0006DFB8648FFF76AFB8548FFF767FB8548AA
:1013C000FFF764FB8448FFF761FB8448FFF75EFB8F
:1013D0008348FFF75BFB8348FFF758FB8248FFF722
:1013E00055FB8248FFF752FB8148FFF74FFB8148CE
:1013F000FFF74CFB8048FFF749FB2846FFF746FB09
:101400002046FFF743FB2046FFF740FB7B48FFF7F2
:101410003DFB7B48FFF73AFB7A48FFF737FB7A48FA
:10142000FFF734FB7948FFF731FB7948FFF72EFBD4
:101430007848FFF72BFB7848FFF728FB7748FFF742
:1014400025FB7748FFF722FB2046FFF71FFB754877
:10145000FFF71CFB7448FFF719FB7448FFF716FBF6
:101460007348FFF713FB7348FFF710FB7248FFF751
:101470000DFB7248FFF70AFB7148FFF707FB714845
:10148000FFF704FB7048FFF701FB7048FFF7FEFA17
:101490006F48FFF7FBFA6F48FFF7F8FA6E48FFF75F
:1014A000F5FA6E48FFF7F2FA6D48FFF7EFFA6D486C
:1014B000FFF7ECFA6C48FFF7E9FA6C48FFF7E6FA39
:1014C0006B48FFF7E3FA6B48FFF7E0FA2046FFF7B7
:1014D000DDFA6948FFF7DAFA6848FFF7D7FA684893
:1014E000FFF7D4FA6748FFF7D1FA6748FFF7CEFA5B
:1014F0006648FFF7CBFA6648FFF7C8FA6548FFF77A
:10150000C5FA6548FFF7C2FA6448FFF7BFFA6448B6
:10151000FFF7BCFA2846FFF7B9FA2846BDE838407D
:10152000FFF7B4BAC0C30000401A010038D200006F
:10153000A8DA0000B4DA0000C0DA0000CCDA00005B
:10154000D8DA0000E4DA0000F0DA0000FCDA00008B
:1015500008DB000014DB000020DB00002CDB0000B7
:1015600038DB000044DB000050DB00005CDB0000E7
:1015700068DB000074DB000080DB00008CDB000017
:1015800098DB0000A4DB0000B0DB0000BCDB000047
:10159000C8DB0000D4DB0000E0DB00002CDA000038
:1015A000F4DB000000DC00000CDC000068D200006E
:1015B00024DC000030DC00003CDC000048DC0000E3
:1015C00054DC000060DC00006CDC000078DC000013
:1015D00084DC000090DC00009CDC0000A8DC000043
:1015E000B4DC0000C0DC0000CCDC0000D8DC000073
:1015F000E4DC0000F0DC0000FCDC000084D1000032
:101600005CDA00002CC4000068DA000074DA000024
:101610009CD1000080DA000050C800005CC80000C7
:1016200098DA000018DC000008DA0000302E010013
:1016300020FB00005CFC0000F819010038C4000029
:101640004CC900004C1A0100A8BA000034C90000BF
:1016500058C9000050D200008CDA000008FC0000DD
:101660005CB2000094C30000F4D9000018BB000075
:10167000080101003C2E01006801010078BA000059
:1016800074D2000068C8000018B20000ECD000005E
:10169000A41A0100B818010050BB000014DA0000C1
:1016A00044C8000038B5064D2B68984206DD044654
:1016B0000448FFF7EBF92B68A342F9DB38BD00BF04
:1016C000E807FF1F401A010038B5094C094D14F80E
:1016D000012B02F07F0305EBC3033AB15B681846A8
:1016E000002BF4D0FFF7D2F90028F0D138BD00BFAD
:1016F000EC1A010044C4000038B5094C094D14F837
:10170000012B02F07F0305EBC3033AB15B68184677
:10171000002BF4D0FFF7BAF90028F0D138BD00BF94
:10172000201B010044C40000F0B585B00DF1040E8B
:101730004FF0203304ADCEF8043000220193CEF8F0
:10174000083080EAE073A3EBE07305F8012D0A2668
:10175000DFF898C000E026468CFB0327DA17C2EBBF
:10176000A70202EB8207A3EB4703303305F8013DE4
:10177000131E06F1FF34EEDC00282EDB002918DDF5
:10178000C1EB0E04184D0A3414F8012F02F07F0348
:1017900005EBC30352B15B681846002BF4D0FFF78A
:1017A00075F90028F0D1002005B0F0BD012005B08A
:1017B000F0BD0D4D744414F8012F02F07F0305EBCA
:1017C000C303002AF2D05B681846002BF3D0FFF762
:1017D0005DF90028EFD10020E6E704AB23442D2279
:1017E000B41E03F80C2CC9E744C4000067666666A3
:1017F000F8B59B4D2B6813F83040E4B2C700E10701
:1018000006463B4400F19680A20777D4630718D5BB
:10181000944B1B68632B00F3A7802B68924A934874
:1018200011683B445B78DBB2435413688D48013345
:10183000632B13604FF00101C4BF00231360FFF757
:101840004DF82A6812F8363003F0F803083B402BB5
:1018500053D8DFE813F0410052005200520052000A
:101860005200520052003B015200520052005200FE
:101870005200520052008D0052005200520052009D
:10188000520052005200A400520052005200520076
:1018900052005200520048015200520052005200C1
:1018A00052005200520059015200520052005200A0
:1018B000520052005200B00052005200520052003A
:1018C000520052005200FC005200520052005200DE
:1018D0005200520052006101654C664A23782A602A
:1018E000002B40F05181644C2378002B40F046815E
:1018F000624C2378002B00F02981F8BD2B68604AE8
:101900003B4459681368632B00F30E815D4A5E48BF
:10191000D2F800E0136840F82E100133632B1360F7
:101920004FF00101C8BF00235548C8BF1360FEF740
:10193000D5FF6BE7554A5B781268B2F57A7FDBB268
:1019400080F2F680524A53481168435413684F4856
:101950000133B3F57A7F13604FF00101A4BF002378
:101960001360FEF7BBFF4FE70120FFF743F868E77E
:101970003F4C494A23782A60002B00F0AE80474B49
:101980001C78E4B2012C00F0D7803C4C2378002B6B
:10199000B3D04348FFF756F800232370F8BD344C0A
:1019A000404A23782A60002BE9D03F48FFF74AF8E5
:1019B00000232370E3E73D4C2378012B00F0F480F3
:1019C0002378022B00F0FA802378032B2F4B00F0B2
:1019D000C3801A6840F2E6339A4200F3E1802C4D4E
:1019E0002C4E2B6829480A22F2542B680133B3F598
:1019F0007A7F2B604FF00101A4BF00232B60FEF71C
:101A00006DFF2B6822490D22F2542B680133B3F588
:101A10007A7F2B6001DB00230B6001211B48FEF75E
:101A20005DFF234B1B78012B7FF467AF2148FFF745
:101A300009F82378DBB2012B04BF1F4A1370237807
:101A4000032B7FF45AAF1D4B01221A70F8BD1C48BE
:101A50001C49026003221C4B0A702B60F8BD00BFBA
:101A60003417FF1F3C13FF1F3C17FF1FC4A10020AA
:101A7000FCA8002058DD00004C17FF1F4413FF1F77
:101A800058A200204013FF1FAC17FF1F5017FF1F65
:101A90005CA200204C13FF1F80010100E407FF1F20
:101AA00080B2000028EC000014C300003D08FF1FB6
:101AB000DE07FF1FC0C30000B8A300203817FF1FB8
:101AC000B8A10020AAA300208CD20000494C4A4AA9
:101AD00023782A60002B7FF452AF4848FEF7B2FF0C
:101AE000012323704BE7434C454A23782A60002B9F
:101AF00050D1444C2378002B3FF447AF4248FEF7C7
:101B0000A1FF0023237040E74048414902600222C0
:101B1000404B0A702B60F8BD3C483D4902600422EE
:101B20003D4B0A702B60F8BD0420FEF763FF6DE6A5
:101B30000320FEF75FFF67E6324D2B78002B7FF422
:101B400024AF3148FEF77EFF2C701EE73348FEF7C6
:101B500079FF01232370F8BD1B68B3F57A7F1FDA84
:101B60002F4A304913680A20C85413680133B3F56B
:101B70007A7F1360A4BF002313604EE72248FEF76C
:101B800061FF00232370B3E61C48FEF75BFF0023D0
:101B90002370A8E61948FEF755FF00232370A8E735
:101BA0000320FEF727FF3CE71F4B1B68B3F57A7F46
:101BB000F6DA1B4A1B4913680D20D5E71A4B1A6841
:101BC00040F2E6339A42EBDC154D164E2B68164870
:101BD0000D22F2542B680133B3F57A7F2B604FF05E
:101BE0000101A4BF00232B60FEF778FE2B680C498F
:101BF0000A2209E7FCA80020C0E4000014C300008A
:101C000090F300004C17FF1F88FB0000B8A10020D4
:101C1000AAA3002010B30000F8080100AC180100CE
:101C20005CA200204C13FF1F5017FF1FC0B2124BC5
:101C300053F8303093F800321BB9104B5A5C6AB13C
:101C400070470E4B5A5C002AFAD000225A540C4BB3
:101C50000C4A1B680F3342F82130704701225A5456
:101C6000074B08481B68084A553340F82130106874
:101C70000844FFF7BDBD00BF7C2E01005C17FF1FAD
:101C8000F0A80020B4A70020A0A3002038B52B4D59
:101C90002B4CFEF71FFD0820FEF728FED5F880200C
:101CA00023689A4245D9D5F8842023689A423BD9C3
:101CB000D5F8882023689A4231D9D5F88C2023683A
:101CC0009A4227D9D5F8902023689A421DD9D5F891
:101CD000942023689A4213D9D5F8982023689A4211
:101CE00009D9D5F89C2023689A4203D827210520DA
:101CF000FFF79CFF38BD26211520FFF797FFF0E77F
:101D000025211420FFF792FFE6E724210620FFF7A4
:101D10008DFFDCE723210820FFF788FFD2E722218F
:101D20000720FFF783FFC8E721210E20FFF77EFF82
:101D3000BEE720210220FFF779FFB4E7B4A7002017
:101D4000F0A8002038B52B4D2B4CFEF7C3FC092022
:101D5000FEF7CCFDD5F8A02023689A4245D9D5F8E6
:101D6000A42023689A423BD9D5F8A82023689A4238
:101D700031D9D5F8AC2023689A4227D9D5F8B020BC
:101D800023689A421DD9D5F8B42023689A4213D902
:101D9000D5F8B82023689A4209D9D5F8BC20236821
:101DA0009A4203D82F210520FFF740FF38BD2E218E
:101DB0001520FFF73BFFF0E72D211420FFF736FF3A
:101DC000E6E72C210620FFF731FFDCE72B21082076
:101DD000FFF72CFFD2E72A210720FFF727FFC8E7EC
:101DE00029210E20FFF722FFBEE728210220FFF75E
:101DF0001DFFB4E7B4A70020F0A8002038B5214D9E
:101E0000214CFEF767FC0A20FEF770FDD5F8C020D4
:101E100023689A4231D9D5F8C42023689A4227D939
:101E2000D5F8C82023689A421DD9D5F8CC2023685C
:101E30009A4213D9D5F8D02023689A4209D9D5F807
:101E4000D42023689A4203D835211520FFF7EEFEEF
:101E500038BD34211420FFF7E9FEF0E733210620D6
:101E6000FFF7E4FEE6E732210820FFF7DFFEDCE7BC
:101E700031210720FFF7DAFED2E730210E20FFF7ED
:101E8000D5FEC8E7B4A70020F0A8002038B5264D3D
:101E9000264CFEF71FFC0C20FEF728FDD5F8E820A5
:101EA00023689A423BD9D5F8EC2023689A4231D96D
:101EB000D5F8F02023689A4227D9D5F8F420236872
:101EC0009A421DD9D5F8F82023689A4213D9D5F83B
:101ED000FC2023689A4209D9D5F8002123689A4248
:101EE00003D840210520FFF7A1FE38BD3F21152072
:101EF000FFF79CFEF0E73E211420FFF797FEE6E790
:101F00003D210620FFF792FEDCE73C210820FFF789
:101F10008DFED2E73B210720FFF788FEC8E73A2174
:101F20000220FFF783FEBEE7B4A70020F0A8002040
:101F300070B53C4C3C4DFEF7CDFB0E20FEF7D6FCB9
:101F4000D4F820212B689A422FD9D4F824212B6869
:101F5000344935489A422DD9D4F828212B689A4221
:101F60001ED9D4F82C212B689A4214D9D4F83021E8
:101F70002B689A420AD9D4F834212B689A4200D9A6
:101F800070BD4D211520FFF751FE70BD4C2114206E
:101F9000FFF74CFEEFE74B210820FFF747FEE5E790
:101FA0004A210720FFF742FEDBE748210220FFF726
:101FB0003DFECAE71D4B1B689B070CD51C4B93F8D5
:101FC0004920002AC8D0002283F8492003680F3333
:101FD000C1F82431C0E7164A92F84930002BBBD132
:101FE000012682F84960026812485532C1F824215E
:101FF00002785AB9104A114B067016701A78104BB5
:10200000002A14BF9E224F221A60A5E70A490B4AF4
:1020100003700B7012780A4B002A14BF9E22002214
:102020001A6099E7B4A70020F0A80020D0F00F4074
:102030005C17FF1F9DA30020E89F0020F49F002055
:10204000A0A30020C0B2204B53F8303093F80032E8
:10205000DBB91E4B5A5C70B41ABB01225A541C4A9D
:102060001C4D16681C4C1D480F290CBF9623552388
:10207000334445F82130136803F5FA7344F82130EE
:10208000006870BC0844FFF7B3BB104B5A5C82B1C8
:1020900000225A540E4B0F4A1B680F3342F821306E
:1020A00070470D4B0A4A53F821401068844201D909
:1020B00070BC704712680948643243F821200068F8
:1020C00070BC0844FFF794BB7C2E01005C17FF1F17
:1020D000F0A80020B4A7002060A20020A0A3002048
:1020E00038B54A4D4A4CFEF7F5FA0D20FEF7FEFBD7
:1020F000D5F8042123689A4211D9D5F8082123681C
:102100009A4215D9D5F8142123689A4219D9D5F8DD
:102110001C2123683D483E499A4217D938BD4121C8
:102120000220FFF78FFFD5F8082123689A42E9D8EB
:1021300042210E20FFF786FFD5F8142123689A422A
:10214000E5D845211420FFF77DFFE0E7314B1B6800
:102150001B060CD5304B93F84720002A34D00022C0
:1021600083F847200B680F33C0F81C3138BD2A4B69
:1021700093F8472002F0FF05AAB9012283F847200F
:102180000A68264C9632C0F81C210A6802F5FA72D9
:10219000C4F81C219B7DC3B9214B1868BDE83840A9
:1021A0004730FFF725BB1D4BD3F81C010A6890424E
:1021B000B4D80A681A496432C3F81C210868BDE81B
:1021C00038404730FFF714BB38BD4FF0FF32154B96
:1021D000C4F81C211B68632B12DC134A13491068D6
:1021E0001368134C41F820400133632B13604FF008
:1021F0000101C8BF15600B48BDE83840FEF76EBB53
:102200000420BDE83840FEF7F5BB00BFB4A70020AE
:10221000F0A80020D0F00F405C17FF1F60A2002044
:10222000A0A3002058A200204013FF1FAC17FF1FDF
:1022300070C3000038B5264D264CFEF74BFA062039
:10224000FEF754FB2A6E23689A420ED96A6E236801
:102250009A4212D9AA6E23689A4216D9EA6E236866
:102260001B491C489A4215D938BD18210E20FFF78A
:10227000DDFC6A6E23689A42ECD819210820FFF72A
:10228000D5FCAA6E23689A42E8D81A210620FFF7E7
:10229000CDFCE3E7104B1B685B0608D50F4BDA7EDD
:1022A000AAB10022DA7603680F33CB6638BD0B4B38
:1022B000DA7E002AD8D10122DA760368084A55333B
:1022C000CB661068BDE838401B30FFF791BA38BDC7
:1022D000B4A70020F0A80020D0F00F405C17FF1F2B
:1022E000A0A3002038B5264D264CFEF7F3F90720B1
:1022F000FEF7FCFA2A6F23689A420ED96A6F2368A8
:102300009A4212D9AA6F23689A4216D9EA6F2368B3
:102310001B491C489A4215D938BD1C210E20FFF7D5
:1023200085FC6A6F23689A42ECD81D210820FFF7CC
:102330007DFCAA6F23689A42E8D81E210620FFF789
:1023400075FCE3E7104B1B685B0608D50F4BDA7F83
:10235000AAB10022DA7703680F33CB6738BD0B4B85
:10236000DA7F002AD8D10122DA770368084A553388
:10237000CB671068BDE838401F30FFF739BA38BD69
:10238000B4A70020F0A80020D0F00F405C17FF1F7A
:10239000A0A3002038B52C4D2C4CFEF79BF90B2048
:1023A000FEF7A4FAD5F8D82023689A4211D9D5F8B7
:1023B000DC2023689A4215D9D5F8E02023689A4298
:1023C00019D9D5F8E42023681F4920489A4217D923
:1023D00038BD36210E20FFF729FCD5F8DC20236814
:1023E0009A42E9D837210820FFF720FCD5F8E020F1
:1023F00023689A42E5D838210620FFF717FCE0E76A
:10240000134B1B685B060BD5124B93F83920D2B1E6
:10241000002283F8392003680F33C1F8E43038BD57
:102420000C4B93F83920002AD2D1012283F83920AD
:102430000368094A5533C1F8E4301068BDE83840F4
:102440003930FFF7D5B938BDB4A70020F0A8002077
:10245000D0F00F405C17FF1FA0A30020144B1B7887
:10246000012B00D07047134B1B78012BFAD1431E70
:10247000022B16D81049114A0B68013310B40B60B7
:1024800052F820300E4C013342F82030236813F00C
:10249000FF0F07D10B4B4FF080721A605DF8044BB1
:1024A000E0E77047084B4FF080721A60F6E700BF14
:1024B000AAA300203908FF1FA4A7002004A0002021
:1024C000A4A3002008F10F4004F10F40AA4B1B7891
:1024D000002B00F0DA802DE9F04FA84BA84A1B68CA
:1024E00087B00593059B13604FF44873013BFDD102
:1024F000A44BA54AD3F800B0D2F800A0D3F80090BE
:10250000D3F80080D2F800C0D3F800E01F681E683E
:1025100019680091146810681168126801929B4A4A
:102520001D681268029204F4805406F0800203923F
:10253000009E019A009405F00204029D0BF0040B2A
:102540000AF4803A09F0080908F001080CF4003C8C
:102550000EF0100E07F0400706F4807600F40050ED
:1025600001F4804102F4004245B91B685B0702D5C3
:1025700007B0BDE8F08F854D0E232B60BBF1000F37
:1025800043D1BAF1000F43D0804B1B680E2B00F0F3
:10259000BC807E4B1B68012B00F0B780B9F1000FA7
:1025A00074D0B8F1000F00F0FD80BCF1000F00F016
:1025B0003C81BEF1000F00F07681002F00F0EE812B
:1025C000039B002B00F08581002E00F02182009BF0
:1025D000002B00F09481002800F0A481002900F075
:1025E000B481002A00F05082002C00F06082BBF120
:1025F000000F00F08482BCF1000F00F06D82FEF746
:1026000069F80320FFF72AFFB2E7BAF1000FC5D13E
:10261000B9F1000F3AD05D4BDFF870911B68012BC8
:1026200003D0D9F80030022BBBD1584B574A1B6856
:10263000012B9DD102251560FEF74CF82846FEF7C8
:1026400055F9534C4E4BA2681B689A4240F2A18147
:102650004B4B62691B689A4240F29681484BE26993
:102660001B689A4240F28B81454B226A1B689A4252
:1026700040F28081424B626A1B689A423FF678AF13
:1026800009210520FFF7DEFC72E77047B8F1000F63
:1026900000F088803D4BDFF8F4801B68022B03D0EC
:1026A000D8F80030032B80D1384B384A1B68022BF6
:1026B0007FF45EAF03251560FEF70CF82846FEF7A1
:1026C00015F9334C2E4BA26A1B689A4240F28C815A
:1026D0002B4BE26A1B689A4240F28181284B226BA5
:1026E0001B689A4240F27681254B626B1B689A42C6
:1026F00040F26B81224BA26B1B689A423FF638AFC7
:102700000E211520FFF792FA32E7204B1F4A1B6873
:102710000E2B7FF42DAF01241460FDF7DBFF204664
:10272000FEF7E4F81B4B1A4C1870154B22681B6817
:102730009A4275D9124B62681B689A426BD9164B44
:1027400016491868164A0860116821B10C490968D1
:102750001068091A19600A49096811601B680E4A55
:10276000092B40F29C801368192B7FF601AF0220E1
:10277000FFF774FEFCE600BFAAA30020D4A9002046
:10278000F0A8002090F00F4010F00F405817FF1FE6
:10279000B4A70020A8A7002030A20020E09F0020BE
:1027A000B4A30020BCF1000F3FD0AE4BDFF8B482E1
:1027B0001B68032B04D0D8F80030042B7FF4F9AE4B
:1027C000A84BA84A1B68032B7FF4D2AE04251560E2
:1027D000FDF780FF2846FEF789F8A34CA34BE26B78
:1027E0001B689A4240F20F81A04B226C1B689A42F0
:1027F00040F204819D4BA26C1B689A4240F2F98022
:102800009A4BA26D1B689A423FF6B2AE1621052084
:10281000FFF70CFAACE601210E20FEF715F88EE763
:1028200000210220FEF710F884E7BEF1000F3AD035
:102830008C4BDFF830821B68042B04D0D8F80030B2
:10284000052B7FF4BAAE874B864A1B68042B7FF4B6
:102850008FAE05241460FDF73DFF2046FEF746F8D5
:10286000834A814B1070814AD86D116888423FF6C7
:102870007FAE80498048096811F0010FC17D40F0AA
:10288000DD8000297FF474AE0121C17512687B4D93
:102890007B4855329E24DA652970046068E6012081
:1028A000FFF7DCFD64E6002F78D06E4B6D4F1B68A0
:1028B000052B03D03B68062B7FF482AE694B694A37
:1028C0001B68052B7FF454AE06231360FFF7B2FCA0
:1028D0004EE6002E00F09C80624B1E68072E03D04F
:1028E0001B68082B7FF473AE5E4B5E4A1B68072B98
:1028F0007FF43EAE08231360FFF7C8F938E688B1CD
:10290000584B1868092803D01B680A2B7FF466AE61
:10291000544B1A68092A7FF42BAE0A221A60FFF77B
:102920006DFA25E689B14F4B19680A2903D01B6857
:102930000B2B7FF456AE4B4B1A680A2A7FF418AE65
:102940000B221A60FFF726FD12E6002A00F09C8099
:10295000444B1A680B2A03D01B680C2B7FF444AE3F
:10296000404B1A680B2A7FF403AE0C221A60FFF763
:102970008DFAFDE508211520FFF758F97AE60721C1
:102980001420FFF753F96FE605210820FFF74EF9F1
:1029900064E629462846FFF755FB59E6039B002BC2
:1029A00097D0304B2F4F1B68062B03D03B68072B6B
:1029B0007FF40AAE2B4B2B4A1B68062B7FF4D8AD55
:1029C00007231360FFF78EFCD2E50D211420FFF7DB
:1029D0002DF98FE60C210620FFF728F984E60B215C
:1029E0000820FFF723F979E60A210E20FFF71EF9E8
:1029F0006EE612210820FFF719F901E710210E20D9
:102A0000FFF714F9F6E60F210220FFF71BFBEBE6B8
:102A1000009B002B3FF473AF124B1E68082E03D0AF
:102A20001B68092B7FF4D7AD0E4B1A68082A7FF478
:102A30009FAD09221A60FFF785F999E500293FF457
:102A400097AD0021C17512680C4D0E4C0C480F3229
:102A5000DA65297023788B4214BF4F230B4603603D
:102A600086E500BF5817FF1FB4A70020F0A800207C
:102A700054A20020D0F00F405C17FF1FF49F0020ED
:102A8000A0A30020E89F00208CB1214B1A680C2ADB
:102A900003D01B680D2B7FF4AAAD1D4B1A680C2ABE
:102AA0007FF466AD0D221A60FFF71AFB60E5BBF1FB
:102AB000000F24D0164B1A680D2A03D01B680E2B6A
:102AC0007FF499AD124B1A680D2A7FF451AD0E2296
:102AD0001A60FFF72DFA4BE5BEF1000F3FF48FAD02
:102AE0000C4C2378002B3FF48AADFDF7F3FD2278E0
:102AF000094B53F83230012283F8802038E5BAF1CF
:102B0000000F3FF478AD054C2378002BEDD172E532
:102B10005817FF1F54A200207C2E0100A8A70020F8
:102B200070B500284ED1374D3748FDF7AFFF374815
:102B3000FDF7ACFF14243648FDF7A8FF013CFAD19D
:102B4000344E337833B13448FDF7A0FF3378013485
:102B5000A342F8DC314B324E01241C603378A3428F
:102B600006DD2D48FDF792FF33780134A342F8DCEF
:102B70002C48FDF78BFF2C48FDF788FF34782B7825
:102B8000E4B29C4212DC294E02E02B78A3420DDB1A
:102B9000335D012B12D02B78A34204F10104F4DD44
:102BA0001D48FDF773FF2B78A342F1DA2048FDF7AB
:102BB0006DFF1548BDE87040FDF768BF1D48FDF783
:102BC00065FFE8E7C82202211848184E08F0ACF863
:102BD000194B1B78022B0ED00A4D2B78DBB2012249
:102BE000F2540024315D04F16400013405F08EF9E3
:102BF000C82CF7D198E708230122F2540833C82BD8
:102C0000FBD1E9E73A08FF1FC0C300003CBB00004E
:102C100090D1000000A00020401A0100E807FF1F2B
:102C20001108FF1F20C3000084BB000000A9002082
:102C3000A400010050DA0000C0A100202DE9F04FEF
:102C40008149DFF850A2814E814DDFF84C82DFF8D8
:102C50004C92804F804C012302228AF8003032705F
:102C60002A700B707D494FF0500C81F800C07C49F0
:102C70000B707C490A707C490B707C4988F80020F5
:102C80004FF00D0E81F800E079490B7079494FF053
:102C9000030E81F800E078490A7078490B70784992
:102CA00089F800200B7077490B7077490A703A70E9
:102CB000764A82F800C022789A4283B0834600F0B8
:102CC00025822278724A01921370BBF1000F40F006
:102CD000B780584605F000F9DB2800F0818058469F
:102CE00000210BF1010B05F011F9BBF5805FF6D166
:102CF000DB21002005F00AF93C21012005F006F94E
:102D00009AF80010022005F001F93178032005F04F
:102D1000FDF82978042005F0F9F84B4B05201978C7
:102D200005F0F4F84D4B0620197805F0EFF82178FE
:102D3000072005F0EBF84A4B0A20197805F0E6F871
:102D4000484B0B20197805F0E1F8474B142019780F
:102D500005F0DCF898F80010152005F0D7F8434B83
:102D60001620197805F0D2F8414B1720197805F094
:102D7000CDF8404B1820197805F0C8F83E4B1920C3
:102D8000197805F0C3F83D4B1A20197805F0BEF804
:102D900099F80010212005F0B9F8394B1B2019785B
:102DA00005F0B4F8374B1C20197805F0AFF8364B16
:102DB0001F20197805F0AAF83978202005F0A6F828
:102DC000324B1D20197805F0A1F8019B1E201978BF
:102DD00005F09CF8012003B0BDE8F04FFFF7A0BE5E
:102DE000012005F079F80146002800F095813B2884
:102DF00056D8202005F070F8002800F092810128B4
:102E000000F093810121202005F080F81E2005F0BC
:102E100063F8002800F03482012800F03582002198
:102E20001E2005F073F8012005F056F80146B8BBE6
:102E3000012005F06BF83C21012005F067F831E036
:102E40004FF0000B4BE700BF1108FF1F3908FF1FB1
:102E5000DD07FF1FD807FF1FC0A100203A08FF1F92
:102E6000D907FF1FE407FF1F1008FF1FE607FF1F1A
:102E7000E507FF1F3B08FF1F2408FF1FDA07FF1F9E
:102E80003808FF1F3D08FF1F0E08FF1FE707FF1F41
:102E900000A000203C08FF1FDE07FF1F0F08FF1FD8
:102EA0003C29C8D19AF800B002205FFA8BFB05F0EC
:102EB00013F8002800F0DE818AF8000096F800A0E0
:102EC00003205FFA8AFA05F007F8002800F038813D
:102ED00030702E780420F6B204F0FEFF002800F0D7
:102EE0002981CA4B28701E780520F6B204F0F4FF41
:102EF000002800F0B981C54B1870C54B1E7806201C
:102F0000F6B204F0E9FF002800F0A881C04B187069
:102F1000072004F0E1FF94F800A006465FFA8AFA61
:102F2000002800F095812378BA4AB34203D0117883
:102F3000072004F0EBFFB84B93F800A00A205FFADB
:102F40008AFA04F0C9FF002800F05A81B24B1870C9
:102F5000B24B93F800A00B205FFA8AFA04F0BCFF92
:102F6000002800F04781AD4B1870AD4B93F800A0DE
:102F700014205FFA8AFA04F0AFFF002800F03481D1
:102F8000A74B187098F800A015205FFA8AFA04F091
:102F9000A3FF002800F02281A24B88F8000093F8DC
:102FA000008016205FFA88F804F096FF002800F0F1
:102FB0000F819C4B18709C4B93F8008017205FFA90
:102FC00088F804F089FF002800F0FC80964B187008
:102FD000964B93F8008018205FFA88F804F07CFF85
:102FE000002800F0E980914B1870914B93F8008015
:102FF00019205FFA88F804F06FFF002800F0D680EF
:103000008B4B18708B4B93F800801A205FFA88F86E
:1030100004F062FF002800F0C380864B187099F816
:10302000008021205FFA88F804F056FF002800F0A5
:10303000B180814B89F8000093F800801B205FFA73
:1030400088F804F049FF002800F09E807A4B187041
:103050007A4B93F800801C205FFA88F804F03CFF5C
:10306000002800F08B80754B1870754B93F800802A
:103070001F205FFA88F804F02FFF002878D0704BEB
:1030800018703B7820205FFA83F804F025FF0028B1
:1030900068D06C4B38701B781D20DFB204F01CFF29
:1030A000002859D0674B1870019B1B781E20DFB297
:1030B00004F012FF002849D0019B18702378B34216
:1030C0007FF488AEDFF88481002404E008F804006F
:1030D0000134C82C13D018F8041004F164073846E2
:1030E000CEB204F0F9FE0028F0D13846314604F0A3
:1030F0000DFF304608F804000134C82CEBD12B78C2
:10310000022B00F0C68003B0BDE8F08F4E4B019358
:103110001A4600231370D8E53C21012004F0F6FE86
:1031200081E60121202004F0F1FE0221202004F09C
:10313000EDFE6BE60420314604F0E8FE3046D0E6B2
:103140000320514604F0E2FE5046C1E61E203946F7
:1031500004F0DCFE3846AFE71D20394604F0D6FE09
:1031600038469FE72020414604F0D0FE404690E7D5
:103170001F20414604F0CAFE404680E71C2041461D
:1031800004F0C4FE40466EE71B20414604F0BEFE3C
:1031900040465BE72120414604F0B8FE404648E740
:1031A0001A20414604F0B2FE404636E71920414657
:1031B00004F0ACFE404623E71820414604F0A6FE8A
:1031C000404610E71720414604F0A0FE4046FDE6C9
:1031D0001620414604F09AFE4046EAE61520514684
:1031E00004F094FE5046D7E61420514604F08EFEBB
:1031F0005046C5E60B20514604F088FE5046B2E624
:103200000A20514604F082FE50469FE61108FF1F37
:103210003A08FF1FC0A10020D907FF1FE407FF1FC6
:103220001008FF1FE607FF1FE507FF1F3B08FF1FF2
:103230002408FF1FDA07FF1F3808FF1F3D08FF1F84
:103240000E08FF1FE707FF1F00A0002000A90020B5
:103250005146072004F05AFE564664E606203146E1
:1032600004F054FE304651E60520314604F04EFE8F
:10327000304640E60220594604F048FE58461BE618
:1032800001211E2004F042FE01211E2004F03EFE1A
:10329000C9E500209FE500BF2DE9F04F4C4E4D4F92
:1032A0003278012400233470BB604B4B1B6893B011
:1032B00013F0FF0FD2B214BF484B494B01920029C3
:1032C0004FF0807205460C461A6040DB08D04FF084
:1032D000000808F101082846FDF7D8FB4445F8D15D
:1032E000404D414C2B6822689A4206D0012004F0E0
:1032F000BDFF2A6823689A42F8D14FF4FA6004F0BF
:10330000B5FFBC6803212046FEF70EFA3748FDF7EB
:10331000BDFB4FF4FA6004F0A9FF00239DF80420E0
:103320003270BB602C4B1B6813F0FF0F07D12C4B86
:103330004FF0807220461A6013B0BDE8F08F274B23
:103340004FF0807220461A6013B0BDE8F08F284A13
:103350004568DFF8A480DFF8A4C0DFF8A4E0254BBF
:1033600007CA0DF10C0B8BE8070098E807000DF178
:10337000180A8AE807009CE807000DF1240989E88B
:1033800007009EE807000DF1300888E8070093E881
:10339000070005F586433033049507950FAD0A9372
:1033A0000D9385E80700002510935846FDF76EFB46
:1033B0005046FDF76BFB4846FDF768FB4046FDF7BE
:1033C00065FB013D0FA8FDF761FBAC42EDD187E73E
:1033D0003908FF1F04A00020E007FF1F04F10F4081
:1033E00008F10F40EC9F00202CA20020C0C3000079
:1033F0005CDB000098DA000098DB000084D100005C
:1034000050C800002DE9F04F0646904607C985B028
:1034100001AD85E807004348FDF738FB029B002B10
:103420004BDB41462846FFF737FF092832DD0125EF
:1034300000243D4F013E16F8012F02F07F0307EBF9
:10344000C3033AB15B681846002BF4D0FDF71EFBAE
:103450000028F0D1354E344F16F8012B02F07F03CF
:1034600007EBC3033AB15B681846002BF4D0FDF7B5
:103470000DFB0028F0D120460021FEF755F9FDB9DB
:103480002848FDF703FB4FF4FA6004F0EFFE05B0A7
:10349000BDE8F08F00284FF0000424DD029B03F507
:1034A0001C5310334146284601340293FFF7F4FEC3
:1034B000C8B1142CF2D10125BBE700252C46B8E792
:1034C0001B4C194D14F8012B02F07F0305EBC303CD
:1034D000002AD5D05B681846002BF3D0FDF7D6FA4A
:1034E0000028EFD1CCE7A4F1140A42F20F79029F31
:1034F000002F04F1FF3BA7F51C530DDD4F45CCBF5A
:10350000103B0023414628460293FFF7C5FE28B929
:10351000D3455C46EBD1CEE700258AE7029700252C
:1035200087E700BFC0C3000044C400007C1F010047
:10353000701B010008B54D223B493C48FFF762FF74
:103540004D223B493B48FFF75DFF4D223A493B483E
:10355000FFF758FF6FF00E0239493A48FFF752FF64
:103560004D2239493948FFF74DFF4D223849394836
:10357000FFF748FF4D2238493848FFF743FF142230
:1035800037493848FFF73EFF142237493748FFF7DD
:1035900039FF142236493748FFF734FF14223649E1
:1035A0003648FFF72FFF142235493648FFF72AFF28
:1035B0000A2235493548FFF725FF1422344935489A
:1035C000FFF720FF142234493448FFF71BFF142271
:1035D00033493448FFF716FF142233493348FFF7C5
:1035E00011FF142232493348FFF70CFF14223249ED
:1035F0003248FFF707FF142231493248FFF702FF34
:10360000142231493148FFF7FDFE14223049314878
:10361000FFF7F8FE304831490A22FFF7F3FE304841
:10362000BDE80840FDF732BAD4DB0000981B01006A
:1036300038D20000A81B0100901A0100B81B01003D
:10364000B4BA0000C41B010084C30000E01B0100E9
:1036500074010100F41B0100341801000C1C01006E
:10366000C4B20000241C01005CD20000401C010018
:1036700040C90000541C0100E4C300006C1C0100A0
:103680008CBA0000801C0100C4180100981C0100C5
:1036900064C90000B01C0100F4D90000C41C010082
:1036A00008010100D81C010074D20000F01C0100C8
:1036B00018B20000041D0100A41A0100181D010029
:1036C000B8180100341D010050BB0000481D010066
:1036D00014DA00005C1D0100701D010044C80000E8
:1036E000C0C300002DE9F843164D174EDFF8608087
:1036F0000746A946336814484FF0FF31DBB12B6809
:1037000018F803402B680133632B2B60E4B2C4BF6D
:103710000023C9F80030FDF7E1F82146384607F0EC
:1037200067FB60B90948FDF7B1F9336806484FF007
:10373000FF31002BE3D1012004F098FDDAE72046A9
:10374000BDE8F8834813FF1F3C13FF1F44D200005D
:10375000C4A10020F8B505462248FFF7C3FF0D2895
:1037600037D02D2804462ED01F4B00F07F0203EBEC
:10377000C203586808B1FDF789F9B4F130051DD4CA
:103780000027194E0CE05B6818460BB1FDF77EF977
:10379000303C05EB850304EB4304AC420DDB2546CE
:1037A0001248FFF79FFF00F07F030D28044606EB49
:1037B000C303E8D12FB16842F8BD87B96FF000406C
:1037C000F8BD2846F8BD0A48FDF760F90025012735
:1037D000D7E700212846FDF7A7FF2846F8BD4FF0A0
:1037E0000040F8BD841D010044C40000941D010088
:1037F00050D200002DE9F047DFF86891574C0E4693
:1038000015461F4600F1FF38DFF85CA11AF8012BBE
:1038100002F07F0304EBC3033AB15B681846002B48
:10382000F4D0FDF733F90028F0D1C2461AF8012F81
:1038300002F07F0304EBC3033AB15B681846002B28
:10384000F4D0FDF723F90028F0D1DFF820A11AF811
:10385000012B02F07F0304EBC3033AB15B68184607
:10386000002BF4D0FDF712F90028F0D100212846F2
:10387000FDF75AFFDFF8F8A01AF8012B02F07F03DA
:1038800004EBC3033AB15B681846002BF4D0FDF794
:10389000FDF80028F0D100213846FDF745FFDFF89C
:1038A000D4A01AF8012B02F07F0304EBC3033AB152
:1038B0005B681846002BF4D0FDF7E8F80028F0D13B
:1038C00000213046FDF730FFDFF8ACA01AF8012BDD
:1038D00002F07F0304EBC3033AB15B681846002B88
:1038E000F4D0FDF7D3F80028F0D199F800303F2B41
:1038F00002DD4020FDF7D6FE3046FFF72BFFA84241
:10390000824601DBB84213DDDFF870A01AF8012B04
:1039100002F07F0304EBC303002A3FF475AF5B683A
:103920001846002BF2D0FDF7B1F80028EED16BE776
:103930000B4C0A4D14F8012B02F07F0305EBC30377
:103940003AB15B681846002BF4D0FDF79FF80028C9
:10395000F0D15FFA8AF0BDE8F08700BF44C40000F0
:10396000341E0100E707FF1FA01D0100A41D010078
:10397000A81D0100AC1D0100D81E0100B01D0100F2
:1039800038B5424C424D14F8012B02F07F0305EB91
:10399000C3033AB15B681846002BF4D0FDF776F804
:1039A0000028F0D13B4B1B78432B02DD4420FDF770
:1039B00079FE3948FFF796FE00F0DF03532B2BD03A
:1039C000452B3CD0432B14D004284BD0334C304DE6
:1039D00014F8012B02F07F0305EBC3033AB15B68D7
:1039E0001846002BF4D0FDF751F80028F0D17120D3
:1039F00038BD2B4C264D14F8012B02F07F0305EB4C
:103A0000C3033AB15B681846002BF4D0FDF73EF8CB
:103A10000028F0D1632038BD224C1D4D14F8012B35
:103A200002F07F0305EBC3033AB15B681846002B35
:103A3000F4D0FDF72BF80028F0D1732038BD1A4CD4
:103A4000134D14F8012B02F07F0305EBC3033AB1C9
:103A50005B681846002BF4D0FDF718F80028F0D169
:103A6000652038BD114C0A4D14F8012B02F07F037C
:103A700005EBC3033AB15B681846002BF4D0FDF7A1
:103A800005F80028F0D1642038BD00BFBC1D01003E
:103A900044C40000E707FF1FEC1D01001C1E0100CD
:103AA0000C1E0100F81D0100041E0100381E01005B
:103AB000F8B5404E404F05460C4616F8012B02F073
:103AC0007F0307EBC3033AB15B681846002BF4D0C1
:103AD000FCF7DCFF0028F0D1374E013D15F8012F2F
:103AE00002F07F0306EBC3033AB15B681846002B74
:103AF000F4D0FCF7CBFF0028F0D1002C34D12F4DAF
:103B00002D4E15F8012B02F07F0306EBC3033AB1EB
:103B10005B681846002BF4D0FCF7B8FF0028F0D102
:103B2000274B1B78302B02DD3120FDF7BBFD2548EC
:103B3000FFF7D8FD00F0DF00592828D04E2800D02C
:103B40002CBB214C1C4D14F8012B02F07F0305EB1C
:103B5000C3033AB15B681846002BF4D0FCF796FF1C
:103B60000028F0D10020F8BD184D134E15F8012B98
:103B700002F07F0306EBC303002AD1D05B6818462E
:103B8000002BF3D0FCF782FF0028EFD1C8E7104CE0
:103B9000094D14F8012B02F07F0305EBC3033AB182
:103BA0005B681846002BF4D0FCF770FF0028F0D1BA
:103BB0000120F8BDA01D010044C40000441E010006
:103BC000E707FF1F5C1E01006C1E0100501E010074
:103BD000641E01002DE9F047DFF8F481DFF8F4916D
:103BE000D8F800301BB9D9F80030002B72D06848E3
:103BF000FCF74CFFD8F80030002B40F3A280654E54
:103C0000654C3746002556F82530002B1EDD08216F
:103C100057F82500FDF788FD6048FCF737FF604B3B
:103C200053F8253003F1FF3A1AF8012F02F07F0311
:103C300004EBC3033AB15B681846002BF4D0FCF7E1
:103C400025FF0028F0D15248FCF720FF0135082D50
:103C5000D9D100215348FFF72BFF00284FD14C4802
:103C6000FCF714FFD9F80030002B7DDD4E4E4A4C96
:103C70003746002556F82530002B1EDD082157F861
:103C80002500FDF751FD4548FCF700FF474B53F871
:103C9000253003F1FF3818F8012F02F07F0304EB01
:103CA000C3033AB15B681846002BF4D0FCF7EEFE74
:103CB0000028F0D13648FCF7E9FE0135042DD9D1B2
:103CC00000213B48FFF7F4FE28BB3148BDE8F04730
:103CD000FCF7DCBE374C304D14F8012B02F07F03AB
:103CE00005EBC3034AB15B681846002BF4D0FCF720
:103CF000CDFE0028F0D1BDE8F087BDE8F0870023B5
:103D00002024194622462348C8F8003007F00CF852
:103D1000294B1C60A3E70023284AC9F80030336010
:103D20007360B360F3601368194813F0FF0F14BF9A
:103D3000234B244B4FF080721A60BDE8F047FCF72C
:103D4000A5BE214C144D14F8012B02F07F0305EBA6
:103D5000C303002A83D05B681846002BF3D0FCF71E
:103D600095FE0028EFD17AE7184C0B4D14F8012B83
:103D700002F07F0305EBC303002AA6D05B68184658
:103D8000002BF3D0FCF782FE0028EFD19DE700BFA7
:103D9000C0C3000034A2002044C40000401A010047
:103DA000EC07FF1F8C1E010004A000201408FF1F59
:103DB000AC1E0100701E010088F00F40E007FF1FDD
:103DC00004F10F4008F10F40BC1E01009C1E0100D1
:103DD000E49F0020A4A70020F8B5424E424F0546BC
:103DE0000C4616F8012B02F07F0307EBC3033AB130
:103DF0005B681846002BF4D0FCF748FE0028F0D191
:103E0000394E013D15F8012F02F07F0306EBC30385
:103E10003AB15B681846002BF4D0FCF737FE002857
:103E2000F0D1012C49D0314D2F4E15F8012B02F065
:103E30007F0306EBC3033AB15B681846002BF4D04E
:103E4000FCF724FE0028F0D1294B1B783F2B02DD24
:103E50004020FDF727FC2748FFF744FC00F0DF0077
:103E6000542816D046283BD0012C12D0224D1E4E8D
:103E700015F8012B02F07F0306EBC303DAB15B6890
:103E80001846002BF4D0FCF701FE0028F0D12046A4
:103E9000F8BD1A4C144D14F8012B02F07F0305EB0A
:103EA000C3033AB15B681846002BF4D0FCF7EEFD73
:103EB0000028F0D101242046F8BD114D0A4E15F816
:103EC000012B02F07F0306EBC303002ABCD05B6822
:103ED0001846002BF3D0FCF7D9FD0028EFD1B3E74B
:103EE0000224C3E7A01D010044C40000CC1E010051
:103EF000E707FF1FEC1E0100FC1E0100F41E01007D
:103F0000DC1E01002DE9F84F384C394DDFF808A1CF
:103F10003848267895F800B0DFF80091DFF8008186
:103F2000354FFCF7B3FD9AF800103448FFF754FF03
:103F30008AF8000099F800103148FFF74DFF89F822
:103F4000000021782F48FFF747FF207098F80010F5
:103F50002D48FFF741FF88F8000039782B48FFF71C
:103F60003BFF387029782A480A230022FFF742FCD9
:103F7000034620482B70FCF789FD00212548F6B246
:103F80005FFA8BFBFFF794FD50B91A48FCF77EFDF2
:103F900023789E4225D00120BDE8F84FFEF7C0BD32
:103FA0009AF80010022003F0B1FF99F800100320E6
:103FB00003F0ACFF2178042003F0A8FF98F800106C
:103FC0000A2003F0A3FF39780B2003F09FFF297824
:103FD0001E2003F09BFF0748FCF758FD23789E4204
:103FE000D9D12B789B45D6D1BDE8F88FDD07FF1FCF
:103FF00000A00020C0C30000E407FF1F041F010051
:10400000141F0100241F0100381F0100481F010078
:10401000541F0100601F01003C08FF1F3908FF1FEB
:10402000D907FF1FF8B5424E424F05460C4616F819
:10403000012B02F07F0307EBC3033AB15B6818461C
:10404000002BF4D0FCF722FD0028F0D1394E013DC1
:1040500015F8012F02F07F0306EBC3033AB15B684A
:104060001846002BF4D0FCF711FD0028F0D1012CEC
:1040700049D0314D2F4E15F8012B02F07F0306EB8E
:10408000C3033AB15B681846002BF4D0FCF7FEFC82
:104090000028F0D1294B1B783F2B02DD4020FDF793
:1040A00001FB2748FFF71EFB00F0DF00552816D064
:1040B00052283BD0012C12D0224D1E4E15F8012B58
:1040C00002F07F0306EBC303DAB15B681846002BEE
:1040D000F4D0FCF7DBFC0028F0D12046F8BD1A4CE8
:1040E000144D14F8012B02F07F0305EBC3033AB122
:1040F0005B681846002BF4D0FCF7C8FC0028F0D110
:1041000001242046F8BD114D0A4E15F8012B02F08E
:104110007F0306EBC303002ABCD05B681846002B64
:10412000F3D0FCF7B3FC0028EFD1B3E70224C3E7D8
:10413000A01D010044C40000701F0100E707FF1F1D
:10414000901F0100A01F0100981F0100801F0100A7
:10415000F8B5424E424F05460C4616F8012B02F0C8
:104160007F0307EBC3033AB15B681846002BF4D01A
:10417000FCF78CFC0028F0D1394E013D15F8012FD9
:1041800002F07F0306EBC3033AB15B681846002BCD
:10419000F4D0FCF77BFC0028F0D1012C49D0314D44
:1041A0002F4E15F8012B02F07F0306EBC3033AB143
:1041B0005B681846002BF4D0FCF768FC0028F0D1AF
:1041C000294B1B783F2B02DD4020FDF76BFA274877
:1041D000FFF788FA00F0DF00482816D046283BD0C9
:1041E000012C12D0224D1E4E15F8012B02F07F0338
:1041F00006EBC303DAB15B681846002BF4D0FCF77A
:1042000045FC0028F0D12046F8BD1A4C144D14F896
:10421000012B02F07F0305EBC3033AB15B6818463C
:10422000002BF4D0FCF732FC0028F0D1012420460A
:10423000F8BD114D0A4E15F8012B02F07F0306EB75
:10424000C303002ABCD05B681846002BF3D0FCF7F0
:104250001DFC0028EFD1B3E70224C3E7A01D010035
:1042600044C40000A81F0100E707FF1FC81F01008A
:10427000D81F0100D01F0100B81F0100F8B5A84EDB
:10428000A84F05460C4616F8012B02F07F0307EBFA
:10429000C3033AB15B681846002BF4D0FCF7F6FB79
:1042A0000028F0D19F4E013D15F8012F02F07F0349
:1042B00006EBC3033AB15B681846002BF4D0FCF759
:1042C000E5FB0028F0D1984D964E15F8012B02F031
:1042D0007F0306EBC3033AB15B681846002BF4D0AA
:1042E000FCF7D4FB0028F0D1904B914D53F824708B
:1042F0008C4E38460021FDF717FA15F8012B02F015
:104300007F0306EBC3033AB15B681846002BF4D079
:10431000FCF7BCFB0028F0D1864B1B783F2B02DD5D
:104320004020FDF7BFF98448FFF7DCF931283FD082
:10433000322864D0332800F09480342812D03528F5
:1043400000F0AB80362879D0372800F0C7803928B4
:104350001BD000213846FDF7E7F97848FCF796FBBB
:104360002046F8BD764C6F4D14F8012B02F07F0308
:1043700005EBC3033AB15B681846002BF4D0FCF799
:1043800085FB0028F0D10C20F8BD6E4C654D14F86B
:10439000012B02F07F0305EBC3033AB15B681846BB
:1043A000002BF4D0FCF772FB0028F0D10D20F8BDF3
:1043B0006548FCF76BFB6548FFF794F9312800F07E
:1043C0000981322800F0A680332800F0FE803528CD
:1043D00000F00D8138287CD05D4C524D14F8012B33
:1043E00002F07F0305EBC3033AB15B681846002B6C
:1043F000F4D0FCF74BFB0028F0D10E20F8BD554857
:10440000FCF744FB5448FFF76DF9302800F0D380E7
:10441000332800F0D580514C424D14F8012B02F0A6
:104420007F0305EBC3033AB15B681846002BF4D059
:10443000FCF72CFB0028F0D10B20F8BD484C394D7F
:1044400014F8012B02F07F0305EBC3033AB15B685C
:104450001846002BF4D0FCF719FB0028F0D10820F7
:10446000F8BD4048FCF712FB3F48FFF73BF9302806
:1044700000F08E803D4C2B4D14F8012B02F07F0391
:1044800005EBC3033AB15B681846002BF4D0FCF788
:10449000FDFA0028F0D10F20F8BD3548FCF7F6FAF8
:1044A0003448FFF71FF9302800F0AB80324C1D4D27
:1044B00014F8012B02F07F0305EBC3033AB15B68EC
:1044C0001846002BF4D0FCF7E1FA0028F0D11020B8
:1044D000F8BD2A48FCF760FD0A20F8BD2848FCF723
:1044E000D5FA2848FFF7FEF8352800F08580264CDD
:1044F0000C4D14F8012B02F07F0305EBC3033AB116
:104500005B681846002BF4D0FCF7C0FA0028F0D105
:104510001120F8BD1D48FCF73FFD0920F8BD00BF84
:10452000A01D010044C40000E01F01006410010050
:10453000D81E0100E707FF1FF01F0100C0C30000E5
:1045400054200100802001005CDA0000FC1F010003
:10455000202001002CC40000302001003820010080
:104560006820010068DA0000482001004C200100AA
:104570009CD100005C200100602001002820010087
:1045800050C80000702001007420010010200100BC
:10459000214C224D14F8012B02F07F0305EBC303DD
:1045A0003AB15B681846002BF4D0FCF76FFA00288C
:1045B000F0D10720F8BD1848FCF7EEFC0620F8BD46
:1045C0001748FCF7E9FC1320F8BD1648FCF7E4FC9B
:1045D0000420F8BD1448FCF759FA1448FFF782F894
:1045E000302813D01248FCF7D7FC1220F8BD114830
:1045F000FCF7D2FC0520F8BD0F48FCF7CDFC0220EB
:10460000F8BD0E48FCF7C8FC0120F8BD0B48FCF7CC
:10461000C3FC0320F8BD00BF3420010044C40000E7
:1046200040200100182001005CDA00000420010095
:10463000082001001C2001007C2001004420010012
:10464000F8B5584E584F05460C4616F8012B02F0A7
:104650007F0307EBC3033AB15B681846002BF4D025
:10466000FCF714FA0028F0D14F4E013D15F8012F48
:1046700002F07F0306EBC3033AB15B681846002BD8
:10468000F4D0FCF703FA0028F0D1012C75D0022CED
:104690004CD0464D444E15F8012B02F07F0306EB3B
:1046A000C3033AB15B681846002BF4D0FCF7EEF96F
:1046B0000028F0D13E4B1B783F2B02DD4020FCF759
:1046C000F1FF3C48FFF70EF800F0DF004E281AD04B
:1046D0004F283ED0452863D0012C14D0022C38D06E
:1046E000354D314E15F8012B02F07F0306EBC30365
:1046F0003AB15B681846002BF4D0FCF7C7F90028E4
:10470000F0D12046F8BD2D4C274D14F8012B02F0B6
:104710007F0305EBC3033AB15B681846002BF4D066
:10472000FCF7B4F90028F0D10124EAE7244D1E4E2D
:1047300015F8012B02F07F0306EBC303002AB9D062
:104740005B681846002BF3D0FCF7A0F90028EFD1E6
:10475000B0E71C4C144D14F8012B02F07F0305EB5D
:10476000C3033AB15B681846002BF4D0FCF78EF90E
:104770000028F0D102242046F8BD134D0A4E15F84A
:10478000012B02F07F0306EBC303002A92D05B6883
:104790001846002BF3D0FCF779F90028EFD189E710
:1047A00003249DE7A01D010044C400009C200100DB
:1047B000E707FF1FC4200100DC200100CC2001001E
:1047C000B0200100D420010088200100F8B5A54EDA
:1047D000A54F05460C4616F8012B02F07F0307EBA8
:1047E000C3033AB15B681846002BF4D0FCF74EF9CE
:1047F0000028F0D19C4E013D15F8012F02F07F03F7
:1048000006EBC3033AB15B681846002BF4D0FCF703
:104810003DF90028F0D1012C00F0A280022C00F01C
:10482000D180032C00F0F680042C00F00781052CC9
:1048300067D0062C00F05D81072C00F0D7808B4DEF
:10484000894E15F8012B02F07F0306EBC3033AB142
:104850005B681846002BF4D0FCF718F90028F0D15B
:10486000834B1B783F2B02DD4020FCF71BFF814868
:10487000FEF738FF372800F08780382818D07E4BA5
:10488000794E53F82450013D15F8012F02F07F03B3
:1048900006EBC3033AB15B681846002BF4D0FCF773
:1048A000F5F80028F0D17548FCF7F0F82046F8BD7F
:1048B0007348FCF7EBF87348FEF714FF00F0DF00D5
:1048C0004E2831D04F2800F0F9806F48FCF7DEF811
:1048D0006E48FEF707FF312800F01F816C4C624DD7
:1048E00014F8012B02F07F0305EBC3033AB15B68B8
:1048F0001846002BF4D0FCF7C9F80028F0D10820A6
:10490000F8BD644D584E15F8012B02F07F0306EBFD
:10491000C303002AA4D05B681846002BF3D0FCF731
:10492000B5F80028EFD19BE75B48FCF7AFF8574894
:10493000FEF7D8FE312800F00881554C4A4D14F896
:10494000012B02F07F0305EBC3033AB15B68184605
:10495000002BF4D0FCF79AF80028F0D10620F8BD1F
:104960004E4D414E15F8012B02F07F0306EBC303B9
:10497000002A3FF475AF5B681846002BF2D0FCF7B5
:1049800085F80028EED16BE74548FCF77FF84548ED
:10499000FEF7A8FE00F0DF004F2800F0C380424C75
:1049A000314D14F8012B02F07F0305EBC3033AB13C
:1049B0005B681846002BF4D0FCF768F80028F0D1AB
:1049C0000220F8BD394D284E15F8012B02F07F0367
:1049D00006EBC303002A3FF443AF5B681846002B85
:1049E000F2D0FCF753F80028EED139E7304D1E4ED7
:1049F00015F8012B02F07F0306EBC303002A3FF4F6
:104A00002FAF5B681846002BF2D0FCF73FF8002868
:104A1000EED125E7274D144E15F8012B02F07F0348
:104A200006EBC303002A3FF41BAF5B681846002B5C
:104A3000F2D0FCF72BF80028EED111E71E4D0A4EFC
:104A400015F8012B02F07F0306EBC303002A3FF4A5
:104A500007AF5B681846002BF2D0FCF717F8002868
:104A6000EED1FDE6A01D010044C40000D4210100E8
:104A7000E707FF1F242201004008FF1FC0C30000FA
:104A80005CC800003822010000DC00004022010068
:104A9000A41F0100842101006CDC0000E42001005F
:104AA00050C8000028220100302201000C21010022
:104AB000FC210100342101005C2101002F48FBF79B
:104AC000E5FF2F48FEF70EFE312851D02D4C2E4D1C
:104AD00014F8012B02F07F0305EBC3033AB15B68C6
:104AE0001846002BF4D0FBF7D1FF0028F0D10720A7
:104AF000F8BD264D244E15F8012B02F07F0306EB7E
:104B0000C303002A3FF4ACAE5B681846002BF2D01A
:104B1000FBF7BCFF0028EED1A2E61D48FCF73CFAEB
:104B20000520F8BD1B4C184D14F8012B02F07F0333
:104B300005EBC3033AB15B681846002BF4D0FBF7D2
:104B4000A5FF0028F0D10120F8BD114C0E4D14F83E
:104B5000012B02F07F0305EBC3033AB15B681846F3
:104B6000002BF4D0FBF792FF0028F0D10320F8BD12
:104B70000748FCF711FA0420F8BD00BF78DC0000FC
:104B800040220100A41F010044C40000AC21010028
:104B90004422010034220100F8B5424E424F05463E
:104BA0000C4616F8012B02F07F0307EBC3033AB162
:104BB0005B681846002BF4D0FBF768FF0028F0D1A3
:104BC000394E013D15F8012F02F07F0306EBC303B8
:104BD0003AB15B681846002BF4D0FBF757FF00286A
:104BE000F0D1012C49D0314D2F4E15F8012B02F098
:104BF0007F0306EBC3033AB15B681846002BF4D081
:104C0000FBF744FF0028F0D1294B1B783F2B02DD36
:104C10004020FCF747FD2748FEF764FD00F0DF0069
:104C20004E2816D058283BD0012C12D0224D1E4EB3
:104C300015F8012B02F07F0306EBC303DAB15B68C2
:104C40001846002BF4D0FBF721FF0028F0D12046B6
:104C5000F8BD1A4C144D14F8012B02F07F0305EB3C
:104C6000C3033AB15B681846002BF4D0FBF70EFF84
:104C70000028F0D101242046F8BD114D0A4E15F848
:104C8000012B02F07F0306EBC303002ABCD05B6854
:104C90001846002BF3D0FBF7F9FE0028EFD1B3E75D
:104CA0000224C3E7A01D010044C400004822010003
:104CB000E707FF1F7022010078220100CC200100CD
:104CC0005C220100F8B5804E804F05460C4616F870
:104CD000012B02F07F0307EBC3033AB15B68184670
:104CE000002BF4D0FBF7D2FE0028F0D1774E013D27
:104CF00015F8012F02F07F0306EBC3033AB15B689E
:104D00001846002BF4D0FBF7C1FE0028F0D1012C8F
:104D100000F08D80022C39D06D4D6C4E15F8012BB2
:104D200002F07F0306EBC3033AB15B681846002B21
:104D3000F4D0FBF7ABFE0028F0D1664B1B783F2B7D
:104D400002DD4020FCF7AEFC6348FEF7CBFC00F030
:104D5000DF004E2858D052282BD0012C00F0A18023
:104D6000022C00F08B805D4D584E15F8012B02F09F
:104D70007F0306EBC3033AB15B681846002BF4D0FF
:104D8000FBF784FE0028F0D12046F8BD544D4F4E6D
:104D900015F8012B02F07F0306EBC303002ACCD0E9
:104DA0005B681846002BF3D0FBF770FE0028EFD1AC
:104DB000C3E74C4C454D14F8012B02F07F0305EB83
:104DC000C3033AB15B681846002BF4D0FBF75EFED4
:104DD0000028F0D14448FEF785FC00F0DF0053289E
:104DE00039D0424C394D14F8012B02F07F0305EB0A
:104DF000C3033AB15B681846002BF4D0FBF746FEBC
:104E00000028F0D10320F8BD394C304D14F8012BA7
:104E100002F07F0305EBC3033AB15B681846002B31
:104E2000F4D0FBF733FE0028F0D10120F8BD314D5E
:104E3000264E15F8012B02F07F0306EBC303002A70
:104E40003FF47BAF5B681846002BF2D0FBF71EFEE9
:104E50000028EED171E7284C1C4D14F8012B02F00C
:104E60007F0305EBC3033AB15B681846002BF4D00F
:104E7000FBF70CFE0028F0D10220F8BD1F4C134DAB
:104E800014F8012B02F07F0305EBC303002AF3D0D3
:104E90005B681846002BF3D0FBF7F8FD0028EFD134
:104EA000EAE7134C094D14F8012B02F07F0305EBE0
:104EB000C303002AB9D05B681846002BF3D0FBF778
:104EC000E5FD0028EFD1B0E7A01D010044C40000BB
:104ED000A0220100E707FF1FD8220100FC220100E9
:104EE000BC220100E0220100E4220100EC220100CA
:104EF000CC20010084220100F422010008230100DB
:104F0000F8B5A34EA34F05460C4616F8012B02F048
:104F10007F0307EBC3033AB15B681846002BF4D05C
:104F2000FBF7B4FD0028F0D19A4E013D15F8012F92
:104F300002F07F0306EBC3033AB15B681846002B0F
:104F4000F4D0FBF7A3FD0028F0D1012C00F0AB80DA
:104F5000022C00F0CF80032C67D08F4D8D4E15F8BA
:104F6000012B02F07F0306EBC3033AB15B681846DE
:104F7000002BF4D0FBF78AFD0028F0D1874B1B787B
:104F80003F2B02DD4020FCF78DFB8548FEF7AAFB96
:104F900000F0DF0043281DD04C2859D0012C00F030
:104FA000E380022C00F01481032C00F0CA807D4DB8
:104FB000784E15F8012B02F07F0306EBC3033AB1DC
:104FC0005B681846002BF4D0FBF760FD0028F0D199
:104FD0002046F8BD744C6F4D14F8012B02F07F038E
:104FE00005EBC3033AB15B681846002BF4D0FBF71E
:104FF0004DFD0028F0D16D48FEF774FB00F0DF0096
:105000004C2864D16A4C634D14F8012B02F07F03E5
:1050100005EBC3033AB15B681846002BF4D0FBF7ED
:1050200035FD0028F0D10220F8BD624D594E15F82B
:10503000012B02F07F0306EBC303002A9ED05B68BE
:105040001846002BF3D0FBF721FD0028EFD195E7A0
:10505000594C504D14F8012B02F07F0305EBC303AC
:105060003AB15B681846002BF4D0FBF70FFD00281F
:10507000F0D15248FEF736FB00F0DF0043284DD058
:105080004F4C444D14F8012B02F07F0305EBC30392
:105090003AB15B681846002BF4D0FBF7F7FC002808
:1050A000F0D10320F8BD474D3A4E15F8012B02F020
:1050B0007F0306EBC303002A3FF460AF5B6818462A
:1050C000002BF2D0FBF7E2FC0028EED156E73C4C77
:1050D000304D14F8012B02F07F0305EBC3033AB106
:1050E0005B681846002BF4D0FBF7D0FC0028F0D109
:1050F0000120F8BD344D274E15F8012B02F07F0337
:1051000006EBC303002A3FF439AF5B681846002B57
:10511000F2D0FBF7BBFC0028EED12FE72B4C1D4D46
:1051200014F8012B02F07F0305EBC3033AB15B686F
:105130001846002BF4D0FBF7A9FC0028F0D104207E
:10514000F8BD1B4C134D14F8012B02F07F0305EB47
:10515000C303002AA5D05B681846002BF3D0FBF7E9
:1051600095FC0028EFD19CE7184C0A4D14F8012B50
:1051700002F07F0305EBC303002AB9D05B68184631
:10518000002BF3D0FBF782FC0028EFD1B0E700BF83
:10519000A01D010044C4000044230100E707FF1FD5
:1051A000742301009C2301007C2301008023010063
:1051B000842301005C230100882301008C2301006B
:1051C000341E0100142301002C2301009023010050
:1051D000094C0A4D14F8012B02F07F0305EBC303C1
:1051E000002A3FF420AF5B681846002BF2D0FBF793
:1051F0004DFC0028EED116E79423010044C40000C2
:10520000F8B5424E424F05460C4616F8012B02F007
:105210007F0307EBC3033AB15B681846002BF4D059
:10522000FBF734FC0028F0D1394E013D15F8012F71
:1052300002F07F0306EBC3033AB15B681846002B0C
:10524000F4D0FBF723FC0028F0D1012C49D0314DDC
:105250002F4E15F8012B02F07F0306EBC3033AB182
:105260005B681846002BF4D0FBF710FC0028F0D147
:10527000294B1B783F2B02DD4020FCF713FA27480F
:10528000FEF730FA00F0DF004E2816D049283BD058
:10529000012C12D0224D1E4E15F8012B02F07F0377
:1052A00006EBC303DAB15B681846002BF4D0FBF7BA
:1052B000EDFB0028F0D12046F8BD1A4C144D14F82F
:1052C000012B02F07F0305EBC3033AB15B6818467C
:1052D000002BF4D0FBF7DAFB0028F0D101242046A4
:1052E000F8BD114D0A4E15F8012B02F07F0306EBB5
:1052F000C303002ABCD05B681846002BF3D0FBF731
:10530000C5FB0028EFD1B3E70224C3E7A01D0100CD
:1053100044C40000A4230100E707FF1FCC230100C1
:10532000D4230100CC200100B823010038B5374C4C
:10533000374D14F8012B02F07F0305EBC3033AB19C
:105340005B681846002BF4D0FBF7A0FB0028F0D1D7
:10535000304B1B78442B02DD4520FCF7A3F92E4887
:10536000FEF7C0F900F0DF004B2829D050283AD0D2
:10537000542812D0294C264D14F8012B02F07F033B
:1053800005EBC3033AB15B681846002BF4D0FBF77A
:105390007DFB0028F0D1652038BD214C1C4D14F850
:1053A000012B02F07F0305EBC3033AB15B6818469B
:1053B000002BF4D0FBF76AFB0028F0D1742038BD35
:1053C000184C134D14F8012B02F07F0305EBC303B7
:1053D0003AB15B681846002BF4D0FBF757FB002866
:1053E000F0D16B2038BD104C094D14F8012B02F0A0
:1053F0007F0305EBC3033AB15B681846002BF4D07A
:10540000FBF744FB0028F0D1702038BDDC230100FD
:1054100044C40000E707FF1F0C24010030240100F2
:1054200038240100182401002424010038B51F4B42
:105430001F48204D01221A70FBF728FBFFF776FF6B
:105440006B2818D0702828D0742829D11A4C14F849
:10545000012B02F07F0305EBC303002AEED05B684B
:105460001846002BF3D0FBF711FB0028EFD1FFF714
:105470005DFF6B28E6D1104C14F8012B02F07F037E
:1054800005EBC303002AD9D05B681846002BF3D084
:10549000FBF7FCFA0028EFD1D0E7FEF74BF8CDE799
:1054A0000348BDE83840FBF7F1BA00BFAAA30020CB
:1054B000C0C3000044C40000541B010038B54C4B6D
:1054C0001B78012B37D04B4B1A78082A38D84A4A18
:1054D00018784A4912784A4B51F8200033F8225084
:1054E000484C04F0DDFD41EC100B2946464801F024
:1054F0009FFD02234448236001F094FB434B444A40
:1055000018601378DBB2012B3BD01378022B5FD0ED
:10551000404B414A1978414B52F831100120022288
:1055200081F800011A602368012B3D4B4CD03648AE
:10553000197801F02DFC3B4B1B78022B2CD038BD89
:1055400019782D4A2D4B2F4C53F821001178364AEB
:10555000364B52F8215042081344B3FBF0F002F0EE
:10556000B9FF284603F03EF803F06EF901232360EB
:1055700003F014F9254B264A18601378DBB2012B8F
:10558000C3D1244A24491078244A51F8300002211A
:1055900080F80031116038BD254B1B68B3F57A7F68
:1055A00021DA244A244913681120C854136820487A
:1055B0000133B3F57A7F1360A4BF00231360012188
:1055C000BDE83840FBF78AB9187803F0B5F8B2E7C0
:1055D000104A114B1178114A53F83110012381F808
:1055E000803013609FE70320BDE83840FBF702BA24
:1055F0001008FF1FE607FF1F3B08FF1F6410010094
:1056000044C30000C8A9002018A00020B0A30020B7
:10561000DA07FF1FDC07FF1F7C2E0100ACA3002070
:105620000D08FF1F2408FF1FE0B20000001C4E0EF3
:105630005017FF1F5CA200204C13FF1F2DE9F047FD
:105640000024BC4EBC4D34702146212002F008FEDF
:10565000212002F0F7FD0128B84ADFF81CA3DFF88B
:105660001C93B74B00F0D48101211160DFF8108347
:10567000B44F2C60262225218AF8001089F80020DA
:10568000D9701A711322122388F800203B70002170
:10569000172002F0E5FD00211C2002F0E1FD0021B1
:1056A000092002F0DDFD00210F2002F0D9FD0021CC
:1056B000272002F0D5FD00210A2002F0D1FD0021B3
:1056C0000B2002F0CDFD00210C2002F0C9FD0021CD
:1056D000232002F0C5FD0021032002F0C1FD0021BE
:1056E000042002F0BDFD00211A2002F0B9FD0021C6
:1056F0001B2002F0B5FD0021162002F0B1FD0021B3
:10570000022002F0ADFD00210E2002F0A9FD0021D3
:10571000072002F0A5FD0021082002F0A1FD0021D4
:10572000062002F09DFD0021142002F099FD0021C9
:10573000152002F095FD0021052002F091FD0121C8
:10574000102002F08DFD0121112002F089FD9AF850
:105750000000012102F084FD99F80000012102F00F
:105760007FFD01211F2002F07BFD0121202002F09E
:1057700077FD01211D2002F073FD01211E2002F0A2
:105780006FFD0021182002F06BFD0021222002F0A5
:1057900067FD01210D2002F063FD0121212002F0AF
:1057A0005FFD0121242002F05BFD0021084602F08C
:1057B00057FD0121084602F053FD98F80000012131
:1057C00002F04EFD3878002102F04AFDFAF782FF20
:1057D0005D4B5E4820221A602B6813F0FF0F14BF48
:1057E0005B4B5C4B4FF080721A605B4A5B4B4FF433
:1057F00000744FF40031046011601A68520140F1E6
:1058000091801B68564C9B014CBF012302232370DF
:1058100072B62578EDB2042D4FF0020200F0B2808E
:105820005049172002F03CFC02224E491C2002F095
:1058300037FC02224B49092002F032FC022249497E
:105840000F2002F02DFC02224649272002F028FCFE
:10585000022244490A2002F023FC022241490B2083
:1058600002F01EFC02223F490C2002F019FC022229
:105870003C49232002F014FC02223A49032002F0A2
:105880000FFC02223749042002F00AFC02223549AB
:105890001A2002F005FC022232491B2002F000FC13
:1058A00002223049162002F0FBFB62B6FAF726FE10
:1058B0000020FDF7C3F92378042B09D02A4B1B786D
:1058C000022B05D12948FBF7E1F82948FBF7DEF860
:1058D0002278234B012A00F0AE801A78022A00F0C9
:1058E000AD801A78032A18BF1B782378042B01D0C7
:1058F000FFF7E4FD4FF4FA6002F0B8FC01233370C7
:105900002378042B13D01B4C2368002B05DD0120CA
:1059100002F0ACFC2368002BF9DC3220BDE8F04734
:1059200002F0A4BC0E4C1B680423237070E7BDE892
:10593000F08700BFAAA30020E007FF1FA4A3002058
:105940002808FF1F0D08FF1F88F00F4084F00F404C
:1059500004F10F4008F10F4044F00F4010F10F40E8
:10596000C0A10020CD240000DD07FF1FA0C3000060
:10597000E01901004017FF1F0C08FF1FDB07FF1F86
:10598000DC07FF1F2F49172002F08AFB02222D4956
:105990001C2002F085FB02222A49092002F080FB2C
:1059A000022228490F2002F07BFB022225492720F2
:1059B00002F076FB022223490A2002F071FB022248
:1059C00020490B2002F06CFB02221E490C2002F041
:1059D00067FB02221B49232002F062FB02221949C5
:1059E000032002F05DFB28460222164902F058FB14
:1059F000022214491A2002F053FB022211491B20F3
:105A000002F04EFB02220F49162002F049FB4CE740
:105A1000146013211222DFF834800B4F28608AF8BB
:105A2000001089F80020D9701A712522262388F8E1
:105A300000203B702BE6FBF769FA56E7FAF72AFDE0
:105A400053E700BF350700000D08FF1FDC07FF1FED
:105A5000012807D0054B1B68012B04D00021044806
:105A600001F05AB9704702F0F3BD00BFC8A9002089
:105A700018A000202DE9F04FAC4BAD4CDFF850B32F
:105A8000DFF82CA39BF8008094F800C093F800E0A6
:105A9000A84BDFF840931F78A74BA8481D78A84B68
:105AA0009AF8001099F800201B78A64E89B003934D
:105AB0005FFA88F302935FFA8CF300935FFA8EF338
:105AC0000493FBB20593EBB20793CBB20193D3B22D
:105AD00006939DF80C300393FAF7D8FF9A4B9B4836
