:10000000F8FF02209901000059F500005DF400009E
:100010005DF400005DF400005DF400005DF400009C
:100020005DF400005DF400005DF4000059F500008F
:1000300059F500005DF4000079F0000069F000005F
:1000400059F5000059F5000059F5000059F5000078
:1000500059F5000059F5000059F5000059F5000068
:1000600059F5000059F5000059F5000059F5000058
:1000700059F5000059F5000059F5000059F5000048
:1000800059F5000059F5000059F5000059F5000038
:1000900059F5000059F5000059F5000059F5000028
:1000A00059F5000059F5000059F5000059F5000018
:1000B00059F5000059F5000059F500004DE1000028
:1000C00059F50000890B010059F500001DB400002E
:1000D00059F5000081B3000059F5000059F5000002
:1000E00059F5000059F5000059F5000059F50000D8
:1000F00059F5000059F5000059F5000059F50000C8
:1001000055F0000041F000002DF0000019F0000053
:1001100059F500002DE2000059F5000059F50000E6
:1001200059F5000059F5000059F5000059F5000097
:1001300059F5000059F5000059F5000059F5000087
:1001400059F5000059F50000E5B2000059F500002E
:1001500051B2000059F5000059F5000059F50000B2
:1001600059F5000059F5000059F5000059F5000057
:1001700059F5000059F5000059F5000059F5000047
:1001800059F5000059F5000059F5000059F5000037
:1001900059F5000059F5000008B55D4B4CF22052AE
:1001A0001A804DF628121A8000BF00BF102223F8D3
:1001B0000E2CA3F51F43DE3B4FF030621A60554A08
:1001C0009A60554ADA60554B4FF470021A60544AEF
:1001D000136813F4807304D152490B604FF4A85391
:1001E0001360514B1A78100703D51A7842F00802B1
:1001F0001A704E4B4E492A221A704E4A4E4B8B4271
:1002000004D252F8040F43F8040BF8E74B4B4C4967
:1002100000228B4202D243F8042BFAE749494A4AAA
:10022000002352F8230041F823000133662BF8D154
:10023000464B474A802103F8011B9342FBD1454BB3
:10024000404A1A60444B8A221A70A3F58053242234
:100250005A70A0221A709A799107FCD59A79D20621
:10026000FCD43E4A937903F00C03082B3B4BF9D1A5
:1002700003221A7146225A719A799406FCD5374A9C
:100280009179364B4806FBD5354A4FF082711160A3
:100290000921516020221A709A7902F00C020C2A6E
:1002A000FAD1304B304A1A60304B314A1A60002480
:1002B00007225C6043F8042C2E4AC3F80C2D62B66A
:1002C0000FF04EF9174B1A68D1070AD52A4A2B4965
:1002D0001C60146042F8041C10221A60284A294944
:1002E0001160294A127852060ED52549254A086818
:1002F000904209D12048214C00221A60026040F847
:10030000044C102018600A6010F0F2FC00F0AEF807
:100310000E200540823F04000100002B88ED00E024
:1003200010D0034014D0034002D0074000E0074043
:10033000DC12FF1FF4A40100F806FF1FE012FF1FEC
:1003400044AE00200002FF1F0000000000E400E0B7
:1003500056E400E008ED00E0005006400040064092
:100360004480044004800440C010050014E000E014
:10037000BFD401000000202004D0034033988660E1
:100380001CE00340A5C3945A00F00740FFFFFFFFA5
:10039000FFFFFFFFFFFFFFFFFFFFFFFFFFFFFFFF6D
:1003A000FFFFFFFFFFFFFFFFFFFFFFFFFFFFFFFF5D
:1003B000FFFFFFFFFFFFFFFFFFFFFFFFFFFFFFFF4D
:1003C000FFFFFFFFFFFFFFFFFFFFFFFFFFFFFFFF3D
:1003D000FFFFFFFFFFFFFFFFFFFFFFFFFFFFFFFF2D
:1003E000FFFFFFFFFFFFFFFFFFFFFFFFFFFFFFFF1D
:1003F000FFFFFFFFFFFFFFFFFFFFFFFFFFFFFFFF0D
:10040000FFFFFFFFFFFFFFFFFFFFFFFFDEF9FFFF23
:1004100010B5054C237833B9044B13B10448AFF33E
:1004200000800123237010BDE012FF1F00000000B8
:10043000F0A40100084B10B51BB108490848AFF300
:1004400000800848036803B910BD074B002BFBD0A0
:10045000BDE81040184700BF00000000E412FF1F75
:10046000F0A40100DC12FF1F000000002DE980480D
:10047000CB4BDFF868838FB00D2000241C7010F088
:1004800037F8C84B20221A600125212088F8005037
:1004900010F01EF8C44B93F80032DBB2AB4202F00E
:1004A0001585C24BDFF83893C8F804501946252249
:1004B0000C60089313202623122189F8B42189F8AF
:1004C000B53189F8BB2189F8BC3189F8C80189F8B0
:1004D000C91117200FF0FCFF1C200FF0F9FF0920B5
:1004E0000FF0F6FF0F200FF0F3FF27200FF0F0FFC3
:1004F0000A200FF0EDFF0B200FF0EAFF0C200FF0A9
:10050000E7FF23200FF0E4FF03200FF0E1FF0420BA
:100510000FF0DEFF1A200FF0DBFF1B200FF0D8FFDB
:1005200016200FF0D5FF02200FF0D2FF0E200FF0A3
:10053000CFFF07200FF0CCFF08200FF0C9FF0620E7
:100540000FF0C6FF14200FF0C3FF15200FF0C0FFFF
:1005500005200FF0BDFF10200FF0CAFF11200FF093
:10056000C7FF99F8B4010FF0D7FF99F8B5010FF064
:10057000D3FF1F200FF0BCFF20200FF0B9FF1D207C
:100580000FF0B6FF1E200FF0B3FF18200FF0A0FFF2
:1005900022200FF09DFF21200FF0AAFF24200FF052
:1005A000A7FF00200FF094FF01200FF0A1FF99F8A2
:1005B000C8010FF0B1FF99F8C931DBB23F2B02F24D
:1005C000FD837B4A0092114602EBC30251F83310BF
:1005D000536800204FF4807281F880021A600DF099
:1005E00085FD089B6F491B6813F0FF0F14BF714B0B
:1005F000714B4FF080721A604FF400706F4A0860C0
:100600006F4B4FF4003111601A68540142F182833C
:100610001B6813F0007F6B4B01931A4614BF012334
:100620000223137072B6019B1C78E4B2042C4FF0C5
:10063000020202F00484644917200EF0E7FA022255
:1006400061491C200EF0E2FA02225F4909200EF0F7
:10065000DDFA02225C490F200EF0D8FA02225A4934
:1006600027200EF0D3FA022257490A200EF0CEFAC4
:10067000022255490B200EF0C9FA022252490C20E1
:100680000EF0C4FA0222504923200EF0BFFA0222D3
:100690004D4903200EF0BAFA02224B4904200EF015
:1006A000B5FA022248491A200EF0B0FA0222464951
:1006B0001B200EF0ABFA0222434916200EF0A6FAD8
:1006C00062B60FF00BFE00200FF026FA019B1B789C
:1006D000042B09D099F8CA31022B05D13B4808F008
:1006E00031FB3B4808F02EFB019B1B78042B08D004
:1006F00099F8CB31DBB2032B02F00984012B02F015
:100700000384019B1A782F4B012A02F07F831A7809
:10071000022A02F0F5831A78032A18BF1B78019B7E
:100720001B78042B01D007F0CBF84FF4FA600EF0E1
:10073000E9FA1B4A01231370019B1B78042B144612
:1007400006D0244808F0FEFA2378002B42F05583A7
:10075000DFF890A0DFF884B098F800302BB11E4984
:10076000202200230A608BF80030019B1B78042BA9
:1007700000F02183104C0F4D99F8CC31012B00F083
:10078000DE80D8F80830012B00F08982DAF8DC30FE
:10079000003318BF0123002B00F0E28024E000BFEB
:1007A000B11DFF1F84F00F406020FE43D00DFF1FDE
:1007B000A0A1010004F10F4008F10F4044F00F40E8
:1007C00010F10F4070A50020A56900009C580100A1
:1007D000A85801009C88010088F00F40FC12FF1F00
:1007E000D807FF1FE0A7002099F8CC31012B00F0BB
:1007F0007882D8F80830012B00F05C82DAF8DC301F
:10080000804A002B40F3DC84D2F8E43092F82810C0
:1008100003F17400013332F810603F2BC8BF00238E
:100820000E40C2F8E43072B6DAF8DC30013BCAF8A8
:10083000DC3062B69AF83130F6B2002B40F01D82FF
:1008400006F07F0799F8CD31022B00F0EB8199F883
:10085000CD31032B00F0C18198F8603003F0FF0226
:10086000002B00F0A381DBF86430674A03EB4301FF
:100870003A4403EB8103644992F88C210B441344FE
:1008800093F84831082B15D801A252F823F000BF85
:1008900079070000C1080000A50B0000B5080000A2
:1008A000950B00008D0B0000850B00007D0B0000F8
:1008B0009D0B000007200CF0F9F9002388F8603048
:1008C00098F86830002B00F0DE8100230D2F8BF8A4
:1008D00068303FF451AFD8F86C30B3F57A7F80F2CE
:1008E000788199F8CF31494E7BB1DBF86C30B3F5A4
:1008F000487F0ADB96F8D731022B00F0098499F87B
:10090000CC21424B022A00F0B383D8F87430434420
:1009100083F87870D8F874300133B3F57A7FC8F86B
:100920007430A4BF0023CBF87430D8F86C30013396
:10093000C8F86C3099F8CC31012B7FF422AF344BDE
:100940001A68344B9B88002A3FF422AF11885288E2
:100950008A1A1344003318BF0123002B7FF444AFDD
:100960002D4B1B68002B3DDD0024284D264618E04A
:100970000CF076FB01284FF0FF3030D1D8F860340E
:100980000133B3F57A7FC8F86034A8BFCBF8606450
:100990000FF036FE204B1B68002B4FF0010440F394
:1009A0007C83D8F86034434493F8640499F8CC31DC
:1009B000012B00F07F00DBD195F8CD31022B00F048
:1009C000328395F8CD31032BD2D10F4B184490F8D8
:1009D000C8000CF045FB01284FF0FF30CED0002CB2
:1009E00040F05B830C4B1B682BB999F8CC31074A5C
:1009F000022B00F05286094B1B68002BC8BF002455
:100A00001FDC28E0E0A70020DC180100D807FF1F4A
:100A10001CAE002020AE002000AC002004AC002062
:100A2000DBF868380133632B4FF0FF30CBF86838C0
:100A3000C8BFCBF868480FF0F3FDB24B1B68002B22
:100A400009DDD8F8683808EB8303D3F86C0808F0A0
:100A500079F90028E4D1019B1B78012B00F07F83FA
:100A6000A94EAA4DD8F86C30002B40F36181A84BF9
:100A70001B68B34200F35C81DBF8003A5B4493F8F7
:100A80007840DBF8003A0133B3F57A7FCBF8003ACF
:100A9000A4BF0023CBF8003AD8F86C30013BC8F86B
:100AA0006C3099F8CF31E4B203F0FF076BB9DBF893
:100AB0006C30C82B09DC95F8D731022B00F0A282EC
:100AC00099F8CC31022B00F08D820D2C04D000233C
:100AD0000A2C88F8063A02D0002388F8053AD8F89C
:100AE000082A52F83430212B00F2788201A151F803
:100AF00023F000BF650A0000A50F0000DD0F000015
:100B0000DD0F0000DD0F0000DD0F0000DD0F000035
:100B1000DD0F0000DD0F0000DD0F0000410F0000C1
:100B2000230F0000F50E0000B10E00009D0E000026
:100B3000650A0000A50E0000E70E0000510E00003F
:100B4000490E0000410E0000DD0F0000DD0F000027
:100B5000DD0F0000DD0F0000DD0F0000DD0F0000E5
:100B6000DD0F0000DD0F0000DD0F0000730F00003F
:100B7000B10F0000410E0000490E00000323C8F829
:100B80006430F9E50223C8F86430F5E50123C8F8BC
:100B90006430F1E50023C8F86430EDE50423C8F8BB
:100BA0006430E9E5002388F86030E5E51B2F7FF429
:100BB00087AE99F8CE31022B59D09BF86830002BC4
:100BC00061D08BF86820D8F86C30B3F57A7FFFF6E7
:100BD00088AE02200CF06AF8C2E64E4B3B4493F814
:100BE000C830B3423FF438AE4B4B1B78012B7FF437
:100BF00033AE4A4B1B78012B7FF42EAE484B484A4C
:100C00001B6801331360474B464A1B69013313616C
:100C1000D8F8043013F0FF0F40F00A814FF08073D2
:100C2000236019E63B4B3B4493F84830B3423FF412
:100C30000EAE394B1B78012B7FF409AE374B1B7876
:100C4000012B7FF404AE364B354A1B680133136029
:100C5000344B344A1B6901331361D8F8043013F064
:100C6000FF0F40F0E9804FF080732360EFE5012330
:100C70008BF86030CBF864207EE52B4806F07F07C8
:100C80000CF04AFCDEE598F86930002B3FF423AE07
:100C900000230A2F8BF869307FF41DAE6CE59BF8BA
:100CA0000C309BF80D20DBB2D2B2934238BF4033F8
:100CB0009B1A6DE59BF80C209BF80D30DBB29A4235
:100CC00000F07E8201333F2B86BF00221346DAB24A
:100CD000434493F8206088F80D20F6B206F07F07B1
:100CE000B0E5124B1868002800F05482438802884F
:100CF000C118013393420E7A80F01C82438006F0C3
:100D00007F079FE504AC00207F380100D807FF1F54
:100D1000FCAB0020DC180100B11DFF1FCE0DFF1F32
:100D20007C1EFF1F881EFF1FE0A700201CAE0020B6
:100D3000BF4B1B78022B00F0BB82BD4B1B78032BF3
:100D400000F04282BA4B1B78042B34D199F8CF3192
:100D5000B84A53B192F8D731022B01F0D28699F8F4
:100D6000CC31B44A022B01F0658598F8133A002B78
:100D700041F00E84DBF8243AAD4ACBF80C3A01235B
:100D8000137099F8CF31AB4AABB192F8D731022B3F
:100D900001F0118699F8CC31A64A022B0BD192F8BA
:100DA000D031032B07D192F8C831009A52F8333072
:100DB000012283F80021A04B9F491B78002B3FF4B0
:100DC000CBAC9E4A1278002A7FF4C6ACDA0744BF47
:100DD00003F0FE030B70994900225B070A707FF550
:100DE000BBAC974B964A1B68002B3FF4B5ACEFF3B6
:100DF0000583002B7FF4B0ACEFF3108372B610685C
:100E0000002801F0AE848F498E4D0978002941F009
:100E1000A8844469146001222A7004B1A16103B955
:100E200062B60024836844779847864B1C7093E42D
:100E30004FF080732B600FE54FF080732B6006E559
:100E4000012389F8D3310DE6002389F8D33109E66F
:100E50007D4AC8F80C2A01237C4A0024184688F8E9
:100E6000134A88F8144A88F8154A146089F8CF3173
:100E700089F8D3310BF0D8FD98F8103A002B40F0E8
:100E8000418198F8113A002B6CD198F8123A2BB99D
:100E90006F4807F057FF01238BF8123A012388F8B7
:100EA000FC39DFE5012389F8D23188F8FC39D9E52E
:100EB00098F8103A674AC8F80C2A002B40F01481C1
:100EC00098F8113A002B40F0088198F8123A002B5C
:100ED000E4D0614807F036FF00238BF8123A012373
:100EE00088F8FC39BEE50222012389F8D22188F86E
:100EF000FC39B7E598F8103A584AC8F80C2A002B84
:100F000040F0F98099F8D141E4B2012CDDD198F894
:100F1000113A002BD9D1524807F014FF8BF8114A2F
:100F2000D3E798F8103A4F4AC8F80C2A002BE9D1B9
:100F3000A2F1240007F006FF01238BF8103AE1E745
:100F400098F8103A404AC8F80C2A002B99D002F5BC
:100F5000ED6007F0F7FE00238BF8103A98F8113A8D
:100F6000002B92D03E4807F0EDFE00238BF8113A9B
:100F70008BE799F8D431012B00F08B8095F8D431B0
:100F8000022B00F0E88095F8D431032B03D098F8B9
:100F9000063A002B7DD1344807F0D4FE002388F8B0
:100FA000063A5FE502EBC404606807F0CBFE59E542
:100FB00099F8D431012B00F0B98095F8D431022B87
:100FC00000F0C18095F8D431032B00F0C0800123DC
:100FD00088F8063A002388F8053A43E50C200BF020
:100FE00065FE3FE595F8D031032B7FF46EAD95F8A3
:100FF000C831009A52F83320012382F8003185F875
:10100000CF3162E59BF8040A0CF02AF801287FF43E
:1010100057AD95F8CC31DBB2012B01F04A840123A6
:1010200089F8CF314CE5114B184490F848009FE403
:10103000B11DFF1FD807FF1FAC0EFF1F11AE002010
:1010400014AE002018AE0020E81A01009CAD00206C
:101050006822010050310100DC290100E82901006B
:101060005C22010074220100B8380100DC18010084
:1010700093F8D021032A7FF448AC93F8C821009953
:1010800051F832100120002281F8800083F8CF212E
:101090003BE4794807F056FE80E799F8CC41E4B28A
:1010A000012C7FF49FAC98F80E30002B3FF49AACE3
:1010B000DBF850588BF84C48002D01F0898600244D
:1010C0006B888BF8544828462B800AF0C5FECBF875
:1010D0005048002388F84C3884E4684807F032FE12
:1010E00000238BF8113AF0E6654807F02BFE002349
:1010F0008BF8103AE4E6624807F024FE00238BF8F0
:10110000103AFFE65E4807F01DFE8BF8104AB8E67D
:101110009BF870000BF0A4FF01287FF4F0AB0BF0FC
:101120006FFF002386F8CF31FFF7E9BB554807F082
:1011300009FE4FE70EF024F9534A0023136006F02E
:101140007F07FFF77FBB98F8053A002BEED04A489F
:1011500007F0F8FD3EE7012388F8053A1EE798F806
:10116000FC39002B3FF47CAC484B1B68002B3FF74D
:1011700022AE474B1B68002B3FF71DAE68200BF0DB
:101180006FFF01287FF417AE0BF03AFF00238BF8B6
:10119000FC3965E498F80E3093B172B6DBF81800AC
:1011A00040B13C4B02889B884168CBF818109B1AD1
:1011B000384A938062B6344B186000287FF496ADAD
:1011C0007F27FF26FFF73EBB99F8CF31324A53B154
:1011D00092F8D731022B01F0D98499F8CC312E4AFC
:1011E000022B01F0868398F8133A002B00F07A83E3
:1011F0002A4A002313700FF071F801200EF08CFCC6
:10120000274A20231360089B1B6813F0FF0F14BFAD
:10121000244B254B4FF080721A600CF01FFD1F4AC3
:1012200022480123137008F01FF81C4B1B781BB1D8
:101230004FF47A700BF080FE99F8CF31164A002BEC
:101240003FF480AD92F8D731022B01F0948499F8E5
:10125000CC31114A022B7FF475AD92F8D031032BBB
:101260007FF470AD92F8C831009A52F83330012201
:1012700083F8002166E500BF9C8801005C22010024
:1012800050220100C43801001CAE002004AC002034
:10129000FCAB002020AE0020D807FF1FB11DFF1FB0
:1012A00088F00F4004F10F4008F10F40205A010070
:1012B00099F8CF31002B41F0008298F8133A002BB7
:1012C00041F0C4819BF8103A002B41F05F8298F8FE
:1012D000113A002B41F0558298F8123A002B41F058
:1012E0004B824F4807F0C0FF0BF0B0F9732811D0C4
:1012F000652800F09180632800F0AC80742800F02D
:101300009781642840F0A38101F04CFE0BF09EF918
:101310007328EDD1434899F8CA5199F8CB4198F810
:10132000166A07F00FFD99F8D5113F480BF072F8D7
:101330003E4B89F8D50119783D480BF06BF83B4BD3
:10134000187099F8CA113B480BF064F889F8CA0183
:1013500099F8CB010AF0F2FB89F8CB01E4B299F8D5
:10136000CB31012CEDB2F6B2DBB200F06481022C7D
:1013700000F0AE82032C05D1012B00F06481022B1A
:1013800000F05E8199F8D2112B482C4C0BF042F8FA
:1013900089F8D20199F8D221294B99F8D11129481D
:1013A000012A08BF2346C8F8183A0BF033F889F829
:1013B000D1010A23002298F8161A23480AF084FD66
:1013C00088F8160A99F8D61120480BF023F889F806
:1013D000D60199F8D6311348012B0BBF04F10C0349
:1013E00004F1240318343034C8F81C3AC8F8204AF1
:1013F00007F0A8FC16480AF0A1FA002840F0328253
:10140000084807F09FFC99F8CA319D4200F05A82C3
:1014100001200BF009FB67E709F032FA64E700BF2F
:10142000505A01009C880100805A0100CE0DFF1F18
:10143000905A0100A05A0100B45A0100DC180100C2
:1014400060920100C45A0100D05A0100DC5A010028
:10145000F05A0100BD4807F075FCBD4807F072FC6A
:10146000BB4807F06FFCBB4807F06CFCBA4807F0BC
:1014700069FCBA4807F066FCB94807F063FCB94854
:1014800007F060FCB84807F05DFCB84807F05AFC6C
:10149000B74807F057FCB74807F054FCB64807F0C8
:1014A00051FCB64807F04EFCB54807F04BFCB54878
:1014B00007F048FCB44807F045FCB44807F042FC8C
:1014C000B34807F03FFCB34807F03CFCB24807F0D4
:1014D00039FCB24807F036FCB14807F033FCB1489C
:1014E00007F030FCB04807F02DFCB04807F02AFCAC
:1014F000AF4807F027FCAF4807F024FCAE4807F0E0
:1015000021FC934807F01EFCAC4807F01BFCAC48DC
:1015100007F018FCAB4807F015FCAB4807F012FCCD
:10152000AA4807F00FFCAA4807F00CFCA94807F0EE
:1015300009FCA94807F006FCA84807F003FCA848E6
:1015400007F000FC824807F0FDFBA64807F0FAFB15
:10155000A54807F0F7FBA54807F0F4FBA44807F0FF
:10156000F1FBA44807F0EEFBA34807F0EBFBA34810
:1015700007F0E8FBA24807F0E5FBA24807F0E2FB12
:10158000A14807F0DFFB724807F0DCFB9F4807F03B
:10159000D9FB9F4807F0D6FB9E4807F0D3FB9E4837
:1015A00007F0D0FB9D4807F0CDFB9D4807F0CAFB34
:1015B0009C4807F0C7FB9C4807F0C4FB9B4807F01A
:1015C000C1FB9B4807F0BEFB9A4807F0BBFB604895
:1015D00007F0B8FB984807F0B5FB5D4807F0B2FB91
:1015E000964807F0AFFB964807F0ACFB954807F02C
:1015F000A9FB954807F0A6FB554807F0A3FB9348C5
:1016000007F0A0FB524807F09DFB914807F09AFBBA
:101610004E4807F097FB4D4807F094FB8D4B1B7825
:10162000002B3FF461AE4FF47A700BF085FC5BE663
:1016300008F0FCFC58E6022B05D0032B7FF4A2AE89
:10164000854807F07FFB844807F07CFB9AE698F812
:10165000103A002B41F0AC8098F8113A002B41F081
:101660009A8098F8123A002B41F09D80D8F8243ADD
:10167000784AC8F80C3A0123137099F8CF31002B3F
:101680003FF45BAB98F8040A0BF0EAFC01287FF406
:1016900054AB0BF0B5FCFFF750BB92F8D031022BE6
:1016A0007FF4A9A9D8F85838022B4AD0D8F858386E
:1016B000032B2DD0D8F85838042B19D0D8F8583827
:1016C000052B7FF498A9654B1B680B930B9ADBF8ED
:1016D00064389A42FFF48FA999F8C831009A52F8F9
:1016E0003320012382F88030CBF85838FFF783B9D4
:1016F0005B4B1B795806E1D50523CBF85838574B7F
:101700001B680C930C9B03F5FA73CBF86438D5E790
:10171000DBF80830012B01F0B680DAF84430DBF852
:101720006028C3F140039A42C4D10523CBF858384E
:101730004A4B1B680D930D9B03F5FA73CBF8643885
:10174000B8E70323CBF85838B0E700BF9C88010006
:1017500060880100A091010094910100889101002E
:101760007C91010070910100649101005891010089
:101770004C91010040910100349101002891010039
:101780001C9101001091010004910100F8900100EA
:10179000EC900100E0900100D4900100C89001009D
:1017A000BC900100B0900100A4900100989001004D
:1017B0008C9001008090010074900100D0380100ED
:1017C00054920100489201003C92010030920100C5
:1017D00024920100189201000C920100B48C0100C7
:1017E00000920100DC380100E8380100F438010003
:1017F000003901000C3901001839010024390100B9
:10180000303901003C39010048390100F0920100F3
:10181000C0920100B49201009C92010084920100E8
:10182000A89201006C920100D09101007892010011
:1018300090920100AC91010054390100603901001F
:101840006C390100783901008439010090390100B8
:101850009C390100B11DFF1F18190100F8AB0020D1
:1018600000A0064099F8D51102200EF013F95F4B45
:10187000032019780EF00EF999F8CA1104200EF021
:1018800009F99BF8161A1E200EF004F999F8D611E2
:1018900022200EF0FFF899F8CB1123200EF0FAF871
:1018A00099F8D2110A200EF0F5F899F8D1110B2011
:1018B0000EF0F0F84E4807F045FA99F8CA319D420B
:1018C0007FF4A6AD98F8163A9E427FF4A1AD0BE5E1
:1018D000032B3FF4B8AE012B7FF454AD454807F01D
:1018E00031FAB0E6444807F0BFFC0AF0AFFE7328B7
:1018F00010D0652877D0632800F09A80742800F013
:101900000985642840F0588501F04CFB0AF09EFEE2
:101910007328EED1394B99F8CAC199F8CC5199F88E
:10192000CDE199F8D87199F8D96199F8CB41197836
:1019300098F8162A99F8D03103935FFA8CF3029342
:101940005FFA8EF30493FBB20593F3B20693D3B21E
:10195000079327489DF80C300393CFB207F0F2F9B4
:1019600099F8D51126480AF055FD204B89F8D50184
:10197000197824480AF04EFD1C4B187099F8CA11CA
:1019800021480AF047FD89F8CA0199F8CC611F483F
:1019900007F06AFCF6B21E4807F066FC012E0CBF89
:1019A0001C481D4807F060FC144B1B783F2BEDB220
:1019B000E4B207DD02E0194807F0C4F9184B1B68D0
:1019C0003F2BF8DD174808F0BDFA9028034616486B
:1019D00005D0912B40F0718107F0B4F9F2E713487C
:1019E00007F0B0F9EEE708F04BFF7EE7CE0DFF1FE2
:1019F0009C88010018190100005B0100D80DFF1F31
:101A0000805A0100905A0100A05A0100345B010085
:101A1000385B0100405B0100505B01006088010001
:101A2000EC0DFF1F605B01009C9A0100909A010081
:101A3000B44807F087F9B44807F084F9B24807F0D2
:101A400081F9B24807F07EF9B14807F07BF9B14857
:101A500007F078F9B04807F075F9B04807F072F967
:101A6000AF4807F06FF9AF4807F06CF9AE4807F0E0
:101A700069F9AE4807F066F9AD4807F063F9AD487B
:101A800007F060F9AC4807F05DF9AC4807F05AF987
:101A9000AB4807F057F9AB4807F054F9AA4807F0EC
:101AA00051F9AA4807F04EF9A94807F04BF9A9489F
:101AB00007F048F9A84807F045F9A84807F042F9A7
:101AC000A74807F03FF9A74807F03CF9A64807F0F8
:101AD00039F9A64807F036F9A54807F033F98A48DE
:101AE00007F030F9A34807F02DF9A34807F02AF9C9
:101AF000A24807F027F9A24807F024F9A14807F007
:101B000021F9A14807F01EF9A04807F01BF9A048E9
:101B100007F018F99F4807F015F99F4807F012F9E8
:101B20009E4807F00FF99E4807F00CF99D4807F012
:101B300009F99D4807F006F99C4807F003F99C480D
:101B400007F000F99B4807F0FDF89B4807F0FAF80A
:101B50009A4807F0F7F89A4807F0F4F8994807F020
:101B6000F1F8994807F0EEF8984807F0EBF8984834
:101B700007F0E8F8974807F0E5F8974807F0E2F82B
:101B8000604807F0DFF8604807F0DCF85E4807F0CF
:101B9000D9F8924807F0D6F8914807F0D3F8914861
:101BA00007F0D0F8904807F0CDF8904807F0CAF851
:101BB0008F4807F0C7F88F4807F0C4F88E4807F041
:101BC000C1F88E4807F0BEF88D4807F0BBF84E48C4
:101BD00007F0B8F88B4807F0B5F88B4807F0B2F873
:101BE0008A4807F0AFF88A4807F0ACF8894807F050
:101BF000A9F8894807F0A6F8884807F0A3F88848AC
:101C000007F0A0F8874807F09DF8874807F09AF892
:101C1000864807F097F8864807F094F8854807F05B
:101C200091F8854807F08EF8844807F08BF88448CF
:101C300007F088F8834807F085F8834807F082F8B2
:101C4000824807F07FF8824807F07CF8814807F067
:101C500079F82D4807F076F87F4807F073F87F4849
:101C600007F070F87E4807F06DF87E4807F06AF8D4
:101C70007D4807F067F87D4807F064F87C4807F076
:101C800061F87C4807F05EF87B4807F05BF87B481A
:101C900007F058F87A4807F055F81A4807F052F854
:101CA000184807F04FF8774B1B78002B3FF41DAE18
:101CB0004FF47A700BF040F917E603F0DF03552B71
:101CC00000F01D85522B00F0DB85012E00F01785FA
:101CD0006D4807F0C9FA89F8CC6199F8DA616B4868
:101CE00007F0C2FAF6B26A4807F0BEFA012E0CBF3E
:101CF0006848694807F0B8FA684B1B783F2B40F3F7
:101D0000D680D0E09C88010060880100A09101008D
:101D100094910100889101007C9101007091010073
:101D200064910100589101004C9101004091010023
:101D300034910100289101001C91010010910100D3
:101D400004910100F8900100EC900100E090010086
:101D5000D4900100C8900100BC900100B090010037
:101D6000A4900100989001008C90010080900100E7
:101D7000749001002090010014900100089001006F
:101D8000FC8F0100F08F0100E48F0100D88F01006B
:101D9000CC8F0100C08F0100B48F0100A88F01001B
:101DA0009C8F0100A88C0100908F0100848F01009E
:101DB000788F01006C8F0100608F0100548F01004B
:101DC000488F01003C8F0100308F0100248F0100FB
:101DD000188F01000C8F0100008F0100609201003C
:101DE00054920100489201003C920100309201009F
:101DF00024920100189201000C920100B48C0100A1
:101E0000009201001493010008930100FC9201006C
:101E1000F0920100E4920100D8920100CC920100FE
:101E2000C0920100B4920100A89201009C920100AE
:101E30009092010084920100789201006C9201005E
:101E4000F4910100E8910100DC910100D0910100C2
:101E5000C4910100B8910100AC91010068900100AB
:101E60005C90010050900100449001003890010006
:101E70002C900100F48E0100E88E0100DC8E010040
:101E8000D08E0100B11DFF1F705B0100345B0100AB
:101E9000785B0100805B0100905B0100D80DFF1FA3
:101EA000884806F04FFF884B1B683F2BF8DD8748BA
:101EB00008F048F890280346854804D0912B06D1B5
:101EC00006F040FFF3E7834806F03CFFEFE703F03E
:101ED000DF03482B00F01984462B00F0CA84012E42
:101EE00000F013847C4807F0BFF989F8DA6199F8AB
:101EF000CC217A4B012A00F07183794893F8D8619C
:101F000007F0B2F9774807F0AFF9774807F0ACF976
:101F1000764BF6B203EB8603D3F8D43F0993184609
:101F200007F04CFA724807F09FF9724B1B783F2B71
:101F300007DD02E0634806F005FF634B1B683F2B9B
:101F4000F8DD6D4807F0FEFF90280346604804D096
:101F5000912B06D106F0F6FEF3E75E4806F0F2FE9E
:101F6000EFE7312B00F0EA84322B00F00285332BAF
:101F700000F03085342B00F0B684352B00F06186FC
:101F8000362B00F0B385372B00F0AA86392B00F0F2
:101F90000785099807F012FA584806F0D3FE89F829
:101FA000D86199F8D9614E4807F05EF9F6B2544805
:101FB00007F05AF9012E00F0BC84022E00F0F684DE
:101FC000032E00F01685042E00F09685052E00F0F5
:101FD000E885062E00F03086072E0CBF49484A4897
:101FE00007F042F9434B1B783F2B07DD02E03548F1
:101FF00006F0A8FE344B1B683F2BF8DD434807F082
:10200000A1FF90280346324804D0912B06D106F058
:1020100099FEF3E72F4806F095FEEFE7372B00F027
:102020007784382B00F08183394B03EB860353F818
:10203000CC0C07F019F9314806F084FE89F8D96113
:1020400099F8CB0109F07AFD89F8CB0199F8CB31E9
:10205000012CDBB200F0A481022C00F0ED82032CF5
:1020600005D1012B00F0A481022B00F09E8199F88C
:10207000D7411B4807F0F8F8E4B2264807F0F4F817
:10208000012C0CBF2448254807F0EEF8194B1B78AB
:102090003F2B07DD02E00B4806F054FE0A4B1B689D
:1020A0003F2BF8DD1E4807F04DFF902803460848F7
:1020B00004D0912B36D106F045FEF3E7054806F033
:1020C00041FEEFE760880100EC0DFF1FA05B0100FF
:1020D0009C9A0100909A0100B05B0100D807FF1F95
:1020E000345B0100205C01002C5C0100D42901005C
:1020F000289C0100D80DFF1F3C5C01009C8801005A
:10210000D45C0100C85D0100F05D0100185E0100B3
:10211000CC3A01003C5E01004C5E0100605E0100B3
:10212000745E010003F0DF034E2B00F0F982582BA0
:1021300000F0A483012C00F0F382A44807F094F887
:1021400089F8D74199F8CC31A14ADBB2012B40F094
:10215000E58082F8D03199F8D6119E489C4C0AF05F
:1021600059F989F8D60199F8D6319B4899F8DB11CD
:10217000012B9A4B0CBF9A4A9A4A1A609A4B0C321E
:102180001A609A4B0C321A60994B0C321A60994BB8
:102190000C321A60984B0C321A60984B0C321A6051
:1021A000974B0C321A60974B0C321A600AF032F9D6
:1021B00089F8DB0199F8DA319348012B08BF934A7B
:1021C00094F8DB311ABF9249924AA2F5ED61022BD5
:1021D00008BF0A4699F8DC11C8F8242A0AF01AF94F
:1021E00089F8DC0199F8DD118B480AF031F889F89B
:1021F000DD0199F8D41189480AF02AF889F8D40148
:1022000099F8CE41864807F02FF8E4B2854807F0E8
:102210002BF8012C0CBF8448844807F025F8844B28
:102220001B783F2B07DD02E0824806F08BFD824BD6
:102230001B683F2BF8DD814807F084FE9028034699
:102240007F4804D0912B06D106F07CFDF3E77D4852
:1022500006F078FDEFE703F0DF034E2B00F05B8222
:10226000492B00F00983012C00F05582764806F0D6
:10227000FBFF6F4B89F8CE41197874481C465022F9
:10228000A52309F021FE207098F8161A70480A2339
:10229000012209F019FE03466E4888F8163A06F046
:1022A00051FD23789F4207D023786B4ADBB213702D
:1022B000117806200DF0EEFB684809F03FFB00287E
:1022C00040F0E080634806F03DFD99F8CC31404A8B
:1022D0009D4200F0448101239D4289F8CF3189F865
:1022E000D3310AD0D8F80830012B00F0B9849AF81D
:1022F0000D305B4C002B40F0818305F0E1FA99F83A
:10230000CA31029A9A4200F01D8101200AF08CFB2A
:10231000FFF7EBBA07F08AFEFFF7E7BA92F8D04171
:102320003F4806F0A1FFE4B24E4806F09DFF012CA5
:1023300000F04C83022C0CBF4B484C4806F094FF35
:102340003B4B1B783F2B07DD02E03A4806F0FAFCD6
:10235000394B1B683F2BF8DD454807F0F3FD90280B
:102360000346374804D0912B06D106F0EBFCF3E787
:10237000344806F0E7FCEFE703F0DF034E2B00F0F4
:10238000F681522B00F06582012C00F0F081022CC6
:102390000CBF3848384806F067FF89F8D041DAE6C4
:1023A000022B05D0032B7FF462AE344806F0CAFC42
:1023B000324806F0C7FC5AE6D8F8243A304AC8F842
:1023C0000C3A01231370FEF737BF00BF7C5E01009B
:1023D000D807FF1FDC5A0100285F01006CA5002010
:1023E000243A0100903A010068A5002064A500206D
:1023F00060A500205CA5002058A5002054A5002061
:1024000050A500204CA50020385F01006442010067
:10241000CC49010034510100445F01005C5F0100C0
:10242000345B0100705F0100845F0100985F010070
:10243000D80DFF1F60880100EC0DFF1FAC5F01008D
:102440009C9A0100909A0100B45F0100BC5F0100FA
:10245000D05A01009C880100CD0DFF1FF05A0100E9
:10246000E0A70020885E0100B45E0100D05E01009C
:10247000EC5E0100105F01001C5F010018190100F3
:10248000B11DFF1F99F8D51102200DF003FBCB4BB6
:10249000032019780DF0FEFA99F8CA1104200DF006
:1024A000F9FA98F8161A1E200DF0F4FA99F8D611D8
:1024B00022200DF0EFFA99F8CC1114200DF0EAFA71
:1024C00099F8DA1115200DF0E5FA99F8D8111620CF
:1024D0000DF0E0FA99F8CD1117200DF0DBFA99F81C
:1024E000D91118200DF0D6FA99F8CB1123200DF050
:1024F000D1FA99F8D71119200DF0CCFA99F8D0112A
:102500001A200DF0C7FA99F8DB1121200DF0C2FA5C
:1025100099F8DC111B200DF0BDFA99F8DD111C2093
:102520000DF0B8FA99F8D4111F200DF0B3FA99F80C
:10253000CE1120200DF0AEFAA14B1D2019780DF020
:10254000A9FABFE69E4B1B789F427FF4DEAE98F857
:10255000163A079A9A427FF4D8AEFFF7C6B992F8B6
:10256000CD31049999427FF4B6AE92F8D8310599ED
:1025700099427FF4B0AE92F8D931069999427FF42E
:10258000AAAE92F8D031039A9A427FF4A4AEB6E68E
:102590008C4A002313700DF0A1FE01200DF0BCFA4F
:1025A000894A8A4820231360089B1B6813F0FF0F99
:1025B00014BF874B874B4FF080721A60814A01230A
:1025C000137006F051FE7F4B1B78002B3EF4D9AB05
:1025D0004FF47A700AF0B0FCFEF7D3BB93F8CD61EC
:1025E0007D4806F041FEF6B27C4806F03DFE012E25
:1025F00000F07283022E0CBF79487A4806F034FE50
:102600006F4B1B783F2B07DD02E0774806F09AFB03
:10261000764B1B683F2BF8DD754807F093FC90283C
:102620000346744804D0912B52D106F08BFBF3E79C
:10263000714806F087FBEFE7032B3FF4B9AE012B9F
:102640007FF415AD6D4806F07DFBB1E65D4A0023D1
:1026500013700DF043FE01200DF05EFA5A4A20235C
:102660001360089B1B6813F0FF0F14BF584B594BA6
:102670004FF080721A6098F8103A002B40F0728286
:1026800098F8113A002B40F0698298F8123A002B22
:1026900040F051820BF084FB4A4A4C4801231370EE
:1026A00006F0E2FD474B1B78002B3EF4E6AF4FF4FB
:1026B0007A700AF041FCFEF7E0BF98F870000AF06B
:1026C000CFFC01287EF4F9AD0AF09AFCFEF7F5BDC7
:1026D00003F0DF034E2B00F012834F2B00F04682F5
:1026E000452B00F07E83012E00F00983022E00F0BE
:1026F0003D82434806F0B8FD89F8CD61A0E4414829
:1027000006F0B2FD0126FFF7E6BA3F4806F0ACFD41
:102710000126FFF7EABB3D4806F0A6FD0124A8E527
:102720003A4806F0A1FD01240AE5394806F00AFB03
:10273000384807F007FC00F0DF004E2800F0EC817D
:102740004F2800F0FC81344806F0FCFA334807F0CB
:10275000F9FB312800F02A83314806F085FD082670
:102760006CE4002B7DF4F8AF62B6FDF7F5BF2748A7
:1027700006F07AFD012410E62A4806F0E3FAFEF797
:10278000B0BD294806F0DEFAFEF7A6BD274806F0E0
:10279000D9FAFEF79CBD244806F0D4FA98F8123A0C
:1027A000002B3EF463AF224806F0CCFAFEF75EBF82
:1027B0001E4806F0C7FAFEF74FBF00BFCE0DFF1F41
:1027C000D80DFF1FB11DFF1F88F00F40205A0100D8
:1027D00004F10F4008F10F40345B0100B85B0100C9
:1027E000D45B0100E85B010060880100EC0DFF1F75
:1027F000FC5B01009C9A0100909A010018190100ED
:10280000185C0100685B0100A85B0100085C010026
:10281000B48C01002C5E0100F08F0100345E0100D9
:10282000745B0100DC2901005C22010050220100E0
:102830006822010092F8D031032B7EF496AA92F818
:10284000C831009A52F83330012283F88020FEF715
:102850008CBAD64806F008FDD54807F073FB00F0A7
:10286000DF00532800F09780D24806F0FDFC0324D7
:1028700093E50226FFF736BB0224F7E402245CE46A
:102880000226FFF725BA9BF85C189BF85D28C9B2B1
:10289000D3B299422CBF3F3303F1FF33D8F86028FD
:1028A0005B1A9A427EF406AF0423CBF85838FEF741
:1028B00001BF9BF80E20002A3EF4B1ABDBF8502894
:1028C0008BF84C38002A00F0658253888BF85478D6
:1028D0001046138009F0C0FACBF85078002388F82E
:1028E0004C38FEF79CBBB44806F0BEFC0C26FFF744
:1028F00056BB92F8D031032B7EF475AC92F8C831F8
:10290000009A52F83330012283F88020FEF76BBC26
:10291000AA4806F017FAAA4807F014FB00F0DF00F7
:102920004F2800F0D381A74806F09EFC0226FFF74F
:1029300085BBA54806F098FCFFF754BBA34806F0FA
:1029400001FAA34807F0FEFA312800F01582322878
:1029500000F0FA81332800F00982352800F0008267
:10296000382800F02F829B4806F07EFC0E26FFF7E9
:1029700016BB994806F0E6F9984807F0E3FA3028C4
:1029800000F0D681332800F0CD81954806F06CFC2C
:102990000B26FFF704BB934806F066FC0224FCE418
:1029A000914806F061FC0D26FFF7F9BA8F4806F052
:1029B0005BFCFFF717BB98F8040A0AF051FB0128EB
:1029C0007EF4E8A90AF01CFBFEF7E4B9884806F09B
:1029D0004BFCB5E4874806F0B5F9874807F0B2FA32
:1029E000302800F09181854806F03EFC0F26FFF765
:1029F000D6BA834806F038FCFFF7F4BA04F1340085
:102A00000CF09CFC04F13C000CF098FC94F82C3089
:102A10003F2B00F24781009A02EBC303596801F192
:102A20004043A3F592227C2A00F2F481754A72B6E3
:102A30000B6823F0877323F48033C1F3840043F0E1
:102A400080730B60704B42F8203062B69AF82D30DC
:102A50003F2B0BD8009901EBC30251F83310536898
:102A600000204FF4807281F880021A609AF82C30AE
:102A70003F2B0BD8009901EBC30251F83310536878
:102A800000204FF4807281F880021A609AF82F308B
:102A90003F2B0BD8009901EBC30251F83310536858
:102AA00000204FF4807281F880021A609AF82E306C
:102AB0003F2B0BD8009901EBC30251F83310536838
:102AC00000204FF4807281F880021A600023CAF857
:102AD00044308AF8D8308AF8D9308AF83230C8F8C9
:102AE0002C3AC8F8303A8AF80D3006E4474806F028
:102AF000BBFB0826FFF753BA454806F0B5FBFFF7C6
:102B000071BA98F870000AF0ABFA01287EF427A990
:102B10000AF076FAFEF723B93E4806F013F93E486C
:102B200007F010FA312800F015813C4806F09CFBB4
:102B30000626FFF783BA3A4806F004F9AAE53948B1
:102B400006F000F9344807F0FDF9312800F0F6806E
:102B5000324806F089FB0726FFF770BA324806F0C4
:102B6000F1F892E5314806F0EDF889E5304806F0D5
:102B70007BFB0226C0E598F8040A0AF071FA0128E6
:102B80007EF465AB0AF03CFAFEF761BB98F8700082
:102B90000AF066FA01287EF420AB0AF031FAFEF75B
:102BA0001CBB244806F060FBFFF71CBAF45E010072
:102BB000F85E0100085F0100A05C01000C920100BA
:102BC0001C5E0100285E0100D85C010054920100E7
:102BD000485C0100745C0100489201007C5C0100CB
:102BE0008C5C0100005F0100CC5C0100005D010015
:102BF000985E01003C920100945C0100985C010029
:102C0000285D01001409FF1F55F40000B45C0100A9
:102C1000505D0100908F0100345E0100745B010083
:102C2000DC290100848F01005C2201005022010098
:102C3000105C0100785D0100B74806F015FBFFF756
:102C4000D1B9B64806F07EF8B54807F07BF93028D0
:102C500000F0EF80B34806F007FB1026FFF79FB99E
:102C6000B14B1B6859057FF548AB9BF8283A2BB14F
:102C70000DF0F2FF98F8283A002BF9D1AB4CAC4A92
:102C80004FF000402060AB48002340F20311D370A6
:102C9000016041601179D27988F80C3088F80D30E4
:102CA000FFF72BBB00214FF04043A3F596227C2A6F
:102CB00040F28280A3F598227C2A40F2B880A3F5E6
:102CC0009A237C2B3FF6C2AE9B4AB0E69B4806F0A7
:102CD000CBFA0126FFF7B2B9994806F0C5FA8FE49E
:102CE000984806F02FF8984807F02CF9352800F09E
:102CF0009880964806F0B8FA1126FFF750B9944824
:102D000006F0B2FA0126F7E4924806F0ADFA07267B
:102D1000FFF745B91B68904B01931A4604231370C3
:102D2000FDF780BC8D4806F09FFA1326FFF737B9F0
:102D3000884806F099FA0626FFF731B9884806F068
:102D400093FA0426FFF77AB9864806F08DFA092629
:102D5000FFF725B9824806F087FA0326FFF76EB918
:102D6000814806F081FA0526FFF719B97F4806F079
:102D70007BFA0426FFF713B97D4805F0E3FF7D4891
:102D800007F0E0F8302832D07B4806F06DFA1226C2
:102D9000FFF705B9029303920CF03CFB029B90B342
:102DA000039A8BF8542809F057F897E56C4806F019
:102DB0005BFA0526FFF742B9704A38E6704B00937C
:102DC000FDF70DBC6F4806F04FFA0A26FFF7E7B88B
:102DD0000CF020FB38B18BF8545809F03DF8FEF7A1
:102DE00078B9032685E48BF85448FEF772B9664833
:102DF00006F03AFA0326FFF7D2B84FF47A700AF0D9
:102E00009BF8FDF7A5BC8BF8543867E50AF0C8FFBE
:102E1000FDF785BCA3F594227C2A3FF646AF5B4ABA
:102E200005E65B4806F020FA0226FFF7B8B8594AD3
:102E3000FDE5554806F018FA0126FFF7B0B85649E7
:102E400017200BF0E3FE022253491C200BF0DEFE9C
:102E50000222514909200BF0D9FE02224E490F20CF
:102E60000BF0D4FE02224C4927200BF0CFFE0222A9
:102E700049490A200BF0CAFE022247490B200BF0F9
:102E8000C5FE022244490C200BF0C0FE022242493A
:102E900023200BF0BBFE02223F4903200BF0B6FEBD
:102EA000204602223C490BF0B1FE02223A491A2088
:102EB0000BF0ACFE022238491B200BF0A7FE0222C9
:102EC000354916200BF0A2FEFDF7FABB334ADFF8B6
:102ED0006890C8F80440154613212B6008922520FD
:102EE0001222262389F8B41189F8B52189F8BB117B
:102EF00089F8BC2189F8C80189F8C931FDF7E9BA18
:102F00000AF0ACFEFDF70BBC254805F01BFF24487A
:102F100005F018FFFDF7F5BBA05D0100249201004C
:102F2000A85C0100AC5C01003480044080E100E05A
:102F300000A0064040A00440D807FF1F245E010007
:102F4000C05B01000C920100BC5C0100C45C01008C
:102F5000085C0100805C010070A50020845C010019
:102F6000385E01005C5C0100685C0100645C01008B
:102F700054920100505C0100545C01008408FF1F62
:102F8000A0A101006C5C0100885C0100B408FF1F77
:102F9000C05C01004408FF1FB5DA0000D00DFF1F20
:102FA000181901002DE9F04F5D4A5E48DFF8B8813D
:102FB00001239BB0137005F0C5FE5B4C5B4D14F80C
:102FC000012B02F07F0305EBC3033AB15B6818469F
:102FD000002BF4D005F0B6FE0028F0D1544B1B783E
:102FE000442B09DD534C2368442B05DC524805F083
:102FF000A9FE2368442BF9DDDFF844914F4B1B6891
:1030000003B34F4B4F4A1B68D45C4D4B4C4A1B6873
:103010000133632B13604FF0FF30C8BF0023E4B2CD
:10302000C8BFC9F800300DF00BFB214646480EF032
:10303000EDFB00283DD1454805F084FE3F4B1B6861
:10304000002BDED172B6424E424B1B683468D8F872
:10305000002062B6550102D5322B88BF0134C3F57A
:10306000EA333D4D3B4FBF334FF47A72A5FB031358
:1030700002FB04F404EB931472B639683268D8F892
:1030800000E062B6C1F5EA33BF33A5FB03031EF0CF
:10309000806FC4EB93134FF47A7002D0322988BF4B
:1030A000013200FB0233B3F57A7FA7D20DF0D4FDD5
:1030B000E2E7902C05D0912C07D1284805F042FE7C
:1030C0009CE7274805F03EFE98E704F0DF04422C19
:1030D0004CD0432C02F027834B2C02F0DF804D2C88
:1030E00002F01A81502C02F0C480532C00F014819D
:1030F0001C4C0E4D14F8012B02F07F0305EBC303AB
:103100003AB15B681846002BF4D005F01BFE00288E
:10311000F0D1044805F016FE1BB0BDE8F08F00BFEB
:10312000B11DFF1F9C8801000C620100A8880100EE
:10313000D80DFF1FEC0DFF1F6088010008AC0020B8
:1031400074A7002078A7002048620100389301008E
:10315000F8AB002018E000E0898888889C9A01007C
:10316000909A01009462010004ED00E0594C5A4D20
:1031700014F8012B02F07F0305EBC3033AB15B683F
:103180001846002BF4D005F0DDFD0028F0D1534A9D
:10319000534D17785348C8231370022395F80090B5
:1031A0002B7005F0CFFD504B1B78002B43F0238391
:1031B0004E4E4F480123337005F0C4FD14244D4892
:1031C00005F0C0FD013CFAD1474B34701B78002B51
:1031D00043F01783414B48491B78009316AC0023FA
:1031E0000DAA08460494039202931A46019306F02E
:1031F00079FB3A4B04463B481F7085F8009005F078
:10320000A1FD169A45F2EF539A4202F313803B4C0C
:10321000314D14F8012B02F07F0305EBC3033AB1E3
:103220005B681846002BF4D005F08CFD0028F0D127
:103230002C4805F087FD2C4B1B78002B01F0DE831A
:103240002F4B07932F4F304B304E08933B6843B9B9
:10325000079B1B68152B04D8089B1B68152B43F292
:103260007D8272B6DFF8AC903368D9F80020D8F8C8
:10327000001062B6490102D5322B88BF0132C3F576
:10328000EA33234D4FF47A74BF33A5FB031304FBD9
:1032900002F202EB931472B63168D9F80020D8F824
:1032A00000E062B6C1F5EA33BF33A5FB03031EF0AD
:1032B000806FC4EB93134FF47A7002D0322988BF29
:1032C000013200FB0233B3F57A7FBFD20DF0C4FCAC
:1032D000E1E700BF5C620100A8880100D80DFF1F74
:1032E000B409FF1F9C880100B11DFF1FB01DFF1F07
:1032F0006C9301002C930100789201009C62010004
:10330000A4A90020FCAB0020A8A9002018E000E040
:1033100089888888F8AB0020D14CD24D14F8012B55
:1033200002F07F0305EBC3033AB15B681846002B3C
:10333000F4D005F007FD0028F0D1CB4B1B78002B13
:1033400041F02E87C94C00234FF0FF310122636109
:10335000A361E3612162636284F828206369B3F5A5
:103360007A7F08DA4FF4C8721346013BFDD16369D6
:10337000B3F57A7FF8DB002384F828300DF0E2F80B
:10338000BB48BC4DB74E05F0DDFC15F8012B02F033
:103390007F0306EBC3033AB15B681846002BF4D0F9
:1033A00005F0D0FC0028F0D1266AB34886EAE67121
:1033B000A1EBE67180FB013ECB17C3EBAE0E0EEB2B
:1033C0008E0716AA4FF00009A1EB47074FF02035F2
:1033D0003037CE4516951795069295608DF8627038
:1033E0008DF8639043F31A8280FB0E2C4FEAEE7740
:1033F000C7EBAC0707EB870CA04FAEEB4C0E87FB7F
:1034000001270EF1300ED3EB67178DF861E003F062
:103410000B8280FB072C4FEAE77ECEEBAC0E984D7B
:103420000EEB8E0CA7EB4C0785FB012E3037D3EB50
:10343000AE1E8DF8607003F0F48180FB0E2C4FEA15
:10344000EE77C7EBAC0707EB870C8E4FAEEB4C0E5D
:1034500087FB01270EF1300ED3EB27378DF85FE0A5
:1034600003F0EE8180FB072C4FEAE77ECEEBAC0E3B
:10347000854D0EEB8E0CA7EB4C0785FB012E3037EC
:10348000D3EB6E3E8DF85E7003F0D78180FB0E2C7F
:103490004FEAEE77C7EBAC0707EB870C7B4FAEEB41
:1034A0004C0E87FB01270EF1300ED3EBA7478DF8AA
:1034B0005DE003F0BF8180FB072C4FEAE77ECEEB97
:1034C000AC0E734D0EEB8E0CA7EB4C0785FB012E5B
:1034D0003037D3EBAE5E8DF85C7003F0A88180FBD3
:1034E0000E2C4FEAEE77C7EBAC0707EB870C694F62
:1034F000AEEB4C0E87FB01270EF1300ED3EB676766
:103500008DF85BE003F0A88180FB072C4FEAE77E93
:10351000CEEBAC0E604D0EEB8E0EA7EB4E0785FB8F
:1035200001213037D3EB21738DF85A7003F091816C
:1035300080FB0320D917C1EBA00000EB8000A3EBB8
:10354000400330334A468DF85930002EC1F22186AF
:10355000444E0DF15E0717F8012F02F07F0306EBD2
:10356000C3033AB15B681846002BF4D005F0EAFBC0
:103570000028F0D13E4805F0E5FB3B4B1B78002BC3
:1035800041F0BD85454F374E17F8012B02F07F0300
:1035900006EBC3033AB15B681846002BF4D005F084
:1035A000D1FB0028F0D1E66933486369B6FBF3F636
:1035B00086EAE671A1EBE67180FB013ECB17C3EB17
:1035C000AE0E0EEB8E07069A4FF00009A1EB4707EF
:1035D0004FF020353037CE451560556095608DF839
:1035E00062708DF8639043F3438180FB0E2C4FEAA9
:1035F000EE77C7EBAC0707EB870C204FAEEB4C0E1A
:1036000087FB01270EF1300ED3EB67178DF861E0D1
:1036100003F02B8180FB072C4FEAE77ECEEBAC0E4C
:10362000174D0EEB8E0CA7EB4C0785FB012E3037A8
:10363000D3EBAE1E8DF8607003F0148180FB0E2C6E
:103640004FEAEE77C7EBAC0707EB870C0D4FAEEBFD
:103650004C0E87FB01270EF1300ED3EB27371FE00E
:103660008C620100A8880100B11DFF1F301DFF1FE3
:103670009C88010030670100676666661F85EB5114
:10368000D34D6210AD8BDB6889B5F81483DE1B4324
:103690006BCA5F6B893BE655A12FB8444C670100AC
:1036A0008DF85FE003F0DB8080FB072C4FEAE77EBC
:1036B000CEEBAC0ECF4D0EEB8E0CA7EB4C0785FB83
:1036C000012E3037D3EB6E3E8DF85E7003F0F08044
:1036D00080FB0E2C4FEAEE77C7EBAC0707EB870CAD
:1036E000C54FAEEB4C0E87FB01270EF1300ED3EB2E
:1036F000A7478DF85DE003F0D88080FB072C4FEAE8
:10370000E77ECEEBAC0EBD4D0EEB8E0CA7EB4C075F
:1037100085FB012E3037D3EBAE5E8DF85C7003F085
:10372000C18080FB0E2C4FEAEE77C7EBAC0707EBAE
:10373000870CB34FAEEB4C0E87FB01270EF1300E1A
:10374000D3EB67678DF85BE003F0A98080FB072C63
:103750004FEAE77ECEEBAC0EAA4D0EEB8E0EA7EB3A
:103760004E0785FB01213037D3EB21738DF85A705A
:1037700003F0888080FB0320D917C1EBA00000EB89
:103780008000A3EB400330334A468DF85930002EB9
:10379000C1F2AE849C4E0DF15E0717F8012F02F0C6
:1037A0007F0306EBC3033AB15B681846002BF4D0E5
:1037B00005F0C8FA0028F0D1944805F0C3FA944BFC
:1037C0001B78002B41F04A84924F8F4E17F8012B43
:1037D00002F07F0306EBC3033AB15B681846002B87
:1037E000F4D005F0AFFA0028F0D1666A8A48069A4C
:1037F00086EAE671A1EBE67180FB013ECB17C3EBD5
:10380000AE0E0EEB8E074FF00009A1EB47074FF00D
:1038100020353037CE451560556095608DF8627063
:103820008DF8639043F3388080FB0E2C4FEAEE77DF
:10383000C7EBAC0707EB870C784FAEEB4C0E87FB62
:1038400001270EF1300ED3EB67178DF861E003F01E
:103850006E8080FB072C4FEAE77ECEEBAC0E704DFE
:103860000EEB8E0CA7EB4C0785FB012E3037D3EB0C
:10387000AE1E8DF8607003F0578080FB0E2C4FEA6F
:10388000EE77C7EBAC0707EB870C664FAEEB4C0E41
:1038900087FB01270EF1300ED3EB27378DF85FE061
:1038A00003F03F8080FB072C4FEAE77ECEEBAC0EA7
:1038B000504D0EEB8E0CA7EB4C0785FB012E3037DD
:1038C000D3EB6E3E8DF85E7003F0288080FB0E2CEB
:1038D0004FEAEE77C7EBAC0707EB870C464FAEEB32
:1038E0004C0E87FB01270EF1300ED3EBA7478DF866
:1038F0005DE003F0108080FB072C4FEAE77ECEEB03
:10390000AC0E3E4D0EEB8E0CA7EB4C0785FB012E4B
:103910003037D3EBAE5E8DF85C7002F0F98780FB38
:103920000E2C4FEAEE77C7EBAC0707EB870C344F52
:10393000AEEB4C0E87FB01270EF1300ED3EB676721
:103940008DF85BE002F0E18780FB072C4FEAE77E11
:10395000CEEBAC0E2B4D0EEB8E0EA7EB4E0785FB80
:1039600001213037D3EB21738DF85A7002F0CA87EA
:1039700080FB0320D917C1EBA00000EB8000A3EB74
:10398000400330334A468DF85930002EC1F253833C
:103990001D4E0DF15E0717F8012F02F07F0306EBB5
:1039A000C3033AB15B681846002BF4D005F0CAF99E
:1039B0000028F0D1154805F0C5F9154B1B78002BF0
:1039C00041F0EF8200274FF0FF33E7622363676324
:1039D000A763E363144B27641B78002B00F04A8134
:1039E000124DDFF84CA0DFF84C9007974FF47A7631
:1039F00022E000BF89B5F81483DE1B436BCA5F6BFE
:103A0000893BE655A12FB844A88801009C88010095
:103A1000B11DFF1F68670100676666661F85EB5171
:103A2000D34D6210AD8BDB68D80DFF1FF8AB0020C3
:103A300018E000E08988888800234FF0FF310122D8
:103A40006361A361E3612162636284F8282072B636
:103A5000DAF800302A68D8F8001062B64F0102D5B3
:103A6000322B88BF0132C3F5EA33BF33A9FB0313FE
:103A700006FB02F202EB931B642772B6DAF8001021
:103A80002A68D8F8000062B6C1F5EA33BF33A9FB53
:103A900003E34001CBEB931302D5322988BF0132F7
:103AA00006FB0233B3F57A7F04D3013F05D00BF553
:103AB0007A7BE2E70DF0D0F8DFE7012384F84430A9
:103AC00072B6DAF800302A68D8F8001062B64F01F2
:103AD00002D5322B88BF0132C3F5EA33BF33A9FBCD
:103AE000031306FB02F202EB931B642772B6DAF8AB
:103AF00000102A68D8F8000062B6C1F5EA33BF3377
:103B0000A9FB03E34001CBEB931302D5322988BF15
:103B1000013206FB0233B3F57A7F04D3013F05D0AF
:103B20000BF57A7BE2E70DF097F8DFE7616AE36A6D
:103B3000414A0B44E362216B636A994234BF136BC1
:103B4000536A2363616B626A3B4B91422CBF5B6B90
:103B50005B6A63630023636284F8443072B6DAF808
:103B600000302A68D8F8001062B64F0102D5322B17
:103B700088BF0132C3F5EA33BF33A9FB031306FB49
:103B800002F202EB931B642772B6DAF800102A687F
:103B9000D8F8000062B6C1F5EA33BF33A9FB03E3EE
:103BA0004001CBEB931302D5322988BF013206FBCB
:103BB0000233B3F57A7F04D3013F05D00BF57A7B4E
:103BC000E2E70DF049F8DFE784F8287072B6DAF81A
:103BD00000302A68D8F8001062B64F0102D5322BA7
:103BE00088BF0132C3F5EA33BF33A9FB031306FBD9
:103BF00002F202EB931B642772B6DAF800102A680F
:103C0000D8F8000062B6C1F5EA33BF33A9FB03E37D
:103C10004001CBEB931302D5322988BF013206FB5A
:103C20000233B3F57A7F04D3013F07D00BF57A7BDB
:103C3000E2E70DF011F8DFE7301DFF1F616AA36BAB
:103C4000DB4A0B44A363E16B636A994234BFD36BD5
:103C5000536AE363216C626AD54B91422CBF1B6CA3
:103C60005B6A2364D34B079A1B7801329342079215
:103C70003FF7E2AED048D14FD14E05F063F817F8C8
:103C8000012B02F07F0306EBC3033AB15B681846D1
:103C9000002BF4D005F056F80028F0D1266BC94867
:103CA000069D86EAE671A1EBE67180FB013ECB172B
:103CB000C3EBAE0E0EEB8E070022A1EB47074FF0D1
:103CC000203C30379645C5F800C0C5F804C0C5F89B
:103CD00008C08DF862708DF8632042F3B78580FBD1
:103CE0000E5C4FEAEE77C7EBAC0707EB870CB64FDD
:103CF000AEEB4C0E87FB01570EF1300ED3EB67177E
:103D00008DF861E002F09F8580FB075C4FEAE77E5B
:103D1000CEEBAC0E0EEB8E0CDFF8C4E2A7EB4C073B
:103D20008EFB015E3037D3EBAE1E8DF8607002F073
:103D3000598580FB0E5C4FEAEE77C7EBAC0707EBCB
:103D4000870CA24FAEEB4C0E87FB01570EF1300EE5
:103D5000D3EB27378DF85FE002F0418580FB075CED
:103D60004FEAE77ECEEBAC0E0EEB8E0CDFF874E282
:103D7000A7EB4C078EFB015E3037D3EB6E3E8DF820
:103D80005E7002F0298580FB0E5C4FEAEE77C7EB90
:103D9000AC0707EB870C8E4FAEEB4C0E87FB015741
:103DA0000EF1300ED3EBA7478DF85DE002F01185E0
:103DB00080FB075C4FEAE77ECEEBAC0E0EEB8E0C81
:103DC000DFF824E2A7EB4C078EFB015E3037D3EB24
:103DD000AE5E8DF85C7002F0BA8580FB0E5C4FEA37
:103DE000EE77C7EBAC0707EB870C7A4FAEEB4C0EC8
:103DF00087FB01570EF1300ED3EB67678DF85BE060
:103E000002F0A28580FB075C4FEAE77ECEEBAC0EAA
:103E1000DFF8D8C10EEB8E0EA7EB4E078CFB0151DD
:103E20003037D3EB21738DF85A7002F08A8580FB0E
:103E30000310D917C1EBA00000EB8000A3EB4003F7
:103E400030338DF85930002EC1F2A4805C4E0DF154
:103E50005D0717F8012F02F07F0306EBC3033AB1A9
:103E60005B681846002BF4D004F06CFF0028F0D1FA
:103E7000514804F067FF584B1B78002B41F03E80FF
:103E8000564F4F4E17F8012B02F07F0306EBC3038A
:103E90003AB15B681846002BF4D004F053FF0028B9
:103EA000F0D1444BE66A47481B78B6FBF3F686EA46
:103EB000E671A1EBE67180FB013ECB17C3EBAE0EC2
:103EC0000EEB8E07069D0022A1EB47074FF0203C2A
:103ED00030379645C5F800C0C5F804C0C5F808C01D
:103EE0008DF862708DF8632042F33B8580FB0E5C99
:103EF0004FEAEE77C7EBAC0707EB870C324FAEEB20
:103F00004C0E87FB01570EF1300ED3EB67178DF87F
:103F100061E002F02C8580FB075C4FEAE77ECEEB88
:103F2000AC0E0EEB8E0CDFF8B8E0A7EB4C078EFB67
:103F3000015E3037D3EBAE1E8DF8607002F0148551
:103F400080FB0E5C4FEAEE77C7EBAC0707EB870C04
:103F50001E4FAEEB4C0E87FB01570EF1300ED3EB2C
:103F600027378DF85FE002F01A8580FB075C4FEA87
:103F7000E77ECEEBAC0E0EEB8E0CDFF868E0A7EB25
:103F80004C078EFB015E3037D3EB6E3E8DF85E70D2
:103F900002F0028580FB0E5C4FEAEE77C7EBAC07C0
:103FA00007EB870C0A4FAEEB4C0E87FB01571FE067
:103FB000301DFF1FD80DFF1F9C8801008467010082
:103FC000A8880100676666661F85EB51AD8BDB68CC
:103FD00083DE1B43893BE655B11DFF1FA46701002B
:103FE000D34D621089B5F8146BCA5F6BA12FB8442A
:103FF0000EF1300ED3EBA7478DF85DE002F0C984D7
:1040000080FB075C4FEAE77ECEEBAC0E0EEB8E0C2E
:10401000DFF8D0E3A7EB4C078EFB015E3037D3EB24
:10402000AE5E8DF85C7002F0B18480FB0E5C4FEAEE
:10403000EE77C7EBAC0707EB870CE04FAEEB4C0E0F
:1040400087FB01570EF1300ED3EB67678DF85BE00D
:1040500002F0998480FB075C4FEAE77ECEEBAC0E62
:10406000DFF884C30EEB8E0EA7EB4E078CFB0151DD
:104070003037D3EB21738DF85A7002F0818480FBC6
:104080000310D917C1EBA00000EB8000A3EB4003A5
:1040900030338DF85930002EC0F22987C84E0DF10B
:1040A0005D0717F8012F02F07F0306EBC3033AB157
:1040B0005B681846002BF4D004F044FE0028F0D1D1
:1040C000C04804F03FFEC04B1B78002B40F0C38675
:1040D000BE4FBB4E17F8012B02F07F0306EBC30364
:1040E0003AB15B681846002BF4D004F02BFE002890
:1040F000F0D1666BB648069D86EAE671A1EBE671E3
:1041000080FB013ECB17C3EBAE0E0EEB8E070022F9
:10411000A1EB47074FF0203C30379645C5F800C06B
:10412000C5F804C0C5F808C08DF862708DF863202A
:1041300042F3118380FB0E5C4FEAEE77C7EBAC07CE
:1041400007EB870CA34FAEEB4C0E87FB01570EF12C
:10415000300ED3EB67178DF861E002F0F98280FB37
:10416000075C4FEAE77ECEEBAC0E0EEB8E0CDFF871
:104170007CE2A7EB4C078EFB015E3037D3EBAE1E23
:104180008DF8607002F0E18280FB0E5C4FEAEE7702
:10419000C7EBAC0707EB870C8F4FAEEB4C0E87FBE2
:1041A00001570EF1300ED3EB27378DF85FE002F0A8
:1041B000C98280FB075C4FEAE77ECEEBAC0E0EEBCC
:1041C0008E0CDFF82CE2A7EB4C078EFB015E30373C
:1041D000D3EB6E3E8DF85E7002F0B18280FB0E5C18
:1041E0004FEAEE77C7EBAC0707EB870C7B4FAEEBE4
:1041F0004C0E87FB01570EF1300ED3EBA7478DF81D
:104200005DE002F0998280FB075C4FEAE77ECEEB2F
:10421000AC0E0EEB8E0CDFF8CCE1A7EB4C078EFB5F
:10422000015E3037D3EBAE5E8DF85C7002F08182B8
:1042300080FB0E5C4FEAEE77C7EBAC0707EB870C11
:104240005E4FAEEB4C0E87FB01570EF1300ED3EBF9
:1042500067678DF85BE002F0698280FB075C4FEADC
:10426000E77ECEEBAC0EDFF880C10EEB8E0EA7EB37
:104270004E078CFB01513037D3EB21738DF85A7008
:1042800002F03B8280FB0310D917C1EBA00000EBCA
:104290008000A3EB400330338DF85930002EC0F27C
:1042A000D385474E0DF15D0717F8012F02F07F030C
:1042B00006EBC3033AB15B681846002BF4D004F058
:1042C00041FD0028F0D13F4804F03CFD3D4804F09A
:1042D00039FD3D4B1B78002B40F06A85404F384E2E
:1042E00017F8012B02F07F0306EBC3033AB15B68BA
:1042F0001846002BF4D004F025FD0028F0D1E66B21
:104300003348069D86EAE671A1EBE67180FB013E2B
:10431000CB17C3EBAE0E0EEB8E070022A1EB4707C7
:104320004FF0203C30379645C5F800C0C5F804C0B2
:10433000C5F808C08DF862708DF8632042F3E781FC
:1043400080FB0E5C4FEAEE77C7EBAC0707EB870C00
:10435000204FAEEB4C0E87FB01570EF1300ED3EB26
:1043600067178DF861E002F0DE8180FB075C4FEAA1
:10437000E77ECEEBAC0E0EEB8E0CDFF870E0A7EB19
:104380004C078EFB015E3037D3EBAE1E8DF86070AC
:1043900002F0C68180FB0E5C4FEAEE77C7EBAC07FC
:1043A00007EB870C0C4FAEEB4C0E87FB01570EF161
:1043B000300ED3EB27378DF85FE01BE0893BE655E5
:1043C000A88801009C880100B11DFF1FC46701007F
:1043D000676666661F85EB51AD8BDB6883DE1B432A
:1043E000E46701006BCA5F6BA12FB844D34D621024
:1043F00089B5F81402F0918180FB075C4FEAE77EF3
:10440000CEEBAC0E0EEB8E0CDFF8D0E3A7EB4C0737
:104410008EFB015E3037D3EB6E3E8DF85E7002F09E
:10442000798180FB0E5C4FEAEE77C7EBAC0707EBB8
:10443000870CDF4FAEEB4C0E87FB01570EF1300EB1
:10444000D3EBA7478DF85DE002F0A48180FB075C09
:104450004FEAE77ECEEBAC0E0EEB8E0CDFF880E37E
:10446000A7EB4C078EFB015E3037D3EBAE5E8DF8C9
:104470005C7002F08C8180FB0E5C4FEAEE77C7EB3C
:10448000AC0707EB870CCB4FAEEB4C0E87FB01570D
:104490000EF1300ED3EB67678DF85BE002F07481AC
:1044A00080FB075C4FEAE77ECEEBAC0EDFF834C34F
:1044B0000EEB8E0EA7EB4E078CFB01513037D3EB82
:1044C00021738DF85A7002F05C8180FB0310D917BC
:1044D000C1EBA00000EB8000A3EB400330338DF86C
:1044E0005930002EC0F25084B34E0DF15D0717F81D
:1044F000012F02F07F0306EBC3033AB15B68184655
:10450000002BF4D004F01EFC0028F0D1AB4804F0DE
:1045100019FCAB4B1B78002B40F0EA83A94FA64E49
:1045200017F8012B02F07F0306EBC3033AB15B6877
:104530001846002BF4D004F005FC0028F0D1A24B63
:10454000A66BA2481B78B6FBF3F686EAE671A1EBF0
:10455000E67180FB013ECB17C3EBAE0E0EEB8E0770
:10456000069D0022A1EB47074FF0203C30379645CF
:10457000C5F800C0C5F804C0C5F808C08DF8627061
:104580008DF8632042F3F98180FB0E5C4FEAEE77F1
:10459000C7EBAC0707EB870C8D4FAEEB4C0E87FBE0
:1045A00001570EF1300ED3EB67178DF861E002F082
:1045B000E18180FB075C4FEAE77ECEEBAC0E0EEBB1
:1045C0008E0CDFF824E2A7EB4C078EFB015E303740
:1045D000D3EBAE1E8DF8607002F0F88080FB0E5CAD
:1045E0004FEAEE77C7EBAC0707EB870C794FAEEBE2
:1045F0004C0E87FB01570EF1300ED3EB27378DF8A9
:104600005FE002F0E08080FB075C4FEAE77ECEEBE4
:10461000AC0E0EEB8E0CDFF8C4E1A7EB4C078EFB63
:10462000015E3037D3EB6E3E8DF85E7002F0C880CD
:1046300080FB0E5C4FEAEE77C7EBAC0707EB870C0D
:104640005B4FAEEB4C0E87FB01570EF1300ED3EBF8
:10465000A7478DF85DE002F0B08080FB075C4FEA71
:10466000E77ECEEBAC0E0EEB8E0CDFF874E1A7EB21
:104670004C078EFB015E3037D3EBAE5E8DF85C707D
:1046800002F0988080FB0E5C4FEAEE77C7EBAC0738
:1046900007EB870C474FAEEB4C0E87FB01570EF133
:1046A000300ED3EB67678DF85BE002F0808080FB13
:1046B000075C4FEAE77ECEEBAC0EDFF828C10EEBCD
:1046C0008E0EA7EB4E078CFB01513037D3EB2173D5
:1046D0008DF85A7002F0688080FB0310D917C1EB87
:1046E000A00000EB8000A3EB400330338DF859307D
:1046F000002EC0F2F782304E0DF15D0717F8012F42
:1047000002F07F0306EBC3033AB15B681846002B47
:10471000F4D004F017FB0028F0D1284804F012FB75
:10472000274B1B78002B40F091822B4F224E17F81D
:10473000012B02F07F0306EBC3033AB15B68184616
:10474000002BF4D004F0FEFA0028F0D1266C1F48AC
:10475000069D86EAE671A1EBE67180FB0137CB1777
:10476000C3EBA70707EB870E0022A1EB4E0E4FF01D
:10477000203C0EF1300E9742C5F800C0C5F804C0C9
:10478000C5F808C08DF862E08DF8632042F39A8086
:1047900080FB075EFD17C5EBAE0505EB850E0C4DE6
:1047A000A7EB4E0785FB01E53037D3EB65151DE020
:1047B00083DE1B43893BE655A88801009C880100E5
:1047C000B11DFF1F08680100D80DFF1F67666666F0
:1047D0001F85EB51AD8BDB682C68010089B5F8149F
:1047E0006BCA5F6BA12FB844D34D62108DF8617016
:1047F00002F06E8080FB057EEF17C7EBAE0707EB7C
:10480000870EAF4FA5EB4E0587FB01E73035D3EBA5
:10481000A7178DF8605002F0588080FB075EFD17E7
:10482000C5EBAE0505EB850EA64DA7EB4E0785FB48
:1048300001E53037D3EB25358DF85F7002F05F80EE
:1048400080FB057EEF17C7EBAE0707EB870E9E4F89
:10485000A5EB4E0587FB01E73035D3EB67378DF8C5
:104860005E5002F0498080FB075EFD17C5EBAE0588
:1048700005EB850E954DA7EB4E0785FB01E530371F
:10488000D3EBA5458DF85D7002F0288080FB057E96
:10489000EF17C7EBAE0707EB870E8D4FA5EB4E0565
:1048A00087FB01E73035D3EBA7578DF85C5002F05A
:1048B000128080FB075EFD17C5EBAE0505EB850E8C
:1048C000844DA7EB4E0785FB01E53037D3EB6565DB
:1048D0008DF85B7001F0528780FB057EEF17C7EB08
:1048E000AE07DFF824E207EB8707A5EB47058EFB51
:1048F00001713035D3EB21738DF85A5001F03B87AD
:1049000080FB0310D917C1EBA00000EB8000A3EBE4
:10491000400330338DF85930002EC0F291816E4E35
:104920000DF15D0515F8012F02F07F0306EBC303BF
:104930003AB15B681846002BF4D004F003FA002863
:10494000F0D1664804F0FEF9644804F0FBF9644BCA
:104950001B78002B40F02881002301254FF0FF3207
:104960006361A361E3612262636284F828500BF003
:10497000E9FD5C4B1B78EB4003EB4303A36484F835
:104980004C50A36C002B07DD4FF4C8721346013B5B
:10499000FDD1A36C002BF9DC514B1B78002B40F0B0
:1049A000B780636A2365002384F8283084F84C308C
:1049B0000BF0C8FD494804F0C5F9484804F0C2F9B5
:1049C000226D494B9A421ED9484D434E15F8012B92
:1049D00002F07F0306EBC3033AB15B681846002B75
:1049E000F4D004F0AFF90028F0D1206D04F0E6FC1B
:1049F0003A4804F0A7F93A4B1B78BBB9374804F0A2
:104A0000A1F9FEF7DABA3A4C334D14F8012B02F053
:104A10007F0305EBC303002AEAD05B681846002B2E
:104A2000F3D004F08FF90028EFD1E1E7314B324F9A
:104A30000793DFF8D890314B0893BA46DAF8003084
:104A400043B9079B1B68152B04D8089B1B68152BC3
:104A500041F2848672B62A4DD9F800302A68D8F817
:104A6000001062B6490102D5322B88BF0132C3F56E
:104A7000EA33244E4FF47A74BF33A6FB031304FBCE
:104A800002F202EB931472B6D9F800102A68D8F833
:104A9000007062B6C1F5EA33BF33A6FB03037F01A2
:104AA000C4EB93134FF47A7002D5322988BF0132D8
:104AB00000FB0233B3F57A7FC0D20CF0CDF8E2E709
:104AC000D34D6210AD8BDB6889B5F81483DE1B43D0
:104AD0006BCA5F6B893BE655A88801009C88010082
:104AE000B11DFF1FD80DFF1F9F86010050680100F8
:104AF00064680100A4A90020FCAB0020A8A9002044
:104B0000F8AB002089888888A12FB84418E000E01D
:104B1000A14B0793A14FA24BDFF88C920893A346B9
:104B20003B6843B9079B1B68152B04D8089B1B687F
:104B3000152B41F2198672B6DFF870A2D9F8003051
:104B4000DAF80020D8F8001062B6480102D5322BFE
:104B500088BF0132C3F5EA33924E4FF47A75BF3302
:104B6000A6FB031305FB02F202EB931572B6D9F80C
:104B70000010DAF80020D8F8004062B6C1F5EA3338
:104B8000BF33A6FB03036401C5EB93134FF47A70A4
:104B900002D5322988BF013200FB0233B3F57A7F98
:104BA000BED20CF059F8E1E77B4B07937B4F7C4B6F
:104BB000DFF8F4910893A3463B6843B9079B1B6851
:104BC000152B04D8089B1B68152B41F2748672B60E
:104BD000DFF8D8A1D9F80030DAF80020D8F80010B2
:104BE00062B64C0102D5322B88BF0132C3F5EA33DD
:104BF0006C4E4FF47A75BF33A6FB031305FB02F22C
:104C000002EB931572B6D9F80010DAF80020D8F844
:104C1000004062B6C1F5EA33BF33A6FB030364016B
:104C2000C5EB93134FF47A7002D5322988BF013255
:104C300000FB0233B3F57A7FBED20CF00DF8E1E74A
:104C40001AAB1A442D2302F8103C68E6524B079326
:104C5000524F534BDFF850A10893A3463B6843B92A
:104C6000079B1B68152B04D8089B1B68152B41F26A
:104C7000948572B6DFF83491DAF80030D9F8002064
:104C8000D8F8001062B64D0102D5322B88BF013230
:104C9000C3F5EA33434E4FF47A75BF33A6FB0313D3
:104CA00005FB02F202EB931572B6DAF80010D9F8A0
:104CB0000020D8F8004062B6C1F5EA33BF33A6FB46
:104CC00003036401C5EB93134FF47A7002D53229C4
:104CD00088BF013200FB0233B3F57A7FBED20BF0FE
:104CE000BBFFE1E71AAB1A442D2302F8103C02E5A2
:104CF000294B0793294F2A4BDFF8ACA00893A34612
:104D00003B6843B9079B1B68152B04D8089B1B689D
:104D1000152B41F2F58472B6DFF89090DAF8003086
:104D2000D9F80020D8F8001062B64E0102D5322B17
:104D300088BF0132C3F5EA331A4E4FF47A75BF3398
:104D4000A6FB031305FB02F202EB931572B6DAF829
:104D50000010D9F80020D8F8004062B6C1F5EA3357
:104D6000BF33A6FB03036401C5EB93134FF47A70C2
:104D700002D5322988BF013200FB0233B3F57A7FB6
:104D8000BED20BF069FFE1E71AAB1A442D2302F8FB
:104D9000103CFFF7A9BB00BFA4A90020FCAB00207A
:104DA000A8A900208988888818E000E0F8AB0020D6
:104DB000A44B0793A44FA54BDFF898A20893A346F2
:104DC0003B6843B9079B1B68152B04D8089B1B68DD
:104DD000152B41F28B8472B6DFF87C92DAF8003042
:104DE000D9F80020D8F8001062B6490102D5322B5C
:104DF00088BF0132C3F5EA33954E4FF47A75BF335D
:104E0000A6FB031305FB02F202EB931572B6DAF868
:104E10000010D9F80020D8F8004062B6C1F5EA3396
:104E2000BF33A6FB03036401C5EB93134FF47A7001
:104E300002D5322988BF013200FB0233B3F57A7FF5
:104E4000BED20BF009FFE1E71AAB1A442D2302F89A
:104E5000103CFFF726BA7B4B07937B4F7B4BDFF869
:104E6000F4A10893A3463B6843B9079B1B68152B25
:104E700004D8089B1B68152B41F26C8572B6DFF8CD
:104E8000D891DAF80030D9F80020D8F8001062B6CE
:104E9000480102D5322B88BF0132C3F5EA336C4E8C
:104EA0004FF47A75BF33A6FB031305FB02F202EB46
:104EB000931572B6DAF80010D9F80020D8F800403F
:104EC00062B6C1F5EA33BF33A6FB03036401C5EB49
:104ED00093134FF47A7002D5322988BF013200FB58
:104EE0000233B3F57A7FBED20BF0B6FEE1E71AAB20
:104EF0001A442D2302F8103CFFF7D0B8514B07930A
:104F0000514F524BDFF84CA10893A3463B6843B97D
:104F1000079B1B68152B04D8089B1B68152B41F2B7
:104F2000098572B6DFF83091DAF80030D9F8002040
:104F3000D8F8001062B64C0102D5322B88BF01327E
:104F4000C3F5EA33424E4FF47A75BF33A6FB031321
:104F500005FB02F202EB931572B6DAF80010D9F8ED
:104F60000020D8F8004062B6C1F5EA33BF33A6FB93
:104F700003036401C5EB93134FF47A7002D5322911
:104F800088BF013200FB0233B3F57A7FBED20BF04B
:104F900063FEE1E71AAB1A442D2302F8103CFEF73A
:104FA00055BF284B0793284F284B2A4D0893A346FB
:104FB0003B6843B9079B1B68152B04D8089B1B68EB
:104FC000152B41F2628472B6DFF88CA02B68DAF8F8
:104FD0000020D8F8001062B64E0102D5322B88BFEF
:104FE00001321B49C3F5EA334FF47A76BF33A1FB94
:104FF000030306FB02F2894602EB931672B6296898
:10500000DAF80020D8F8004062B6C1F5EA33BF33C1
:10501000A9FB03036401C6EB93134FF47A7002D526
:10502000322988BF013200FB0233B3F57A7FBFD249
:105030000BF012FEE2E71AAB1A442D2302F8103CE3
:10504000FEF7A6BCA4A90020FCAB0020A8A9002064
:105050008988888818E000E0F8AB0020A24B07930D
:10506000A24FA34BA34D0893A3463B6843B9079BAC
:105070001B68152B04D8089B1B68152B41F2FB837A
:1050800072B6DFF890A22B68DAF80020D8F800108A
:1050900062B6490102D5322B88BF01329649C3F569
:1050A000EA334FF47A76BF33A1FB030306FB02F227
:1050B000894602EB931672B62968DAF80020D8F810
:1050C000004062B6C1F5EA33BF33A9FB03036401B4
:1050D000C6EB93134FF47A7002D5322988BF0132A0
:1050E00000FB0233B3F57A7FBFD20BF0B5FDE2E7E8
:1050F0001AAB1A442D2302F8103CFEF74BBB7A4B37
:1051000007937A4F7A4B7B4D0893A3463B6843B98C
:10511000079B1B68152B04D8089B1B68152B41F2B5
:10512000768372B6DFF8ECA12B68DAF80020D8F8A5
:10513000001062B6480102D5322B88BF01326E4999
:10514000C3F5EA334FF47A76BF33A1FB030306FBC2
:1051500002F2894602EB931672B62968DAF800204B
:10516000D8F8004062B6C1F5EA33BF33A9FB0303A8
:105170006401C6EB93134FF47A7002D5322988BFCD
:10518000013200FB0233B3F57A7FBFD20BF064FD2E
:10519000E2E71AAB1A442D2302F8103CFEF7D8B907
:1051A000514B524F0793534E514B0893BA46DAF87E
:1051B000003043B9079B1B68152B04D8089B1B685C
:1051C000152B41F2128372B6DFF848913368D9F893
:1051D0000020D8F8001062B64C0102D5322B88BFEF
:1051E0000132C3F5EA33444D4FF47A74BF33A5FB63
:1051F000031304FB02F202EB931472B63168D9F880
:105200000020D8F8007062B6C1F5EA33BF33A5FBC1
:1052100003037F01C4EB93134FF47A7002D5322954
:1052200088BF013200FB0233B3F57A7FBFD20BF0A7
:1052300013FDE2E7314D324E15F8012B02F07F03EA
:1052400006EBC3033AB15B681846002BF4D003F0B9
:1052500079FD0028F0D10D982A4A169B610800FBC1
:105260000313B3FBF4F31360106804F0A7F8FDF721
:10527000DFBF254C224D14F8012B02F07F0305EB14
:10528000C3033AB15B681846002BF4D003F05AFD13
:105290000028F0D10BF01CFAFDF78FBE1B4C184D07
:1052A00014F8012B02F07F0305EBC3033AB15B68EE
:1052B0001846002BF4D003F045FD0028F0D1144C23
:1052C0000F4D14F8012B02F07F0305EBC303002AF6
:1052D0003DF473AE5B681846002BF2D003F032FD4C
:1052E0000028EED1FDF769BEA4A90020FCAB002088
:1052F000A8A9002018E000E089888888BC62010025
:10530000A8880100D40DFF1F846201006C620100B7
:105310008C680100F8AB0020C44CC54D14F8012B7B
:1053200002F07F0305EBC3033AB15B681846002B1C
:10533000F4D003F007FD0028F0D1BE48BE4CBC4DB0
:1053400003F000FD14F8012B02F07F0305EBC3030B
:105350003AB15B681846002BF4D003F0F3FC002848
:10536000F0D1B44803F0EEFCB44B1B78002B41F0B5
:10537000B781B34DB34B2A681592AE48DDF854900F
:105380000A931C46AA4E03F0DDFC14F8012B02F030
:105390007F0306EBC3033AB15B681846002BF4D0D9
:1053A00003F0D0FC0028F0D1A24803F0CBFCA34BC3
:1053B0001A78002A41F04E812A68A04B1492149961
:1053C0001A78C9EB0109002A41F03E819E4B9F4C9F
:1053D000974E0B934FEA59021F461444B4FBF9F45D
:1053E00017F8012B02F07F0306EBC3033AB15B68A9
:1053F0001846002BF4D003F0A5FC0028F0D1944807
:10540000944E84EAE471A1EBE47180FB0123CA1796
:10541000C2EBA30380FB037EDF17C7EBAE0707EBEE
:10542000870703EB830EA3EB470716AB4FF0203A39
:10543000303786FB01C6A1EB4E0E0EF1300ECDF8D3
:1054400058A0CDF85CA04FF0000CC3F808A0D2EB38
:1054500066168DF862704FF02E0706938DF864E0A3
:105460008DF865C08DF8637001F0EA8080FB063E20
:10547000F717C7EBAE0707EB8707774BA6EB470697
:1054800006F1300783FB0136D2EBA6168DF861706A
:1054900001F0D28080FB063EF717C7EBAE0707EBA3
:1054A00087076E4BA6EB470606F1300783FB0136F4
:1054B000D2EB26368DF8607001F0BA8080FB063E94
:1054C000F717C7EBAE0707EB8707654BA6EB470659
:1054D00006F1300783FB0136D2EB66368DF85F703C
:1054E00001F0A28080FB063EF717C7EBAE0707EB83
:1054F00087075C4BA6EB470606F1300783FB0136B6
:10550000D2EBA6468DF85E7001F08A8080FB063EE5
:10551000F717C7EBAE0707EB8707534BA6EB47061A
:1055200006F1300783FB0136D2EBA6568DF85D708D
:1055300001F0728080FB063EF717C7EBAE0707EB62
:1055400087074A4BA6EB470606F1300783FB013677
:10555000D2EB66668DF85C7001F05A80F71780FB1D
:105560000630C7EBA000424F00EB8000A6EB4000E6
:1055700087FB01313030D2EB21728DF85B0001F0F6
:10558000438030328DF85A2001210222002CC1F2D2
:105590003380069B264E1A44541E14F8012F02F045
:1055A0007F0306EBC3033AB15B681846002BF4D0C7
:1055B00003F0C8FB0028F0D1DFF8B8B01C4E5C4601
:1055C00014F8012B02F07F0306EBC3033AB15B68CA
:1055D0001846002BF4D003F0B5FB0028F0D140F2C0
:1055E000D73003F0EBFE234C114E14F8012B02F0E0
:1055F0007F0306EBC3033AB15B681846002BF4D077
:1056000003F0A0FB0028F0D1484603F0D7FE09487C
:1056100003F098FB094B1A78002A40F08787074B64
:105620001A78002A40F07C8726E000BF78620100EB
:10563000A88801009C880100A8680100B11DFF1F17
:10564000F8AB0020CC6201008066010070FE95007E
:10565000676666661F85EB51D34D6210AD8BDB68C4
:1056600089B5F81483DE1B436BCA5F6B893BE65533
:10567000A12FB844886601002A681392139B3D4805
:10568000099303F05FFB3C4B3C4C1A78002A00F076
:105690008A800023DFF8F0905F461E460BE0C86862
:1056A000226003F04FFB344B1B78013603EB83037E
:1056B000B6EB430F76DA23683149DFF8E0E0DFF834
:1056C000E0C0304A304883FB01AB81FB031A9B44A6
:1056D000D9179A44C1EB2B4BC1EB2A4A0EFB1B3B5B
:1056E0000CFB0AFA44F2A71E0EFB0BAE002BD7D020
:1056F0000EF10042254B013AA3FB02139B095E21E8
:105700000846BEF1000F01FB132109EB8101C6DB46
:105710001E4BA3FB0E139B0900FB13E309EB830352
:105720007246D868BCE71A4C1A4D14F8012B02F0E7
:105730007F0305EBC3033AB15B681846002BF4D036
:1057400003F000FB0028F0D1134C124D14F8012B8C
:1057500002F07F0305EBC303002A3DF42EAC5B6827
:105760001846002BF2D003F0EDFA0028EED1FDF739
:1057700024BC00BF9C880100D80DFF1F301DFF1FF7
:105780005F0B4E8342CE0C1FE85F01005D414CAEC3
:1057900064620100A88801008C6801001DF301000B
:1057A000ECF4FFFFBB46C84803F0CCFAC74B1A78AD
:1057B000002A40F0D9862A68C44B1292129E1A78A9
:1057C000099BF61A002A40F0B786C14BC14893F8EE
:1057D00000E0C14FDFF818A3720802F59C422032A6
:1057E0000EFB00000244B2FBF6F917F8012B02F0A1
:1057F0007F030AEBC3033AB15B681846002BF4D071
:1058000003F0A0FA0028F0D1B44BDFF8F0A289EA47
:10581000E971A1EBE97183FB0127CA17C2EBA70766
:1058200083FB070CF817C0EBAC0000EB8000A7EB84
:10583000400000F1300E8AFB010A069807EB870C46
:105840004FF020370760476087608781A1EB4C0CE1
:105850002E200CF1300C00278DF86300D2EB6A107B
:105860008DF862E08DF864C08DF8657000F05486A4
:1058700083FB007CC717C7EBAC07DFF884C207EBDC
:105880008707A0EB47078CFB01E03037D2EBA01075
:105890008DF8617000F03C8683FB007CC717C7EB76
:1058A000AC07DFF860C207EB8707A0EB47078CFB6C
:1058B00001E03037D2EB20308DF8607000F02486A4
:1058C00083FB007CC717C7EBAC07DFF83CC207EBD4
:1058D0008707A0EB47078CFB01E03037D2EB603045
:1058E0008DF85F7000F00C8683FB007CC717C7EB58
:1058F000AC07DFF818C207EB8707A0EB47078CFB64
:1059000001E03037D2EBA0408DF85E7000F0F485F6
:1059100083FB007CC717C7EBAC07DFF8F4C107EBCC
:105920008707A0EB47008CFB01E73030D2EBA7578D
:105930008DF85D0000F0DC8583FB070CF817C0EBE9
:10594000AC0C67480CEB8C0CA7EB4C0780FB01E020
:105950003037D2EB60608DF85C7000F0C58583FB5A
:10596000003EC717C7EBAE0E5E4F0EEB8E0EA0EBE0
:105970004E0087FB01313030D2EB21728DF85B0095
:1059800000F0AE8530328DF85A2001210222B9F1A3
:10599000000FC0F29D85069BDFF854911A44571EF4
:1059A00017F8012F02F07F0309EBC3033AB15B68DC
:1059B0001846002BF4D003F0C5F90028F0D14A4F67
:1059C000DFF82C9117F8012B02F07F0309EBC303DA
:1059D0003AB15B681846002BF4D003F0B3F9002805
:1059E000F0D13B4B404F1A78DFF80491013202EBC3
:1059F00082025000023003F0E1FC17F8012B02F0A4
:105A00007F0309EBC3033AB15B681846002BF4D05F
:105A100003F098F90028F0D1304603F0CFFC2A4873
:105A200003F090F9284803F08DF9284B1A78002AE2
:105A300040F048852D4E2E4F16F8012B02F07F03C3
:105A400007EBC3033AB15B681846002BF4D003F0B0
:105A500079F90028F0D11C4803F074F9254B012294
:105A600022711A70194B1A78002A40F02585224BB2
:105A700015481F4E00221A60A2602A681192119ADE
:105A8000E26003F05FF90A9F17F8012B02F07F0331
:105A900006EBC3033AB15B681846002BF4D003F061
:105AA00051F90028F0D1084803F04CF9074B1A7857
:105AB000002A40F0B9842A68044B1092109EE168D5
:105AC0001A78761A26E000BF9C880100B11DFF1FDE
:105AD000D80DFF1FA086010080660100676666661C
